{"abi":[{"inputs":[],"stateMutability":"nonpayable","type":"constructor"},{"inputs":[],"name":"appointmentCount","outputs":[{"internalType":"uint256","name":"","type":"uint256"}],"stateMutability":"view","type":"function"},{"inputs":[{"internalType":"uint256","name":"","type":"uint256"}],"name":"appointmentList","outputs":[{"internalType":"address","name":"","type":"address"}],"stateMutability":"view","type":"function"},{"inputs":[],"name":"doctorCount","outputs":[{"internalType":"uint256","name":"","type":"uint256"}],"stateMutability":"view","type":"function"},{"inputs":[{"internalType":"uint256","name":"","type":"uint256"}],"name":"doctorList","outputs":[{"internalType":"address","name":"","type":"address"}],"stateMutability":"view","type":"function"},{"inputs":[{"internalType":"string","name":"_ic","type":"string"},{"internalType":"string","name":"_name","type":"string"},{"internalType":"string","name":"_phone","type":"string"},{"internalType":"string","name":"_gender","type":"string"},{"internalType":"string","name":"_dob","type":"string"},{"internalType":"string","name":"_height","type":"string"},{"internalType":"string","name":"_weight","type":"string"},{"internalType":"string","name":"_houseaddr","type":"string"},{"internalType":"string","name":"_bloodgroup","type":"string"},{"internalType":"string","name":"_allergies","type":"string"},{"internalType":"string","name":"_medication","type":"string"},{"internalType":"string","name":"_emergencyName","type":"string"},{"internalType":"string","name":"_emergencyContact","type":"string"}],"name":"editDetails","outputs":[],"stateMutability":"nonpayable","type":"function"},{"inputs":[{"internalType":"string","name":"_ic","type":"string"},{"internalType":"string","name":"_name","type":"string"},{"internalType":"string","name":"_phone","type":"string"},{"internalType":"string","name":"_gender","type":"string"},{"internalType":"string","name":"_dob","type":"string"},{"internalType":"string","name":"_qualification","type":"string"},{"internalType":"string","name":"_major","type":"string"}],"name":"editDoctor","outputs":[],"stateMutability":"nonpayable","type":"function"},{"inputs":[],"name":"getAppointmentCount","outputs":[{"internalType":"uint256","name":"","type":"uint256"}],"stateMutability":"view","type":"function"},{"inputs":[{"internalType":"address","name":"_address","type":"address"}],"name":"getAppointmentPerPatient","outputs":[{"internalType":"uint256","name":"","type":"uint256"}],"stateMutability":"view","type":"function"},{"inputs":[],"name":"getAppointments","outputs":[{"internalType":"address[]","name":"","type":"address[]"}],"stateMutability":"view","type":"function"},{"inputs":[],"name":"getDoctorCount","outputs":[{"internalType":"uint256","name":"","type":"uint256"}],"stateMutability":"view","type":"function"},{"inputs":[],"name":"getDoctors","outputs":[{"internalType":"address[]","name":"","type":"address[]"}],"stateMutability":"view","type":"function"},{"inputs":[],"name":"getPatientCount","outputs":[{"internalType":"uint256","name":"","type":"uint256"}],"stateMutability":"view","type":"function"},{"inputs":[],"name":"getPatients","outputs":[{"internalType":"address[]","name":"","type":"address[]"}],"stateMutability":"view","type":"function"},{"inputs":[],"name":"getPermissionGrantedCount","outputs":[{"internalType":"uint256","name":"","type":"uint256"}],"stateMutability":"view","type":"function"},{"inputs":[{"internalType":"address","name":"_address","type":"address"}],"name":"givePermission","outputs":[{"internalType":"bool","name":"success","type":"bool"}],"stateMutability":"nonpayable","type":"function"},{"inputs":[],"name":"owner","outputs":[{"internalType":"address","name":"","type":"address"}],"stateMutability":"view","type":"function"},{"inputs":[],"name":"patientCount","outputs":[{"internalType":"uint256","name":"","type":"uint256"}],"stateMutability":"view","type":"function"},{"inputs":[{"internalType":"uint256","name":"","type":"uint256"}],"name":"patientList","outputs":[{"internalType":"address","name":"","type":"address"}],"stateMutability":"view","type":"function"},{"inputs":[{"internalType":"address","name":"","type":"address"}],"name":"patients","outputs":[{"internalType":"string","name":"ic","type":"string"},{"internalType":"string","name":"name","type":"string"},{"internalType":"string","name":"phone","type":"string"},{"internalType":"string","name":"gender","type":"string"},{"internalType":"string","name":"dob","type":"string"},{"internalType":"string","name":"height","type":"string"},{"internalType":"string","name":"weight","type":"string"},{"internalType":"string","name":"houseaddr","type":"string"},{"internalType":"string","name":"bloodgroup","type":"string"},{"internalType":"string","name":"allergies","type":"string"},{"internalType":"string","name":"medication","type":"string"},{"internalType":"string","name":"emergencyName","type":"string"},{"internalType":"string","name":"emergencyContact","type":"string"},{"internalType":"address","name":"addr","type":"address"},{"internalType":"uint256","name":"date","type":"uint256"}],"stateMutability":"view","type":"function"},{"inputs":[],"name":"permissionGrantedCount","outputs":[{"internalType":"uint256","name":"","type":"uint256"}],"stateMutability":"view","type":"function"},{"inputs":[{"internalType":"address","name":"_address","type":"address"}],"name":"revokePermission","outputs":[{"internalType":"bool","name":"success","type":"bool"}],"stateMutability":"nonpayable","type":"function"},{"inputs":[{"internalType":"address","name":"_address","type":"address"}],"name":"searchAppointment","outputs":[{"internalType":"address","name":"","type":"address"},{"internalType":"string","name":"","type":"string"},{"internalType":"string","name":"","type":"string"},{"internalType":"string","name":"","type":"string"},{"internalType":"string","name":"","type":"string"},{"internalType":"string","name":"","type":"string"},{"internalType":"string","name":"","type":"string"},{"internalType":"string","name":"","type":"string"}],"stateMutability":"view","type":"function"},{"inputs":[{"internalType":"address","name":"_address","type":"address"}],"name":"searchAppointmentDate","outputs":[{"internalType":"uint256","name":"","type":"uint256"}],"stateMutability":"view","type":"function"},{"inputs":[{"internalType":"address","name":"_address","type":"address"}],"name":"searchDoctor","outputs":[{"internalType":"string","name":"","type":"string"},{"internalType":"string","name":"","type":"string"},{"internalType":"string","name":"","type":"string"},{"internalType":"string","name":"","type":"string"},{"internalType":"string","name":"","type":"string"},{"internalType":"string","name":"","type":"string"},{"internalType":"string","name":"","type":"string"}],"stateMutability":"view","type":"function"},{"inputs":[{"internalType":"address","name":"_address","type":"address"}],"name":"searchDoctorDate","outputs":[{"internalType":"uint256","name":"","type":"uint256"}],"stateMutability":"view","type":"function"},{"inputs":[{"internalType":"address","name":"_address","type":"address"}],"name":"searchPatientDemographic","outputs":[{"internalType":"string","name":"","type":"string"},{"internalType":"string","name":"","type":"string"},{"internalType":"string","name":"","type":"string"},{"internalType":"string","name":"","type":"string"},{"internalType":"string","name":"","type":"string"},{"internalType":"string","name":"","type":"string"},{"internalType":"string","name":"","type":"string"}],"stateMutability":"view","type":"function"},{"inputs":[{"internalType":"address","name":"_address","type":"address"}],"name":"searchPatientMedical","outputs":[{"internalType":"string","name":"","type":"string"},{"internalType":"string","name":"","type":"string"},{"internalType":"string","name":"","type":"string"},{"internalType":"string","name":"","type":"string"},{"internalType":"string","name":"","type":"string"},{"internalType":"string","name":"","type":"string"}],"stateMutability":"view","type":"function"},{"inputs":[{"internalType":"address","name":"_address","type":"address"}],"name":"searchRecordDate","outputs":[{"internalType":"uint256","name":"","type":"uint256"}],"stateMutability":"view","type":"function"},{"inputs":[{"internalType":"address","name":"_addr","type":"address"},{"components":[{"internalType":"string","name":"date","type":"string"},{"internalType":"string","name":"time","type":"string"},{"internalType":"string","name":"prescription","type":"string"},{"internalType":"string","name":"description","type":"string"},{"internalType":"string","name":"diagnosis","type":"string"},{"internalType":"string","name":"status","type":"string"}],"internalType":"struct Record.AppointmentDetails","name":"details","type":"tuple"}],"name":"setAppointment","outputs":[],"stateMutability":"nonpayable","type":"function"},{"inputs":[{"internalType":"string","name":"_ic","type":"string"},{"internalType":"string","name":"_name","type":"string"},{"internalType":"string","name":"_phone","type":"string"},{"internalType":"string","name":"_gender","type":"string"},{"internalType":"string","name":"_dob","type":"string"},{"internalType":"string","name":"_height","type":"string"},{"internalType":"string","name":"_weight","type":"string"},{"internalType":"string","name":"_houseaddr","type":"string"},{"internalType":"string","name":"_bloodgroup","type":"string"},{"internalType":"string","name":"_allergies","type":"string"},{"internalType":"string","name":"_medication","type":"string"},{"internalType":"string","name":"_emergencyName","type":"string"},{"internalType":"string","name":"_emergencyContact","type":"string"}],"name":"setDetails","outputs":[],"stateMutability":"nonpayable","type":"function"},{"inputs":[{"internalType":"string","name":"_ic","type":"string"},{"internalType":"string","name":"_name","type":"string"},{"internalType":"string","name":"_phone","type":"string"},{"internalType":"string","name":"_gender","type":"string"},{"internalType":"string","name":"_dob","type":"string"},{"internalType":"string","name":"_qualification","type":"string"},{"internalType":"string","name":"_major","type":"string"}],"name":"setDoctor","outputs":[],"stateMutability":"nonpayable","type":"function"},{"inputs":[{"internalType":"address","name":"_addr","type":"address"},{"components":[{"internalType":"string","name":"date","type":"string"},{"internalType":"string","name":"time","type":"string"},{"internalType":"string","name":"prescription","type":"string"},{"internalType":"string","name":"description","type":"string"},{"internalType":"string","name":"diagnosis","type":"string"},{"internalType":"string","name":"status","type":"string"}],"internalType":"struct Record.AppointmentDetails","name":"details","type":"tuple"}],"name":"updateAppointment","outputs":[],"stateMutability":"nonpayable","type":"function"}],"evm":{"bytecode":{"linkReferences":{},"object":"608080604052346034575f600b555f600c555f600d555f600e553360018060a01b03195f5416175f556154a190816100398239f35b5f80fdfe60806040526004361015610011575f80fd5b5f3560e01c80621feeeb146145ca5780630869cfbc146143ea578063127ca4b41461438657806312ad1c371461430957806324c24b2b14610a6757806329e4afbb146101785780632a825ba01461412b5780633622b7f6146132f05780633bc98280146131685780633d391f701461310d5780634c14b38d1461303e578063625961fc14612f6b57806378522bc414612f4e57806379111c1c14612f4e5780638b945c6d146126f35780638da5cb5b146126cc57806392041982146124a357806396b80d081461242657806399a363c614611472578063a0303c4114610a4a578063a3bf5b9a14611428578063a5aca8bc14610cb0578063b13d5d9414610c27578063babb1d4114610bc3578063bd6f972b14610a84578063c0cb24ba14610a67578063c190665b14610a4a578063c3dfb22f1461035b578063caee6c8514610249578063e6fce0d2146101d1578063e93a15b9146101995763eebc3fb214610178575f80fd5b34610195575f366003190112610195576020600d54604051908152f35b5f80fd5b34610195576020366003190112610195576001600160a01b036101ba614d5b565b165f52600a602052602060405f2054604051908152f35b3461019557602036600319011261019557600435600354811015610195576003548110156102355760035f527fc2575a0e9e593c00f959f8c92f12db2869c3395a3b0502d05e2516446f71f85b01546040516001600160a01b039091168152602090f35b634e487b7160e01b5f52603260045260245ffd5b34610195576020366003190112610195576001600160a01b0361026a614d5b565b16805f52600960205261028360ff60405f20541661541f565b5f52600560205260405f206040519061029b82614d8d565b6102a481614f9d565b82526103576102b560018301614f9d565b91602084019283526102c960028201614f9d565b93604081019485526102dd60038301614f9d565b90606081019182526102f160048401614f9d565b6080820190815261030460058501614f9d565b9160a08101928352600861031a60068701614f9d565b60c0830181905260078701546001600160a01b031660e084015295015461010082015251955196519251905191516040519788979194918861525f565b0390f35b346101955761036936614e1f565b90335f52600960205260ff60405f205416156109f95760018060a01b03165f52600660205260405f208151916002820183516001600160401b038111610668576103b38254614f65565b601f81116109b4575b50602094601f8211600114610953579481929394955f92610948575b50508160011b915f199060031b1c19161790555b6020810151916003810183516001600160401b038111610668576104108254614f65565b601f8111610903575b50602094601f82116001146108a2579481929394955f92610897575b50508160011b915f199060031b1c19161790555b6080820151916006820183516001600160401b0381116106685761046d8254614f65565b601f8111610852575b50602094601f82116001146107f1579481929394955f926107e6575b50508160011b915f199060031b1c19161790555b6040810151916004810183516001600160401b038111610668576104ca8254614f65565b601f81116107a1575b50602094601f8211600114610740579481929394955f92610735575b50508160011b915f199060031b1c19161790555b6060820151916005820183516001600160401b038111610668576105278254614f65565b601f81116106f0575b506020601f821160011461068757908060a0949392600796975f9261067c575b50508160011b915f199060031b1c19161790555b0151910181516001600160401b038111610668576105828254614f65565b601f8111610623575b50602092601f82116001146105c757928192935f926105bc575b50505f19600383901b1c191660019190911b179055005b0151905083806105a5565b601f19821693835f52805f20915f5b86811061060b57508360019596106105f3575b505050811b019055005b01515f1960f88460031b161c191690558380806105e9565b919260206001819286850151815501940192016105d6565b825f5260205f20601f830160051c8101916020841061065e575b601f0160051c01905b818110610653575061058b565b5f8155600101610646565b909150819061063d565b634e487b7160e01b5f52604160045260245ffd5b015190508780610550565b601f19821695835f52815f20965f5b8181106106d8575096600192849260a09796956007999a106106c0575b505050811b019055610564565b01515f1960f88460031b161c191690558780806106b3565b83830151895560019098019760209384019301610696565b825f5260205f20601f830160051c8101916020841061072b575b601f0160051c01905b8181106107205750610530565b5f8155600101610713565b909150819061070a565b0151905085806104ef565b601f19821695835f52805f20915f5b88811061078957508360019596979810610771575b505050811b019055610503565b01515f1960f88460031b161c19169055858080610764565b9192602060018192868501518155019401920161074f565b825f5260205f20601f830160051c810191602084106107dc575b601f0160051c01905b8181106107d157506104d3565b5f81556001016107c4565b90915081906107bb565b015190508580610492565b601f19821695835f52805f20915f5b88811061083a57508360019596979810610822575b505050811b0190556104a6565b01515f1960f88460031b161c19169055858080610815565b91926020600181928685015181550194019201610800565b825f5260205f20601f830160051c8101916020841061088d575b601f0160051c01905b8181106108825750610476565b5f8155600101610875565b909150819061086c565b015190508580610435565b601f19821695835f52805f20915f5b8881106108eb575083600195969798106108d3575b505050811b019055610449565b01515f1960f88460031b161c191690558580806108c6565b919260206001819286850151815501940192016108b1565b825f5260205f20601f830160051c8101916020841061093e575b601f0160051c01905b8181106109335750610419565b5f8155600101610926565b909150819061091d565b0151905085806103d8565b601f19821695835f52805f20915f5b88811061099c57508360019596979810610984575b505050811b0190556103ec565b01515f1960f88460031b161c19169055858080610977565b91926020600181928685015181550194019201610962565b825f5260205f20601f830160051c810191602084106109ef575b601f0160051c01905b8181106109e457506103bc565b5f81556001016109d7565b90915081906109ce565b60405162461bcd60e51b8152602060048201526024808201527f4f6e6c7920646f63746f72732063616e20757064617465206170706f696e746d604482015263656e747360e01b6064820152608490fd5b34610195575f366003190112610195576020600b54604051908152f35b34610195575f366003190112610195576020600e54604051908152f35b34610195576020366003190112610195576001600160a01b03610aa5614d5b565b165f52600460205260206101c060405f20600e60405191610ac583614d71565b610ace81614f9d565b8352610adc60018201614f9d565b85840152610aec60028201614f9d565b6040840152610afd60038201614f9d565b6060840152610b0e60048201614f9d565b6080840152610b1f60058201614f9d565b60a0840152610b3060068201614f9d565b60c0840152610b4160078201614f9d565b60e0840152610b5260088201614f9d565b610100840152610b6460098201614f9d565b610120840152610b76600a8201614f9d565b610140840152610b88600b8201614f9d565b610160840152610b9a600c8201614f9d565b610180840152600d8101546001600160a01b03166101a084015201549101819052604051908152f35b3461019557602036600319011261019557600435600154811015610195576001548110156102355760015f527fb10e2d527612073b26eecdfd717e6a320cf44b4afac2b0732d9fcbe2b7fa0cf601546040516001600160a01b039091168152602090f35b34610195575f3660031901126101955760405180602060025491828152019060025f527f405787fa12a823e0f2b7631cc41b3ba8828b3321ca811111fa75cd3aa3bb5ace905f5b818110610c915761035785610c8581870382614da9565b60405191829182615076565b82546001600160a01b0316845260209093019260019283019201610c6e565b3461019557610cbe366152dd565b9495939095929192335f526009602052610cde60ff60405f20541661541f565b335f52600560205260405f20948051906001600160401b038211610668578190610d088854614f65565b601f81116113d8575b50602090601f8311600114611375575f9261136a575b50508160011b915f199060031b1c19161785555b805160018601916001600160401b038211610668578190610d5c8454614f65565b601f811161131a575b50602090601f83116001146112b7575f926112ac575b50508160011b915f199060031b1c19161790555b805160028501916001600160401b038211610668578190610db08454614f65565b601f811161125c575b50602090601f83116001146111f9575f926111ee575b50508160011b915f199060031b1c19161790555b805160038401916001600160401b038211610668578190610e048454614f65565b601f811161119e575b50602090601f831160011461113b575f92611130575b50508160011b915f199060031b1c19161790555b805160048301916001600160401b038211610668578190610e588454614f65565b601f81116110e0575b50602090601f831160011461107d575f92611072575b50508160011b915f199060031b1c19161790555b6005810183516001600160401b03811161066857610ea98254614f65565b601f811161102d575b506020601f8211600114610fc8578190600695965f92610fbd575b50508160011b915f199060031b1c19161790555b0181516001600160401b03811161066857610efc8254614f65565b601f8111610f78575b50602092601f8211600114610f3557928192935f926105bc5750505f19600383901b1c191660019190911b179055005b601f19821693835f52805f20915f5b868110610f6057508360019596106105f357505050811b019055005b91926020600181928685015181550194019201610f44565b825f5260205f20601f830160051c81019160208410610fb3575b601f0160051c01905b818110610fa85750610f05565b5f8155600101610f9b565b9091508190610f92565b015190508680610ecd565b601f19821695835f52815f20965f5b8181106110155750916006969791846001959410610ffd575b505050811b019055610ee1565b01515f1960f88460031b161c19169055868080610ff0565b83830151895560019098019760209384019301610fd7565b825f5260205f20601f830160051c81019160208410611068575b601f0160051c01905b81811061105d5750610eb2565b5f8155600101611050565b9091508190611047565b015190508680610e77565b5f8581528281209350601f198516905b8181106110c857509084600195949392106110b0575b505050811b019055610e8b565b01515f1960f88460031b161c191690558680806110a3565b9293602060018192878601518155019501930161108d565b909150835f5260205f20601f840160051c81019160208510611126575b90601f859493920160051c01905b8181106111185750610e61565b5f815584935060010161110b565b90915081906110fd565b015190508780610e23565b5f8581528281209350601f198516905b818110611186575090846001959493921061116e575b505050811b019055610e37565b01515f1960f88460031b161c19169055878080611161565b9293602060018192878601518155019501930161114b565b909150835f5260205f20601f840160051c810191602085106111e4575b90601f859493920160051c01905b8181106111d65750610e0d565b5f81558493506001016111c9565b90915081906111bb565b015190508880610dcf565b5f8581528281209350601f198516905b818110611244575090846001959493921061122c575b505050811b019055610de3565b01515f1960f88460031b161c1916905588808061121f565b92936020600181928786015181550195019301611209565b909150835f5260205f20601f840160051c810191602085106112a2575b90601f859493920160051c01905b8181106112945750610db9565b5f8155849350600101611287565b9091508190611279565b015190508980610d7b565b5f8581528281209350601f198516905b81811061130257509084600195949392106112ea575b505050811b019055610d8f565b01515f1960f88460031b161c191690558980806112dd565b929360206001819287860151815501950193016112c7565b909150835f5260205f20601f840160051c81019160208510611360575b90601f859493920160051c01905b8181106113525750610d65565b5f8155849350600101611345565b9091508190611337565b015190508980610d27565b5f8981528281209350601f198516905b8181106113c057509084600195949392106113a8575b505050811b018555610d3b565b01515f1960f88460031b161c1916905589808061139b565b92936020600181928786015181550195019301611385565b909150875f5260205f20601f840160051c8101916020851061141e575b90601f859493920160051c01905b8181106114105750610d11565b5f8155849350600101611403565b90915081906113f5565b3461019557602036600319011261019557611441614d5b565b335f52600760205260405f209060018060a01b03165f5260205260405f2060ff198154169055602060405160018152f35b3461019557611480366150b8565b9a999099989198979297969396959495335f52600860205260ff60405f2054166123e1576040519c6114b18e614d71565b8d5260208d015260408c015260608b015260808a015260a089015260c088015260e08701526101008601526101208501526101408401526101608301526101808201908152336101a0830152426101c0830152335f52600460205260405f2082519283516001600160401b0381116106685761152d8354614f65565b601f81116123a0575b506020601f821160011461233c5781929394955f92612331575b50508160011b915f199060031b1c19161782555b6001820160208201518051906001600160401b03821161066857819061158a8454614f65565b601f81116122e1575b50602090601f831160011461227e575f92612273575b50508160011b915f199060031b1c19161790555b6002820160408201518051906001600160401b0382116106685781906115e38454614f65565b601f8111612223575b50602090601f83116001146121c0575f926121b5575b50508160011b915f199060031b1c19161790555b6003820160608201518051906001600160401b03821161066857819061163c8454614f65565b601f8111612165575b50602090601f8311600114612102575f926120f7575b50508160011b915f199060031b1c19161790555b6004820160808201518051906001600160401b0382116106685781906116958454614f65565b601f81116120a7575b50602090601f8311600114612044575f92612039575b50508160011b915f199060031b1c19161790555b6005820160a08201518051906001600160401b0382116106685781906116ee8454614f65565b601f8111611fe9575b50602090601f8311600114611f86575f92611f7b575b50508160011b915f199060031b1c19161790555b6006820160c08201518051906001600160401b0382116106685781906117478454614f65565b601f8111611f2b575b50602090601f8311600114611ec8575f92611ebd575b50508160011b915f199060031b1c19161790555b6007820160e08201518051906001600160401b0382116106685781906117a08454614f65565b601f8111611e6d575b50602090601f8311600114611e0a575f92611dff575b50508160011b915f199060031b1c19161790555b600882016101008201518051906001600160401b0382116106685781906117fa8454614f65565b601f8111611daf575b50602090601f8311600114611d4c575f92611d41575b50508160011b915f199060031b1c19161790555b600982016101208201518051906001600160401b0382116106685781906118548454614f65565b601f8111611cf1575b50602090601f8311600114611c8e575f92611c83575b50508160011b915f199060031b1c19161790555b600a82016101408201518051906001600160401b0382116106685781906118ae8454614f65565b601f8111611c33575b50602090601f8311600114611bd0575f92611bc5575b50508160011b915f199060031b1c19161790555b600b82016101608201518051906001600160401b0382116106685781906119088454614f65565b601f8111611b75575b50602090601f8311600114611b12575f92611b07575b50508160011b915f199060031b1c19161790555b600c820192519283516001600160401b0381116106685761195c8254614f65565b601f8111611ac2575b506020601f8211600114611a585790806101c0949392600e96975f92611a4d575b50508160011b915f199060031b1c19161790555b6101a0810151600d850180546001600160a01b0319166001600160a01b03929092169190911790550151910155600154600160401b811015610668578060016119e892016001556001615061565b81546001600160a01b0360039290921b91821b1916339182901b179091555f908152600860209081526040808320805460ff19908116600190811790925560078452828520909352922080549091169091179055600b54611a48906153c1565b600b55005b015190508780611986565b601f19821695835f52815f20965f5b818110611aaa57509660019284926101c0979695600e999a10611a92575b505050811b01905561199a565b01515f1960f88460031b161c19169055878080611a85565b83830151895560019098019760209384019301611a67565b825f5260205f20601f830160051c81019160208410611afd575b601f0160051c01905b818110611af25750611965565b5f8155600101611ae5565b9091508190611adc565b015190508680611927565b5f8581528281209350601f198516905b818110611b5d5750908460019594939210611b45575b505050811b01905561193b565b01515f1960f88460031b161c19169055868080611b38565b92936020600181928786015181550195019301611b22565b909150835f5260205f20601f840160051c81019160208510611bbb575b90601f859493920160051c01905b818110611bad5750611911565b5f8155849350600101611ba0565b9091508190611b92565b0151905086806118cd565b5f8581528281209350601f198516905b818110611c1b5750908460019594939210611c03575b505050811b0190556118e1565b01515f1960f88460031b161c19169055868080611bf6565b92936020600181928786015181550195019301611be0565b909150835f5260205f20601f840160051c81019160208510611c79575b90601f859493920160051c01905b818110611c6b57506118b7565b5f8155849350600101611c5e565b9091508190611c50565b015190508680611873565b5f8581528281209350601f198516905b818110611cd95750908460019594939210611cc1575b505050811b019055611887565b01515f1960f88460031b161c19169055868080611cb4565b92936020600181928786015181550195019301611c9e565b909150835f5260205f20601f840160051c81019160208510611d37575b90601f859493920160051c01905b818110611d29575061185d565b5f8155849350600101611d1c565b9091508190611d0e565b015190508680611819565b5f8581528281209350601f198516905b818110611d975750908460019594939210611d7f575b505050811b01905561182d565b01515f1960f88460031b161c19169055868080611d72565b92936020600181928786015181550195019301611d5c565b909150835f5260205f20601f840160051c81019160208510611df5575b90601f859493920160051c01905b818110611de75750611803565b5f8155849350600101611dda565b9091508190611dcc565b0151905086806117bf565b5f8581528281209350601f198516905b818110611e555750908460019594939210611e3d575b505050811b0190556117d3565b01515f1960f88460031b161c19169055868080611e30565b92936020600181928786015181550195019301611e1a565b909150835f5260205f20601f840160051c81019160208510611eb3575b90601f859493920160051c01905b818110611ea557506117a9565b5f8155849350600101611e98565b9091508190611e8a565b015190508680611766565b5f8581528281209350601f198516905b818110611f135750908460019594939210611efb575b505050811b01905561177a565b01515f1960f88460031b161c19169055868080611eee565b92936020600181928786015181550195019301611ed8565b909150835f5260205f20601f840160051c81019160208510611f71575b90601f859493920160051c01905b818110611f635750611750565b5f8155849350600101611f56565b9091508190611f48565b01519050868061170d565b5f8581528281209350601f198516905b818110611fd15750908460019594939210611fb9575b505050811b019055611721565b01515f1960f88460031b161c19169055868080611fac565b92936020600181928786015181550195019301611f96565b909150835f5260205f20601f840160051c8101916020851061202f575b90601f859493920160051c01905b81811061202157506116f7565b5f8155849350600101612014565b9091508190612006565b0151905086806116b4565b5f8581528281209350601f198516905b81811061208f5750908460019594939210612077575b505050811b0190556116c8565b01515f1960f88460031b161c1916905586808061206a565b92936020600181928786015181550195019301612054565b909150835f5260205f20601f840160051c810191602085106120ed575b90601f859493920160051c01905b8181106120df575061169e565b5f81558493506001016120d2565b90915081906120c4565b01519050868061165b565b5f8581528281209350601f198516905b81811061214d5750908460019594939210612135575b505050811b01905561166f565b01515f1960f88460031b161c19169055868080612128565b92936020600181928786015181550195019301612112565b909150835f5260205f20601f840160051c810191602085106121ab575b90601f859493920160051c01905b81811061219d5750611645565b5f8155849350600101612190565b9091508190612182565b015190508680611602565b5f8581528281209350601f198516905b81811061220b57509084600195949392106121f3575b505050811b019055611616565b01515f1960f88460031b161c191690558680806121e6565b929360206001819287860151815501950193016121d0565b909150835f5260205f20601f840160051c81019160208510612269575b90601f859493920160051c01905b81811061225b57506115ec565b5f815584935060010161224e565b9091508190612240565b0151905086806115a9565b5f8581528281209350601f198516905b8181106122c957509084600195949392106122b1575b505050811b0190556115bd565b01515f1960f88460031b161c191690558680806122a4565b9293602060018192878601518155019501930161228e565b909150835f5260205f20601f840160051c81019160208510612327575b90601f859493920160051c01905b8181106123195750611593565b5f815584935060010161230c565b90915081906122fe565b015190508580611550565b835f52805f20905f5b601f1984168110612388575060019394959683601f19811610612370575b505050811b018255611564565b01515f1960f88460031b161c19169055858080612363565b9091602060018192858b015181550193019101612345565b835f5260205f20601f830160051c8101602084106123da575b601f830160051c820181106123cf575050611536565b5f81556001016123b9565b50806123b9565b60405162461bcd60e51b815260206004820152601c60248201527f416c7265616479206120726567697374657265642070617469656e74000000006044820152606490fd5b34610195575f3660031901126101955760405180602060035491828152019060035f527fc2575a0e9e593c00f959f8c92f12db2869c3395a3b0502d05e2516446f71f85b905f5b8181106124845761035785610c8581870382614da9565b82546001600160a01b031684526020909301926001928301920161246d565b34610195576020366003190112610195576001600160a01b036124c4614d5b565b165f52600660205260405f206040516124dc81614d8d565b81546001600160a01b039081168252600183015416602082015261250260028301614f9d565b604082019081529161251660038201614f9d565b606083019081529061252a60048201614f9d565b6080840190815261253d60058301614f9d565b60a085019081529061255160068401614f9d565b60c0860190815261256460078501614f9d565b9360e0870194855260080154610100870152600160a01b600190038651165f52600560205260405f209560405161259a81614d8d565b6125a388614f9d565b81526125b160018901614f9d565b60208201908152976125c560028201614f9d565b60408301526125d660038201614f9d565b60608301526125e760048201614f9d565b60808301526125f860058201614f9d565b60a083015261260960068201614f9d565b60c0830152600160a01b6001900360078201541660e083015260080154906101000152600160a01b60019003905116955196519451905191519251935194604051978897885260208801610100905261010088016126669161503d565b87810360408901526126779161503d565b86810360608801526126889161503d565b85810360808701526126999161503d565b84810360a08601526126aa9161503d565b83810360c08501526126bb9161503d565b82810360e08401526103579161503d565b34610195575f366003190112610195575f546040516001600160a01b039091168152602090f35b3461019557612701366152dd565b9495939095929192335f52600960205260ff60405f205416612f0957335f52600560205260405f20948051906001600160401b0382116106685781906127478854614f65565b601f8111612eb9575b50602090601f8311600114612e56575f92612e4b575b50508160011b915f199060031b1c19161785555b805160018601916001600160401b03821161066857819061279b8454614f65565b601f8111612dfb575b50602090601f8311600114612d98575f92612d8d575b50508160011b915f199060031b1c19161790555b805160028501916001600160401b0382116106685781906127ef8454614f65565b601f8111612d3d575b50602090601f8311600114612cda575f92612ccf575b50508160011b915f199060031b1c19161790555b805160038401916001600160401b0382116106685781906128438454614f65565b601f8111612c7f575b50602090601f8311600114612c1c575f92612c11575b50508160011b915f199060031b1c19161790555b805160048301916001600160401b0382116106685781906128978454614f65565b601f8111612bc1575b50602090601f8311600114612b5e575f92612b53575b50508160011b915f199060031b1c19161790555b6005810183516001600160401b038111610668576128e88254614f65565b601f8111612b0e575b50602094601f8211600114612aad579481929394955f92612aa2575b50508160011b915f199060031b1c19161790555b6006810182516001600160401b0381116106685761293f8254614f65565b601f8111612a5d575b506020601f82116001146129fc57819293945f926129f1575b50508160011b915f199060031b1c19161790555b6007810180546001600160a01b0319163317905542600890910155600254600160401b811015610668578060016129b192016002556002615061565b81549060031b9033821b9160018060a01b03901b1916179055335f52600960205260405f20600160ff198254161790556129ec600c546153c1565b600c55005b015190508480612961565b601f19821690835f52805f20915f5b818110612a4557509583600195969710612a2d575b505050811b019055612975565b01515f1960f88460031b161c19169055848080612a20565b9192602060018192868b015181550194019201612a0b565b825f5260205f20601f830160051c81019160208410612a98575b601f0160051c01905b818110612a8d5750612948565b5f8155600101612a80565b9091508190612a77565b01519050858061290d565b601f19821695835f52805f20915f5b888110612af657508360019596979810612ade575b505050811b019055612921565b01515f1960f88460031b161c19169055858080612ad1565b91926020600181928685015181550194019201612abc565b825f5260205f20601f830160051c81019160208410612b49575b601f0160051c01905b818110612b3e57506128f1565b5f8155600101612b31565b9091508190612b28565b0151905086806128b6565b5f8581528281209350601f198516905b818110612ba95750908460019594939210612b91575b505050811b0190556128ca565b01515f1960f88460031b161c19169055868080612b84565b92936020600181928786015181550195019301612b6e565b909150835f5260205f20601f840160051c81019160208510612c07575b90601f859493920160051c01905b818110612bf957506128a0565b5f8155849350600101612bec565b9091508190612bde565b015190508780612862565b5f8581528281209350601f198516905b818110612c675750908460019594939210612c4f575b505050811b019055612876565b01515f1960f88460031b161c19169055878080612c42565b92936020600181928786015181550195019301612c2c565b909150835f5260205f20601f840160051c81019160208510612cc5575b90601f859493920160051c01905b818110612cb7575061284c565b5f8155849350600101612caa565b9091508190612c9c565b01519050888061280e565b5f8581528281209350601f198516905b818110612d255750908460019594939210612d0d575b505050811b019055612822565b01515f1960f88460031b161c19169055888080612d00565b92936020600181928786015181550195019301612cea565b909150835f5260205f20601f840160051c81019160208510612d83575b90601f859493920160051c01905b818110612d7557506127f8565b5f8155849350600101612d68565b9091508190612d5a565b0151905089806127ba565b5f8581528281209350601f198516905b818110612de35750908460019594939210612dcb575b505050811b0190556127ce565b01515f1960f88460031b161c19169055898080612dbe565b92936020600181928786015181550195019301612da8565b909150835f5260205f20601f840160051c81019160208510612e41575b90601f859493920160051c01905b818110612e3357506127a4565b5f8155849350600101612e26565b9091508190612e18565b015190508980612766565b5f8981528281209350601f198516905b818110612ea15750908460019594939210612e89575b505050811b01855561277a565b01515f1960f88460031b161c19169055898080612e7c565b92936020600181928786015181550195019301612e66565b909150875f5260205f20601f840160051c81019160208510612eff575b90601f859493920160051c01905b818110612ef15750612750565b5f8155849350600101612ee4565b9091508190612ed6565b60405162461bcd60e51b815260206004820152601b60248201527f416c72656164792061207265676973746572656420646f63746f7200000000006044820152606490fd5b34610195575f366003190112610195576020600c54604051908152f35b34610195576020366003190112610195576001600160a01b03612f8c614d5b565b165f526005602052602061010060405f20600860405191612fac83614d8d565b612fb581614f9d565b8352612fc360018201614f9d565b85840152612fd360028201614f9d565b6040840152612fe460038201614f9d565b6060840152612ff560048201614f9d565b608084015261300660058201614f9d565b60a084015261301760068201614f9d565b60c084015260078101546001600160a01b031660e084015201549101819052604051908152f35b34610195576020366003190112610195576001600160a01b0361305f614d5b565b165f526006602052602061010060405f2060086040519161307f83614d8d565b80546001600160a01b039081168452600182015416858401526130a460028201614f9d565b60408401526130b560038201614f9d565b60608401526130c660048201614f9d565b60808401526130d760058201614f9d565b60a08401526130e860068201614f9d565b60c08401526130f960078201614f9d565b60e084015201549182910152604051908152f35b3461019557602036600319011261019557613126614d5b565b335f52600760205260405f209060018060a01b03165f5260205260405f20600160ff1982541617905561315a600e546153c1565b600e55602060405160018152f35b34610195576020366003190112610195576001600160a01b03613189614d5b565b165f8181526007602090815260408083203384529091529020546131af9060ff166153e3565b5f52600460205260405f206040516131c681614d71565b6131cf82614f9d565b81526103576131e060018401614f9d565b91602081019283526131f460028501614f9d565b936040820194855261320860038201614f9d565b916060810192835261321c60048301614f9d565b6080820190815261322f60058401614f9d565b9160a08101928352600e61324560068601614f9d565b9460c0830195865261325960078201614f9d565b60e084015261326a60088201614f9d565b61010084015261327c60098201614f9d565b61012084015261328e600a8201614f9d565b6101408401526132a0600b8201614f9d565b6101608401526132b2600c8201614f9d565b610180840152600d8101546001600160a01b03166101a084015201546101c0820152519551965193519051915192516040519788979195918861525f565b34610195576132fe366150b8565b9a9b99909b989198979297969396959495335f52600860205260ff60405f205416156140e657335f52600460205260405f209a8051906001600160401b038211610668578c829161334f8254614f65565b601f811161408c575b50602091601f841160011461402957505f9261401e575b50508160011b915f199060031b1c1916178b555b805160018c01916001600160401b0382116106685781906133a48454614f65565b601f8111613fce575b50602090601f8311600114613f6b575f92613f60575b50508160011b915f199060031b1c19161790555b805160028b01916001600160401b0382116106685781906133f88454614f65565b601f8111613f10575b50602090601f8311600114613ead575f92613ea2575b50508160011b915f199060031b1c19161790555b805160038a01916001600160401b03821161066857819061344c8454614f65565b601f8111613e52575b50602090601f8311600114613def575f92613de4575b50508160011b915f199060031b1c19161790555b805160048901916001600160401b0382116106685781906134a08454614f65565b601f8111613d94575b50602090601f8311600114613d31575f92613d26575b50508160011b915f199060031b1c19161790555b805160058801916001600160401b0382116106685781906134f48454614f65565b601f8111613cd6575b50602090601f8311600114613c73575f92613c68575b50508160011b915f199060031b1c19161790555b805160068701916001600160401b0382116106685781906135488454614f65565b601f8111613c18575b50602090601f8311600114613bb5575f92613baa575b50508160011b915f199060031b1c19161790555b805160078601916001600160401b03821161066857819061359c8454614f65565b601f8111613b5a575b50602090601f8311600114613af7575f92613aec575b50508160011b915f199060031b1c19161790555b805160088501916001600160401b0382116106685781906135f08454614f65565b601f8111613a9c575b50602090601f8311600114613a39575f92613a2e575b50508160011b915f199060031b1c19161790555b805160098401916001600160401b0382116106685781906136448454614f65565b601f81116139de575b50602090601f831160011461397b575f92613970575b50508160011b915f199060031b1c19161790555b8051600a8301916001600160401b0382116106685781906136988454614f65565b601f8111613920575b50602090601f83116001146138bd575f926138b2575b50508160011b915f199060031b1c19161790555b600b810183516001600160401b038111610668576136e98254614f65565b601f811161386d575b506020601f8211600114613808578190600c95965f926137fd575b50508160011b915f199060031b1c19161790555b0181516001600160401b0381116106685761373c8254614f65565b601f81116137b8575b50602092601f821160011461377557928192935f926105bc5750505f19600383901b1c191660019190911b179055005b601f19821693835f52805f20915f5b8681106137a057508360019596106105f357505050811b019055005b91926020600181928685015181550194019201613784565b825f5260205f20601f830160051c810191602084106137f3575b601f0160051c01905b8181106137e85750613745565b5f81556001016137db565b90915081906137d2565b01519050868061370d565b601f19821695835f52815f20965f5b818110613855575091600c96979184600195941061383d575b505050811b019055613721565b01515f1960f88460031b161c19169055868080613830565b83830151895560019098019760209384019301613817565b825f5260205f20601f830160051c810191602084106138a8575b601f0160051c01905b81811061389d57506136f2565b5f8155600101613890565b9091508190613887565b0151905086806136b7565b5f8581528281209350601f198516905b81811061390857509084600195949392106138f0575b505050811b0190556136cb565b01515f1960f88460031b161c191690558680806138e3565b929360206001819287860151815501950193016138cd565b909150835f5260205f20601f840160051c81019160208510613966575b90601f859493920160051c01905b81811061395857506136a1565b5f815584935060010161394b565b909150819061393d565b015190508780613663565b5f8581528281209350601f198516905b8181106139c657509084600195949392106139ae575b505050811b019055613677565b01515f1960f88460031b161c191690558780806139a1565b9293602060018192878601518155019501930161398b565b909150835f5260205f20601f840160051c81019160208510613a24575b90601f859493920160051c01905b818110613a16575061364d565b5f8155849350600101613a09565b90915081906139fb565b01519050888061360f565b5f8581528281209350601f198516905b818110613a845750908460019594939210613a6c575b505050811b019055613623565b01515f1960f88460031b161c19169055888080613a5f565b92936020600181928786015181550195019301613a49565b909150835f5260205f20601f840160051c81019160208510613ae2575b90601f859493920160051c01905b818110613ad457506135f9565b5f8155849350600101613ac7565b9091508190613ab9565b0151905089806135bb565b5f8581528281209350601f198516905b818110613b425750908460019594939210613b2a575b505050811b0190556135cf565b01515f1960f88460031b161c19169055898080613b1d565b92936020600181928786015181550195019301613b07565b909150835f5260205f20601f840160051c81019160208510613ba0575b90601f859493920160051c01905b818110613b9257506135a5565b5f8155849350600101613b85565b9091508190613b77565b015190508a80613567565b5f8581528281209350601f198516905b818110613c005750908460019594939210613be8575b505050811b01905561357b565b01515f1960f88460031b161c191690558a8080613bdb565b92936020600181928786015181550195019301613bc5565b909150835f5260205f20601f840160051c81019160208510613c5e575b90601f859493920160051c01905b818110613c505750613551565b5f8155849350600101613c43565b9091508190613c35565b015190508b80613513565b5f8581528281209350601f198516905b818110613cbe5750908460019594939210613ca6575b505050811b019055613527565b01515f1960f88460031b161c191690558b8080613c99565b92936020600181928786015181550195019301613c83565b909150835f5260205f20601f840160051c81019160208510613d1c575b90601f859493920160051c01905b818110613d0e57506134fd565b5f8155849350600101613d01565b9091508190613cf3565b015190508c806134bf565b5f8581528281209350601f198516905b818110613d7c5750908460019594939210613d64575b505050811b0190556134d3565b01515f1960f88460031b161c191690558c8080613d57565b92936020600181928786015181550195019301613d41565b909150835f5260205f20601f840160051c81019160208510613dda575b90601f859493920160051c01905b818110613dcc57506134a9565b5f8155849350600101613dbf565b9091508190613db1565b015190508d8061346b565b5f8581528281209350601f198516905b818110613e3a5750908460019594939210613e22575b505050811b01905561347f565b01515f1960f88460031b161c191690558d8080613e15565b92936020600181928786015181550195019301613dff565b909150835f5260205f20601f840160051c81019160208510613e98575b90601f859493920160051c01905b818110613e8a5750613455565b5f8155849350600101613e7d565b9091508190613e6f565b015190508e80613417565b5f8581528281209350601f198516905b818110613ef85750908460019594939210613ee0575b505050811b01905561342b565b01515f1960f88460031b161c191690558e8080613ed3565b92936020600181928786015181550195019301613ebd565b909150835f5260205f20601f840160051c81019160208510613f56575b90601f859493920160051c01905b818110613f485750613401565b5f8155849350600101613f3b565b9091508190613f2d565b015190508f806133c3565b5f8581528281209350601f198516905b818110613fb65750908460019594939210613f9e575b505050811b0190556133d7565b01515f1960f88460031b161c191690558f8080613f91565b92936020600181928786015181550195019301613f7b565b909150835f5260205f20601f840160051c81019160208510614014575b90601f859493920160051c01905b81811061400657506133ad565b5f8155849350600101613ff9565b9091508190613feb565b015190508f8061336f565b5f9081528281209350601f198516905b818110614074575090846001959493921061405c575b505050811b018b55613383565b01515f1960f88460031b161c191690558f808061404f565b92936020600181928786015181550195019301614039565b919092505f5260205f20601f840160051c810191602085106140dc575b918f9291601f8695930160051c01905b8181106140c65750613358565b90925060019193505f815501918e9184936140b9565b90915081906140a9565b60405162461bcd60e51b815260206004820152601860248201527f4e6f74206120726567697374657265642070617469656e7400000000000000006044820152606490fd5b34610195576020366003190112610195576001600160a01b0361414c614d5b565b165f8181526007602090815260408083203384529091529020546141729060ff166153e3565b5f5260046020526142c360405f206103576040519161419083614d71565b61419981614f9d565b83526141a760018201614f9d565b60208401526141b860028201614f9d565b60408401526141c960038201614f9d565b60608401526141da60048201614f9d565b60808401526141eb60058201614f9d565b60a08401526141fc60068201614f9d565b60c08401526142fb61421060078301614f9d565b60e085019081526142ed61422660088501614f9d565b9561010081019687526142df61423e60098701614f9d565b9361012083019485526142d1614256600a8901614f9d565b91610140850192835261426b600b8a01614f9d565b9461016081019586526101c0600e614285600c8d01614f9d565b9b8c61018085015260018060a01b03600d820154166101a08501520154910152519951955191519351956040519b8c9b60c08d5260c08d019061503d565b908b820360208d015261503d565b9089820360408b015261503d565b90878203606089015261503d565b90858203608087015261503d565b9083820360a085015261503d565b34610195575f3660031901126101955760405180602060015491828152019060015f527fb10e2d527612073b26eecdfd717e6a320cf44b4afac2b0732d9fcbe2b7fa0cf6905f5b8181106143675761035785610c8581870382614da9565b82546001600160a01b0316845260209093019260019283019201614350565b3461019557602036600319011261019557600435600254811015610195576002548110156102355760025f527f405787fa12a823e0f2b7631cc41b3ba8828b3321ca811111fa75cd3aa3bb5ace01546040516001600160a01b039091168152602090f35b34610195576020366003190112610195576001600160a01b0361440b614d5b565b165f52600460205260405f2061442081614f9d565b9061442d60018201614f9d565b9061443a60028201614f9d565b61444660038301614f9d565b61445260048401614f9d565b61445e60058501614f9d565b61446a60068601614f9d565b61447660078701614f9d565b61448260088801614f9d565b9061448f60098901614f9d565b9261449c600a8a01614f9d565b946144a9600b8b01614f9d565b966144b6600c8c01614f9d565b98600160a01b60019003600d8d0154169b600e01549a6040519e8f9e8f916101e083526101e083016144e79161503d565b82810360208401526144f89161503d565b90808203906040015261450a9161503d565b8d810360608f015261451b9161503d565b8c810360808e015261452c9161503d565b8b810360a08d015261453d9161503d565b8a810360c08c015261454e9161503d565b89810360e08b015261455f9161503d565b8881036101008a01526145719161503d565b8781036101208901526145839161503d565b8681036101408801526145959161503d565b8581036101608701526145a79161503d565b8481036101808601526145b99161503d565b916101a08401526101c08301520390f35b34610195576145d836614e1f565b90335f52600960205260ff60405f20541615614d0a576001600160a01b03165f81815260066020526040902080546001600160a01b031990811633178255600182018054909116831790558251805191939160028501916001600160401b0382116106685781906146498454614f65565b601f8111614cba575b50602090601f8311600114614c57575f92614c4c575b50508160011b915f199060031b1c19161790555b6020810151805160038501916001600160401b0382116106685781906146a28454614f65565b601f8111614bfc575b50602090601f8311600114614b99575f92614b8e575b50508160011b915f199060031b1c19161790555b6080810151805160068501916001600160401b0382116106685781906146fb8454614f65565b601f8111614b3e575b50602090601f8311600114614adb575f92614ad0575b50508160011b915f199060031b1c19161790555b6040810151805160048501916001600160401b0382116106685781906147548454614f65565b601f8111614a80575b50602090601f8311600114614a1d575f92614a12575b50508160011b915f199060031b1c19161790555b6060810151805160058501916001600160401b038211610668576147ab8354614f65565b601f81116149cd575b50602090601f83116001146149665760a0949392915f918361495b575b50508160011b915f199060031b1c19161790555b0151916007810183516001600160401b038111610668576148068254614f65565b601f8111614916575b50602094601f82116001146148b5579481929394955f926148aa575b50508160011b915f199060031b1c19161790555b600842910155600354600160401b8110156106685780600161486692016003556003615061565b81546001600160a01b0360039290921b91821b19169083901b179055600d5461488e906153c1565b600d555f52600a60205260405f206148a681546153c1565b9055005b01519050858061482b565b601f19821695835f52805f20915f5b8881106148fe575083600195969798106148e6575b505050811b01905561483f565b01515f1960f88460031b161c191690558580806148d9565b919260206001819286850151815501940192016148c4565b825f5260205f20601f830160051c81019160208410614951575b601f0160051c01905b818110614946575061480f565b5f8155600101614939565b9091508190614930565b0151905087806147d1565b90601f19831691845f52815f20925f5b8181106149b5575091600193918560a0989796941061499d575b505050811b0190556147e5565b01515f1960f88460031b161c19169055878080614990565b92936020600181928786015181550195019301614976565b835f5260205f20601f840160051c81019160208510614a08575b601f0160051c01905b8181106149fd57506147b4565b5f81556001016149f0565b90915081906149e7565b015190508680614773565b5f8581528281209350601f198516905b818110614a685750908460019594939210614a50575b505050811b019055614787565b01515f1960f88460031b161c19169055868080614a43565b92936020600181928786015181550195019301614a2d565b909150835f5260205f20601f840160051c81019160208510614ac6575b90601f859493920160051c01905b818110614ab8575061475d565b5f8155849350600101614aab565b9091508190614a9d565b01519050868061471a565b5f8581528281209350601f198516905b818110614b265750908460019594939210614b0e575b505050811b01905561472e565b01515f1960f88460031b161c19169055868080614b01565b92936020600181928786015181550195019301614aeb565b909150835f5260205f20601f840160051c81019160208510614b84575b90601f859493920160051c01905b818110614b765750614704565b5f8155849350600101614b69565b9091508190614b5b565b0151905086806146c1565b5f8581528281209350601f198516905b818110614be45750908460019594939210614bcc575b505050811b0190556146d5565b01515f1960f88460031b161c19169055868080614bbf565b92936020600181928786015181550195019301614ba9565b909150835f5260205f20601f840160051c81019160208510614c42575b90601f859493920160051c01905b818110614c3457506146ab565b5f8155849350600101614c27565b9091508190614c19565b015190508680614668565b5f8581528281209350601f198516905b818110614ca25750908460019594939210614c8a575b505050811b01905561467c565b01515f1960f88460031b161c19169055868080614c7d565b92936020600181928786015181550195019301614c67565b909150835f5260205f20601f840160051c81019160208510614d00575b90601f859493920160051c01905b818110614cf25750614652565b5f8155849350600101614ce5565b9091508190614cd7565b60405162461bcd60e51b8152602060048201526024808201527f4f6e6c7920646f63746f72732063616e20637265617465206170706f696e746d604482015263656e747360e01b6064820152608490fd5b600435906001600160a01b038216820361019557565b6101e081019081106001600160401b0382111761066857604052565b61012081019081106001600160401b0382111761066857604052565b90601f801991011681019081106001600160401b0382111761066857604052565b81601f82011215610195578035906001600160401b0382116106685760405192614dfe601f8401601f191660200185614da9565b8284526020838301011161019557815f926020809301838601378301015290565b906040600319830112610195576004356001600160a01b038116810361019557916024356001600160401b0381116101955760c08183036003190112610195576040519160c083018381106001600160401b038211176106685760405281600401356001600160401b03811161019557816004614e9e92850101614dca565b835260248201356001600160401b03811161019557816004614ec292850101614dca565b602084015260448201356001600160401b03811161019557816004614ee992850101614dca565b604084015260648201356001600160401b03811161019557816004614f1092850101614dca565b606084015260848201356001600160401b03811161019557816004614f3792850101614dca565b608084015260a4820135916001600160401b03831161019557614f5d9201600401614dca565b60a082015290565b90600182811c92168015614f93575b6020831014614f7f57565b634e487b7160e01b5f52602260045260245ffd5b91607f1691614f74565b9060405191825f825492614fb084614f65565b808452936001811690811561501b5750600114614fd7575b50614fd592500383614da9565b565b90505f9291925260205f20905f915b818310614fff575050906020614fd5928201015f614fc8565b6020919350806001915483858901015201910190918492614fe6565b905060209250614fd594915060ff191682840152151560051b8201015f614fc8565b805180835260209291819084018484015e5f828201840152601f01601f1916010190565b8054821015610235575f5260205f2001905f90565b60206040818301928281528451809452019201905f5b8181106150995750505090565b82516001600160a01b031684526020938401939092019160010161508c565b6101a0600319820112610195576004356001600160401b03811161019557816150e391600401614dca565b916024356001600160401b038111610195578261510291600401614dca565b916044356001600160401b038111610195578161512191600401614dca565b916064356001600160401b038111610195578261514091600401614dca565b916084356001600160401b038111610195578161515f91600401614dca565b9160a4356001600160401b038111610195578261517e91600401614dca565b9160c4356001600160401b038111610195578161519d91600401614dca565b9160e4356001600160401b03811161019557826151bc91600401614dca565b91610104356001600160401b03811161019557816151dc91600401614dca565b91610124356001600160401b03811161019557826151fc91600401614dca565b91610144356001600160401b038111610195578161521c91600401614dca565b91610164356001600160401b038111610195578261523c91600401614dca565b9161018435906001600160401b0382116101955761525c91600401614dca565b90565b95926152cf946152a56152b3926152976152c19661528961525c9d9b9760e08e818152019061503d565b8c810360208e01529061503d565b908a820360408c015261503d565b9088820360608a015261503d565b90868203608088015261503d565b9084820360a086015261503d565b9160c081840391015261503d565b60e0600319820112610195576004356001600160401b038111610195578161530791600401614dca565b916024356001600160401b038111610195578261532691600401614dca565b916044356001600160401b038111610195578161534591600401614dca565b916064356001600160401b038111610195578261536491600401614dca565b916084356001600160401b038111610195578161538391600401614dca565b9160a4356001600160401b03811161019557826153a291600401614dca565b9160c435906001600160401b0382116101955761525c91600401614dca565b5f1981146153cf5760010190565b634e487b7160e01b5f52601160045260245ffd5b156153ea57565b60405162461bcd60e51b815260206004820152600d60248201526c1058d8d95cdcc819195b9a5959609a1b6044820152606490fd5b1561542657565b60405162461bcd60e51b815260206004820152601760248201527f4e6f742061207265676973746572656420646f63746f720000000000000000006044820152606490fdfea2646970667358221220bd5fcc196f6132572e322b59927352eb51da93a1584ac1ed1989011df0affe1b64736f6c634300081c0033","opcodes":"PUSH1 0x80 DUP1 PUSH1 0x40 MSTORE CALLVALUE PUSH1 0x34 JUMPI PUSH0 PUSH1 0xB SSTORE PUSH0 PUSH1 0xC SSTORE PUSH0 PUSH1 0xD SSTORE PUSH0 PUSH1 0xE SSTORE CALLER PUSH1 0x1 DUP1 PUSH1 0xA0 SHL SUB NOT PUSH0 SLOAD AND OR PUSH0 SSTORE PUSH2 0x54A1 SWAP1 DUP2 PUSH2 0x39 DUP3 CODECOPY RETURN JUMPDEST PUSH0 DUP1 REVERT INVALID PUSH1 0x80 PUSH1 0x40 MSTORE PUSH1 0x4 CALLDATASIZE LT ISZERO PUSH2 0x11 JUMPI PUSH0 DUP1 REVERT JUMPDEST PUSH0 CALLDATALOAD PUSH1 0xE0 SHR DUP1 PUSH3 0x1FEEEB EQ PUSH2 0x45CA JUMPI DUP1 PUSH4 0x869CFBC EQ PUSH2 0x43EA JUMPI DUP1 PUSH4 0x127CA4B4 EQ PUSH2 0x4386 JUMPI DUP1 PUSH4 0x12AD1C37 EQ PUSH2 0x4309 JUMPI DUP1 PUSH4 0x24C24B2B EQ PUSH2 0xA67 JUMPI DUP1 PUSH4 0x29E4AFBB EQ PUSH2 0x178 JUMPI DUP1 PUSH4 0x2A825BA0 EQ PUSH2 0x412B JUMPI DUP1 PUSH4 0x3622B7F6 EQ PUSH2 0x32F0 JUMPI DUP1 PUSH4 0x3BC98280 EQ PUSH2 0x3168 JUMPI DUP1 PUSH4 0x3D391F70 EQ PUSH2 0x310D JUMPI DUP1 PUSH4 0x4C14B38D EQ PUSH2 0x303E JUMPI DUP1 PUSH4 0x625961FC EQ PUSH2 0x2F6B JUMPI DUP1 PUSH4 0x78522BC4 EQ PUSH2 0x2F4E JUMPI DUP1 PUSH4 0x79111C1C EQ PUSH2 0x2F4E JUMPI DUP1 PUSH4 0x8B945C6D EQ PUSH2 0x26F3 JUMPI DUP1 PUSH4 0x8DA5CB5B EQ PUSH2 0x26CC JUMPI DUP1 PUSH4 0x92041982 EQ PUSH2 0x24A3 JUMPI DUP1 PUSH4 0x96B80D08 EQ PUSH2 0x2426 JUMPI DUP1 PUSH4 0x99A363C6 EQ PUSH2 0x1472 JUMPI DUP1 PUSH4 0xA0303C41 EQ PUSH2 0xA4A JUMPI DUP1 PUSH4 0xA3BF5B9A EQ PUSH2 0x1428 JUMPI DUP1 PUSH4 0xA5ACA8BC EQ PUSH2 0xCB0 JUMPI DUP1 PUSH4 0xB13D5D94 EQ PUSH2 0xC27 JUMPI DUP1 PUSH4 0xBABB1D41 EQ PUSH2 0xBC3 JUMPI DUP1 PUSH4 0xBD6F972B EQ PUSH2 0xA84 JUMPI DUP1 PUSH4 0xC0CB24BA EQ PUSH2 0xA67 JUMPI DUP1 PUSH4 0xC190665B EQ PUSH2 0xA4A JUMPI DUP1 PUSH4 0xC3DFB22F EQ PUSH2 0x35B JUMPI DUP1 PUSH4 0xCAEE6C85 EQ PUSH2 0x249 JUMPI DUP1 PUSH4 0xE6FCE0D2 EQ PUSH2 0x1D1 JUMPI DUP1 PUSH4 0xE93A15B9 EQ PUSH2 0x199 JUMPI PUSH4 0xEEBC3FB2 EQ PUSH2 0x178 JUMPI PUSH0 DUP1 REVERT JUMPDEST CALLVALUE PUSH2 0x195 JUMPI PUSH0 CALLDATASIZE PUSH1 0x3 NOT ADD SLT PUSH2 0x195 JUMPI PUSH1 0x20 PUSH1 0xD SLOAD PUSH1 0x40 MLOAD SWAP1 DUP2 MSTORE RETURN JUMPDEST PUSH0 DUP1 REVERT JUMPDEST CALLVALUE PUSH2 0x195 JUMPI PUSH1 0x20 CALLDATASIZE PUSH1 0x3 NOT ADD SLT PUSH2 0x195 JUMPI PUSH1 0x1 PUSH1 0x1 PUSH1 0xA0 SHL SUB PUSH2 0x1BA PUSH2 0x4D5B JUMP JUMPDEST AND PUSH0 MSTORE PUSH1 0xA PUSH1 0x20 MSTORE PUSH1 0x20 PUSH1 0x40 PUSH0 KECCAK256 SLOAD PUSH1 0x40 MLOAD SWAP1 DUP2 MSTORE RETURN JUMPDEST CALLVALUE PUSH2 0x195 JUMPI PUSH1 0x20 CALLDATASIZE PUSH1 0x3 NOT ADD SLT PUSH2 0x195 JUMPI PUSH1 0x4 CALLDATALOAD PUSH1 0x3 SLOAD DUP2 LT ISZERO PUSH2 0x195 JUMPI PUSH1 0x3 SLOAD DUP2 LT ISZERO PUSH2 0x235 JUMPI PUSH1 0x3 PUSH0 MSTORE PUSH32 0xC2575A0E9E593C00F959F8C92F12DB2869C3395A3B0502D05E2516446F71F85B ADD SLOAD PUSH1 0x40 MLOAD PUSH1 0x1 PUSH1 0x1 PUSH1 0xA0 SHL SUB SWAP1 SWAP2 AND DUP2 MSTORE PUSH1 0x20 SWAP1 RETURN JUMPDEST PUSH4 0x4E487B71 PUSH1 0xE0 SHL PUSH0 MSTORE PUSH1 0x32 PUSH1 0x4 MSTORE PUSH1 0x24 PUSH0 REVERT JUMPDEST CALLVALUE PUSH2 0x195 JUMPI PUSH1 0x20 CALLDATASIZE PUSH1 0x3 NOT ADD SLT PUSH2 0x195 JUMPI PUSH1 0x1 PUSH1 0x1 PUSH1 0xA0 SHL SUB PUSH2 0x26A PUSH2 0x4D5B JUMP JUMPDEST AND DUP1 PUSH0 MSTORE PUSH1 0x9 PUSH1 0x20 MSTORE PUSH2 0x283 PUSH1 0xFF PUSH1 0x40 PUSH0 KECCAK256 SLOAD AND PUSH2 0x541F JUMP JUMPDEST PUSH0 MSTORE PUSH1 0x5 PUSH1 0x20 MSTORE PUSH1 0x40 PUSH0 KECCAK256 PUSH1 0x40 MLOAD SWAP1 PUSH2 0x29B DUP3 PUSH2 0x4D8D JUMP JUMPDEST PUSH2 0x2A4 DUP2 PUSH2 0x4F9D JUMP JUMPDEST DUP3 MSTORE PUSH2 0x357 PUSH2 0x2B5 PUSH1 0x1 DUP4 ADD PUSH2 0x4F9D JUMP JUMPDEST SWAP2 PUSH1 0x20 DUP5 ADD SWAP3 DUP4 MSTORE PUSH2 0x2C9 PUSH1 0x2 DUP3 ADD PUSH2 0x4F9D JUMP JUMPDEST SWAP4 PUSH1 0x40 DUP2 ADD SWAP5 DUP6 MSTORE PUSH2 0x2DD PUSH1 0x3 DUP4 ADD PUSH2 0x4F9D JUMP JUMPDEST SWAP1 PUSH1 0x60 DUP2 ADD SWAP2 DUP3 MSTORE PUSH2 0x2F1 PUSH1 0x4 DUP5 ADD PUSH2 0x4F9D JUMP JUMPDEST PUSH1 0x80 DUP3 ADD SWAP1 DUP2 MSTORE PUSH2 0x304 PUSH1 0x5 DUP6 ADD PUSH2 0x4F9D JUMP JUMPDEST SWAP2 PUSH1 0xA0 DUP2 ADD SWAP3 DUP4 MSTORE PUSH1 0x8 PUSH2 0x31A PUSH1 0x6 DUP8 ADD PUSH2 0x4F9D JUMP JUMPDEST PUSH1 0xC0 DUP4 ADD DUP2 SWAP1 MSTORE PUSH1 0x7 DUP8 ADD SLOAD PUSH1 0x1 PUSH1 0x1 PUSH1 0xA0 SHL SUB AND PUSH1 0xE0 DUP5 ADD MSTORE SWAP6 ADD SLOAD PUSH2 0x100 DUP3 ADD MSTORE MLOAD SWAP6 MLOAD SWAP7 MLOAD SWAP3 MLOAD SWAP1 MLOAD SWAP2 MLOAD PUSH1 0x40 MLOAD SWAP8 DUP9 SWAP8 SWAP2 SWAP5 SWAP2 DUP9 PUSH2 0x525F JUMP JUMPDEST SUB SWAP1 RETURN JUMPDEST CALLVALUE PUSH2 0x195 JUMPI PUSH2 0x369 CALLDATASIZE PUSH2 0x4E1F JUMP JUMPDEST SWAP1 CALLER PUSH0 MSTORE PUSH1 0x9 PUSH1 0x20 MSTORE PUSH1 0xFF PUSH1 0x40 PUSH0 KECCAK256 SLOAD AND ISZERO PUSH2 0x9F9 JUMPI PUSH1 0x1 DUP1 PUSH1 0xA0 SHL SUB AND PUSH0 MSTORE PUSH1 0x6 PUSH1 0x20 MSTORE PUSH1 0x40 PUSH0 KECCAK256 DUP2 MLOAD SWAP2 PUSH1 0x2 DUP3 ADD DUP4 MLOAD PUSH1 0x1 PUSH1 0x1 PUSH1 0x40 SHL SUB DUP2 GT PUSH2 0x668 JUMPI PUSH2 0x3B3 DUP3 SLOAD PUSH2 0x4F65 JUMP JUMPDEST PUSH1 0x1F DUP2 GT PUSH2 0x9B4 JUMPI JUMPDEST POP PUSH1 0x20 SWAP5 PUSH1 0x1F DUP3 GT PUSH1 0x1 EQ PUSH2 0x953 JUMPI SWAP5 DUP2 SWAP3 SWAP4 SWAP5 SWAP6 PUSH0 SWAP3 PUSH2 0x948 JUMPI JUMPDEST POP POP DUP2 PUSH1 0x1 SHL SWAP2 PUSH0 NOT SWAP1 PUSH1 0x3 SHL SHR NOT AND OR SWAP1 SSTORE JUMPDEST PUSH1 0x20 DUP2 ADD MLOAD SWAP2 PUSH1 0x3 DUP2 ADD DUP4 MLOAD PUSH1 0x1 PUSH1 0x1 PUSH1 0x40 SHL SUB DUP2 GT PUSH2 0x668 JUMPI PUSH2 0x410 DUP3 SLOAD PUSH2 0x4F65 JUMP JUMPDEST PUSH1 0x1F DUP2 GT PUSH2 0x903 JUMPI JUMPDEST POP PUSH1 0x20 SWAP5 PUSH1 0x1F DUP3 GT PUSH1 0x1 EQ PUSH2 0x8A2 JUMPI SWAP5 DUP2 SWAP3 SWAP4 SWAP5 SWAP6 PUSH0 SWAP3 PUSH2 0x897 JUMPI JUMPDEST POP POP DUP2 PUSH1 0x1 SHL SWAP2 PUSH0 NOT SWAP1 PUSH1 0x3 SHL SHR NOT AND OR SWAP1 SSTORE JUMPDEST PUSH1 0x80 DUP3 ADD MLOAD SWAP2 PUSH1 0x6 DUP3 ADD DUP4 MLOAD PUSH1 0x1 PUSH1 0x1 PUSH1 0x40 SHL SUB DUP2 GT PUSH2 0x668 JUMPI PUSH2 0x46D DUP3 SLOAD PUSH2 0x4F65 JUMP JUMPDEST PUSH1 0x1F DUP2 GT PUSH2 0x852 JUMPI JUMPDEST POP PUSH1 0x20 SWAP5 PUSH1 0x1F DUP3 GT PUSH1 0x1 EQ PUSH2 0x7F1 JUMPI SWAP5 DUP2 SWAP3 SWAP4 SWAP5 SWAP6 PUSH0 SWAP3 PUSH2 0x7E6 JUMPI JUMPDEST POP POP DUP2 PUSH1 0x1 SHL SWAP2 PUSH0 NOT SWAP1 PUSH1 0x3 SHL SHR NOT AND OR SWAP1 SSTORE JUMPDEST PUSH1 0x40 DUP2 ADD MLOAD SWAP2 PUSH1 0x4 DUP2 ADD DUP4 MLOAD PUSH1 0x1 PUSH1 0x1 PUSH1 0x40 SHL SUB DUP2 GT PUSH2 0x668 JUMPI PUSH2 0x4CA DUP3 SLOAD PUSH2 0x4F65 JUMP JUMPDEST PUSH1 0x1F DUP2 GT PUSH2 0x7A1 JUMPI JUMPDEST POP PUSH1 0x20 SWAP5 PUSH1 0x1F DUP3 GT PUSH1 0x1 EQ PUSH2 0x740 JUMPI SWAP5 DUP2 SWAP3 SWAP4 SWAP5 SWAP6 PUSH0 SWAP3 PUSH2 0x735 JUMPI JUMPDEST POP POP DUP2 PUSH1 0x1 SHL SWAP2 PUSH0 NOT SWAP1 PUSH1 0x3 SHL SHR NOT AND OR SWAP1 SSTORE JUMPDEST PUSH1 0x60 DUP3 ADD MLOAD SWAP2 PUSH1 0x5 DUP3 ADD DUP4 MLOAD PUSH1 0x1 PUSH1 0x1 PUSH1 0x40 SHL SUB DUP2 GT PUSH2 0x668 JUMPI PUSH2 0x527 DUP3 SLOAD PUSH2 0x4F65 JUMP JUMPDEST PUSH1 0x1F DUP2 GT PUSH2 0x6F0 JUMPI JUMPDEST POP PUSH1 0x20 PUSH1 0x1F DUP3 GT PUSH1 0x1 EQ PUSH2 0x687 JUMPI SWAP1 DUP1 PUSH1 0xA0 SWAP5 SWAP4 SWAP3 PUSH1 0x7 SWAP7 SWAP8 PUSH0 SWAP3 PUSH2 0x67C JUMPI JUMPDEST POP POP DUP2 PUSH1 0x1 SHL SWAP2 PUSH0 NOT SWAP1 PUSH1 0x3 SHL SHR NOT AND OR SWAP1 SSTORE JUMPDEST ADD MLOAD SWAP2 ADD DUP2 MLOAD PUSH1 0x1 PUSH1 0x1 PUSH1 0x40 SHL SUB DUP2 GT PUSH2 0x668 JUMPI PUSH2 0x582 DUP3 SLOAD PUSH2 0x4F65 JUMP JUMPDEST PUSH1 0x1F DUP2 GT PUSH2 0x623 JUMPI JUMPDEST POP PUSH1 0x20 SWAP3 PUSH1 0x1F DUP3 GT PUSH1 0x1 EQ PUSH2 0x5C7 JUMPI SWAP3 DUP2 SWAP3 SWAP4 PUSH0 SWAP3 PUSH2 0x5BC JUMPI JUMPDEST POP POP PUSH0 NOT PUSH1 0x3 DUP4 SWAP1 SHL SHR NOT AND PUSH1 0x1 SWAP2 SWAP1 SWAP2 SHL OR SWAP1 SSTORE STOP JUMPDEST ADD MLOAD SWAP1 POP DUP4 DUP1 PUSH2 0x5A5 JUMP JUMPDEST PUSH1 0x1F NOT DUP3 AND SWAP4 DUP4 PUSH0 MSTORE DUP1 PUSH0 KECCAK256 SWAP2 PUSH0 JUMPDEST DUP7 DUP2 LT PUSH2 0x60B JUMPI POP DUP4 PUSH1 0x1 SWAP6 SWAP7 LT PUSH2 0x5F3 JUMPI JUMPDEST POP POP POP DUP2 SHL ADD SWAP1 SSTORE STOP JUMPDEST ADD MLOAD PUSH0 NOT PUSH1 0xF8 DUP5 PUSH1 0x3 SHL AND SHR NOT AND SWAP1 SSTORE DUP4 DUP1 DUP1 PUSH2 0x5E9 JUMP JUMPDEST SWAP2 SWAP3 PUSH1 0x20 PUSH1 0x1 DUP2 SWAP3 DUP7 DUP6 ADD MLOAD DUP2 SSTORE ADD SWAP5 ADD SWAP3 ADD PUSH2 0x5D6 JUMP JUMPDEST DUP3 PUSH0 MSTORE PUSH1 0x20 PUSH0 KECCAK256 PUSH1 0x1F DUP4 ADD PUSH1 0x5 SHR DUP2 ADD SWAP2 PUSH1 0x20 DUP5 LT PUSH2 0x65E JUMPI JUMPDEST PUSH1 0x1F ADD PUSH1 0x5 SHR ADD SWAP1 JUMPDEST DUP2 DUP2 LT PUSH2 0x653 JUMPI POP PUSH2 0x58B JUMP JUMPDEST PUSH0 DUP2 SSTORE PUSH1 0x1 ADD PUSH2 0x646 JUMP JUMPDEST SWAP1 SWAP2 POP DUP2 SWAP1 PUSH2 0x63D JUMP JUMPDEST PUSH4 0x4E487B71 PUSH1 0xE0 SHL PUSH0 MSTORE PUSH1 0x41 PUSH1 0x4 MSTORE PUSH1 0x24 PUSH0 REVERT JUMPDEST ADD MLOAD SWAP1 POP DUP8 DUP1 PUSH2 0x550 JUMP JUMPDEST PUSH1 0x1F NOT DUP3 AND SWAP6 DUP4 PUSH0 MSTORE DUP2 PUSH0 KECCAK256 SWAP7 PUSH0 JUMPDEST DUP2 DUP2 LT PUSH2 0x6D8 JUMPI POP SWAP7 PUSH1 0x1 SWAP3 DUP5 SWAP3 PUSH1 0xA0 SWAP8 SWAP7 SWAP6 PUSH1 0x7 SWAP10 SWAP11 LT PUSH2 0x6C0 JUMPI JUMPDEST POP POP POP DUP2 SHL ADD SWAP1 SSTORE PUSH2 0x564 JUMP JUMPDEST ADD MLOAD PUSH0 NOT PUSH1 0xF8 DUP5 PUSH1 0x3 SHL AND SHR NOT AND SWAP1 SSTORE DUP8 DUP1 DUP1 PUSH2 0x6B3 JUMP JUMPDEST DUP4 DUP4 ADD MLOAD DUP10 SSTORE PUSH1 0x1 SWAP1 SWAP9 ADD SWAP8 PUSH1 0x20 SWAP4 DUP5 ADD SWAP4 ADD PUSH2 0x696 JUMP JUMPDEST DUP3 PUSH0 MSTORE PUSH1 0x20 PUSH0 KECCAK256 PUSH1 0x1F DUP4 ADD PUSH1 0x5 SHR DUP2 ADD SWAP2 PUSH1 0x20 DUP5 LT PUSH2 0x72B JUMPI JUMPDEST PUSH1 0x1F ADD PUSH1 0x5 SHR ADD SWAP1 JUMPDEST DUP2 DUP2 LT PUSH2 0x720 JUMPI POP PUSH2 0x530 JUMP JUMPDEST PUSH0 DUP2 SSTORE PUSH1 0x1 ADD PUSH2 0x713 JUMP JUMPDEST SWAP1 SWAP2 POP DUP2 SWAP1 PUSH2 0x70A JUMP JUMPDEST ADD MLOAD SWAP1 POP DUP6 DUP1 PUSH2 0x4EF JUMP JUMPDEST PUSH1 0x1F NOT DUP3 AND SWAP6 DUP4 PUSH0 MSTORE DUP1 PUSH0 KECCAK256 SWAP2 PUSH0 JUMPDEST DUP9 DUP2 LT PUSH2 0x789 JUMPI POP DUP4 PUSH1 0x1 SWAP6 SWAP7 SWAP8 SWAP9 LT PUSH2 0x771 JUMPI JUMPDEST POP POP POP DUP2 SHL ADD SWAP1 SSTORE PUSH2 0x503 JUMP JUMPDEST ADD MLOAD PUSH0 NOT PUSH1 0xF8 DUP5 PUSH1 0x3 SHL AND SHR NOT AND SWAP1 SSTORE DUP6 DUP1 DUP1 PUSH2 0x764 JUMP JUMPDEST SWAP2 SWAP3 PUSH1 0x20 PUSH1 0x1 DUP2 SWAP3 DUP7 DUP6 ADD MLOAD DUP2 SSTORE ADD SWAP5 ADD SWAP3 ADD PUSH2 0x74F JUMP JUMPDEST DUP3 PUSH0 MSTORE PUSH1 0x20 PUSH0 KECCAK256 PUSH1 0x1F DUP4 ADD PUSH1 0x5 SHR DUP2 ADD SWAP2 PUSH1 0x20 DUP5 LT PUSH2 0x7DC JUMPI JUMPDEST PUSH1 0x1F ADD PUSH1 0x5 SHR ADD SWAP1 JUMPDEST DUP2 DUP2 LT PUSH2 0x7D1 JUMPI POP PUSH2 0x4D3 JUMP JUMPDEST PUSH0 DUP2 SSTORE PUSH1 0x1 ADD PUSH2 0x7C4 JUMP JUMPDEST SWAP1 SWAP2 POP DUP2 SWAP1 PUSH2 0x7BB JUMP JUMPDEST ADD MLOAD SWAP1 POP DUP6 DUP1 PUSH2 0x492 JUMP JUMPDEST PUSH1 0x1F NOT DUP3 AND SWAP6 DUP4 PUSH0 MSTORE DUP1 PUSH0 KECCAK256 SWAP2 PUSH0 JUMPDEST DUP9 DUP2 LT PUSH2 0x83A JUMPI POP DUP4 PUSH1 0x1 SWAP6 SWAP7 SWAP8 SWAP9 LT PUSH2 0x822 JUMPI JUMPDEST POP POP POP DUP2 SHL ADD SWAP1 SSTORE PUSH2 0x4A6 JUMP JUMPDEST ADD MLOAD PUSH0 NOT PUSH1 0xF8 DUP5 PUSH1 0x3 SHL AND SHR NOT AND SWAP1 SSTORE DUP6 DUP1 DUP1 PUSH2 0x815 JUMP JUMPDEST SWAP2 SWAP3 PUSH1 0x20 PUSH1 0x1 DUP2 SWAP3 DUP7 DUP6 ADD MLOAD DUP2 SSTORE ADD SWAP5 ADD SWAP3 ADD PUSH2 0x800 JUMP JUMPDEST DUP3 PUSH0 MSTORE PUSH1 0x20 PUSH0 KECCAK256 PUSH1 0x1F DUP4 ADD PUSH1 0x5 SHR DUP2 ADD SWAP2 PUSH1 0x20 DUP5 LT PUSH2 0x88D JUMPI JUMPDEST PUSH1 0x1F ADD PUSH1 0x5 SHR ADD SWAP1 JUMPDEST DUP2 DUP2 LT PUSH2 0x882 JUMPI POP PUSH2 0x476 JUMP JUMPDEST PUSH0 DUP2 SSTORE PUSH1 0x1 ADD PUSH2 0x875 JUMP JUMPDEST SWAP1 SWAP2 POP DUP2 SWAP1 PUSH2 0x86C JUMP JUMPDEST ADD MLOAD SWAP1 POP DUP6 DUP1 PUSH2 0x435 JUMP JUMPDEST PUSH1 0x1F NOT DUP3 AND SWAP6 DUP4 PUSH0 MSTORE DUP1 PUSH0 KECCAK256 SWAP2 PUSH0 JUMPDEST DUP9 DUP2 LT PUSH2 0x8EB JUMPI POP DUP4 PUSH1 0x1 SWAP6 SWAP7 SWAP8 SWAP9 LT PUSH2 0x8D3 JUMPI JUMPDEST POP POP POP DUP2 SHL ADD SWAP1 SSTORE PUSH2 0x449 JUMP JUMPDEST ADD MLOAD PUSH0 NOT PUSH1 0xF8 DUP5 PUSH1 0x3 SHL AND SHR NOT AND SWAP1 SSTORE DUP6 DUP1 DUP1 PUSH2 0x8C6 JUMP JUMPDEST SWAP2 SWAP3 PUSH1 0x20 PUSH1 0x1 DUP2 SWAP3 DUP7 DUP6 ADD MLOAD DUP2 SSTORE ADD SWAP5 ADD SWAP3 ADD PUSH2 0x8B1 JUMP JUMPDEST DUP3 PUSH0 MSTORE PUSH1 0x20 PUSH0 KECCAK256 PUSH1 0x1F DUP4 ADD PUSH1 0x5 SHR DUP2 ADD SWAP2 PUSH1 0x20 DUP5 LT PUSH2 0x93E JUMPI JUMPDEST PUSH1 0x1F ADD PUSH1 0x5 SHR ADD SWAP1 JUMPDEST DUP2 DUP2 LT PUSH2 0x933 JUMPI POP PUSH2 0x419 JUMP JUMPDEST PUSH0 DUP2 SSTORE PUSH1 0x1 ADD PUSH2 0x926 JUMP JUMPDEST SWAP1 SWAP2 POP DUP2 SWAP1 PUSH2 0x91D JUMP JUMPDEST ADD MLOAD SWAP1 POP DUP6 DUP1 PUSH2 0x3D8 JUMP JUMPDEST PUSH1 0x1F NOT DUP3 AND SWAP6 DUP4 PUSH0 MSTORE DUP1 PUSH0 KECCAK256 SWAP2 PUSH0 JUMPDEST DUP9 DUP2 LT PUSH2 0x99C JUMPI POP DUP4 PUSH1 0x1 SWAP6 SWAP7 SWAP8 SWAP9 LT PUSH2 0x984 JUMPI JUMPDEST POP POP POP DUP2 SHL ADD SWAP1 SSTORE PUSH2 0x3EC JUMP JUMPDEST ADD MLOAD PUSH0 NOT PUSH1 0xF8 DUP5 PUSH1 0x3 SHL AND SHR NOT AND SWAP1 SSTORE DUP6 DUP1 DUP1 PUSH2 0x977 JUMP JUMPDEST SWAP2 SWAP3 PUSH1 0x20 PUSH1 0x1 DUP2 SWAP3 DUP7 DUP6 ADD MLOAD DUP2 SSTORE ADD SWAP5 ADD SWAP3 ADD PUSH2 0x962 JUMP JUMPDEST DUP3 PUSH0 MSTORE PUSH1 0x20 PUSH0 KECCAK256 PUSH1 0x1F DUP4 ADD PUSH1 0x5 SHR DUP2 ADD SWAP2 PUSH1 0x20 DUP5 LT PUSH2 0x9EF JUMPI JUMPDEST PUSH1 0x1F ADD PUSH1 0x5 SHR ADD SWAP1 JUMPDEST DUP2 DUP2 LT PUSH2 0x9E4 JUMPI POP PUSH2 0x3BC JUMP JUMPDEST PUSH0 DUP2 SSTORE PUSH1 0x1 ADD PUSH2 0x9D7 JUMP JUMPDEST SWAP1 SWAP2 POP DUP2 SWAP1 PUSH2 0x9CE JUMP JUMPDEST PUSH1 0x40 MLOAD PUSH3 0x461BCD PUSH1 0xE5 SHL DUP2 MSTORE PUSH1 0x20 PUSH1 0x4 DUP3 ADD MSTORE PUSH1 0x24 DUP1 DUP3 ADD MSTORE PUSH32 0x4F6E6C7920646F63746F72732063616E20757064617465206170706F696E746D PUSH1 0x44 DUP3 ADD MSTORE PUSH4 0x656E7473 PUSH1 0xE0 SHL PUSH1 0x64 DUP3 ADD MSTORE PUSH1 0x84 SWAP1 REVERT JUMPDEST CALLVALUE PUSH2 0x195 JUMPI PUSH0 CALLDATASIZE PUSH1 0x3 NOT ADD SLT PUSH2 0x195 JUMPI PUSH1 0x20 PUSH1 0xB SLOAD PUSH1 0x40 MLOAD SWAP1 DUP2 MSTORE RETURN JUMPDEST CALLVALUE PUSH2 0x195 JUMPI PUSH0 CALLDATASIZE PUSH1 0x3 NOT ADD SLT PUSH2 0x195 JUMPI PUSH1 0x20 PUSH1 0xE SLOAD PUSH1 0x40 MLOAD SWAP1 DUP2 MSTORE RETURN JUMPDEST CALLVALUE PUSH2 0x195 JUMPI PUSH1 0x20 CALLDATASIZE PUSH1 0x3 NOT ADD SLT PUSH2 0x195 JUMPI PUSH1 0x1 PUSH1 0x1 PUSH1 0xA0 SHL SUB PUSH2 0xAA5 PUSH2 0x4D5B JUMP JUMPDEST AND PUSH0 MSTORE PUSH1 0x4 PUSH1 0x20 MSTORE PUSH1 0x20 PUSH2 0x1C0 PUSH1 0x40 PUSH0 KECCAK256 PUSH1 0xE PUSH1 0x40 MLOAD SWAP2 PUSH2 0xAC5 DUP4 PUSH2 0x4D71 JUMP JUMPDEST PUSH2 0xACE DUP2 PUSH2 0x4F9D JUMP JUMPDEST DUP4 MSTORE PUSH2 0xADC PUSH1 0x1 DUP3 ADD PUSH2 0x4F9D JUMP JUMPDEST DUP6 DUP5 ADD MSTORE PUSH2 0xAEC PUSH1 0x2 DUP3 ADD PUSH2 0x4F9D JUMP JUMPDEST PUSH1 0x40 DUP5 ADD MSTORE PUSH2 0xAFD PUSH1 0x3 DUP3 ADD PUSH2 0x4F9D JUMP JUMPDEST PUSH1 0x60 DUP5 ADD MSTORE PUSH2 0xB0E PUSH1 0x4 DUP3 ADD PUSH2 0x4F9D JUMP JUMPDEST PUSH1 0x80 DUP5 ADD MSTORE PUSH2 0xB1F PUSH1 0x5 DUP3 ADD PUSH2 0x4F9D JUMP JUMPDEST PUSH1 0xA0 DUP5 ADD MSTORE PUSH2 0xB30 PUSH1 0x6 DUP3 ADD PUSH2 0x4F9D JUMP JUMPDEST PUSH1 0xC0 DUP5 ADD MSTORE PUSH2 0xB41 PUSH1 0x7 DUP3 ADD PUSH2 0x4F9D JUMP JUMPDEST PUSH1 0xE0 DUP5 ADD MSTORE PUSH2 0xB52 PUSH1 0x8 DUP3 ADD PUSH2 0x4F9D JUMP JUMPDEST PUSH2 0x100 DUP5 ADD MSTORE PUSH2 0xB64 PUSH1 0x9 DUP3 ADD PUSH2 0x4F9D JUMP JUMPDEST PUSH2 0x120 DUP5 ADD MSTORE PUSH2 0xB76 PUSH1 0xA DUP3 ADD PUSH2 0x4F9D JUMP JUMPDEST PUSH2 0x140 DUP5 ADD MSTORE PUSH2 0xB88 PUSH1 0xB DUP3 ADD PUSH2 0x4F9D JUMP JUMPDEST PUSH2 0x160 DUP5 ADD MSTORE PUSH2 0xB9A PUSH1 0xC DUP3 ADD PUSH2 0x4F9D JUMP JUMPDEST PUSH2 0x180 DUP5 ADD MSTORE PUSH1 0xD DUP2 ADD SLOAD PUSH1 0x1 PUSH1 0x1 PUSH1 0xA0 SHL SUB AND PUSH2 0x1A0 DUP5 ADD MSTORE ADD SLOAD SWAP2 ADD DUP2 SWAP1 MSTORE PUSH1 0x40 MLOAD SWAP1 DUP2 MSTORE RETURN JUMPDEST CALLVALUE PUSH2 0x195 JUMPI PUSH1 0x20 CALLDATASIZE PUSH1 0x3 NOT ADD SLT PUSH2 0x195 JUMPI PUSH1 0x4 CALLDATALOAD PUSH1 0x1 SLOAD DUP2 LT ISZERO PUSH2 0x195 JUMPI PUSH1 0x1 SLOAD DUP2 LT ISZERO PUSH2 0x235 JUMPI PUSH1 0x1 PUSH0 MSTORE PUSH32 0xB10E2D527612073B26EECDFD717E6A320CF44B4AFAC2B0732D9FCBE2B7FA0CF6 ADD SLOAD PUSH1 0x40 MLOAD PUSH1 0x1 PUSH1 0x1 PUSH1 0xA0 SHL SUB SWAP1 SWAP2 AND DUP2 MSTORE PUSH1 0x20 SWAP1 RETURN JUMPDEST CALLVALUE PUSH2 0x195 JUMPI PUSH0 CALLDATASIZE PUSH1 0x3 NOT ADD SLT PUSH2 0x195 JUMPI PUSH1 0x40 MLOAD DUP1 PUSH1 0x20 PUSH1 0x2 SLOAD SWAP2 DUP3 DUP2 MSTORE ADD SWAP1 PUSH1 0x2 PUSH0 MSTORE PUSH32 0x405787FA12A823E0F2B7631CC41B3BA8828B3321CA811111FA75CD3AA3BB5ACE SWAP1 PUSH0 JUMPDEST DUP2 DUP2 LT PUSH2 0xC91 JUMPI PUSH2 0x357 DUP6 PUSH2 0xC85 DUP2 DUP8 SUB DUP3 PUSH2 0x4DA9 JUMP JUMPDEST PUSH1 0x40 MLOAD SWAP2 DUP3 SWAP2 DUP3 PUSH2 0x5076 JUMP JUMPDEST DUP3 SLOAD PUSH1 0x1 PUSH1 0x1 PUSH1 0xA0 SHL SUB AND DUP5 MSTORE PUSH1 0x20 SWAP1 SWAP4 ADD SWAP3 PUSH1 0x1 SWAP3 DUP4 ADD SWAP3 ADD PUSH2 0xC6E JUMP JUMPDEST CALLVALUE PUSH2 0x195 JUMPI PUSH2 0xCBE CALLDATASIZE PUSH2 0x52DD JUMP JUMPDEST SWAP5 SWAP6 SWAP4 SWAP1 SWAP6 SWAP3 SWAP2 SWAP3 CALLER PUSH0 MSTORE PUSH1 0x9 PUSH1 0x20 MSTORE PUSH2 0xCDE PUSH1 0xFF PUSH1 0x40 PUSH0 KECCAK256 SLOAD AND PUSH2 0x541F JUMP JUMPDEST CALLER PUSH0 MSTORE PUSH1 0x5 PUSH1 0x20 MSTORE PUSH1 0x40 PUSH0 KECCAK256 SWAP5 DUP1 MLOAD SWAP1 PUSH1 0x1 PUSH1 0x1 PUSH1 0x40 SHL SUB DUP3 GT PUSH2 0x668 JUMPI DUP2 SWAP1 PUSH2 0xD08 DUP9 SLOAD PUSH2 0x4F65 JUMP JUMPDEST PUSH1 0x1F DUP2 GT PUSH2 0x13D8 JUMPI JUMPDEST POP PUSH1 0x20 SWAP1 PUSH1 0x1F DUP4 GT PUSH1 0x1 EQ PUSH2 0x1375 JUMPI PUSH0 SWAP3 PUSH2 0x136A JUMPI JUMPDEST POP POP DUP2 PUSH1 0x1 SHL SWAP2 PUSH0 NOT SWAP1 PUSH1 0x3 SHL SHR NOT AND OR DUP6 SSTORE JUMPDEST DUP1 MLOAD PUSH1 0x1 DUP7 ADD SWAP2 PUSH1 0x1 PUSH1 0x1 PUSH1 0x40 SHL SUB DUP3 GT PUSH2 0x668 JUMPI DUP2 SWAP1 PUSH2 0xD5C DUP5 SLOAD PUSH2 0x4F65 JUMP JUMPDEST PUSH1 0x1F DUP2 GT PUSH2 0x131A JUMPI JUMPDEST POP PUSH1 0x20 SWAP1 PUSH1 0x1F DUP4 GT PUSH1 0x1 EQ PUSH2 0x12B7 JUMPI PUSH0 SWAP3 PUSH2 0x12AC JUMPI JUMPDEST POP POP DUP2 PUSH1 0x1 SHL SWAP2 PUSH0 NOT SWAP1 PUSH1 0x3 SHL SHR NOT AND OR SWAP1 SSTORE JUMPDEST DUP1 MLOAD PUSH1 0x2 DUP6 ADD SWAP2 PUSH1 0x1 PUSH1 0x1 PUSH1 0x40 SHL SUB DUP3 GT PUSH2 0x668 JUMPI DUP2 SWAP1 PUSH2 0xDB0 DUP5 SLOAD PUSH2 0x4F65 JUMP JUMPDEST PUSH1 0x1F DUP2 GT PUSH2 0x125C JUMPI JUMPDEST POP PUSH1 0x20 SWAP1 PUSH1 0x1F DUP4 GT PUSH1 0x1 EQ PUSH2 0x11F9 JUMPI PUSH0 SWAP3 PUSH2 0x11EE JUMPI JUMPDEST POP POP DUP2 PUSH1 0x1 SHL SWAP2 PUSH0 NOT SWAP1 PUSH1 0x3 SHL SHR NOT AND OR SWAP1 SSTORE JUMPDEST DUP1 MLOAD PUSH1 0x3 DUP5 ADD SWAP2 PUSH1 0x1 PUSH1 0x1 PUSH1 0x40 SHL SUB DUP3 GT PUSH2 0x668 JUMPI DUP2 SWAP1 PUSH2 0xE04 DUP5 SLOAD PUSH2 0x4F65 JUMP JUMPDEST PUSH1 0x1F DUP2 GT PUSH2 0x119E JUMPI JUMPDEST POP PUSH1 0x20 SWAP1 PUSH1 0x1F DUP4 GT PUSH1 0x1 EQ PUSH2 0x113B JUMPI PUSH0 SWAP3 PUSH2 0x1130 JUMPI JUMPDEST POP POP DUP2 PUSH1 0x1 SHL SWAP2 PUSH0 NOT SWAP1 PUSH1 0x3 SHL SHR NOT AND OR SWAP1 SSTORE JUMPDEST DUP1 MLOAD PUSH1 0x4 DUP4 ADD SWAP2 PUSH1 0x1 PUSH1 0x1 PUSH1 0x40 SHL SUB DUP3 GT PUSH2 0x668 JUMPI DUP2 SWAP1 PUSH2 0xE58 DUP5 SLOAD PUSH2 0x4F65 JUMP JUMPDEST PUSH1 0x1F DUP2 GT PUSH2 0x10E0 JUMPI JUMPDEST POP PUSH1 0x20 SWAP1 PUSH1 0x1F DUP4 GT PUSH1 0x1 EQ PUSH2 0x107D JUMPI PUSH0 SWAP3 PUSH2 0x1072 JUMPI JUMPDEST POP POP DUP2 PUSH1 0x1 SHL SWAP2 PUSH0 NOT SWAP1 PUSH1 0x3 SHL SHR NOT AND OR SWAP1 SSTORE JUMPDEST PUSH1 0x5 DUP2 ADD DUP4 MLOAD PUSH1 0x1 PUSH1 0x1 PUSH1 0x40 SHL SUB DUP2 GT PUSH2 0x668 JUMPI PUSH2 0xEA9 DUP3 SLOAD PUSH2 0x4F65 JUMP JUMPDEST PUSH1 0x1F DUP2 GT PUSH2 0x102D JUMPI JUMPDEST POP PUSH1 0x20 PUSH1 0x1F DUP3 GT PUSH1 0x1 EQ PUSH2 0xFC8 JUMPI DUP2 SWAP1 PUSH1 0x6 SWAP6 SWAP7 PUSH0 SWAP3 PUSH2 0xFBD JUMPI JUMPDEST POP POP DUP2 PUSH1 0x1 SHL SWAP2 PUSH0 NOT SWAP1 PUSH1 0x3 SHL SHR NOT AND OR SWAP1 SSTORE JUMPDEST ADD DUP2 MLOAD PUSH1 0x1 PUSH1 0x1 PUSH1 0x40 SHL SUB DUP2 GT PUSH2 0x668 JUMPI PUSH2 0xEFC DUP3 SLOAD PUSH2 0x4F65 JUMP JUMPDEST PUSH1 0x1F DUP2 GT PUSH2 0xF78 JUMPI JUMPDEST POP PUSH1 0x20 SWAP3 PUSH1 0x1F DUP3 GT PUSH1 0x1 EQ PUSH2 0xF35 JUMPI SWAP3 DUP2 SWAP3 SWAP4 PUSH0 SWAP3 PUSH2 0x5BC JUMPI POP POP PUSH0 NOT PUSH1 0x3 DUP4 SWAP1 SHL SHR NOT AND PUSH1 0x1 SWAP2 SWAP1 SWAP2 SHL OR SWAP1 SSTORE STOP JUMPDEST PUSH1 0x1F NOT DUP3 AND SWAP4 DUP4 PUSH0 MSTORE DUP1 PUSH0 KECCAK256 SWAP2 PUSH0 JUMPDEST DUP7 DUP2 LT PUSH2 0xF60 JUMPI POP DUP4 PUSH1 0x1 SWAP6 SWAP7 LT PUSH2 0x5F3 JUMPI POP POP POP DUP2 SHL ADD SWAP1 SSTORE STOP JUMPDEST SWAP2 SWAP3 PUSH1 0x20 PUSH1 0x1 DUP2 SWAP3 DUP7 DUP6 ADD MLOAD DUP2 SSTORE ADD SWAP5 ADD SWAP3 ADD PUSH2 0xF44 JUMP JUMPDEST DUP3 PUSH0 MSTORE PUSH1 0x20 PUSH0 KECCAK256 PUSH1 0x1F DUP4 ADD PUSH1 0x5 SHR DUP2 ADD SWAP2 PUSH1 0x20 DUP5 LT PUSH2 0xFB3 JUMPI JUMPDEST PUSH1 0x1F ADD PUSH1 0x5 SHR ADD SWAP1 JUMPDEST DUP2 DUP2 LT PUSH2 0xFA8 JUMPI POP PUSH2 0xF05 JUMP JUMPDEST PUSH0 DUP2 SSTORE PUSH1 0x1 ADD PUSH2 0xF9B JUMP JUMPDEST SWAP1 SWAP2 POP DUP2 SWAP1 PUSH2 0xF92 JUMP JUMPDEST ADD MLOAD SWAP1 POP DUP7 DUP1 PUSH2 0xECD JUMP JUMPDEST PUSH1 0x1F NOT DUP3 AND SWAP6 DUP4 PUSH0 MSTORE DUP2 PUSH0 KECCAK256 SWAP7 PUSH0 JUMPDEST DUP2 DUP2 LT PUSH2 0x1015 JUMPI POP SWAP2 PUSH1 0x6 SWAP7 SWAP8 SWAP2 DUP5 PUSH1 0x1 SWAP6 SWAP5 LT PUSH2 0xFFD JUMPI JUMPDEST POP POP POP DUP2 SHL ADD SWAP1 SSTORE PUSH2 0xEE1 JUMP JUMPDEST ADD MLOAD PUSH0 NOT PUSH1 0xF8 DUP5 PUSH1 0x3 SHL AND SHR NOT AND SWAP1 SSTORE DUP7 DUP1 DUP1 PUSH2 0xFF0 JUMP JUMPDEST DUP4 DUP4 ADD MLOAD DUP10 SSTORE PUSH1 0x1 SWAP1 SWAP9 ADD SWAP8 PUSH1 0x20 SWAP4 DUP5 ADD SWAP4 ADD PUSH2 0xFD7 JUMP JUMPDEST DUP3 PUSH0 MSTORE PUSH1 0x20 PUSH0 KECCAK256 PUSH1 0x1F DUP4 ADD PUSH1 0x5 SHR DUP2 ADD SWAP2 PUSH1 0x20 DUP5 LT PUSH2 0x1068 JUMPI JUMPDEST PUSH1 0x1F ADD PUSH1 0x5 SHR ADD SWAP1 JUMPDEST DUP2 DUP2 LT PUSH2 0x105D JUMPI POP PUSH2 0xEB2 JUMP JUMPDEST PUSH0 DUP2 SSTORE PUSH1 0x1 ADD PUSH2 0x1050 JUMP JUMPDEST SWAP1 SWAP2 POP DUP2 SWAP1 PUSH2 0x1047 JUMP JUMPDEST ADD MLOAD SWAP1 POP DUP7 DUP1 PUSH2 0xE77 JUMP JUMPDEST PUSH0 DUP6 DUP2 MSTORE DUP3 DUP2 KECCAK256 SWAP4 POP PUSH1 0x1F NOT DUP6 AND SWAP1 JUMPDEST DUP2 DUP2 LT PUSH2 0x10C8 JUMPI POP SWAP1 DUP5 PUSH1 0x1 SWAP6 SWAP5 SWAP4 SWAP3 LT PUSH2 0x10B0 JUMPI JUMPDEST POP POP POP DUP2 SHL ADD SWAP1 SSTORE PUSH2 0xE8B JUMP JUMPDEST ADD MLOAD PUSH0 NOT PUSH1 0xF8 DUP5 PUSH1 0x3 SHL AND SHR NOT AND SWAP1 SSTORE DUP7 DUP1 DUP1 PUSH2 0x10A3 JUMP JUMPDEST SWAP3 SWAP4 PUSH1 0x20 PUSH1 0x1 DUP2 SWAP3 DUP8 DUP7 ADD MLOAD DUP2 SSTORE ADD SWAP6 ADD SWAP4 ADD PUSH2 0x108D JUMP JUMPDEST SWAP1 SWAP2 POP DUP4 PUSH0 MSTORE PUSH1 0x20 PUSH0 KECCAK256 PUSH1 0x1F DUP5 ADD PUSH1 0x5 SHR DUP2 ADD SWAP2 PUSH1 0x20 DUP6 LT PUSH2 0x1126 JUMPI JUMPDEST SWAP1 PUSH1 0x1F DUP6 SWAP5 SWAP4 SWAP3 ADD PUSH1 0x5 SHR ADD SWAP1 JUMPDEST DUP2 DUP2 LT PUSH2 0x1118 JUMPI POP PUSH2 0xE61 JUMP JUMPDEST PUSH0 DUP2 SSTORE DUP5 SWAP4 POP PUSH1 0x1 ADD PUSH2 0x110B JUMP JUMPDEST SWAP1 SWAP2 POP DUP2 SWAP1 PUSH2 0x10FD JUMP JUMPDEST ADD MLOAD SWAP1 POP DUP8 DUP1 PUSH2 0xE23 JUMP JUMPDEST PUSH0 DUP6 DUP2 MSTORE DUP3 DUP2 KECCAK256 SWAP4 POP PUSH1 0x1F NOT DUP6 AND SWAP1 JUMPDEST DUP2 DUP2 LT PUSH2 0x1186 JUMPI POP SWAP1 DUP5 PUSH1 0x1 SWAP6 SWAP5 SWAP4 SWAP3 LT PUSH2 0x116E JUMPI JUMPDEST POP POP POP DUP2 SHL ADD SWAP1 SSTORE PUSH2 0xE37 JUMP JUMPDEST ADD MLOAD PUSH0 NOT PUSH1 0xF8 DUP5 PUSH1 0x3 SHL AND SHR NOT AND SWAP1 SSTORE DUP8 DUP1 DUP1 PUSH2 0x1161 JUMP JUMPDEST SWAP3 SWAP4 PUSH1 0x20 PUSH1 0x1 DUP2 SWAP3 DUP8 DUP7 ADD MLOAD DUP2 SSTORE ADD SWAP6 ADD SWAP4 ADD PUSH2 0x114B JUMP JUMPDEST SWAP1 SWAP2 POP DUP4 PUSH0 MSTORE PUSH1 0x20 PUSH0 KECCAK256 PUSH1 0x1F DUP5 ADD PUSH1 0x5 SHR DUP2 ADD SWAP2 PUSH1 0x20 DUP6 LT PUSH2 0x11E4 JUMPI JUMPDEST SWAP1 PUSH1 0x1F DUP6 SWAP5 SWAP4 SWAP3 ADD PUSH1 0x5 SHR ADD SWAP1 JUMPDEST DUP2 DUP2 LT PUSH2 0x11D6 JUMPI POP PUSH2 0xE0D JUMP JUMPDEST PUSH0 DUP2 SSTORE DUP5 SWAP4 POP PUSH1 0x1 ADD PUSH2 0x11C9 JUMP JUMPDEST SWAP1 SWAP2 POP DUP2 SWAP1 PUSH2 0x11BB JUMP JUMPDEST ADD MLOAD SWAP1 POP DUP9 DUP1 PUSH2 0xDCF JUMP JUMPDEST PUSH0 DUP6 DUP2 MSTORE DUP3 DUP2 KECCAK256 SWAP4 POP PUSH1 0x1F NOT DUP6 AND SWAP1 JUMPDEST DUP2 DUP2 LT PUSH2 0x1244 JUMPI POP SWAP1 DUP5 PUSH1 0x1 SWAP6 SWAP5 SWAP4 SWAP3 LT PUSH2 0x122C JUMPI JUMPDEST POP POP POP DUP2 SHL ADD SWAP1 SSTORE PUSH2 0xDE3 JUMP JUMPDEST ADD MLOAD PUSH0 NOT PUSH1 0xF8 DUP5 PUSH1 0x3 SHL AND SHR NOT AND SWAP1 SSTORE DUP9 DUP1 DUP1 PUSH2 0x121F JUMP JUMPDEST SWAP3 SWAP4 PUSH1 0x20 PUSH1 0x1 DUP2 SWAP3 DUP8 DUP7 ADD MLOAD DUP2 SSTORE ADD SWAP6 ADD SWAP4 ADD PUSH2 0x1209 JUMP JUMPDEST SWAP1 SWAP2 POP DUP4 PUSH0 MSTORE PUSH1 0x20 PUSH0 KECCAK256 PUSH1 0x1F DUP5 ADD PUSH1 0x5 SHR DUP2 ADD SWAP2 PUSH1 0x20 DUP6 LT PUSH2 0x12A2 JUMPI JUMPDEST SWAP1 PUSH1 0x1F DUP6 SWAP5 SWAP4 SWAP3 ADD PUSH1 0x5 SHR ADD SWAP1 JUMPDEST DUP2 DUP2 LT PUSH2 0x1294 JUMPI POP PUSH2 0xDB9 JUMP JUMPDEST PUSH0 DUP2 SSTORE DUP5 SWAP4 POP PUSH1 0x1 ADD PUSH2 0x1287 JUMP JUMPDEST SWAP1 SWAP2 POP DUP2 SWAP1 PUSH2 0x1279 JUMP JUMPDEST ADD MLOAD SWAP1 POP DUP10 DUP1 PUSH2 0xD7B JUMP JUMPDEST PUSH0 DUP6 DUP2 MSTORE DUP3 DUP2 KECCAK256 SWAP4 POP PUSH1 0x1F NOT DUP6 AND SWAP1 JUMPDEST DUP2 DUP2 LT PUSH2 0x1302 JUMPI POP SWAP1 DUP5 PUSH1 0x1 SWAP6 SWAP5 SWAP4 SWAP3 LT PUSH2 0x12EA JUMPI JUMPDEST POP POP POP DUP2 SHL ADD SWAP1 SSTORE PUSH2 0xD8F JUMP JUMPDEST ADD MLOAD PUSH0 NOT PUSH1 0xF8 DUP5 PUSH1 0x3 SHL AND SHR NOT AND SWAP1 SSTORE DUP10 DUP1 DUP1 PUSH2 0x12DD JUMP JUMPDEST SWAP3 SWAP4 PUSH1 0x20 PUSH1 0x1 DUP2 SWAP3 DUP8 DUP7 ADD MLOAD DUP2 SSTORE ADD SWAP6 ADD SWAP4 ADD PUSH2 0x12C7 JUMP JUMPDEST SWAP1 SWAP2 POP DUP4 PUSH0 MSTORE PUSH1 0x20 PUSH0 KECCAK256 PUSH1 0x1F DUP5 ADD PUSH1 0x5 SHR DUP2 ADD SWAP2 PUSH1 0x20 DUP6 LT PUSH2 0x1360 JUMPI JUMPDEST SWAP1 PUSH1 0x1F DUP6 SWAP5 SWAP4 SWAP3 ADD PUSH1 0x5 SHR ADD SWAP1 JUMPDEST DUP2 DUP2 LT PUSH2 0x1352 JUMPI POP PUSH2 0xD65 JUMP JUMPDEST PUSH0 DUP2 SSTORE DUP5 SWAP4 POP PUSH1 0x1 ADD PUSH2 0x1345 JUMP JUMPDEST SWAP1 SWAP2 POP DUP2 SWAP1 PUSH2 0x1337 JUMP JUMPDEST ADD MLOAD SWAP1 POP DUP10 DUP1 PUSH2 0xD27 JUMP JUMPDEST PUSH0 DUP10 DUP2 MSTORE DUP3 DUP2 KECCAK256 SWAP4 POP PUSH1 0x1F NOT DUP6 AND SWAP1 JUMPDEST DUP2 DUP2 LT PUSH2 0x13C0 JUMPI POP SWAP1 DUP5 PUSH1 0x1 SWAP6 SWAP5 SWAP4 SWAP3 LT PUSH2 0x13A8 JUMPI JUMPDEST POP POP POP DUP2 SHL ADD DUP6 SSTORE PUSH2 0xD3B JUMP JUMPDEST ADD MLOAD PUSH0 NOT PUSH1 0xF8 DUP5 PUSH1 0x3 SHL AND SHR NOT AND SWAP1 SSTORE DUP10 DUP1 DUP1 PUSH2 0x139B JUMP JUMPDEST SWAP3 SWAP4 PUSH1 0x20 PUSH1 0x1 DUP2 SWAP3 DUP8 DUP7 ADD MLOAD DUP2 SSTORE ADD SWAP6 ADD SWAP4 ADD PUSH2 0x1385 JUMP JUMPDEST SWAP1 SWAP2 POP DUP8 PUSH0 MSTORE PUSH1 0x20 PUSH0 KECCAK256 PUSH1 0x1F DUP5 ADD PUSH1 0x5 SHR DUP2 ADD SWAP2 PUSH1 0x20 DUP6 LT PUSH2 0x141E JUMPI JUMPDEST SWAP1 PUSH1 0x1F DUP6 SWAP5 SWAP4 SWAP3 ADD PUSH1 0x5 SHR ADD SWAP1 JUMPDEST DUP2 DUP2 LT PUSH2 0x1410 JUMPI POP PUSH2 0xD11 JUMP JUMPDEST PUSH0 DUP2 SSTORE DUP5 SWAP4 POP PUSH1 0x1 ADD PUSH2 0x1403 JUMP JUMPDEST SWAP1 SWAP2 POP DUP2 SWAP1 PUSH2 0x13F5 JUMP JUMPDEST CALLVALUE PUSH2 0x195 JUMPI PUSH1 0x20 CALLDATASIZE PUSH1 0x3 NOT ADD SLT PUSH2 0x195 JUMPI PUSH2 0x1441 PUSH2 0x4D5B JUMP JUMPDEST CALLER PUSH0 MSTORE PUSH1 0x7 PUSH1 0x20 MSTORE PUSH1 0x40 PUSH0 KECCAK256 SWAP1 PUSH1 0x1 DUP1 PUSH1 0xA0 SHL SUB AND PUSH0 MSTORE PUSH1 0x20 MSTORE PUSH1 0x40 PUSH0 KECCAK256 PUSH1 0xFF NOT DUP2 SLOAD AND SWAP1 SSTORE PUSH1 0x20 PUSH1 0x40 MLOAD PUSH1 0x1 DUP2 MSTORE RETURN JUMPDEST CALLVALUE PUSH2 0x195 JUMPI PUSH2 0x1480 CALLDATASIZE PUSH2 0x50B8 JUMP JUMPDEST SWAP11 SWAP10 SWAP1 SWAP10 SWAP9 SWAP2 SWAP9 SWAP8 SWAP3 SWAP8 SWAP7 SWAP4 SWAP7 SWAP6 SWAP5 SWAP6 CALLER PUSH0 MSTORE PUSH1 0x8 PUSH1 0x20 MSTORE PUSH1 0xFF PUSH1 0x40 PUSH0 KECCAK256 SLOAD AND PUSH2 0x23E1 JUMPI PUSH1 0x40 MLOAD SWAP13 PUSH2 0x14B1 DUP15 PUSH2 0x4D71 JUMP JUMPDEST DUP14 MSTORE PUSH1 0x20 DUP14 ADD MSTORE PUSH1 0x40 DUP13 ADD MSTORE PUSH1 0x60 DUP12 ADD MSTORE PUSH1 0x80 DUP11 ADD MSTORE PUSH1 0xA0 DUP10 ADD MSTORE PUSH1 0xC0 DUP9 ADD MSTORE PUSH1 0xE0 DUP8 ADD MSTORE PUSH2 0x100 DUP7 ADD MSTORE PUSH2 0x120 DUP6 ADD MSTORE PUSH2 0x140 DUP5 ADD MSTORE PUSH2 0x160 DUP4 ADD MSTORE PUSH2 0x180 DUP3 ADD SWAP1 DUP2 MSTORE CALLER PUSH2 0x1A0 DUP4 ADD MSTORE TIMESTAMP PUSH2 0x1C0 DUP4 ADD MSTORE CALLER PUSH0 MSTORE PUSH1 0x4 PUSH1 0x20 MSTORE PUSH1 0x40 PUSH0 KECCAK256 DUP3 MLOAD SWAP3 DUP4 MLOAD PUSH1 0x1 PUSH1 0x1 PUSH1 0x40 SHL SUB DUP2 GT PUSH2 0x668 JUMPI PUSH2 0x152D DUP4 SLOAD PUSH2 0x4F65 JUMP JUMPDEST PUSH1 0x1F DUP2 GT PUSH2 0x23A0 JUMPI JUMPDEST POP PUSH1 0x20 PUSH1 0x1F DUP3 GT PUSH1 0x1 EQ PUSH2 0x233C JUMPI DUP2 SWAP3 SWAP4 SWAP5 SWAP6 PUSH0 SWAP3 PUSH2 0x2331 JUMPI JUMPDEST POP POP DUP2 PUSH1 0x1 SHL SWAP2 PUSH0 NOT SWAP1 PUSH1 0x3 SHL SHR NOT AND OR DUP3 SSTORE JUMPDEST PUSH1 0x1 DUP3 ADD PUSH1 0x20 DUP3 ADD MLOAD DUP1 MLOAD SWAP1 PUSH1 0x1 PUSH1 0x1 PUSH1 0x40 SHL SUB DUP3 GT PUSH2 0x668 JUMPI DUP2 SWAP1 PUSH2 0x158A DUP5 SLOAD PUSH2 0x4F65 JUMP JUMPDEST PUSH1 0x1F DUP2 GT PUSH2 0x22E1 JUMPI JUMPDEST POP PUSH1 0x20 SWAP1 PUSH1 0x1F DUP4 GT PUSH1 0x1 EQ PUSH2 0x227E JUMPI PUSH0 SWAP3 PUSH2 0x2273 JUMPI JUMPDEST POP POP DUP2 PUSH1 0x1 SHL SWAP2 PUSH0 NOT SWAP1 PUSH1 0x3 SHL SHR NOT AND OR SWAP1 SSTORE JUMPDEST PUSH1 0x2 DUP3 ADD PUSH1 0x40 DUP3 ADD MLOAD DUP1 MLOAD SWAP1 PUSH1 0x1 PUSH1 0x1 PUSH1 0x40 SHL SUB DUP3 GT PUSH2 0x668 JUMPI DUP2 SWAP1 PUSH2 0x15E3 DUP5 SLOAD PUSH2 0x4F65 JUMP JUMPDEST PUSH1 0x1F DUP2 GT PUSH2 0x2223 JUMPI JUMPDEST POP PUSH1 0x20 SWAP1 PUSH1 0x1F DUP4 GT PUSH1 0x1 EQ PUSH2 0x21C0 JUMPI PUSH0 SWAP3 PUSH2 0x21B5 JUMPI JUMPDEST POP POP DUP2 PUSH1 0x1 SHL SWAP2 PUSH0 NOT SWAP1 PUSH1 0x3 SHL SHR NOT AND OR SWAP1 SSTORE JUMPDEST PUSH1 0x3 DUP3 ADD PUSH1 0x60 DUP3 ADD MLOAD DUP1 MLOAD SWAP1 PUSH1 0x1 PUSH1 0x1 PUSH1 0x40 SHL SUB DUP3 GT PUSH2 0x668 JUMPI DUP2 SWAP1 PUSH2 0x163C DUP5 SLOAD PUSH2 0x4F65 JUMP JUMPDEST PUSH1 0x1F DUP2 GT PUSH2 0x2165 JUMPI JUMPDEST POP PUSH1 0x20 SWAP1 PUSH1 0x1F DUP4 GT PUSH1 0x1 EQ PUSH2 0x2102 JUMPI PUSH0 SWAP3 PUSH2 0x20F7 JUMPI JUMPDEST POP POP DUP2 PUSH1 0x1 SHL SWAP2 PUSH0 NOT SWAP1 PUSH1 0x3 SHL SHR NOT AND OR SWAP1 SSTORE JUMPDEST PUSH1 0x4 DUP3 ADD PUSH1 0x80 DUP3 ADD MLOAD DUP1 MLOAD SWAP1 PUSH1 0x1 PUSH1 0x1 PUSH1 0x40 SHL SUB DUP3 GT PUSH2 0x668 JUMPI DUP2 SWAP1 PUSH2 0x1695 DUP5 SLOAD PUSH2 0x4F65 JUMP JUMPDEST PUSH1 0x1F DUP2 GT PUSH2 0x20A7 JUMPI JUMPDEST POP PUSH1 0x20 SWAP1 PUSH1 0x1F DUP4 GT PUSH1 0x1 EQ PUSH2 0x2044 JUMPI PUSH0 SWAP3 PUSH2 0x2039 JUMPI JUMPDEST POP POP DUP2 PUSH1 0x1 SHL SWAP2 PUSH0 NOT SWAP1 PUSH1 0x3 SHL SHR NOT AND OR SWAP1 SSTORE JUMPDEST PUSH1 0x5 DUP3 ADD PUSH1 0xA0 DUP3 ADD MLOAD DUP1 MLOAD SWAP1 PUSH1 0x1 PUSH1 0x1 PUSH1 0x40 SHL SUB DUP3 GT PUSH2 0x668 JUMPI DUP2 SWAP1 PUSH2 0x16EE DUP5 SLOAD PUSH2 0x4F65 JUMP JUMPDEST PUSH1 0x1F DUP2 GT PUSH2 0x1FE9 JUMPI JUMPDEST POP PUSH1 0x20 SWAP1 PUSH1 0x1F DUP4 GT PUSH1 0x1 EQ PUSH2 0x1F86 JUMPI PUSH0 SWAP3 PUSH2 0x1F7B JUMPI JUMPDEST POP POP DUP2 PUSH1 0x1 SHL SWAP2 PUSH0 NOT SWAP1 PUSH1 0x3 SHL SHR NOT AND OR SWAP1 SSTORE JUMPDEST PUSH1 0x6 DUP3 ADD PUSH1 0xC0 DUP3 ADD MLOAD DUP1 MLOAD SWAP1 PUSH1 0x1 PUSH1 0x1 PUSH1 0x40 SHL SUB DUP3 GT PUSH2 0x668 JUMPI DUP2 SWAP1 PUSH2 0x1747 DUP5 SLOAD PUSH2 0x4F65 JUMP JUMPDEST PUSH1 0x1F DUP2 GT PUSH2 0x1F2B JUMPI JUMPDEST POP PUSH1 0x20 SWAP1 PUSH1 0x1F DUP4 GT PUSH1 0x1 EQ PUSH2 0x1EC8 JUMPI PUSH0 SWAP3 PUSH2 0x1EBD JUMPI JUMPDEST POP POP DUP2 PUSH1 0x1 SHL SWAP2 PUSH0 NOT SWAP1 PUSH1 0x3 SHL SHR NOT AND OR SWAP1 SSTORE JUMPDEST PUSH1 0x7 DUP3 ADD PUSH1 0xE0 DUP3 ADD MLOAD DUP1 MLOAD SWAP1 PUSH1 0x1 PUSH1 0x1 PUSH1 0x40 SHL SUB DUP3 GT PUSH2 0x668 JUMPI DUP2 SWAP1 PUSH2 0x17A0 DUP5 SLOAD PUSH2 0x4F65 JUMP JUMPDEST PUSH1 0x1F DUP2 GT PUSH2 0x1E6D JUMPI JUMPDEST POP PUSH1 0x20 SWAP1 PUSH1 0x1F DUP4 GT PUSH1 0x1 EQ PUSH2 0x1E0A JUMPI PUSH0 SWAP3 PUSH2 0x1DFF JUMPI JUMPDEST POP POP DUP2 PUSH1 0x1 SHL SWAP2 PUSH0 NOT SWAP1 PUSH1 0x3 SHL SHR NOT AND OR SWAP1 SSTORE JUMPDEST PUSH1 0x8 DUP3 ADD PUSH2 0x100 DUP3 ADD MLOAD DUP1 MLOAD SWAP1 PUSH1 0x1 PUSH1 0x1 PUSH1 0x40 SHL SUB DUP3 GT PUSH2 0x668 JUMPI DUP2 SWAP1 PUSH2 0x17FA DUP5 SLOAD PUSH2 0x4F65 JUMP JUMPDEST PUSH1 0x1F DUP2 GT PUSH2 0x1DAF JUMPI JUMPDEST POP PUSH1 0x20 SWAP1 PUSH1 0x1F DUP4 GT PUSH1 0x1 EQ PUSH2 0x1D4C JUMPI PUSH0 SWAP3 PUSH2 0x1D41 JUMPI JUMPDEST POP POP DUP2 PUSH1 0x1 SHL SWAP2 PUSH0 NOT SWAP1 PUSH1 0x3 SHL SHR NOT AND OR SWAP1 SSTORE JUMPDEST PUSH1 0x9 DUP3 ADD PUSH2 0x120 DUP3 ADD MLOAD DUP1 MLOAD SWAP1 PUSH1 0x1 PUSH1 0x1 PUSH1 0x40 SHL SUB DUP3 GT PUSH2 0x668 JUMPI DUP2 SWAP1 PUSH2 0x1854 DUP5 SLOAD PUSH2 0x4F65 JUMP JUMPDEST PUSH1 0x1F DUP2 GT PUSH2 0x1CF1 JUMPI JUMPDEST POP PUSH1 0x20 SWAP1 PUSH1 0x1F DUP4 GT PUSH1 0x1 EQ PUSH2 0x1C8E JUMPI PUSH0 SWAP3 PUSH2 0x1C83 JUMPI JUMPDEST POP POP DUP2 PUSH1 0x1 SHL SWAP2 PUSH0 NOT SWAP1 PUSH1 0x3 SHL SHR NOT AND OR SWAP1 SSTORE JUMPDEST PUSH1 0xA DUP3 ADD PUSH2 0x140 DUP3 ADD MLOAD DUP1 MLOAD SWAP1 PUSH1 0x1 PUSH1 0x1 PUSH1 0x40 SHL SUB DUP3 GT PUSH2 0x668 JUMPI DUP2 SWAP1 PUSH2 0x18AE DUP5 SLOAD PUSH2 0x4F65 JUMP JUMPDEST PUSH1 0x1F DUP2 GT PUSH2 0x1C33 JUMPI JUMPDEST POP PUSH1 0x20 SWAP1 PUSH1 0x1F DUP4 GT PUSH1 0x1 EQ PUSH2 0x1BD0 JUMPI PUSH0 SWAP3 PUSH2 0x1BC5 JUMPI JUMPDEST POP POP DUP2 PUSH1 0x1 SHL SWAP2 PUSH0 NOT SWAP1 PUSH1 0x3 SHL SHR NOT AND OR SWAP1 SSTORE JUMPDEST PUSH1 0xB DUP3 ADD PUSH2 0x160 DUP3 ADD MLOAD DUP1 MLOAD SWAP1 PUSH1 0x1 PUSH1 0x1 PUSH1 0x40 SHL SUB DUP3 GT PUSH2 0x668 JUMPI DUP2 SWAP1 PUSH2 0x1908 DUP5 SLOAD PUSH2 0x4F65 JUMP JUMPDEST PUSH1 0x1F DUP2 GT PUSH2 0x1B75 JUMPI JUMPDEST POP PUSH1 0x20 SWAP1 PUSH1 0x1F DUP4 GT PUSH1 0x1 EQ PUSH2 0x1B12 JUMPI PUSH0 SWAP3 PUSH2 0x1B07 JUMPI JUMPDEST POP POP DUP2 PUSH1 0x1 SHL SWAP2 PUSH0 NOT SWAP1 PUSH1 0x3 SHL SHR NOT AND OR SWAP1 SSTORE JUMPDEST PUSH1 0xC DUP3 ADD SWAP3 MLOAD SWAP3 DUP4 MLOAD PUSH1 0x1 PUSH1 0x1 PUSH1 0x40 SHL SUB DUP2 GT PUSH2 0x668 JUMPI PUSH2 0x195C DUP3 SLOAD PUSH2 0x4F65 JUMP JUMPDEST PUSH1 0x1F DUP2 GT PUSH2 0x1AC2 JUMPI JUMPDEST POP PUSH1 0x20 PUSH1 0x1F DUP3 GT PUSH1 0x1 EQ PUSH2 0x1A58 JUMPI SWAP1 DUP1 PUSH2 0x1C0 SWAP5 SWAP4 SWAP3 PUSH1 0xE SWAP7 SWAP8 PUSH0 SWAP3 PUSH2 0x1A4D JUMPI JUMPDEST POP POP DUP2 PUSH1 0x1 SHL SWAP2 PUSH0 NOT SWAP1 PUSH1 0x3 SHL SHR NOT AND OR SWAP1 SSTORE JUMPDEST PUSH2 0x1A0 DUP2 ADD MLOAD PUSH1 0xD DUP6 ADD DUP1 SLOAD PUSH1 0x1 PUSH1 0x1 PUSH1 0xA0 SHL SUB NOT AND PUSH1 0x1 PUSH1 0x1 PUSH1 0xA0 SHL SUB SWAP3 SWAP1 SWAP3 AND SWAP2 SWAP1 SWAP2 OR SWAP1 SSTORE ADD MLOAD SWAP2 ADD SSTORE PUSH1 0x1 SLOAD PUSH1 0x1 PUSH1 0x40 SHL DUP2 LT ISZERO PUSH2 0x668 JUMPI DUP1 PUSH1 0x1 PUSH2 0x19E8 SWAP3 ADD PUSH1 0x1 SSTORE PUSH1 0x1 PUSH2 0x5061 JUMP JUMPDEST DUP2 SLOAD PUSH1 0x1 PUSH1 0x1 PUSH1 0xA0 SHL SUB PUSH1 0x3 SWAP3 SWAP1 SWAP3 SHL SWAP2 DUP3 SHL NOT AND CALLER SWAP2 DUP3 SWAP1 SHL OR SWAP1 SWAP2 SSTORE PUSH0 SWAP1 DUP2 MSTORE PUSH1 0x8 PUSH1 0x20 SWAP1 DUP2 MSTORE PUSH1 0x40 DUP1 DUP4 KECCAK256 DUP1 SLOAD PUSH1 0xFF NOT SWAP1 DUP2 AND PUSH1 0x1 SWAP1 DUP2 OR SWAP1 SWAP3 SSTORE PUSH1 0x7 DUP5 MSTORE DUP3 DUP6 KECCAK256 SWAP1 SWAP4 MSTORE SWAP3 KECCAK256 DUP1 SLOAD SWAP1 SWAP2 AND SWAP1 SWAP2 OR SWAP1 SSTORE PUSH1 0xB SLOAD PUSH2 0x1A48 SWAP1 PUSH2 0x53C1 JUMP JUMPDEST PUSH1 0xB SSTORE STOP JUMPDEST ADD MLOAD SWAP1 POP DUP8 DUP1 PUSH2 0x1986 JUMP JUMPDEST PUSH1 0x1F NOT DUP3 AND SWAP6 DUP4 PUSH0 MSTORE DUP2 PUSH0 KECCAK256 SWAP7 PUSH0 JUMPDEST DUP2 DUP2 LT PUSH2 0x1AAA JUMPI POP SWAP7 PUSH1 0x1 SWAP3 DUP5 SWAP3 PUSH2 0x1C0 SWAP8 SWAP7 SWAP6 PUSH1 0xE SWAP10 SWAP11 LT PUSH2 0x1A92 JUMPI JUMPDEST POP POP POP DUP2 SHL ADD SWAP1 SSTORE PUSH2 0x199A JUMP JUMPDEST ADD MLOAD PUSH0 NOT PUSH1 0xF8 DUP5 PUSH1 0x3 SHL AND SHR NOT AND SWAP1 SSTORE DUP8 DUP1 DUP1 PUSH2 0x1A85 JUMP JUMPDEST DUP4 DUP4 ADD MLOAD DUP10 SSTORE PUSH1 0x1 SWAP1 SWAP9 ADD SWAP8 PUSH1 0x20 SWAP4 DUP5 ADD SWAP4 ADD PUSH2 0x1A67 JUMP JUMPDEST DUP3 PUSH0 MSTORE PUSH1 0x20 PUSH0 KECCAK256 PUSH1 0x1F DUP4 ADD PUSH1 0x5 SHR DUP2 ADD SWAP2 PUSH1 0x20 DUP5 LT PUSH2 0x1AFD JUMPI JUMPDEST PUSH1 0x1F ADD PUSH1 0x5 SHR ADD SWAP1 JUMPDEST DUP2 DUP2 LT PUSH2 0x1AF2 JUMPI POP PUSH2 0x1965 JUMP JUMPDEST PUSH0 DUP2 SSTORE PUSH1 0x1 ADD PUSH2 0x1AE5 JUMP JUMPDEST SWAP1 SWAP2 POP DUP2 SWAP1 PUSH2 0x1ADC JUMP JUMPDEST ADD MLOAD SWAP1 POP DUP7 DUP1 PUSH2 0x1927 JUMP JUMPDEST PUSH0 DUP6 DUP2 MSTORE DUP3 DUP2 KECCAK256 SWAP4 POP PUSH1 0x1F NOT DUP6 AND SWAP1 JUMPDEST DUP2 DUP2 LT PUSH2 0x1B5D JUMPI POP SWAP1 DUP5 PUSH1 0x1 SWAP6 SWAP5 SWAP4 SWAP3 LT PUSH2 0x1B45 JUMPI JUMPDEST POP POP POP DUP2 SHL ADD SWAP1 SSTORE PUSH2 0x193B JUMP JUMPDEST ADD MLOAD PUSH0 NOT PUSH1 0xF8 DUP5 PUSH1 0x3 SHL AND SHR NOT AND SWAP1 SSTORE DUP7 DUP1 DUP1 PUSH2 0x1B38 JUMP JUMPDEST SWAP3 SWAP4 PUSH1 0x20 PUSH1 0x1 DUP2 SWAP3 DUP8 DUP7 ADD MLOAD DUP2 SSTORE ADD SWAP6 ADD SWAP4 ADD PUSH2 0x1B22 JUMP JUMPDEST SWAP1 SWAP2 POP DUP4 PUSH0 MSTORE PUSH1 0x20 PUSH0 KECCAK256 PUSH1 0x1F DUP5 ADD PUSH1 0x5 SHR DUP2 ADD SWAP2 PUSH1 0x20 DUP6 LT PUSH2 0x1BBB JUMPI JUMPDEST SWAP1 PUSH1 0x1F DUP6 SWAP5 SWAP4 SWAP3 ADD PUSH1 0x5 SHR ADD SWAP1 JUMPDEST DUP2 DUP2 LT PUSH2 0x1BAD JUMPI POP PUSH2 0x1911 JUMP JUMPDEST PUSH0 DUP2 SSTORE DUP5 SWAP4 POP PUSH1 0x1 ADD PUSH2 0x1BA0 JUMP JUMPDEST SWAP1 SWAP2 POP DUP2 SWAP1 PUSH2 0x1B92 JUMP JUMPDEST ADD MLOAD SWAP1 POP DUP7 DUP1 PUSH2 0x18CD JUMP JUMPDEST PUSH0 DUP6 DUP2 MSTORE DUP3 DUP2 KECCAK256 SWAP4 POP PUSH1 0x1F NOT DUP6 AND SWAP1 JUMPDEST DUP2 DUP2 LT PUSH2 0x1C1B JUMPI POP SWAP1 DUP5 PUSH1 0x1 SWAP6 SWAP5 SWAP4 SWAP3 LT PUSH2 0x1C03 JUMPI JUMPDEST POP POP POP DUP2 SHL ADD SWAP1 SSTORE PUSH2 0x18E1 JUMP JUMPDEST ADD MLOAD PUSH0 NOT PUSH1 0xF8 DUP5 PUSH1 0x3 SHL AND SHR NOT AND SWAP1 SSTORE DUP7 DUP1 DUP1 PUSH2 0x1BF6 JUMP JUMPDEST SWAP3 SWAP4 PUSH1 0x20 PUSH1 0x1 DUP2 SWAP3 DUP8 DUP7 ADD MLOAD DUP2 SSTORE ADD SWAP6 ADD SWAP4 ADD PUSH2 0x1BE0 JUMP JUMPDEST SWAP1 SWAP2 POP DUP4 PUSH0 MSTORE PUSH1 0x20 PUSH0 KECCAK256 PUSH1 0x1F DUP5 ADD PUSH1 0x5 SHR DUP2 ADD SWAP2 PUSH1 0x20 DUP6 LT PUSH2 0x1C79 JUMPI JUMPDEST SWAP1 PUSH1 0x1F DUP6 SWAP5 SWAP4 SWAP3 ADD PUSH1 0x5 SHR ADD SWAP1 JUMPDEST DUP2 DUP2 LT PUSH2 0x1C6B JUMPI POP PUSH2 0x18B7 JUMP JUMPDEST PUSH0 DUP2 SSTORE DUP5 SWAP4 POP PUSH1 0x1 ADD PUSH2 0x1C5E JUMP JUMPDEST SWAP1 SWAP2 POP DUP2 SWAP1 PUSH2 0x1C50 JUMP JUMPDEST ADD MLOAD SWAP1 POP DUP7 DUP1 PUSH2 0x1873 JUMP JUMPDEST PUSH0 DUP6 DUP2 MSTORE DUP3 DUP2 KECCAK256 SWAP4 POP PUSH1 0x1F NOT DUP6 AND SWAP1 JUMPDEST DUP2 DUP2 LT PUSH2 0x1CD9 JUMPI POP SWAP1 DUP5 PUSH1 0x1 SWAP6 SWAP5 SWAP4 SWAP3 LT PUSH2 0x1CC1 JUMPI JUMPDEST POP POP POP DUP2 SHL ADD SWAP1 SSTORE PUSH2 0x1887 JUMP JUMPDEST ADD MLOAD PUSH0 NOT PUSH1 0xF8 DUP5 PUSH1 0x3 SHL AND SHR NOT AND SWAP1 SSTORE DUP7 DUP1 DUP1 PUSH2 0x1CB4 JUMP JUMPDEST SWAP3 SWAP4 PUSH1 0x20 PUSH1 0x1 DUP2 SWAP3 DUP8 DUP7 ADD MLOAD DUP2 SSTORE ADD SWAP6 ADD SWAP4 ADD PUSH2 0x1C9E JUMP JUMPDEST SWAP1 SWAP2 POP DUP4 PUSH0 MSTORE PUSH1 0x20 PUSH0 KECCAK256 PUSH1 0x1F DUP5 ADD PUSH1 0x5 SHR DUP2 ADD SWAP2 PUSH1 0x20 DUP6 LT PUSH2 0x1D37 JUMPI JUMPDEST SWAP1 PUSH1 0x1F DUP6 SWAP5 SWAP4 SWAP3 ADD PUSH1 0x5 SHR ADD SWAP1 JUMPDEST DUP2 DUP2 LT PUSH2 0x1D29 JUMPI POP PUSH2 0x185D JUMP JUMPDEST PUSH0 DUP2 SSTORE DUP5 SWAP4 POP PUSH1 0x1 ADD PUSH2 0x1D1C JUMP JUMPDEST SWAP1 SWAP2 POP DUP2 SWAP1 PUSH2 0x1D0E JUMP JUMPDEST ADD MLOAD SWAP1 POP DUP7 DUP1 PUSH2 0x1819 JUMP JUMPDEST PUSH0 DUP6 DUP2 MSTORE DUP3 DUP2 KECCAK256 SWAP4 POP PUSH1 0x1F NOT DUP6 AND SWAP1 JUMPDEST DUP2 DUP2 LT PUSH2 0x1D97 JUMPI POP SWAP1 DUP5 PUSH1 0x1 SWAP6 SWAP5 SWAP4 SWAP3 LT PUSH2 0x1D7F JUMPI JUMPDEST POP POP POP DUP2 SHL ADD SWAP1 SSTORE PUSH2 0x182D JUMP JUMPDEST ADD MLOAD PUSH0 NOT PUSH1 0xF8 DUP5 PUSH1 0x3 SHL AND SHR NOT AND SWAP1 SSTORE DUP7 DUP1 DUP1 PUSH2 0x1D72 JUMP JUMPDEST SWAP3 SWAP4 PUSH1 0x20 PUSH1 0x1 DUP2 SWAP3 DUP8 DUP7 ADD MLOAD DUP2 SSTORE ADD SWAP6 ADD SWAP4 ADD PUSH2 0x1D5C JUMP JUMPDEST SWAP1 SWAP2 POP DUP4 PUSH0 MSTORE PUSH1 0x20 PUSH0 KECCAK256 PUSH1 0x1F DUP5 ADD PUSH1 0x5 SHR DUP2 ADD SWAP2 PUSH1 0x20 DUP6 LT PUSH2 0x1DF5 JUMPI JUMPDEST SWAP1 PUSH1 0x1F DUP6 SWAP5 SWAP4 SWAP3 ADD PUSH1 0x5 SHR ADD SWAP1 JUMPDEST DUP2 DUP2 LT PUSH2 0x1DE7 JUMPI POP PUSH2 0x1803 JUMP JUMPDEST PUSH0 DUP2 SSTORE DUP5 SWAP4 POP PUSH1 0x1 ADD PUSH2 0x1DDA JUMP JUMPDEST SWAP1 SWAP2 POP DUP2 SWAP1 PUSH2 0x1DCC JUMP JUMPDEST ADD MLOAD SWAP1 POP DUP7 DUP1 PUSH2 0x17BF JUMP JUMPDEST PUSH0 DUP6 DUP2 MSTORE DUP3 DUP2 KECCAK256 SWAP4 POP PUSH1 0x1F NOT DUP6 AND SWAP1 JUMPDEST DUP2 DUP2 LT PUSH2 0x1E55 JUMPI POP SWAP1 DUP5 PUSH1 0x1 SWAP6 SWAP5 SWAP4 SWAP3 LT PUSH2 0x1E3D JUMPI JUMPDEST POP POP POP DUP2 SHL ADD SWAP1 SSTORE PUSH2 0x17D3 JUMP JUMPDEST ADD MLOAD PUSH0 NOT PUSH1 0xF8 DUP5 PUSH1 0x3 SHL AND SHR NOT AND SWAP1 SSTORE DUP7 DUP1 DUP1 PUSH2 0x1E30 JUMP JUMPDEST SWAP3 SWAP4 PUSH1 0x20 PUSH1 0x1 DUP2 SWAP3 DUP8 DUP7 ADD MLOAD DUP2 SSTORE ADD SWAP6 ADD SWAP4 ADD PUSH2 0x1E1A JUMP JUMPDEST SWAP1 SWAP2 POP DUP4 PUSH0 MSTORE PUSH1 0x20 PUSH0 KECCAK256 PUSH1 0x1F DUP5 ADD PUSH1 0x5 SHR DUP2 ADD SWAP2 PUSH1 0x20 DUP6 LT PUSH2 0x1EB3 JUMPI JUMPDEST SWAP1 PUSH1 0x1F DUP6 SWAP5 SWAP4 SWAP3 ADD PUSH1 0x5 SHR ADD SWAP1 JUMPDEST DUP2 DUP2 LT PUSH2 0x1EA5 JUMPI POP PUSH2 0x17A9 JUMP JUMPDEST PUSH0 DUP2 SSTORE DUP5 SWAP4 POP PUSH1 0x1 ADD PUSH2 0x1E98 JUMP JUMPDEST SWAP1 SWAP2 POP DUP2 SWAP1 PUSH2 0x1E8A JUMP JUMPDEST ADD MLOAD SWAP1 POP DUP7 DUP1 PUSH2 0x1766 JUMP JUMPDEST PUSH0 DUP6 DUP2 MSTORE DUP3 DUP2 KECCAK256 SWAP4 POP PUSH1 0x1F NOT DUP6 AND SWAP1 JUMPDEST DUP2 DUP2 LT PUSH2 0x1F13 JUMPI POP SWAP1 DUP5 PUSH1 0x1 SWAP6 SWAP5 SWAP4 SWAP3 LT PUSH2 0x1EFB JUMPI JUMPDEST POP POP POP DUP2 SHL ADD SWAP1 SSTORE PUSH2 0x177A JUMP JUMPDEST ADD MLOAD PUSH0 NOT PUSH1 0xF8 DUP5 PUSH1 0x3 SHL AND SHR NOT AND SWAP1 SSTORE DUP7 DUP1 DUP1 PUSH2 0x1EEE JUMP JUMPDEST SWAP3 SWAP4 PUSH1 0x20 PUSH1 0x1 DUP2 SWAP3 DUP8 DUP7 ADD MLOAD DUP2 SSTORE ADD SWAP6 ADD SWAP4 ADD PUSH2 0x1ED8 JUMP JUMPDEST SWAP1 SWAP2 POP DUP4 PUSH0 MSTORE PUSH1 0x20 PUSH0 KECCAK256 PUSH1 0x1F DUP5 ADD PUSH1 0x5 SHR DUP2 ADD SWAP2 PUSH1 0x20 DUP6 LT PUSH2 0x1F71 JUMPI JUMPDEST SWAP1 PUSH1 0x1F DUP6 SWAP5 SWAP4 SWAP3 ADD PUSH1 0x5 SHR ADD SWAP1 JUMPDEST DUP2 DUP2 LT PUSH2 0x1F63 JUMPI POP PUSH2 0x1750 JUMP JUMPDEST PUSH0 DUP2 SSTORE DUP5 SWAP4 POP PUSH1 0x1 ADD PUSH2 0x1F56 JUMP JUMPDEST SWAP1 SWAP2 POP DUP2 SWAP1 PUSH2 0x1F48 JUMP JUMPDEST ADD MLOAD SWAP1 POP DUP7 DUP1 PUSH2 0x170D JUMP JUMPDEST PUSH0 DUP6 DUP2 MSTORE DUP3 DUP2 KECCAK256 SWAP4 POP PUSH1 0x1F NOT DUP6 AND SWAP1 JUMPDEST DUP2 DUP2 LT PUSH2 0x1FD1 JUMPI POP SWAP1 DUP5 PUSH1 0x1 SWAP6 SWAP5 SWAP4 SWAP3 LT PUSH2 0x1FB9 JUMPI JUMPDEST POP POP POP DUP2 SHL ADD SWAP1 SSTORE PUSH2 0x1721 JUMP JUMPDEST ADD MLOAD PUSH0 NOT PUSH1 0xF8 DUP5 PUSH1 0x3 SHL AND SHR NOT AND SWAP1 SSTORE DUP7 DUP1 DUP1 PUSH2 0x1FAC JUMP JUMPDEST SWAP3 SWAP4 PUSH1 0x20 PUSH1 0x1 DUP2 SWAP3 DUP8 DUP7 ADD MLOAD DUP2 SSTORE ADD SWAP6 ADD SWAP4 ADD PUSH2 0x1F96 JUMP JUMPDEST SWAP1 SWAP2 POP DUP4 PUSH0 MSTORE PUSH1 0x20 PUSH0 KECCAK256 PUSH1 0x1F DUP5 ADD PUSH1 0x5 SHR DUP2 ADD SWAP2 PUSH1 0x20 DUP6 LT PUSH2 0x202F JUMPI JUMPDEST SWAP1 PUSH1 0x1F DUP6 SWAP5 SWAP4 SWAP3 ADD PUSH1 0x5 SHR ADD SWAP1 JUMPDEST DUP2 DUP2 LT PUSH2 0x2021 JUMPI POP PUSH2 0x16F7 JUMP JUMPDEST PUSH0 DUP2 SSTORE DUP5 SWAP4 POP PUSH1 0x1 ADD PUSH2 0x2014 JUMP JUMPDEST SWAP1 SWAP2 POP DUP2 SWAP1 PUSH2 0x2006 JUMP JUMPDEST ADD MLOAD SWAP1 POP DUP7 DUP1 PUSH2 0x16B4 JUMP JUMPDEST PUSH0 DUP6 DUP2 MSTORE DUP3 DUP2 KECCAK256 SWAP4 POP PUSH1 0x1F NOT DUP6 AND SWAP1 JUMPDEST DUP2 DUP2 LT PUSH2 0x208F JUMPI POP SWAP1 DUP5 PUSH1 0x1 SWAP6 SWAP5 SWAP4 SWAP3 LT PUSH2 0x2077 JUMPI JUMPDEST POP POP POP DUP2 SHL ADD SWAP1 SSTORE PUSH2 0x16C8 JUMP JUMPDEST ADD MLOAD PUSH0 NOT PUSH1 0xF8 DUP5 PUSH1 0x3 SHL AND SHR NOT AND SWAP1 SSTORE DUP7 DUP1 DUP1 PUSH2 0x206A JUMP JUMPDEST SWAP3 SWAP4 PUSH1 0x20 PUSH1 0x1 DUP2 SWAP3 DUP8 DUP7 ADD MLOAD DUP2 SSTORE ADD SWAP6 ADD SWAP4 ADD PUSH2 0x2054 JUMP JUMPDEST SWAP1 SWAP2 POP DUP4 PUSH0 MSTORE PUSH1 0x20 PUSH0 KECCAK256 PUSH1 0x1F DUP5 ADD PUSH1 0x5 SHR DUP2 ADD SWAP2 PUSH1 0x20 DUP6 LT PUSH2 0x20ED JUMPI JUMPDEST SWAP1 PUSH1 0x1F DUP6 SWAP5 SWAP4 SWAP3 ADD PUSH1 0x5 SHR ADD SWAP1 JUMPDEST DUP2 DUP2 LT PUSH2 0x20DF JUMPI POP PUSH2 0x169E JUMP JUMPDEST PUSH0 DUP2 SSTORE DUP5 SWAP4 POP PUSH1 0x1 ADD PUSH2 0x20D2 JUMP JUMPDEST SWAP1 SWAP2 POP DUP2 SWAP1 PUSH2 0x20C4 JUMP JUMPDEST ADD MLOAD SWAP1 POP DUP7 DUP1 PUSH2 0x165B JUMP JUMPDEST PUSH0 DUP6 DUP2 MSTORE DUP3 DUP2 KECCAK256 SWAP4 POP PUSH1 0x1F NOT DUP6 AND SWAP1 JUMPDEST DUP2 DUP2 LT PUSH2 0x214D JUMPI POP SWAP1 DUP5 PUSH1 0x1 SWAP6 SWAP5 SWAP4 SWAP3 LT PUSH2 0x2135 JUMPI JUMPDEST POP POP POP DUP2 SHL ADD SWAP1 SSTORE PUSH2 0x166F JUMP JUMPDEST ADD MLOAD PUSH0 NOT PUSH1 0xF8 DUP5 PUSH1 0x3 SHL AND SHR NOT AND SWAP1 SSTORE DUP7 DUP1 DUP1 PUSH2 0x2128 JUMP JUMPDEST SWAP3 SWAP4 PUSH1 0x20 PUSH1 0x1 DUP2 SWAP3 DUP8 DUP7 ADD MLOAD DUP2 SSTORE ADD SWAP6 ADD SWAP4 ADD PUSH2 0x2112 JUMP JUMPDEST SWAP1 SWAP2 POP DUP4 PUSH0 MSTORE PUSH1 0x20 PUSH0 KECCAK256 PUSH1 0x1F DUP5 ADD PUSH1 0x5 SHR DUP2 ADD SWAP2 PUSH1 0x20 DUP6 LT PUSH2 0x21AB JUMPI JUMPDEST SWAP1 PUSH1 0x1F DUP6 SWAP5 SWAP4 SWAP3 ADD PUSH1 0x5 SHR ADD SWAP1 JUMPDEST DUP2 DUP2 LT PUSH2 0x219D JUMPI POP PUSH2 0x1645 JUMP JUMPDEST PUSH0 DUP2 SSTORE DUP5 SWAP4 POP PUSH1 0x1 ADD PUSH2 0x2190 JUMP JUMPDEST SWAP1 SWAP2 POP DUP2 SWAP1 PUSH2 0x2182 JUMP JUMPDEST ADD MLOAD SWAP1 POP DUP7 DUP1 PUSH2 0x1602 JUMP JUMPDEST PUSH0 DUP6 DUP2 MSTORE DUP3 DUP2 KECCAK256 SWAP4 POP PUSH1 0x1F NOT DUP6 AND SWAP1 JUMPDEST DUP2 DUP2 LT PUSH2 0x220B JUMPI POP SWAP1 DUP5 PUSH1 0x1 SWAP6 SWAP5 SWAP4 SWAP3 LT PUSH2 0x21F3 JUMPI JUMPDEST POP POP POP DUP2 SHL ADD SWAP1 SSTORE PUSH2 0x1616 JUMP JUMPDEST ADD MLOAD PUSH0 NOT PUSH1 0xF8 DUP5 PUSH1 0x3 SHL AND SHR NOT AND SWAP1 SSTORE DUP7 DUP1 DUP1 PUSH2 0x21E6 JUMP JUMPDEST SWAP3 SWAP4 PUSH1 0x20 PUSH1 0x1 DUP2 SWAP3 DUP8 DUP7 ADD MLOAD DUP2 SSTORE ADD SWAP6 ADD SWAP4 ADD PUSH2 0x21D0 JUMP JUMPDEST SWAP1 SWAP2 POP DUP4 PUSH0 MSTORE PUSH1 0x20 PUSH0 KECCAK256 PUSH1 0x1F DUP5 ADD PUSH1 0x5 SHR DUP2 ADD SWAP2 PUSH1 0x20 DUP6 LT PUSH2 0x2269 JUMPI JUMPDEST SWAP1 PUSH1 0x1F DUP6 SWAP5 SWAP4 SWAP3 ADD PUSH1 0x5 SHR ADD SWAP1 JUMPDEST DUP2 DUP2 LT PUSH2 0x225B JUMPI POP PUSH2 0x15EC JUMP JUMPDEST PUSH0 DUP2 SSTORE DUP5 SWAP4 POP PUSH1 0x1 ADD PUSH2 0x224E JUMP JUMPDEST SWAP1 SWAP2 POP DUP2 SWAP1 PUSH2 0x2240 JUMP JUMPDEST ADD MLOAD SWAP1 POP DUP7 DUP1 PUSH2 0x15A9 JUMP JUMPDEST PUSH0 DUP6 DUP2 MSTORE DUP3 DUP2 KECCAK256 SWAP4 POP PUSH1 0x1F NOT DUP6 AND SWAP1 JUMPDEST DUP2 DUP2 LT PUSH2 0x22C9 JUMPI POP SWAP1 DUP5 PUSH1 0x1 SWAP6 SWAP5 SWAP4 SWAP3 LT PUSH2 0x22B1 JUMPI JUMPDEST POP POP POP DUP2 SHL ADD SWAP1 SSTORE PUSH2 0x15BD JUMP JUMPDEST ADD MLOAD PUSH0 NOT PUSH1 0xF8 DUP5 PUSH1 0x3 SHL AND SHR NOT AND SWAP1 SSTORE DUP7 DUP1 DUP1 PUSH2 0x22A4 JUMP JUMPDEST SWAP3 SWAP4 PUSH1 0x20 PUSH1 0x1 DUP2 SWAP3 DUP8 DUP7 ADD MLOAD DUP2 SSTORE ADD SWAP6 ADD SWAP4 ADD PUSH2 0x228E JUMP JUMPDEST SWAP1 SWAP2 POP DUP4 PUSH0 MSTORE PUSH1 0x20 PUSH0 KECCAK256 PUSH1 0x1F DUP5 ADD PUSH1 0x5 SHR DUP2 ADD SWAP2 PUSH1 0x20 DUP6 LT PUSH2 0x2327 JUMPI JUMPDEST SWAP1 PUSH1 0x1F DUP6 SWAP5 SWAP4 SWAP3 ADD PUSH1 0x5 SHR ADD SWAP1 JUMPDEST DUP2 DUP2 LT PUSH2 0x2319 JUMPI POP PUSH2 0x1593 JUMP JUMPDEST PUSH0 DUP2 SSTORE DUP5 SWAP4 POP PUSH1 0x1 ADD PUSH2 0x230C JUMP JUMPDEST SWAP1 SWAP2 POP DUP2 SWAP1 PUSH2 0x22FE JUMP JUMPDEST ADD MLOAD SWAP1 POP DUP6 DUP1 PUSH2 0x1550 JUMP JUMPDEST DUP4 PUSH0 MSTORE DUP1 PUSH0 KECCAK256 SWAP1 PUSH0 JUMPDEST PUSH1 0x1F NOT DUP5 AND DUP2 LT PUSH2 0x2388 JUMPI POP PUSH1 0x1 SWAP4 SWAP5 SWAP6 SWAP7 DUP4 PUSH1 0x1F NOT DUP2 AND LT PUSH2 0x2370 JUMPI JUMPDEST POP POP POP DUP2 SHL ADD DUP3 SSTORE PUSH2 0x1564 JUMP JUMPDEST ADD MLOAD PUSH0 NOT PUSH1 0xF8 DUP5 PUSH1 0x3 SHL AND SHR NOT AND SWAP1 SSTORE DUP6 DUP1 DUP1 PUSH2 0x2363 JUMP JUMPDEST SWAP1 SWAP2 PUSH1 0x20 PUSH1 0x1 DUP2 SWAP3 DUP6 DUP12 ADD MLOAD DUP2 SSTORE ADD SWAP4 ADD SWAP2 ADD PUSH2 0x2345 JUMP JUMPDEST DUP4 PUSH0 MSTORE PUSH1 0x20 PUSH0 KECCAK256 PUSH1 0x1F DUP4 ADD PUSH1 0x5 SHR DUP2 ADD PUSH1 0x20 DUP5 LT PUSH2 0x23DA JUMPI JUMPDEST PUSH1 0x1F DUP4 ADD PUSH1 0x5 SHR DUP3 ADD DUP2 LT PUSH2 0x23CF JUMPI POP POP PUSH2 0x1536 JUMP JUMPDEST PUSH0 DUP2 SSTORE PUSH1 0x1 ADD PUSH2 0x23B9 JUMP JUMPDEST POP DUP1 PUSH2 0x23B9 JUMP JUMPDEST PUSH1 0x40 MLOAD PUSH3 0x461BCD PUSH1 0xE5 SHL DUP2 MSTORE PUSH1 0x20 PUSH1 0x4 DUP3 ADD MSTORE PUSH1 0x1C PUSH1 0x24 DUP3 ADD MSTORE PUSH32 0x416C7265616479206120726567697374657265642070617469656E7400000000 PUSH1 0x44 DUP3 ADD MSTORE PUSH1 0x64 SWAP1 REVERT JUMPDEST CALLVALUE PUSH2 0x195 JUMPI PUSH0 CALLDATASIZE PUSH1 0x3 NOT ADD SLT PUSH2 0x195 JUMPI PUSH1 0x40 MLOAD DUP1 PUSH1 0x20 PUSH1 0x3 SLOAD SWAP2 DUP3 DUP2 MSTORE ADD SWAP1 PUSH1 0x3 PUSH0 MSTORE PUSH32 0xC2575A0E9E593C00F959F8C92F12DB2869C3395A3B0502D05E2516446F71F85B SWAP1 PUSH0 JUMPDEST DUP2 DUP2 LT PUSH2 0x2484 JUMPI PUSH2 0x357 DUP6 PUSH2 0xC85 DUP2 DUP8 SUB DUP3 PUSH2 0x4DA9 JUMP JUMPDEST DUP3 SLOAD PUSH1 0x1 PUSH1 0x1 PUSH1 0xA0 SHL SUB AND DUP5 MSTORE PUSH1 0x20 SWAP1 SWAP4 ADD SWAP3 PUSH1 0x1 SWAP3 DUP4 ADD SWAP3 ADD PUSH2 0x246D JUMP JUMPDEST CALLVALUE PUSH2 0x195 JUMPI PUSH1 0x20 CALLDATASIZE PUSH1 0x3 NOT ADD SLT PUSH2 0x195 JUMPI PUSH1 0x1 PUSH1 0x1 PUSH1 0xA0 SHL SUB PUSH2 0x24C4 PUSH2 0x4D5B JUMP JUMPDEST AND PUSH0 MSTORE PUSH1 0x6 PUSH1 0x20 MSTORE PUSH1 0x40 PUSH0 KECCAK256 PUSH1 0x40 MLOAD PUSH2 0x24DC DUP2 PUSH2 0x4D8D JUMP JUMPDEST DUP2 SLOAD PUSH1 0x1 PUSH1 0x1 PUSH1 0xA0 SHL SUB SWAP1 DUP2 AND DUP3 MSTORE PUSH1 0x1 DUP4 ADD SLOAD AND PUSH1 0x20 DUP3 ADD MSTORE PUSH2 0x2502 PUSH1 0x2 DUP4 ADD PUSH2 0x4F9D JUMP JUMPDEST PUSH1 0x40 DUP3 ADD SWAP1 DUP2 MSTORE SWAP2 PUSH2 0x2516 PUSH1 0x3 DUP3 ADD PUSH2 0x4F9D JUMP JUMPDEST PUSH1 0x60 DUP4 ADD SWAP1 DUP2 MSTORE SWAP1 PUSH2 0x252A PUSH1 0x4 DUP3 ADD PUSH2 0x4F9D JUMP JUMPDEST PUSH1 0x80 DUP5 ADD SWAP1 DUP2 MSTORE PUSH2 0x253D PUSH1 0x5 DUP4 ADD PUSH2 0x4F9D JUMP JUMPDEST PUSH1 0xA0 DUP6 ADD SWAP1 DUP2 MSTORE SWAP1 PUSH2 0x2551 PUSH1 0x6 DUP5 ADD PUSH2 0x4F9D JUMP JUMPDEST PUSH1 0xC0 DUP7 ADD SWAP1 DUP2 MSTORE PUSH2 0x2564 PUSH1 0x7 DUP6 ADD PUSH2 0x4F9D JUMP JUMPDEST SWAP4 PUSH1 0xE0 DUP8 ADD SWAP5 DUP6 MSTORE PUSH1 0x8 ADD SLOAD PUSH2 0x100 DUP8 ADD MSTORE PUSH1 0x1 PUSH1 0xA0 SHL PUSH1 0x1 SWAP1 SUB DUP7 MLOAD AND PUSH0 MSTORE PUSH1 0x5 PUSH1 0x20 MSTORE PUSH1 0x40 PUSH0 KECCAK256 SWAP6 PUSH1 0x40 MLOAD PUSH2 0x259A DUP2 PUSH2 0x4D8D JUMP JUMPDEST PUSH2 0x25A3 DUP9 PUSH2 0x4F9D JUMP JUMPDEST DUP2 MSTORE PUSH2 0x25B1 PUSH1 0x1 DUP10 ADD PUSH2 0x4F9D JUMP JUMPDEST PUSH1 0x20 DUP3 ADD SWAP1 DUP2 MSTORE SWAP8 PUSH2 0x25C5 PUSH1 0x2 DUP3 ADD PUSH2 0x4F9D JUMP JUMPDEST PUSH1 0x40 DUP4 ADD MSTORE PUSH2 0x25D6 PUSH1 0x3 DUP3 ADD PUSH2 0x4F9D JUMP JUMPDEST PUSH1 0x60 DUP4 ADD MSTORE PUSH2 0x25E7 PUSH1 0x4 DUP3 ADD PUSH2 0x4F9D JUMP JUMPDEST PUSH1 0x80 DUP4 ADD MSTORE PUSH2 0x25F8 PUSH1 0x5 DUP3 ADD PUSH2 0x4F9D JUMP JUMPDEST PUSH1 0xA0 DUP4 ADD MSTORE PUSH2 0x2609 PUSH1 0x6 DUP3 ADD PUSH2 0x4F9D JUMP JUMPDEST PUSH1 0xC0 DUP4 ADD MSTORE PUSH1 0x1 PUSH1 0xA0 SHL PUSH1 0x1 SWAP1 SUB PUSH1 0x7 DUP3 ADD SLOAD AND PUSH1 0xE0 DUP4 ADD MSTORE PUSH1 0x8 ADD SLOAD SWAP1 PUSH2 0x100 ADD MSTORE PUSH1 0x1 PUSH1 0xA0 SHL PUSH1 0x1 SWAP1 SUB SWAP1 MLOAD AND SWAP6 MLOAD SWAP7 MLOAD SWAP5 MLOAD SWAP1 MLOAD SWAP2 MLOAD SWAP3 MLOAD SWAP4 MLOAD SWAP5 PUSH1 0x40 MLOAD SWAP8 DUP9 SWAP8 DUP9 MSTORE PUSH1 0x20 DUP9 ADD PUSH2 0x100 SWAP1 MSTORE PUSH2 0x100 DUP9 ADD PUSH2 0x2666 SWAP2 PUSH2 0x503D JUMP JUMPDEST DUP8 DUP2 SUB PUSH1 0x40 DUP10 ADD MSTORE PUSH2 0x2677 SWAP2 PUSH2 0x503D JUMP JUMPDEST DUP7 DUP2 SUB PUSH1 0x60 DUP9 ADD MSTORE PUSH2 0x2688 SWAP2 PUSH2 0x503D JUMP JUMPDEST DUP6 DUP2 SUB PUSH1 0x80 DUP8 ADD MSTORE PUSH2 0x2699 SWAP2 PUSH2 0x503D JUMP JUMPDEST DUP5 DUP2 SUB PUSH1 0xA0 DUP7 ADD MSTORE PUSH2 0x26AA SWAP2 PUSH2 0x503D JUMP JUMPDEST DUP4 DUP2 SUB PUSH1 0xC0 DUP6 ADD MSTORE PUSH2 0x26BB SWAP2 PUSH2 0x503D JUMP JUMPDEST DUP3 DUP2 SUB PUSH1 0xE0 DUP5 ADD MSTORE PUSH2 0x357 SWAP2 PUSH2 0x503D JUMP JUMPDEST CALLVALUE PUSH2 0x195 JUMPI PUSH0 CALLDATASIZE PUSH1 0x3 NOT ADD SLT PUSH2 0x195 JUMPI PUSH0 SLOAD PUSH1 0x40 MLOAD PUSH1 0x1 PUSH1 0x1 PUSH1 0xA0 SHL SUB SWAP1 SWAP2 AND DUP2 MSTORE PUSH1 0x20 SWAP1 RETURN JUMPDEST CALLVALUE PUSH2 0x195 JUMPI PUSH2 0x2701 CALLDATASIZE PUSH2 0x52DD JUMP JUMPDEST SWAP5 SWAP6 SWAP4 SWAP1 SWAP6 SWAP3 SWAP2 SWAP3 CALLER PUSH0 MSTORE PUSH1 0x9 PUSH1 0x20 MSTORE PUSH1 0xFF PUSH1 0x40 PUSH0 KECCAK256 SLOAD AND PUSH2 0x2F09 JUMPI CALLER PUSH0 MSTORE PUSH1 0x5 PUSH1 0x20 MSTORE PUSH1 0x40 PUSH0 KECCAK256 SWAP5 DUP1 MLOAD SWAP1 PUSH1 0x1 PUSH1 0x1 PUSH1 0x40 SHL SUB DUP3 GT PUSH2 0x668 JUMPI DUP2 SWAP1 PUSH2 0x2747 DUP9 SLOAD PUSH2 0x4F65 JUMP JUMPDEST PUSH1 0x1F DUP2 GT PUSH2 0x2EB9 JUMPI JUMPDEST POP PUSH1 0x20 SWAP1 PUSH1 0x1F DUP4 GT PUSH1 0x1 EQ PUSH2 0x2E56 JUMPI PUSH0 SWAP3 PUSH2 0x2E4B JUMPI JUMPDEST POP POP DUP2 PUSH1 0x1 SHL SWAP2 PUSH0 NOT SWAP1 PUSH1 0x3 SHL SHR NOT AND OR DUP6 SSTORE JUMPDEST DUP1 MLOAD PUSH1 0x1 DUP7 ADD SWAP2 PUSH1 0x1 PUSH1 0x1 PUSH1 0x40 SHL SUB DUP3 GT PUSH2 0x668 JUMPI DUP2 SWAP1 PUSH2 0x279B DUP5 SLOAD PUSH2 0x4F65 JUMP JUMPDEST PUSH1 0x1F DUP2 GT PUSH2 0x2DFB JUMPI JUMPDEST POP PUSH1 0x20 SWAP1 PUSH1 0x1F DUP4 GT PUSH1 0x1 EQ PUSH2 0x2D98 JUMPI PUSH0 SWAP3 PUSH2 0x2D8D JUMPI JUMPDEST POP POP DUP2 PUSH1 0x1 SHL SWAP2 PUSH0 NOT SWAP1 PUSH1 0x3 SHL SHR NOT AND OR SWAP1 SSTORE JUMPDEST DUP1 MLOAD PUSH1 0x2 DUP6 ADD SWAP2 PUSH1 0x1 PUSH1 0x1 PUSH1 0x40 SHL SUB DUP3 GT PUSH2 0x668 JUMPI DUP2 SWAP1 PUSH2 0x27EF DUP5 SLOAD PUSH2 0x4F65 JUMP JUMPDEST PUSH1 0x1F DUP2 GT PUSH2 0x2D3D JUMPI JUMPDEST POP PUSH1 0x20 SWAP1 PUSH1 0x1F DUP4 GT PUSH1 0x1 EQ PUSH2 0x2CDA JUMPI PUSH0 SWAP3 PUSH2 0x2CCF JUMPI JUMPDEST POP POP DUP2 PUSH1 0x1 SHL SWAP2 PUSH0 NOT SWAP1 PUSH1 0x3 SHL SHR NOT AND OR SWAP1 SSTORE JUMPDEST DUP1 MLOAD PUSH1 0x3 DUP5 ADD SWAP2 PUSH1 0x1 PUSH1 0x1 PUSH1 0x40 SHL SUB DUP3 GT PUSH2 0x668 JUMPI DUP2 SWAP1 PUSH2 0x2843 DUP5 SLOAD PUSH2 0x4F65 JUMP JUMPDEST PUSH1 0x1F DUP2 GT PUSH2 0x2C7F JUMPI JUMPDEST POP PUSH1 0x20 SWAP1 PUSH1 0x1F DUP4 GT PUSH1 0x1 EQ PUSH2 0x2C1C JUMPI PUSH0 SWAP3 PUSH2 0x2C11 JUMPI JUMPDEST POP POP DUP2 PUSH1 0x1 SHL SWAP2 PUSH0 NOT SWAP1 PUSH1 0x3 SHL SHR NOT AND OR SWAP1 SSTORE JUMPDEST DUP1 MLOAD PUSH1 0x4 DUP4 ADD SWAP2 PUSH1 0x1 PUSH1 0x1 PUSH1 0x40 SHL SUB DUP3 GT PUSH2 0x668 JUMPI DUP2 SWAP1 PUSH2 0x2897 DUP5 SLOAD PUSH2 0x4F65 JUMP JUMPDEST PUSH1 0x1F DUP2 GT PUSH2 0x2BC1 JUMPI JUMPDEST POP PUSH1 0x20 SWAP1 PUSH1 0x1F DUP4 GT PUSH1 0x1 EQ PUSH2 0x2B5E JUMPI PUSH0 SWAP3 PUSH2 0x2B53 JUMPI JUMPDEST POP POP DUP2 PUSH1 0x1 SHL SWAP2 PUSH0 NOT SWAP1 PUSH1 0x3 SHL SHR NOT AND OR SWAP1 SSTORE JUMPDEST PUSH1 0x5 DUP2 ADD DUP4 MLOAD PUSH1 0x1 PUSH1 0x1 PUSH1 0x40 SHL SUB DUP2 GT PUSH2 0x668 JUMPI PUSH2 0x28E8 DUP3 SLOAD PUSH2 0x4F65 JUMP JUMPDEST PUSH1 0x1F DUP2 GT PUSH2 0x2B0E JUMPI JUMPDEST POP PUSH1 0x20 SWAP5 PUSH1 0x1F DUP3 GT PUSH1 0x1 EQ PUSH2 0x2AAD JUMPI SWAP5 DUP2 SWAP3 SWAP4 SWAP5 SWAP6 PUSH0 SWAP3 PUSH2 0x2AA2 JUMPI JUMPDEST POP POP DUP2 PUSH1 0x1 SHL SWAP2 PUSH0 NOT SWAP1 PUSH1 0x3 SHL SHR NOT AND OR SWAP1 SSTORE JUMPDEST PUSH1 0x6 DUP2 ADD DUP3 MLOAD PUSH1 0x1 PUSH1 0x1 PUSH1 0x40 SHL SUB DUP2 GT PUSH2 0x668 JUMPI PUSH2 0x293F DUP3 SLOAD PUSH2 0x4F65 JUMP JUMPDEST PUSH1 0x1F DUP2 GT PUSH2 0x2A5D JUMPI JUMPDEST POP PUSH1 0x20 PUSH1 0x1F DUP3 GT PUSH1 0x1 EQ PUSH2 0x29FC JUMPI DUP2 SWAP3 SWAP4 SWAP5 PUSH0 SWAP3 PUSH2 0x29F1 JUMPI JUMPDEST POP POP DUP2 PUSH1 0x1 SHL SWAP2 PUSH0 NOT SWAP1 PUSH1 0x3 SHL SHR NOT AND OR SWAP1 SSTORE JUMPDEST PUSH1 0x7 DUP2 ADD DUP1 SLOAD PUSH1 0x1 PUSH1 0x1 PUSH1 0xA0 SHL SUB NOT AND CALLER OR SWAP1 SSTORE TIMESTAMP PUSH1 0x8 SWAP1 SWAP2 ADD SSTORE PUSH1 0x2 SLOAD PUSH1 0x1 PUSH1 0x40 SHL DUP2 LT ISZERO PUSH2 0x668 JUMPI DUP1 PUSH1 0x1 PUSH2 0x29B1 SWAP3 ADD PUSH1 0x2 SSTORE PUSH1 0x2 PUSH2 0x5061 JUMP JUMPDEST DUP2 SLOAD SWAP1 PUSH1 0x3 SHL SWAP1 CALLER DUP3 SHL SWAP2 PUSH1 0x1 DUP1 PUSH1 0xA0 SHL SUB SWAP1 SHL NOT AND OR SWAP1 SSTORE CALLER PUSH0 MSTORE PUSH1 0x9 PUSH1 0x20 MSTORE PUSH1 0x40 PUSH0 KECCAK256 PUSH1 0x1 PUSH1 0xFF NOT DUP3 SLOAD AND OR SWAP1 SSTORE PUSH2 0x29EC PUSH1 0xC SLOAD PUSH2 0x53C1 JUMP JUMPDEST PUSH1 0xC SSTORE STOP JUMPDEST ADD MLOAD SWAP1 POP DUP5 DUP1 PUSH2 0x2961 JUMP JUMPDEST PUSH1 0x1F NOT DUP3 AND SWAP1 DUP4 PUSH0 MSTORE DUP1 PUSH0 KECCAK256 SWAP2 PUSH0 JUMPDEST DUP2 DUP2 LT PUSH2 0x2A45 JUMPI POP SWAP6 DUP4 PUSH1 0x1 SWAP6 SWAP7 SWAP8 LT PUSH2 0x2A2D JUMPI JUMPDEST POP POP POP DUP2 SHL ADD SWAP1 SSTORE PUSH2 0x2975 JUMP JUMPDEST ADD MLOAD PUSH0 NOT PUSH1 0xF8 DUP5 PUSH1 0x3 SHL AND SHR NOT AND SWAP1 SSTORE DUP5 DUP1 DUP1 PUSH2 0x2A20 JUMP JUMPDEST SWAP2 SWAP3 PUSH1 0x20 PUSH1 0x1 DUP2 SWAP3 DUP7 DUP12 ADD MLOAD DUP2 SSTORE ADD SWAP5 ADD SWAP3 ADD PUSH2 0x2A0B JUMP JUMPDEST DUP3 PUSH0 MSTORE PUSH1 0x20 PUSH0 KECCAK256 PUSH1 0x1F DUP4 ADD PUSH1 0x5 SHR DUP2 ADD SWAP2 PUSH1 0x20 DUP5 LT PUSH2 0x2A98 JUMPI JUMPDEST PUSH1 0x1F ADD PUSH1 0x5 SHR ADD SWAP1 JUMPDEST DUP2 DUP2 LT PUSH2 0x2A8D JUMPI POP PUSH2 0x2948 JUMP JUMPDEST PUSH0 DUP2 SSTORE PUSH1 0x1 ADD PUSH2 0x2A80 JUMP JUMPDEST SWAP1 SWAP2 POP DUP2 SWAP1 PUSH2 0x2A77 JUMP JUMPDEST ADD MLOAD SWAP1 POP DUP6 DUP1 PUSH2 0x290D JUMP JUMPDEST PUSH1 0x1F NOT DUP3 AND SWAP6 DUP4 PUSH0 MSTORE DUP1 PUSH0 KECCAK256 SWAP2 PUSH0 JUMPDEST DUP9 DUP2 LT PUSH2 0x2AF6 JUMPI POP DUP4 PUSH1 0x1 SWAP6 SWAP7 SWAP8 SWAP9 LT PUSH2 0x2ADE JUMPI JUMPDEST POP POP POP DUP2 SHL ADD SWAP1 SSTORE PUSH2 0x2921 JUMP JUMPDEST ADD MLOAD PUSH0 NOT PUSH1 0xF8 DUP5 PUSH1 0x3 SHL AND SHR NOT AND SWAP1 SSTORE DUP6 DUP1 DUP1 PUSH2 0x2AD1 JUMP JUMPDEST SWAP2 SWAP3 PUSH1 0x20 PUSH1 0x1 DUP2 SWAP3 DUP7 DUP6 ADD MLOAD DUP2 SSTORE ADD SWAP5 ADD SWAP3 ADD PUSH2 0x2ABC JUMP JUMPDEST DUP3 PUSH0 MSTORE PUSH1 0x20 PUSH0 KECCAK256 PUSH1 0x1F DUP4 ADD PUSH1 0x5 SHR DUP2 ADD SWAP2 PUSH1 0x20 DUP5 LT PUSH2 0x2B49 JUMPI JUMPDEST PUSH1 0x1F ADD PUSH1 0x5 SHR ADD SWAP1 JUMPDEST DUP2 DUP2 LT PUSH2 0x2B3E JUMPI POP PUSH2 0x28F1 JUMP JUMPDEST PUSH0 DUP2 SSTORE PUSH1 0x1 ADD PUSH2 0x2B31 JUMP JUMPDEST SWAP1 SWAP2 POP DUP2 SWAP1 PUSH2 0x2B28 JUMP JUMPDEST ADD MLOAD SWAP1 POP DUP7 DUP1 PUSH2 0x28B6 JUMP JUMPDEST PUSH0 DUP6 DUP2 MSTORE DUP3 DUP2 KECCAK256 SWAP4 POP PUSH1 0x1F NOT DUP6 AND SWAP1 JUMPDEST DUP2 DUP2 LT PUSH2 0x2BA9 JUMPI POP SWAP1 DUP5 PUSH1 0x1 SWAP6 SWAP5 SWAP4 SWAP3 LT PUSH2 0x2B91 JUMPI JUMPDEST POP POP POP DUP2 SHL ADD SWAP1 SSTORE PUSH2 0x28CA JUMP JUMPDEST ADD MLOAD PUSH0 NOT PUSH1 0xF8 DUP5 PUSH1 0x3 SHL AND SHR NOT AND SWAP1 SSTORE DUP7 DUP1 DUP1 PUSH2 0x2B84 JUMP JUMPDEST SWAP3 SWAP4 PUSH1 0x20 PUSH1 0x1 DUP2 SWAP3 DUP8 DUP7 ADD MLOAD DUP2 SSTORE ADD SWAP6 ADD SWAP4 ADD PUSH2 0x2B6E JUMP JUMPDEST SWAP1 SWAP2 POP DUP4 PUSH0 MSTORE PUSH1 0x20 PUSH0 KECCAK256 PUSH1 0x1F DUP5 ADD PUSH1 0x5 SHR DUP2 ADD SWAP2 PUSH1 0x20 DUP6 LT PUSH2 0x2C07 JUMPI JUMPDEST SWAP1 PUSH1 0x1F DUP6 SWAP5 SWAP4 SWAP3 ADD PUSH1 0x5 SHR ADD SWAP1 JUMPDEST DUP2 DUP2 LT PUSH2 0x2BF9 JUMPI POP PUSH2 0x28A0 JUMP JUMPDEST PUSH0 DUP2 SSTORE DUP5 SWAP4 POP PUSH1 0x1 ADD PUSH2 0x2BEC JUMP JUMPDEST SWAP1 SWAP2 POP DUP2 SWAP1 PUSH2 0x2BDE JUMP JUMPDEST ADD MLOAD SWAP1 POP DUP8 DUP1 PUSH2 0x2862 JUMP JUMPDEST PUSH0 DUP6 DUP2 MSTORE DUP3 DUP2 KECCAK256 SWAP4 POP PUSH1 0x1F NOT DUP6 AND SWAP1 JUMPDEST DUP2 DUP2 LT PUSH2 0x2C67 JUMPI POP SWAP1 DUP5 PUSH1 0x1 SWAP6 SWAP5 SWAP4 SWAP3 LT PUSH2 0x2C4F JUMPI JUMPDEST POP POP POP DUP2 SHL ADD SWAP1 SSTORE PUSH2 0x2876 JUMP JUMPDEST ADD MLOAD PUSH0 NOT PUSH1 0xF8 DUP5 PUSH1 0x3 SHL AND SHR NOT AND SWAP1 SSTORE DUP8 DUP1 DUP1 PUSH2 0x2C42 JUMP JUMPDEST SWAP3 SWAP4 PUSH1 0x20 PUSH1 0x1 DUP2 SWAP3 DUP8 DUP7 ADD MLOAD DUP2 SSTORE ADD SWAP6 ADD SWAP4 ADD PUSH2 0x2C2C JUMP JUMPDEST SWAP1 SWAP2 POP DUP4 PUSH0 MSTORE PUSH1 0x20 PUSH0 KECCAK256 PUSH1 0x1F DUP5 ADD PUSH1 0x5 SHR DUP2 ADD SWAP2 PUSH1 0x20 DUP6 LT PUSH2 0x2CC5 JUMPI JUMPDEST SWAP1 PUSH1 0x1F DUP6 SWAP5 SWAP4 SWAP3 ADD PUSH1 0x5 SHR ADD SWAP1 JUMPDEST DUP2 DUP2 LT PUSH2 0x2CB7 JUMPI POP PUSH2 0x284C JUMP JUMPDEST PUSH0 DUP2 SSTORE DUP5 SWAP4 POP PUSH1 0x1 ADD PUSH2 0x2CAA JUMP JUMPDEST SWAP1 SWAP2 POP DUP2 SWAP1 PUSH2 0x2C9C JUMP JUMPDEST ADD MLOAD SWAP1 POP DUP9 DUP1 PUSH2 0x280E JUMP JUMPDEST PUSH0 DUP6 DUP2 MSTORE DUP3 DUP2 KECCAK256 SWAP4 POP PUSH1 0x1F NOT DUP6 AND SWAP1 JUMPDEST DUP2 DUP2 LT PUSH2 0x2D25 JUMPI POP SWAP1 DUP5 PUSH1 0x1 SWAP6 SWAP5 SWAP4 SWAP3 LT PUSH2 0x2D0D JUMPI JUMPDEST POP POP POP DUP2 SHL ADD SWAP1 SSTORE PUSH2 0x2822 JUMP JUMPDEST ADD MLOAD PUSH0 NOT PUSH1 0xF8 DUP5 PUSH1 0x3 SHL AND SHR NOT AND SWAP1 SSTORE DUP9 DUP1 DUP1 PUSH2 0x2D00 JUMP JUMPDEST SWAP3 SWAP4 PUSH1 0x20 PUSH1 0x1 DUP2 SWAP3 DUP8 DUP7 ADD MLOAD DUP2 SSTORE ADD SWAP6 ADD SWAP4 ADD PUSH2 0x2CEA JUMP JUMPDEST SWAP1 SWAP2 POP DUP4 PUSH0 MSTORE PUSH1 0x20 PUSH0 KECCAK256 PUSH1 0x1F DUP5 ADD PUSH1 0x5 SHR DUP2 ADD SWAP2 PUSH1 0x20 DUP6 LT PUSH2 0x2D83 JUMPI JUMPDEST SWAP1 PUSH1 0x1F DUP6 SWAP5 SWAP4 SWAP3 ADD PUSH1 0x5 SHR ADD SWAP1 JUMPDEST DUP2 DUP2 LT PUSH2 0x2D75 JUMPI POP PUSH2 0x27F8 JUMP JUMPDEST PUSH0 DUP2 SSTORE DUP5 SWAP4 POP PUSH1 0x1 ADD PUSH2 0x2D68 JUMP JUMPDEST SWAP1 SWAP2 POP DUP2 SWAP1 PUSH2 0x2D5A JUMP JUMPDEST ADD MLOAD SWAP1 POP DUP10 DUP1 PUSH2 0x27BA JUMP JUMPDEST PUSH0 DUP6 DUP2 MSTORE DUP3 DUP2 KECCAK256 SWAP4 POP PUSH1 0x1F NOT DUP6 AND SWAP1 JUMPDEST DUP2 DUP2 LT PUSH2 0x2DE3 JUMPI POP SWAP1 DUP5 PUSH1 0x1 SWAP6 SWAP5 SWAP4 SWAP3 LT PUSH2 0x2DCB JUMPI JUMPDEST POP POP POP DUP2 SHL ADD SWAP1 SSTORE PUSH2 0x27CE JUMP JUMPDEST ADD MLOAD PUSH0 NOT PUSH1 0xF8 DUP5 PUSH1 0x3 SHL AND SHR NOT AND SWAP1 SSTORE DUP10 DUP1 DUP1 PUSH2 0x2DBE JUMP JUMPDEST SWAP3 SWAP4 PUSH1 0x20 PUSH1 0x1 DUP2 SWAP3 DUP8 DUP7 ADD MLOAD DUP2 SSTORE ADD SWAP6 ADD SWAP4 ADD PUSH2 0x2DA8 JUMP JUMPDEST SWAP1 SWAP2 POP DUP4 PUSH0 MSTORE PUSH1 0x20 PUSH0 KECCAK256 PUSH1 0x1F DUP5 ADD PUSH1 0x5 SHR DUP2 ADD SWAP2 PUSH1 0x20 DUP6 LT PUSH2 0x2E41 JUMPI JUMPDEST SWAP1 PUSH1 0x1F DUP6 SWAP5 SWAP4 SWAP3 ADD PUSH1 0x5 SHR ADD SWAP1 JUMPDEST DUP2 DUP2 LT PUSH2 0x2E33 JUMPI POP PUSH2 0x27A4 JUMP JUMPDEST PUSH0 DUP2 SSTORE DUP5 SWAP4 POP PUSH1 0x1 ADD PUSH2 0x2E26 JUMP JUMPDEST SWAP1 SWAP2 POP DUP2 SWAP1 PUSH2 0x2E18 JUMP JUMPDEST ADD MLOAD SWAP1 POP DUP10 DUP1 PUSH2 0x2766 JUMP JUMPDEST PUSH0 DUP10 DUP2 MSTORE DUP3 DUP2 KECCAK256 SWAP4 POP PUSH1 0x1F NOT DUP6 AND SWAP1 JUMPDEST DUP2 DUP2 LT PUSH2 0x2EA1 JUMPI POP SWAP1 DUP5 PUSH1 0x1 SWAP6 SWAP5 SWAP4 SWAP3 LT PUSH2 0x2E89 JUMPI JUMPDEST POP POP POP DUP2 SHL ADD DUP6 SSTORE PUSH2 0x277A JUMP JUMPDEST ADD MLOAD PUSH0 NOT PUSH1 0xF8 DUP5 PUSH1 0x3 SHL AND SHR NOT AND SWAP1 SSTORE DUP10 DUP1 DUP1 PUSH2 0x2E7C JUMP JUMPDEST SWAP3 SWAP4 PUSH1 0x20 PUSH1 0x1 DUP2 SWAP3 DUP8 DUP7 ADD MLOAD DUP2 SSTORE ADD SWAP6 ADD SWAP4 ADD PUSH2 0x2E66 JUMP JUMPDEST SWAP1 SWAP2 POP DUP8 PUSH0 MSTORE PUSH1 0x20 PUSH0 KECCAK256 PUSH1 0x1F DUP5 ADD PUSH1 0x5 SHR DUP2 ADD SWAP2 PUSH1 0x20 DUP6 LT PUSH2 0x2EFF JUMPI JUMPDEST SWAP1 PUSH1 0x1F DUP6 SWAP5 SWAP4 SWAP3 ADD PUSH1 0x5 SHR ADD SWAP1 JUMPDEST DUP2 DUP2 LT PUSH2 0x2EF1 JUMPI POP PUSH2 0x2750 JUMP JUMPDEST PUSH0 DUP2 SSTORE DUP5 SWAP4 POP PUSH1 0x1 ADD PUSH2 0x2EE4 JUMP JUMPDEST SWAP1 SWAP2 POP DUP2 SWAP1 PUSH2 0x2ED6 JUMP JUMPDEST PUSH1 0x40 MLOAD PUSH3 0x461BCD PUSH1 0xE5 SHL DUP2 MSTORE PUSH1 0x20 PUSH1 0x4 DUP3 ADD MSTORE PUSH1 0x1B PUSH1 0x24 DUP3 ADD MSTORE PUSH32 0x416C72656164792061207265676973746572656420646F63746F720000000000 PUSH1 0x44 DUP3 ADD MSTORE PUSH1 0x64 SWAP1 REVERT JUMPDEST CALLVALUE PUSH2 0x195 JUMPI PUSH0 CALLDATASIZE PUSH1 0x3 NOT ADD SLT PUSH2 0x195 JUMPI PUSH1 0x20 PUSH1 0xC SLOAD PUSH1 0x40 MLOAD SWAP1 DUP2 MSTORE RETURN JUMPDEST CALLVALUE PUSH2 0x195 JUMPI PUSH1 0x20 CALLDATASIZE PUSH1 0x3 NOT ADD SLT PUSH2 0x195 JUMPI PUSH1 0x1 PUSH1 0x1 PUSH1 0xA0 SHL SUB PUSH2 0x2F8C PUSH2 0x4D5B JUMP JUMPDEST AND PUSH0 MSTORE PUSH1 0x5 PUSH1 0x20 MSTORE PUSH1 0x20 PUSH2 0x100 PUSH1 0x40 PUSH0 KECCAK256 PUSH1 0x8 PUSH1 0x40 MLOAD SWAP2 PUSH2 0x2FAC DUP4 PUSH2 0x4D8D JUMP JUMPDEST PUSH2 0x2FB5 DUP2 PUSH2 0x4F9D JUMP JUMPDEST DUP4 MSTORE PUSH2 0x2FC3 PUSH1 0x1 DUP3 ADD PUSH2 0x4F9D JUMP JUMPDEST DUP6 DUP5 ADD MSTORE PUSH2 0x2FD3 PUSH1 0x2 DUP3 ADD PUSH2 0x4F9D JUMP JUMPDEST PUSH1 0x40 DUP5 ADD MSTORE PUSH2 0x2FE4 PUSH1 0x3 DUP3 ADD PUSH2 0x4F9D JUMP JUMPDEST PUSH1 0x60 DUP5 ADD MSTORE PUSH2 0x2FF5 PUSH1 0x4 DUP3 ADD PUSH2 0x4F9D JUMP JUMPDEST PUSH1 0x80 DUP5 ADD MSTORE PUSH2 0x3006 PUSH1 0x5 DUP3 ADD PUSH2 0x4F9D JUMP JUMPDEST PUSH1 0xA0 DUP5 ADD MSTORE PUSH2 0x3017 PUSH1 0x6 DUP3 ADD PUSH2 0x4F9D JUMP JUMPDEST PUSH1 0xC0 DUP5 ADD MSTORE PUSH1 0x7 DUP2 ADD SLOAD PUSH1 0x1 PUSH1 0x1 PUSH1 0xA0 SHL SUB AND PUSH1 0xE0 DUP5 ADD MSTORE ADD SLOAD SWAP2 ADD DUP2 SWAP1 MSTORE PUSH1 0x40 MLOAD SWAP1 DUP2 MSTORE RETURN JUMPDEST CALLVALUE PUSH2 0x195 JUMPI PUSH1 0x20 CALLDATASIZE PUSH1 0x3 NOT ADD SLT PUSH2 0x195 JUMPI PUSH1 0x1 PUSH1 0x1 PUSH1 0xA0 SHL SUB PUSH2 0x305F PUSH2 0x4D5B JUMP JUMPDEST AND PUSH0 MSTORE PUSH1 0x6 PUSH1 0x20 MSTORE PUSH1 0x20 PUSH2 0x100 PUSH1 0x40 PUSH0 KECCAK256 PUSH1 0x8 PUSH1 0x40 MLOAD SWAP2 PUSH2 0x307F DUP4 PUSH2 0x4D8D JUMP JUMPDEST DUP1 SLOAD PUSH1 0x1 PUSH1 0x1 PUSH1 0xA0 SHL SUB SWAP1 DUP2 AND DUP5 MSTORE PUSH1 0x1 DUP3 ADD SLOAD AND DUP6 DUP5 ADD MSTORE PUSH2 0x30A4 PUSH1 0x2 DUP3 ADD PUSH2 0x4F9D JUMP JUMPDEST PUSH1 0x40 DUP5 ADD MSTORE PUSH2 0x30B5 PUSH1 0x3 DUP3 ADD PUSH2 0x4F9D JUMP JUMPDEST PUSH1 0x60 DUP5 ADD MSTORE PUSH2 0x30C6 PUSH1 0x4 DUP3 ADD PUSH2 0x4F9D JUMP JUMPDEST PUSH1 0x80 DUP5 ADD MSTORE PUSH2 0x30D7 PUSH1 0x5 DUP3 ADD PUSH2 0x4F9D JUMP JUMPDEST PUSH1 0xA0 DUP5 ADD MSTORE PUSH2 0x30E8 PUSH1 0x6 DUP3 ADD PUSH2 0x4F9D JUMP JUMPDEST PUSH1 0xC0 DUP5 ADD MSTORE PUSH2 0x30F9 PUSH1 0x7 DUP3 ADD PUSH2 0x4F9D JUMP JUMPDEST PUSH1 0xE0 DUP5 ADD MSTORE ADD SLOAD SWAP2 DUP3 SWAP2 ADD MSTORE PUSH1 0x40 MLOAD SWAP1 DUP2 MSTORE RETURN JUMPDEST CALLVALUE PUSH2 0x195 JUMPI PUSH1 0x20 CALLDATASIZE PUSH1 0x3 NOT ADD SLT PUSH2 0x195 JUMPI PUSH2 0x3126 PUSH2 0x4D5B JUMP JUMPDEST CALLER PUSH0 MSTORE PUSH1 0x7 PUSH1 0x20 MSTORE PUSH1 0x40 PUSH0 KECCAK256 SWAP1 PUSH1 0x1 DUP1 PUSH1 0xA0 SHL SUB AND PUSH0 MSTORE PUSH1 0x20 MSTORE PUSH1 0x40 PUSH0 KECCAK256 PUSH1 0x1 PUSH1 0xFF NOT DUP3 SLOAD AND OR SWAP1 SSTORE PUSH2 0x315A PUSH1 0xE SLOAD PUSH2 0x53C1 JUMP JUMPDEST PUSH1 0xE SSTORE PUSH1 0x20 PUSH1 0x40 MLOAD PUSH1 0x1 DUP2 MSTORE RETURN JUMPDEST CALLVALUE PUSH2 0x195 JUMPI PUSH1 0x20 CALLDATASIZE PUSH1 0x3 NOT ADD SLT PUSH2 0x195 JUMPI PUSH1 0x1 PUSH1 0x1 PUSH1 0xA0 SHL SUB PUSH2 0x3189 PUSH2 0x4D5B JUMP JUMPDEST AND PUSH0 DUP2 DUP2 MSTORE PUSH1 0x7 PUSH1 0x20 SWAP1 DUP2 MSTORE PUSH1 0x40 DUP1 DUP4 KECCAK256 CALLER DUP5 MSTORE SWAP1 SWAP2 MSTORE SWAP1 KECCAK256 SLOAD PUSH2 0x31AF SWAP1 PUSH1 0xFF AND PUSH2 0x53E3 JUMP JUMPDEST PUSH0 MSTORE PUSH1 0x4 PUSH1 0x20 MSTORE PUSH1 0x40 PUSH0 KECCAK256 PUSH1 0x40 MLOAD PUSH2 0x31C6 DUP2 PUSH2 0x4D71 JUMP JUMPDEST PUSH2 0x31CF DUP3 PUSH2 0x4F9D JUMP JUMPDEST DUP2 MSTORE PUSH2 0x357 PUSH2 0x31E0 PUSH1 0x1 DUP5 ADD PUSH2 0x4F9D JUMP JUMPDEST SWAP2 PUSH1 0x20 DUP2 ADD SWAP3 DUP4 MSTORE PUSH2 0x31F4 PUSH1 0x2 DUP6 ADD PUSH2 0x4F9D JUMP JUMPDEST SWAP4 PUSH1 0x40 DUP3 ADD SWAP5 DUP6 MSTORE PUSH2 0x3208 PUSH1 0x3 DUP3 ADD PUSH2 0x4F9D JUMP JUMPDEST SWAP2 PUSH1 0x60 DUP2 ADD SWAP3 DUP4 MSTORE PUSH2 0x321C PUSH1 0x4 DUP4 ADD PUSH2 0x4F9D JUMP JUMPDEST PUSH1 0x80 DUP3 ADD SWAP1 DUP2 MSTORE PUSH2 0x322F PUSH1 0x5 DUP5 ADD PUSH2 0x4F9D JUMP JUMPDEST SWAP2 PUSH1 0xA0 DUP2 ADD SWAP3 DUP4 MSTORE PUSH1 0xE PUSH2 0x3245 PUSH1 0x6 DUP7 ADD PUSH2 0x4F9D JUMP JUMPDEST SWAP5 PUSH1 0xC0 DUP4 ADD SWAP6 DUP7 MSTORE PUSH2 0x3259 PUSH1 0x7 DUP3 ADD PUSH2 0x4F9D JUMP JUMPDEST PUSH1 0xE0 DUP5 ADD MSTORE PUSH2 0x326A PUSH1 0x8 DUP3 ADD PUSH2 0x4F9D JUMP JUMPDEST PUSH2 0x100 DUP5 ADD MSTORE PUSH2 0x327C PUSH1 0x9 DUP3 ADD PUSH2 0x4F9D JUMP JUMPDEST PUSH2 0x120 DUP5 ADD MSTORE PUSH2 0x328E PUSH1 0xA DUP3 ADD PUSH2 0x4F9D JUMP JUMPDEST PUSH2 0x140 DUP5 ADD MSTORE PUSH2 0x32A0 PUSH1 0xB DUP3 ADD PUSH2 0x4F9D JUMP JUMPDEST PUSH2 0x160 DUP5 ADD MSTORE PUSH2 0x32B2 PUSH1 0xC DUP3 ADD PUSH2 0x4F9D JUMP JUMPDEST PUSH2 0x180 DUP5 ADD MSTORE PUSH1 0xD DUP2 ADD SLOAD PUSH1 0x1 PUSH1 0x1 PUSH1 0xA0 SHL SUB AND PUSH2 0x1A0 DUP5 ADD MSTORE ADD SLOAD PUSH2 0x1C0 DUP3 ADD MSTORE MLOAD SWAP6 MLOAD SWAP7 MLOAD SWAP4 MLOAD SWAP1 MLOAD SWAP2 MLOAD SWAP3 MLOAD PUSH1 0x40 MLOAD SWAP8 DUP9 SWAP8 SWAP2 SWAP6 SWAP2 DUP9 PUSH2 0x525F JUMP JUMPDEST CALLVALUE PUSH2 0x195 JUMPI PUSH2 0x32FE CALLDATASIZE PUSH2 0x50B8 JUMP JUMPDEST SWAP11 SWAP12 SWAP10 SWAP1 SWAP12 SWAP9 SWAP2 SWAP9 SWAP8 SWAP3 SWAP8 SWAP7 SWAP4 SWAP7 SWAP6 SWAP5 SWAP6 CALLER PUSH0 MSTORE PUSH1 0x8 PUSH1 0x20 MSTORE PUSH1 0xFF PUSH1 0x40 PUSH0 KECCAK256 SLOAD AND ISZERO PUSH2 0x40E6 JUMPI CALLER PUSH0 MSTORE PUSH1 0x4 PUSH1 0x20 MSTORE PUSH1 0x40 PUSH0 KECCAK256 SWAP11 DUP1 MLOAD SWAP1 PUSH1 0x1 PUSH1 0x1 PUSH1 0x40 SHL SUB DUP3 GT PUSH2 0x668 JUMPI DUP13 DUP3 SWAP2 PUSH2 0x334F DUP3 SLOAD PUSH2 0x4F65 JUMP JUMPDEST PUSH1 0x1F DUP2 GT PUSH2 0x408C JUMPI JUMPDEST POP PUSH1 0x20 SWAP2 PUSH1 0x1F DUP5 GT PUSH1 0x1 EQ PUSH2 0x4029 JUMPI POP PUSH0 SWAP3 PUSH2 0x401E JUMPI JUMPDEST POP POP DUP2 PUSH1 0x1 SHL SWAP2 PUSH0 NOT SWAP1 PUSH1 0x3 SHL SHR NOT AND OR DUP12 SSTORE JUMPDEST DUP1 MLOAD PUSH1 0x1 DUP13 ADD SWAP2 PUSH1 0x1 PUSH1 0x1 PUSH1 0x40 SHL SUB DUP3 GT PUSH2 0x668 JUMPI DUP2 SWAP1 PUSH2 0x33A4 DUP5 SLOAD PUSH2 0x4F65 JUMP JUMPDEST PUSH1 0x1F DUP2 GT PUSH2 0x3FCE JUMPI JUMPDEST POP PUSH1 0x20 SWAP1 PUSH1 0x1F DUP4 GT PUSH1 0x1 EQ PUSH2 0x3F6B JUMPI PUSH0 SWAP3 PUSH2 0x3F60 JUMPI JUMPDEST POP POP DUP2 PUSH1 0x1 SHL SWAP2 PUSH0 NOT SWAP1 PUSH1 0x3 SHL SHR NOT AND OR SWAP1 SSTORE JUMPDEST DUP1 MLOAD PUSH1 0x2 DUP12 ADD SWAP2 PUSH1 0x1 PUSH1 0x1 PUSH1 0x40 SHL SUB DUP3 GT PUSH2 0x668 JUMPI DUP2 SWAP1 PUSH2 0x33F8 DUP5 SLOAD PUSH2 0x4F65 JUMP JUMPDEST PUSH1 0x1F DUP2 GT PUSH2 0x3F10 JUMPI JUMPDEST POP PUSH1 0x20 SWAP1 PUSH1 0x1F DUP4 GT PUSH1 0x1 EQ PUSH2 0x3EAD JUMPI PUSH0 SWAP3 PUSH2 0x3EA2 JUMPI JUMPDEST POP POP DUP2 PUSH1 0x1 SHL SWAP2 PUSH0 NOT SWAP1 PUSH1 0x3 SHL SHR NOT AND OR SWAP1 SSTORE JUMPDEST DUP1 MLOAD PUSH1 0x3 DUP11 ADD SWAP2 PUSH1 0x1 PUSH1 0x1 PUSH1 0x40 SHL SUB DUP3 GT PUSH2 0x668 JUMPI DUP2 SWAP1 PUSH2 0x344C DUP5 SLOAD PUSH2 0x4F65 JUMP JUMPDEST PUSH1 0x1F DUP2 GT PUSH2 0x3E52 JUMPI JUMPDEST POP PUSH1 0x20 SWAP1 PUSH1 0x1F DUP4 GT PUSH1 0x1 EQ PUSH2 0x3DEF JUMPI PUSH0 SWAP3 PUSH2 0x3DE4 JUMPI JUMPDEST POP POP DUP2 PUSH1 0x1 SHL SWAP2 PUSH0 NOT SWAP1 PUSH1 0x3 SHL SHR NOT AND OR SWAP1 SSTORE JUMPDEST DUP1 MLOAD PUSH1 0x4 DUP10 ADD SWAP2 PUSH1 0x1 PUSH1 0x1 PUSH1 0x40 SHL SUB DUP3 GT PUSH2 0x668 JUMPI DUP2 SWAP1 PUSH2 0x34A0 DUP5 SLOAD PUSH2 0x4F65 JUMP JUMPDEST PUSH1 0x1F DUP2 GT PUSH2 0x3D94 JUMPI JUMPDEST POP PUSH1 0x20 SWAP1 PUSH1 0x1F DUP4 GT PUSH1 0x1 EQ PUSH2 0x3D31 JUMPI PUSH0 SWAP3 PUSH2 0x3D26 JUMPI JUMPDEST POP POP DUP2 PUSH1 0x1 SHL SWAP2 PUSH0 NOT SWAP1 PUSH1 0x3 SHL SHR NOT AND OR SWAP1 SSTORE JUMPDEST DUP1 MLOAD PUSH1 0x5 DUP9 ADD SWAP2 PUSH1 0x1 PUSH1 0x1 PUSH1 0x40 SHL SUB DUP3 GT PUSH2 0x668 JUMPI DUP2 SWAP1 PUSH2 0x34F4 DUP5 SLOAD PUSH2 0x4F65 JUMP JUMPDEST PUSH1 0x1F DUP2 GT PUSH2 0x3CD6 JUMPI JUMPDEST POP PUSH1 0x20 SWAP1 PUSH1 0x1F DUP4 GT PUSH1 0x1 EQ PUSH2 0x3C73 JUMPI PUSH0 SWAP3 PUSH2 0x3C68 JUMPI JUMPDEST POP POP DUP2 PUSH1 0x1 SHL SWAP2 PUSH0 NOT SWAP1 PUSH1 0x3 SHL SHR NOT AND OR SWAP1 SSTORE JUMPDEST DUP1 MLOAD PUSH1 0x6 DUP8 ADD SWAP2 PUSH1 0x1 PUSH1 0x1 PUSH1 0x40 SHL SUB DUP3 GT PUSH2 0x668 JUMPI DUP2 SWAP1 PUSH2 0x3548 DUP5 SLOAD PUSH2 0x4F65 JUMP JUMPDEST PUSH1 0x1F DUP2 GT PUSH2 0x3C18 JUMPI JUMPDEST POP PUSH1 0x20 SWAP1 PUSH1 0x1F DUP4 GT PUSH1 0x1 EQ PUSH2 0x3BB5 JUMPI PUSH0 SWAP3 PUSH2 0x3BAA JUMPI JUMPDEST POP POP DUP2 PUSH1 0x1 SHL SWAP2 PUSH0 NOT SWAP1 PUSH1 0x3 SHL SHR NOT AND OR SWAP1 SSTORE JUMPDEST DUP1 MLOAD PUSH1 0x7 DUP7 ADD SWAP2 PUSH1 0x1 PUSH1 0x1 PUSH1 0x40 SHL SUB DUP3 GT PUSH2 0x668 JUMPI DUP2 SWAP1 PUSH2 0x359C DUP5 SLOAD PUSH2 0x4F65 JUMP JUMPDEST PUSH1 0x1F DUP2 GT PUSH2 0x3B5A JUMPI JUMPDEST POP PUSH1 0x20 SWAP1 PUSH1 0x1F DUP4 GT PUSH1 0x1 EQ PUSH2 0x3AF7 JUMPI PUSH0 SWAP3 PUSH2 0x3AEC JUMPI JUMPDEST POP POP DUP2 PUSH1 0x1 SHL SWAP2 PUSH0 NOT SWAP1 PUSH1 0x3 SHL SHR NOT AND OR SWAP1 SSTORE JUMPDEST DUP1 MLOAD PUSH1 0x8 DUP6 ADD SWAP2 PUSH1 0x1 PUSH1 0x1 PUSH1 0x40 SHL SUB DUP3 GT PUSH2 0x668 JUMPI DUP2 SWAP1 PUSH2 0x35F0 DUP5 SLOAD PUSH2 0x4F65 JUMP JUMPDEST PUSH1 0x1F DUP2 GT PUSH2 0x3A9C JUMPI JUMPDEST POP PUSH1 0x20 SWAP1 PUSH1 0x1F DUP4 GT PUSH1 0x1 EQ PUSH2 0x3A39 JUMPI PUSH0 SWAP3 PUSH2 0x3A2E JUMPI JUMPDEST POP POP DUP2 PUSH1 0x1 SHL SWAP2 PUSH0 NOT SWAP1 PUSH1 0x3 SHL SHR NOT AND OR SWAP1 SSTORE JUMPDEST DUP1 MLOAD PUSH1 0x9 DUP5 ADD SWAP2 PUSH1 0x1 PUSH1 0x1 PUSH1 0x40 SHL SUB DUP3 GT PUSH2 0x668 JUMPI DUP2 SWAP1 PUSH2 0x3644 DUP5 SLOAD PUSH2 0x4F65 JUMP JUMPDEST PUSH1 0x1F DUP2 GT PUSH2 0x39DE JUMPI JUMPDEST POP PUSH1 0x20 SWAP1 PUSH1 0x1F DUP4 GT PUSH1 0x1 EQ PUSH2 0x397B JUMPI PUSH0 SWAP3 PUSH2 0x3970 JUMPI JUMPDEST POP POP DUP2 PUSH1 0x1 SHL SWAP2 PUSH0 NOT SWAP1 PUSH1 0x3 SHL SHR NOT AND OR SWAP1 SSTORE JUMPDEST DUP1 MLOAD PUSH1 0xA DUP4 ADD SWAP2 PUSH1 0x1 PUSH1 0x1 PUSH1 0x40 SHL SUB DUP3 GT PUSH2 0x668 JUMPI DUP2 SWAP1 PUSH2 0x3698 DUP5 SLOAD PUSH2 0x4F65 JUMP JUMPDEST PUSH1 0x1F DUP2 GT PUSH2 0x3920 JUMPI JUMPDEST POP PUSH1 0x20 SWAP1 PUSH1 0x1F DUP4 GT PUSH1 0x1 EQ PUSH2 0x38BD JUMPI PUSH0 SWAP3 PUSH2 0x38B2 JUMPI JUMPDEST POP POP DUP2 PUSH1 0x1 SHL SWAP2 PUSH0 NOT SWAP1 PUSH1 0x3 SHL SHR NOT AND OR SWAP1 SSTORE JUMPDEST PUSH1 0xB DUP2 ADD DUP4 MLOAD PUSH1 0x1 PUSH1 0x1 PUSH1 0x40 SHL SUB DUP2 GT PUSH2 0x668 JUMPI PUSH2 0x36E9 DUP3 SLOAD PUSH2 0x4F65 JUMP JUMPDEST PUSH1 0x1F DUP2 GT PUSH2 0x386D JUMPI JUMPDEST POP PUSH1 0x20 PUSH1 0x1F DUP3 GT PUSH1 0x1 EQ PUSH2 0x3808 JUMPI DUP2 SWAP1 PUSH1 0xC SWAP6 SWAP7 PUSH0 SWAP3 PUSH2 0x37FD JUMPI JUMPDEST POP POP DUP2 PUSH1 0x1 SHL SWAP2 PUSH0 NOT SWAP1 PUSH1 0x3 SHL SHR NOT AND OR SWAP1 SSTORE JUMPDEST ADD DUP2 MLOAD PUSH1 0x1 PUSH1 0x1 PUSH1 0x40 SHL SUB DUP2 GT PUSH2 0x668 JUMPI PUSH2 0x373C DUP3 SLOAD PUSH2 0x4F65 JUMP JUMPDEST PUSH1 0x1F DUP2 GT PUSH2 0x37B8 JUMPI JUMPDEST POP PUSH1 0x20 SWAP3 PUSH1 0x1F DUP3 GT PUSH1 0x1 EQ PUSH2 0x3775 JUMPI SWAP3 DUP2 SWAP3 SWAP4 PUSH0 SWAP3 PUSH2 0x5BC JUMPI POP POP PUSH0 NOT PUSH1 0x3 DUP4 SWAP1 SHL SHR NOT AND PUSH1 0x1 SWAP2 SWAP1 SWAP2 SHL OR SWAP1 SSTORE STOP JUMPDEST PUSH1 0x1F NOT DUP3 AND SWAP4 DUP4 PUSH0 MSTORE DUP1 PUSH0 KECCAK256 SWAP2 PUSH0 JUMPDEST DUP7 DUP2 LT PUSH2 0x37A0 JUMPI POP DUP4 PUSH1 0x1 SWAP6 SWAP7 LT PUSH2 0x5F3 JUMPI POP POP POP DUP2 SHL ADD SWAP1 SSTORE STOP JUMPDEST SWAP2 SWAP3 PUSH1 0x20 PUSH1 0x1 DUP2 SWAP3 DUP7 DUP6 ADD MLOAD DUP2 SSTORE ADD SWAP5 ADD SWAP3 ADD PUSH2 0x3784 JUMP JUMPDEST DUP3 PUSH0 MSTORE PUSH1 0x20 PUSH0 KECCAK256 PUSH1 0x1F DUP4 ADD PUSH1 0x5 SHR DUP2 ADD SWAP2 PUSH1 0x20 DUP5 LT PUSH2 0x37F3 JUMPI JUMPDEST PUSH1 0x1F ADD PUSH1 0x5 SHR ADD SWAP1 JUMPDEST DUP2 DUP2 LT PUSH2 0x37E8 JUMPI POP PUSH2 0x3745 JUMP JUMPDEST PUSH0 DUP2 SSTORE PUSH1 0x1 ADD PUSH2 0x37DB JUMP JUMPDEST SWAP1 SWAP2 POP DUP2 SWAP1 PUSH2 0x37D2 JUMP JUMPDEST ADD MLOAD SWAP1 POP DUP7 DUP1 PUSH2 0x370D JUMP JUMPDEST PUSH1 0x1F NOT DUP3 AND SWAP6 DUP4 PUSH0 MSTORE DUP2 PUSH0 KECCAK256 SWAP7 PUSH0 JUMPDEST DUP2 DUP2 LT PUSH2 0x3855 JUMPI POP SWAP2 PUSH1 0xC SWAP7 SWAP8 SWAP2 DUP5 PUSH1 0x1 SWAP6 SWAP5 LT PUSH2 0x383D JUMPI JUMPDEST POP POP POP DUP2 SHL ADD SWAP1 SSTORE PUSH2 0x3721 JUMP JUMPDEST ADD MLOAD PUSH0 NOT PUSH1 0xF8 DUP5 PUSH1 0x3 SHL AND SHR NOT AND SWAP1 SSTORE DUP7 DUP1 DUP1 PUSH2 0x3830 JUMP JUMPDEST DUP4 DUP4 ADD MLOAD DUP10 SSTORE PUSH1 0x1 SWAP1 SWAP9 ADD SWAP8 PUSH1 0x20 SWAP4 DUP5 ADD SWAP4 ADD PUSH2 0x3817 JUMP JUMPDEST DUP3 PUSH0 MSTORE PUSH1 0x20 PUSH0 KECCAK256 PUSH1 0x1F DUP4 ADD PUSH1 0x5 SHR DUP2 ADD SWAP2 PUSH1 0x20 DUP5 LT PUSH2 0x38A8 JUMPI JUMPDEST PUSH1 0x1F ADD PUSH1 0x5 SHR ADD SWAP1 JUMPDEST DUP2 DUP2 LT PUSH2 0x389D JUMPI POP PUSH2 0x36F2 JUMP JUMPDEST PUSH0 DUP2 SSTORE PUSH1 0x1 ADD PUSH2 0x3890 JUMP JUMPDEST SWAP1 SWAP2 POP DUP2 SWAP1 PUSH2 0x3887 JUMP JUMPDEST ADD MLOAD SWAP1 POP DUP7 DUP1 PUSH2 0x36B7 JUMP JUMPDEST PUSH0 DUP6 DUP2 MSTORE DUP3 DUP2 KECCAK256 SWAP4 POP PUSH1 0x1F NOT DUP6 AND SWAP1 JUMPDEST DUP2 DUP2 LT PUSH2 0x3908 JUMPI POP SWAP1 DUP5 PUSH1 0x1 SWAP6 SWAP5 SWAP4 SWAP3 LT PUSH2 0x38F0 JUMPI JUMPDEST POP POP POP DUP2 SHL ADD SWAP1 SSTORE PUSH2 0x36CB JUMP JUMPDEST ADD MLOAD PUSH0 NOT PUSH1 0xF8 DUP5 PUSH1 0x3 SHL AND SHR NOT AND SWAP1 SSTORE DUP7 DUP1 DUP1 PUSH2 0x38E3 JUMP JUMPDEST SWAP3 SWAP4 PUSH1 0x20 PUSH1 0x1 DUP2 SWAP3 DUP8 DUP7 ADD MLOAD DUP2 SSTORE ADD SWAP6 ADD SWAP4 ADD PUSH2 0x38CD JUMP JUMPDEST SWAP1 SWAP2 POP DUP4 PUSH0 MSTORE PUSH1 0x20 PUSH0 KECCAK256 PUSH1 0x1F DUP5 ADD PUSH1 0x5 SHR DUP2 ADD SWAP2 PUSH1 0x20 DUP6 LT PUSH2 0x3966 JUMPI JUMPDEST SWAP1 PUSH1 0x1F DUP6 SWAP5 SWAP4 SWAP3 ADD PUSH1 0x5 SHR ADD SWAP1 JUMPDEST DUP2 DUP2 LT PUSH2 0x3958 JUMPI POP PUSH2 0x36A1 JUMP JUMPDEST PUSH0 DUP2 SSTORE DUP5 SWAP4 POP PUSH1 0x1 ADD PUSH2 0x394B JUMP JUMPDEST SWAP1 SWAP2 POP DUP2 SWAP1 PUSH2 0x393D JUMP JUMPDEST ADD MLOAD SWAP1 POP DUP8 DUP1 PUSH2 0x3663 JUMP JUMPDEST PUSH0 DUP6 DUP2 MSTORE DUP3 DUP2 KECCAK256 SWAP4 POP PUSH1 0x1F NOT DUP6 AND SWAP1 JUMPDEST DUP2 DUP2 LT PUSH2 0x39C6 JUMPI POP SWAP1 DUP5 PUSH1 0x1 SWAP6 SWAP5 SWAP4 SWAP3 LT PUSH2 0x39AE JUMPI JUMPDEST POP POP POP DUP2 SHL ADD SWAP1 SSTORE PUSH2 0x3677 JUMP JUMPDEST ADD MLOAD PUSH0 NOT PUSH1 0xF8 DUP5 PUSH1 0x3 SHL AND SHR NOT AND SWAP1 SSTORE DUP8 DUP1 DUP1 PUSH2 0x39A1 JUMP JUMPDEST SWAP3 SWAP4 PUSH1 0x20 PUSH1 0x1 DUP2 SWAP3 DUP8 DUP7 ADD MLOAD DUP2 SSTORE ADD SWAP6 ADD SWAP4 ADD PUSH2 0x398B JUMP JUMPDEST SWAP1 SWAP2 POP DUP4 PUSH0 MSTORE PUSH1 0x20 PUSH0 KECCAK256 PUSH1 0x1F DUP5 ADD PUSH1 0x5 SHR DUP2 ADD SWAP2 PUSH1 0x20 DUP6 LT PUSH2 0x3A24 JUMPI JUMPDEST SWAP1 PUSH1 0x1F DUP6 SWAP5 SWAP4 SWAP3 ADD PUSH1 0x5 SHR ADD SWAP1 JUMPDEST DUP2 DUP2 LT PUSH2 0x3A16 JUMPI POP PUSH2 0x364D JUMP JUMPDEST PUSH0 DUP2 SSTORE DUP5 SWAP4 POP PUSH1 0x1 ADD PUSH2 0x3A09 JUMP JUMPDEST SWAP1 SWAP2 POP DUP2 SWAP1 PUSH2 0x39FB JUMP JUMPDEST ADD MLOAD SWAP1 POP DUP9 DUP1 PUSH2 0x360F JUMP JUMPDEST PUSH0 DUP6 DUP2 MSTORE DUP3 DUP2 KECCAK256 SWAP4 POP PUSH1 0x1F NOT DUP6 AND SWAP1 JUMPDEST DUP2 DUP2 LT PUSH2 0x3A84 JUMPI POP SWAP1 DUP5 PUSH1 0x1 SWAP6 SWAP5 SWAP4 SWAP3 LT PUSH2 0x3A6C JUMPI JUMPDEST POP POP POP DUP2 SHL ADD SWAP1 SSTORE PUSH2 0x3623 JUMP JUMPDEST ADD MLOAD PUSH0 NOT PUSH1 0xF8 DUP5 PUSH1 0x3 SHL AND SHR NOT AND SWAP1 SSTORE DUP9 DUP1 DUP1 PUSH2 0x3A5F JUMP JUMPDEST SWAP3 SWAP4 PUSH1 0x20 PUSH1 0x1 DUP2 SWAP3 DUP8 DUP7 ADD MLOAD DUP2 SSTORE ADD SWAP6 ADD SWAP4 ADD PUSH2 0x3A49 JUMP JUMPDEST SWAP1 SWAP2 POP DUP4 PUSH0 MSTORE PUSH1 0x20 PUSH0 KECCAK256 PUSH1 0x1F DUP5 ADD PUSH1 0x5 SHR DUP2 ADD SWAP2 PUSH1 0x20 DUP6 LT PUSH2 0x3AE2 JUMPI JUMPDEST SWAP1 PUSH1 0x1F DUP6 SWAP5 SWAP4 SWAP3 ADD PUSH1 0x5 SHR ADD SWAP1 JUMPDEST DUP2 DUP2 LT PUSH2 0x3AD4 JUMPI POP PUSH2 0x35F9 JUMP JUMPDEST PUSH0 DUP2 SSTORE DUP5 SWAP4 POP PUSH1 0x1 ADD PUSH2 0x3AC7 JUMP JUMPDEST SWAP1 SWAP2 POP DUP2 SWAP1 PUSH2 0x3AB9 JUMP JUMPDEST ADD MLOAD SWAP1 POP DUP10 DUP1 PUSH2 0x35BB JUMP JUMPDEST PUSH0 DUP6 DUP2 MSTORE DUP3 DUP2 KECCAK256 SWAP4 POP PUSH1 0x1F NOT DUP6 AND SWAP1 JUMPDEST DUP2 DUP2 LT PUSH2 0x3B42 JUMPI POP SWAP1 DUP5 PUSH1 0x1 SWAP6 SWAP5 SWAP4 SWAP3 LT PUSH2 0x3B2A JUMPI JUMPDEST POP POP POP DUP2 SHL ADD SWAP1 SSTORE PUSH2 0x35CF JUMP JUMPDEST ADD MLOAD PUSH0 NOT PUSH1 0xF8 DUP5 PUSH1 0x3 SHL AND SHR NOT AND SWAP1 SSTORE DUP10 DUP1 DUP1 PUSH2 0x3B1D JUMP JUMPDEST SWAP3 SWAP4 PUSH1 0x20 PUSH1 0x1 DUP2 SWAP3 DUP8 DUP7 ADD MLOAD DUP2 SSTORE ADD SWAP6 ADD SWAP4 ADD PUSH2 0x3B07 JUMP JUMPDEST SWAP1 SWAP2 POP DUP4 PUSH0 MSTORE PUSH1 0x20 PUSH0 KECCAK256 PUSH1 0x1F DUP5 ADD PUSH1 0x5 SHR DUP2 ADD SWAP2 PUSH1 0x20 DUP6 LT PUSH2 0x3BA0 JUMPI JUMPDEST SWAP1 PUSH1 0x1F DUP6 SWAP5 SWAP4 SWAP3 ADD PUSH1 0x5 SHR ADD SWAP1 JUMPDEST DUP2 DUP2 LT PUSH2 0x3B92 JUMPI POP PUSH2 0x35A5 JUMP JUMPDEST PUSH0 DUP2 SSTORE DUP5 SWAP4 POP PUSH1 0x1 ADD PUSH2 0x3B85 JUMP JUMPDEST SWAP1 SWAP2 POP DUP2 SWAP1 PUSH2 0x3B77 JUMP JUMPDEST ADD MLOAD SWAP1 POP DUP11 DUP1 PUSH2 0x3567 JUMP JUMPDEST PUSH0 DUP6 DUP2 MSTORE DUP3 DUP2 KECCAK256 SWAP4 POP PUSH1 0x1F NOT DUP6 AND SWAP1 JUMPDEST DUP2 DUP2 LT PUSH2 0x3C00 JUMPI POP SWAP1 DUP5 PUSH1 0x1 SWAP6 SWAP5 SWAP4 SWAP3 LT PUSH2 0x3BE8 JUMPI JUMPDEST POP POP POP DUP2 SHL ADD SWAP1 SSTORE PUSH2 0x357B JUMP JUMPDEST ADD MLOAD PUSH0 NOT PUSH1 0xF8 DUP5 PUSH1 0x3 SHL AND SHR NOT AND SWAP1 SSTORE DUP11 DUP1 DUP1 PUSH2 0x3BDB JUMP JUMPDEST SWAP3 SWAP4 PUSH1 0x20 PUSH1 0x1 DUP2 SWAP3 DUP8 DUP7 ADD MLOAD DUP2 SSTORE ADD SWAP6 ADD SWAP4 ADD PUSH2 0x3BC5 JUMP JUMPDEST SWAP1 SWAP2 POP DUP4 PUSH0 MSTORE PUSH1 0x20 PUSH0 KECCAK256 PUSH1 0x1F DUP5 ADD PUSH1 0x5 SHR DUP2 ADD SWAP2 PUSH1 0x20 DUP6 LT PUSH2 0x3C5E JUMPI JUMPDEST SWAP1 PUSH1 0x1F DUP6 SWAP5 SWAP4 SWAP3 ADD PUSH1 0x5 SHR ADD SWAP1 JUMPDEST DUP2 DUP2 LT PUSH2 0x3C50 JUMPI POP PUSH2 0x3551 JUMP JUMPDEST PUSH0 DUP2 SSTORE DUP5 SWAP4 POP PUSH1 0x1 ADD PUSH2 0x3C43 JUMP JUMPDEST SWAP1 SWAP2 POP DUP2 SWAP1 PUSH2 0x3C35 JUMP JUMPDEST ADD MLOAD SWAP1 POP DUP12 DUP1 PUSH2 0x3513 JUMP JUMPDEST PUSH0 DUP6 DUP2 MSTORE DUP3 DUP2 KECCAK256 SWAP4 POP PUSH1 0x1F NOT DUP6 AND SWAP1 JUMPDEST DUP2 DUP2 LT PUSH2 0x3CBE JUMPI POP SWAP1 DUP5 PUSH1 0x1 SWAP6 SWAP5 SWAP4 SWAP3 LT PUSH2 0x3CA6 JUMPI JUMPDEST POP POP POP DUP2 SHL ADD SWAP1 SSTORE PUSH2 0x3527 JUMP JUMPDEST ADD MLOAD PUSH0 NOT PUSH1 0xF8 DUP5 PUSH1 0x3 SHL AND SHR NOT AND SWAP1 SSTORE DUP12 DUP1 DUP1 PUSH2 0x3C99 JUMP JUMPDEST SWAP3 SWAP4 PUSH1 0x20 PUSH1 0x1 DUP2 SWAP3 DUP8 DUP7 ADD MLOAD DUP2 SSTORE ADD SWAP6 ADD SWAP4 ADD PUSH2 0x3C83 JUMP JUMPDEST SWAP1 SWAP2 POP DUP4 PUSH0 MSTORE PUSH1 0x20 PUSH0 KECCAK256 PUSH1 0x1F DUP5 ADD PUSH1 0x5 SHR DUP2 ADD SWAP2 PUSH1 0x20 DUP6 LT PUSH2 0x3D1C JUMPI JUMPDEST SWAP1 PUSH1 0x1F DUP6 SWAP5 SWAP4 SWAP3 ADD PUSH1 0x5 SHR ADD SWAP1 JUMPDEST DUP2 DUP2 LT PUSH2 0x3D0E JUMPI POP PUSH2 0x34FD JUMP JUMPDEST PUSH0 DUP2 SSTORE DUP5 SWAP4 POP PUSH1 0x1 ADD PUSH2 0x3D01 JUMP JUMPDEST SWAP1 SWAP2 POP DUP2 SWAP1 PUSH2 0x3CF3 JUMP JUMPDEST ADD MLOAD SWAP1 POP DUP13 DUP1 PUSH2 0x34BF JUMP JUMPDEST PUSH0 DUP6 DUP2 MSTORE DUP3 DUP2 KECCAK256 SWAP4 POP PUSH1 0x1F NOT DUP6 AND SWAP1 JUMPDEST DUP2 DUP2 LT PUSH2 0x3D7C JUMPI POP SWAP1 DUP5 PUSH1 0x1 SWAP6 SWAP5 SWAP4 SWAP3 LT PUSH2 0x3D64 JUMPI JUMPDEST POP POP POP DUP2 SHL ADD SWAP1 SSTORE PUSH2 0x34D3 JUMP JUMPDEST ADD MLOAD PUSH0 NOT PUSH1 0xF8 DUP5 PUSH1 0x3 SHL AND SHR NOT AND SWAP1 SSTORE DUP13 DUP1 DUP1 PUSH2 0x3D57 JUMP JUMPDEST SWAP3 SWAP4 PUSH1 0x20 PUSH1 0x1 DUP2 SWAP3 DUP8 DUP7 ADD MLOAD DUP2 SSTORE ADD SWAP6 ADD SWAP4 ADD PUSH2 0x3D41 JUMP JUMPDEST SWAP1 SWAP2 POP DUP4 PUSH0 MSTORE PUSH1 0x20 PUSH0 KECCAK256 PUSH1 0x1F DUP5 ADD PUSH1 0x5 SHR DUP2 ADD SWAP2 PUSH1 0x20 DUP6 LT PUSH2 0x3DDA JUMPI JUMPDEST SWAP1 PUSH1 0x1F DUP6 SWAP5 SWAP4 SWAP3 ADD PUSH1 0x5 SHR ADD SWAP1 JUMPDEST DUP2 DUP2 LT PUSH2 0x3DCC JUMPI POP PUSH2 0x34A9 JUMP JUMPDEST PUSH0 DUP2 SSTORE DUP5 SWAP4 POP PUSH1 0x1 ADD PUSH2 0x3DBF JUMP JUMPDEST SWAP1 SWAP2 POP DUP2 SWAP1 PUSH2 0x3DB1 JUMP JUMPDEST ADD MLOAD SWAP1 POP DUP14 DUP1 PUSH2 0x346B JUMP JUMPDEST PUSH0 DUP6 DUP2 MSTORE DUP3 DUP2 KECCAK256 SWAP4 POP PUSH1 0x1F NOT DUP6 AND SWAP1 JUMPDEST DUP2 DUP2 LT PUSH2 0x3E3A JUMPI POP SWAP1 DUP5 PUSH1 0x1 SWAP6 SWAP5 SWAP4 SWAP3 LT PUSH2 0x3E22 JUMPI JUMPDEST POP POP POP DUP2 SHL ADD SWAP1 SSTORE PUSH2 0x347F JUMP JUMPDEST ADD MLOAD PUSH0 NOT PUSH1 0xF8 DUP5 PUSH1 0x3 SHL AND SHR NOT AND SWAP1 SSTORE DUP14 DUP1 DUP1 PUSH2 0x3E15 JUMP JUMPDEST SWAP3 SWAP4 PUSH1 0x20 PUSH1 0x1 DUP2 SWAP3 DUP8 DUP7 ADD MLOAD DUP2 SSTORE ADD SWAP6 ADD SWAP4 ADD PUSH2 0x3DFF JUMP JUMPDEST SWAP1 SWAP2 POP DUP4 PUSH0 MSTORE PUSH1 0x20 PUSH0 KECCAK256 PUSH1 0x1F DUP5 ADD PUSH1 0x5 SHR DUP2 ADD SWAP2 PUSH1 0x20 DUP6 LT PUSH2 0x3E98 JUMPI JUMPDEST SWAP1 PUSH1 0x1F DUP6 SWAP5 SWAP4 SWAP3 ADD PUSH1 0x5 SHR ADD SWAP1 JUMPDEST DUP2 DUP2 LT PUSH2 0x3E8A JUMPI POP PUSH2 0x3455 JUMP JUMPDEST PUSH0 DUP2 SSTORE DUP5 SWAP4 POP PUSH1 0x1 ADD PUSH2 0x3E7D JUMP JUMPDEST SWAP1 SWAP2 POP DUP2 SWAP1 PUSH2 0x3E6F JUMP JUMPDEST ADD MLOAD SWAP1 POP DUP15 DUP1 PUSH2 0x3417 JUMP JUMPDEST PUSH0 DUP6 DUP2 MSTORE DUP3 DUP2 KECCAK256 SWAP4 POP PUSH1 0x1F NOT DUP6 AND SWAP1 JUMPDEST DUP2 DUP2 LT PUSH2 0x3EF8 JUMPI POP SWAP1 DUP5 PUSH1 0x1 SWAP6 SWAP5 SWAP4 SWAP3 LT PUSH2 0x3EE0 JUMPI JUMPDEST POP POP POP DUP2 SHL ADD SWAP1 SSTORE PUSH2 0x342B JUMP JUMPDEST ADD MLOAD PUSH0 NOT PUSH1 0xF8 DUP5 PUSH1 0x3 SHL AND SHR NOT AND SWAP1 SSTORE DUP15 DUP1 DUP1 PUSH2 0x3ED3 JUMP JUMPDEST SWAP3 SWAP4 PUSH1 0x20 PUSH1 0x1 DUP2 SWAP3 DUP8 DUP7 ADD MLOAD DUP2 SSTORE ADD SWAP6 ADD SWAP4 ADD PUSH2 0x3EBD JUMP JUMPDEST SWAP1 SWAP2 POP DUP4 PUSH0 MSTORE PUSH1 0x20 PUSH0 KECCAK256 PUSH1 0x1F DUP5 ADD PUSH1 0x5 SHR DUP2 ADD SWAP2 PUSH1 0x20 DUP6 LT PUSH2 0x3F56 JUMPI JUMPDEST SWAP1 PUSH1 0x1F DUP6 SWAP5 SWAP4 SWAP3 ADD PUSH1 0x5 SHR ADD SWAP1 JUMPDEST DUP2 DUP2 LT PUSH2 0x3F48 JUMPI POP PUSH2 0x3401 JUMP JUMPDEST PUSH0 DUP2 SSTORE DUP5 SWAP4 POP PUSH1 0x1 ADD PUSH2 0x3F3B JUMP JUMPDEST SWAP1 SWAP2 POP DUP2 SWAP1 PUSH2 0x3F2D JUMP JUMPDEST ADD MLOAD SWAP1 POP DUP16 DUP1 PUSH2 0x33C3 JUMP JUMPDEST PUSH0 DUP6 DUP2 MSTORE DUP3 DUP2 KECCAK256 SWAP4 POP PUSH1 0x1F NOT DUP6 AND SWAP1 JUMPDEST DUP2 DUP2 LT PUSH2 0x3FB6 JUMPI POP SWAP1 DUP5 PUSH1 0x1 SWAP6 SWAP5 SWAP4 SWAP3 LT PUSH2 0x3F9E JUMPI JUMPDEST POP POP POP DUP2 SHL ADD SWAP1 SSTORE PUSH2 0x33D7 JUMP JUMPDEST ADD MLOAD PUSH0 NOT PUSH1 0xF8 DUP5 PUSH1 0x3 SHL AND SHR NOT AND SWAP1 SSTORE DUP16 DUP1 DUP1 PUSH2 0x3F91 JUMP JUMPDEST SWAP3 SWAP4 PUSH1 0x20 PUSH1 0x1 DUP2 SWAP3 DUP8 DUP7 ADD MLOAD DUP2 SSTORE ADD SWAP6 ADD SWAP4 ADD PUSH2 0x3F7B JUMP JUMPDEST SWAP1 SWAP2 POP DUP4 PUSH0 MSTORE PUSH1 0x20 PUSH0 KECCAK256 PUSH1 0x1F DUP5 ADD PUSH1 0x5 SHR DUP2 ADD SWAP2 PUSH1 0x20 DUP6 LT PUSH2 0x4014 JUMPI JUMPDEST SWAP1 PUSH1 0x1F DUP6 SWAP5 SWAP4 SWAP3 ADD PUSH1 0x5 SHR ADD SWAP1 JUMPDEST DUP2 DUP2 LT PUSH2 0x4006 JUMPI POP PUSH2 0x33AD JUMP JUMPDEST PUSH0 DUP2 SSTORE DUP5 SWAP4 POP PUSH1 0x1 ADD PUSH2 0x3FF9 JUMP JUMPDEST SWAP1 SWAP2 POP DUP2 SWAP1 PUSH2 0x3FEB JUMP JUMPDEST ADD MLOAD SWAP1 POP DUP16 DUP1 PUSH2 0x336F JUMP JUMPDEST PUSH0 SWAP1 DUP2 MSTORE DUP3 DUP2 KECCAK256 SWAP4 POP PUSH1 0x1F NOT DUP6 AND SWAP1 JUMPDEST DUP2 DUP2 LT PUSH2 0x4074 JUMPI POP SWAP1 DUP5 PUSH1 0x1 SWAP6 SWAP5 SWAP4 SWAP3 LT PUSH2 0x405C JUMPI JUMPDEST POP POP POP DUP2 SHL ADD DUP12 SSTORE PUSH2 0x3383 JUMP JUMPDEST ADD MLOAD PUSH0 NOT PUSH1 0xF8 DUP5 PUSH1 0x3 SHL AND SHR NOT AND SWAP1 SSTORE DUP16 DUP1 DUP1 PUSH2 0x404F JUMP JUMPDEST SWAP3 SWAP4 PUSH1 0x20 PUSH1 0x1 DUP2 SWAP3 DUP8 DUP7 ADD MLOAD DUP2 SSTORE ADD SWAP6 ADD SWAP4 ADD PUSH2 0x4039 JUMP JUMPDEST SWAP2 SWAP1 SWAP3 POP PUSH0 MSTORE PUSH1 0x20 PUSH0 KECCAK256 PUSH1 0x1F DUP5 ADD PUSH1 0x5 SHR DUP2 ADD SWAP2 PUSH1 0x20 DUP6 LT PUSH2 0x40DC JUMPI JUMPDEST SWAP2 DUP16 SWAP3 SWAP2 PUSH1 0x1F DUP7 SWAP6 SWAP4 ADD PUSH1 0x5 SHR ADD SWAP1 JUMPDEST DUP2 DUP2 LT PUSH2 0x40C6 JUMPI POP PUSH2 0x3358 JUMP JUMPDEST SWAP1 SWAP3 POP PUSH1 0x1 SWAP2 SWAP4 POP PUSH0 DUP2 SSTORE ADD SWAP2 DUP15 SWAP2 DUP5 SWAP4 PUSH2 0x40B9 JUMP JUMPDEST SWAP1 SWAP2 POP DUP2 SWAP1 PUSH2 0x40A9 JUMP JUMPDEST PUSH1 0x40 MLOAD PUSH3 0x461BCD PUSH1 0xE5 SHL DUP2 MSTORE PUSH1 0x20 PUSH1 0x4 DUP3 ADD MSTORE PUSH1 0x18 PUSH1 0x24 DUP3 ADD MSTORE PUSH32 0x4E6F74206120726567697374657265642070617469656E740000000000000000 PUSH1 0x44 DUP3 ADD MSTORE PUSH1 0x64 SWAP1 REVERT JUMPDEST CALLVALUE PUSH2 0x195 JUMPI PUSH1 0x20 CALLDATASIZE PUSH1 0x3 NOT ADD SLT PUSH2 0x195 JUMPI PUSH1 0x1 PUSH1 0x1 PUSH1 0xA0 SHL SUB PUSH2 0x414C PUSH2 0x4D5B JUMP JUMPDEST AND PUSH0 DUP2 DUP2 MSTORE PUSH1 0x7 PUSH1 0x20 SWAP1 DUP2 MSTORE PUSH1 0x40 DUP1 DUP4 KECCAK256 CALLER DUP5 MSTORE SWAP1 SWAP2 MSTORE SWAP1 KECCAK256 SLOAD PUSH2 0x4172 SWAP1 PUSH1 0xFF AND PUSH2 0x53E3 JUMP JUMPDEST PUSH0 MSTORE PUSH1 0x4 PUSH1 0x20 MSTORE PUSH2 0x42C3 PUSH1 0x40 PUSH0 KECCAK256 PUSH2 0x357 PUSH1 0x40 MLOAD SWAP2 PUSH2 0x4190 DUP4 PUSH2 0x4D71 JUMP JUMPDEST PUSH2 0x4199 DUP2 PUSH2 0x4F9D JUMP JUMPDEST DUP4 MSTORE PUSH2 0x41A7 PUSH1 0x1 DUP3 ADD PUSH2 0x4F9D JUMP JUMPDEST PUSH1 0x20 DUP5 ADD MSTORE PUSH2 0x41B8 PUSH1 0x2 DUP3 ADD PUSH2 0x4F9D JUMP JUMPDEST PUSH1 0x40 DUP5 ADD MSTORE PUSH2 0x41C9 PUSH1 0x3 DUP3 ADD PUSH2 0x4F9D JUMP JUMPDEST PUSH1 0x60 DUP5 ADD MSTORE PUSH2 0x41DA PUSH1 0x4 DUP3 ADD PUSH2 0x4F9D JUMP JUMPDEST PUSH1 0x80 DUP5 ADD MSTORE PUSH2 0x41EB PUSH1 0x5 DUP3 ADD PUSH2 0x4F9D JUMP JUMPDEST PUSH1 0xA0 DUP5 ADD MSTORE PUSH2 0x41FC PUSH1 0x6 DUP3 ADD PUSH2 0x4F9D JUMP JUMPDEST PUSH1 0xC0 DUP5 ADD MSTORE PUSH2 0x42FB PUSH2 0x4210 PUSH1 0x7 DUP4 ADD PUSH2 0x4F9D JUMP JUMPDEST PUSH1 0xE0 DUP6 ADD SWAP1 DUP2 MSTORE PUSH2 0x42ED PUSH2 0x4226 PUSH1 0x8 DUP6 ADD PUSH2 0x4F9D JUMP JUMPDEST SWAP6 PUSH2 0x100 DUP2 ADD SWAP7 DUP8 MSTORE PUSH2 0x42DF PUSH2 0x423E PUSH1 0x9 DUP8 ADD PUSH2 0x4F9D JUMP JUMPDEST SWAP4 PUSH2 0x120 DUP4 ADD SWAP5 DUP6 MSTORE PUSH2 0x42D1 PUSH2 0x4256 PUSH1 0xA DUP10 ADD PUSH2 0x4F9D JUMP JUMPDEST SWAP2 PUSH2 0x140 DUP6 ADD SWAP3 DUP4 MSTORE PUSH2 0x426B PUSH1 0xB DUP11 ADD PUSH2 0x4F9D JUMP JUMPDEST SWAP5 PUSH2 0x160 DUP2 ADD SWAP6 DUP7 MSTORE PUSH2 0x1C0 PUSH1 0xE PUSH2 0x4285 PUSH1 0xC DUP14 ADD PUSH2 0x4F9D JUMP JUMPDEST SWAP12 DUP13 PUSH2 0x180 DUP6 ADD MSTORE PUSH1 0x1 DUP1 PUSH1 0xA0 SHL SUB PUSH1 0xD DUP3 ADD SLOAD AND PUSH2 0x1A0 DUP6 ADD MSTORE ADD SLOAD SWAP2 ADD MSTORE MLOAD SWAP10 MLOAD SWAP6 MLOAD SWAP2 MLOAD SWAP4 MLOAD SWAP6 PUSH1 0x40 MLOAD SWAP12 DUP13 SWAP12 PUSH1 0xC0 DUP14 MSTORE PUSH1 0xC0 DUP14 ADD SWAP1 PUSH2 0x503D JUMP JUMPDEST SWAP1 DUP12 DUP3 SUB PUSH1 0x20 DUP14 ADD MSTORE PUSH2 0x503D JUMP JUMPDEST SWAP1 DUP10 DUP3 SUB PUSH1 0x40 DUP12 ADD MSTORE PUSH2 0x503D JUMP JUMPDEST SWAP1 DUP8 DUP3 SUB PUSH1 0x60 DUP10 ADD MSTORE PUSH2 0x503D JUMP JUMPDEST SWAP1 DUP6 DUP3 SUB PUSH1 0x80 DUP8 ADD MSTORE PUSH2 0x503D JUMP JUMPDEST SWAP1 DUP4 DUP3 SUB PUSH1 0xA0 DUP6 ADD MSTORE PUSH2 0x503D JUMP JUMPDEST CALLVALUE PUSH2 0x195 JUMPI PUSH0 CALLDATASIZE PUSH1 0x3 NOT ADD SLT PUSH2 0x195 JUMPI PUSH1 0x40 MLOAD DUP1 PUSH1 0x20 PUSH1 0x1 SLOAD SWAP2 DUP3 DUP2 MSTORE ADD SWAP1 PUSH1 0x1 PUSH0 MSTORE PUSH32 0xB10E2D527612073B26EECDFD717E6A320CF44B4AFAC2B0732D9FCBE2B7FA0CF6 SWAP1 PUSH0 JUMPDEST DUP2 DUP2 LT PUSH2 0x4367 JUMPI PUSH2 0x357 DUP6 PUSH2 0xC85 DUP2 DUP8 SUB DUP3 PUSH2 0x4DA9 JUMP JUMPDEST DUP3 SLOAD PUSH1 0x1 PUSH1 0x1 PUSH1 0xA0 SHL SUB AND DUP5 MSTORE PUSH1 0x20 SWAP1 SWAP4 ADD SWAP3 PUSH1 0x1 SWAP3 DUP4 ADD SWAP3 ADD PUSH2 0x4350 JUMP JUMPDEST CALLVALUE PUSH2 0x195 JUMPI PUSH1 0x20 CALLDATASIZE PUSH1 0x3 NOT ADD SLT PUSH2 0x195 JUMPI PUSH1 0x4 CALLDATALOAD PUSH1 0x2 SLOAD DUP2 LT ISZERO PUSH2 0x195 JUMPI PUSH1 0x2 SLOAD DUP2 LT ISZERO PUSH2 0x235 JUMPI PUSH1 0x2 PUSH0 MSTORE PUSH32 0x405787FA12A823E0F2B7631CC41B3BA8828B3321CA811111FA75CD3AA3BB5ACE ADD SLOAD PUSH1 0x40 MLOAD PUSH1 0x1 PUSH1 0x1 PUSH1 0xA0 SHL SUB SWAP1 SWAP2 AND DUP2 MSTORE PUSH1 0x20 SWAP1 RETURN JUMPDEST CALLVALUE PUSH2 0x195 JUMPI PUSH1 0x20 CALLDATASIZE PUSH1 0x3 NOT ADD SLT PUSH2 0x195 JUMPI PUSH1 0x1 PUSH1 0x1 PUSH1 0xA0 SHL SUB PUSH2 0x440B PUSH2 0x4D5B JUMP JUMPDEST AND PUSH0 MSTORE PUSH1 0x4 PUSH1 0x20 MSTORE PUSH1 0x40 PUSH0 KECCAK256 PUSH2 0x4420 DUP2 PUSH2 0x4F9D JUMP JUMPDEST SWAP1 PUSH2 0x442D PUSH1 0x1 DUP3 ADD PUSH2 0x4F9D JUMP JUMPDEST SWAP1 PUSH2 0x443A PUSH1 0x2 DUP3 ADD PUSH2 0x4F9D JUMP JUMPDEST PUSH2 0x4446 PUSH1 0x3 DUP4 ADD PUSH2 0x4F9D JUMP JUMPDEST PUSH2 0x4452 PUSH1 0x4 DUP5 ADD PUSH2 0x4F9D JUMP JUMPDEST PUSH2 0x445E PUSH1 0x5 DUP6 ADD PUSH2 0x4F9D JUMP JUMPDEST PUSH2 0x446A PUSH1 0x6 DUP7 ADD PUSH2 0x4F9D JUMP JUMPDEST PUSH2 0x4476 PUSH1 0x7 DUP8 ADD PUSH2 0x4F9D JUMP JUMPDEST PUSH2 0x4482 PUSH1 0x8 DUP9 ADD PUSH2 0x4F9D JUMP JUMPDEST SWAP1 PUSH2 0x448F PUSH1 0x9 DUP10 ADD PUSH2 0x4F9D JUMP JUMPDEST SWAP3 PUSH2 0x449C PUSH1 0xA DUP11 ADD PUSH2 0x4F9D JUMP JUMPDEST SWAP5 PUSH2 0x44A9 PUSH1 0xB DUP12 ADD PUSH2 0x4F9D JUMP JUMPDEST SWAP7 PUSH2 0x44B6 PUSH1 0xC DUP13 ADD PUSH2 0x4F9D JUMP JUMPDEST SWAP9 PUSH1 0x1 PUSH1 0xA0 SHL PUSH1 0x1 SWAP1 SUB PUSH1 0xD DUP14 ADD SLOAD AND SWAP12 PUSH1 0xE ADD SLOAD SWAP11 PUSH1 0x40 MLOAD SWAP15 DUP16 SWAP15 DUP16 SWAP2 PUSH2 0x1E0 DUP4 MSTORE PUSH2 0x1E0 DUP4 ADD PUSH2 0x44E7 SWAP2 PUSH2 0x503D JUMP JUMPDEST DUP3 DUP2 SUB PUSH1 0x20 DUP5 ADD MSTORE PUSH2 0x44F8 SWAP2 PUSH2 0x503D JUMP JUMPDEST SWAP1 DUP1 DUP3 SUB SWAP1 PUSH1 0x40 ADD MSTORE PUSH2 0x450A SWAP2 PUSH2 0x503D JUMP JUMPDEST DUP14 DUP2 SUB PUSH1 0x60 DUP16 ADD MSTORE PUSH2 0x451B SWAP2 PUSH2 0x503D JUMP JUMPDEST DUP13 DUP2 SUB PUSH1 0x80 DUP15 ADD MSTORE PUSH2 0x452C SWAP2 PUSH2 0x503D JUMP JUMPDEST DUP12 DUP2 SUB PUSH1 0xA0 DUP14 ADD MSTORE PUSH2 0x453D SWAP2 PUSH2 0x503D JUMP JUMPDEST DUP11 DUP2 SUB PUSH1 0xC0 DUP13 ADD MSTORE PUSH2 0x454E SWAP2 PUSH2 0x503D JUMP JUMPDEST DUP10 DUP2 SUB PUSH1 0xE0 DUP12 ADD MSTORE PUSH2 0x455F SWAP2 PUSH2 0x503D JUMP JUMPDEST DUP9 DUP2 SUB PUSH2 0x100 DUP11 ADD MSTORE PUSH2 0x4571 SWAP2 PUSH2 0x503D JUMP JUMPDEST DUP8 DUP2 SUB PUSH2 0x120 DUP10 ADD MSTORE PUSH2 0x4583 SWAP2 PUSH2 0x503D JUMP JUMPDEST DUP7 DUP2 SUB PUSH2 0x140 DUP9 ADD MSTORE PUSH2 0x4595 SWAP2 PUSH2 0x503D JUMP JUMPDEST DUP6 DUP2 SUB PUSH2 0x160 DUP8 ADD MSTORE PUSH2 0x45A7 SWAP2 PUSH2 0x503D JUMP JUMPDEST DUP5 DUP2 SUB PUSH2 0x180 DUP7 ADD MSTORE PUSH2 0x45B9 SWAP2 PUSH2 0x503D JUMP JUMPDEST SWAP2 PUSH2 0x1A0 DUP5 ADD MSTORE PUSH2 0x1C0 DUP4 ADD MSTORE SUB SWAP1 RETURN JUMPDEST CALLVALUE PUSH2 0x195 JUMPI PUSH2 0x45D8 CALLDATASIZE PUSH2 0x4E1F JUMP JUMPDEST SWAP1 CALLER PUSH0 MSTORE PUSH1 0x9 PUSH1 0x20 MSTORE PUSH1 0xFF PUSH1 0x40 PUSH0 KECCAK256 SLOAD AND ISZERO PUSH2 0x4D0A JUMPI PUSH1 0x1 PUSH1 0x1 PUSH1 0xA0 SHL SUB AND PUSH0 DUP2 DUP2 MSTORE PUSH1 0x6 PUSH1 0x20 MSTORE PUSH1 0x40 SWAP1 KECCAK256 DUP1 SLOAD PUSH1 0x1 PUSH1 0x1 PUSH1 0xA0 SHL SUB NOT SWAP1 DUP2 AND CALLER OR DUP3 SSTORE PUSH1 0x1 DUP3 ADD DUP1 SLOAD SWAP1 SWAP2 AND DUP4 OR SWAP1 SSTORE DUP3 MLOAD DUP1 MLOAD SWAP2 SWAP4 SWAP2 PUSH1 0x2 DUP6 ADD SWAP2 PUSH1 0x1 PUSH1 0x1 PUSH1 0x40 SHL SUB DUP3 GT PUSH2 0x668 JUMPI DUP2 SWAP1 PUSH2 0x4649 DUP5 SLOAD PUSH2 0x4F65 JUMP JUMPDEST PUSH1 0x1F DUP2 GT PUSH2 0x4CBA JUMPI JUMPDEST POP PUSH1 0x20 SWAP1 PUSH1 0x1F DUP4 GT PUSH1 0x1 EQ PUSH2 0x4C57 JUMPI PUSH0 SWAP3 PUSH2 0x4C4C JUMPI JUMPDEST POP POP DUP2 PUSH1 0x1 SHL SWAP2 PUSH0 NOT SWAP1 PUSH1 0x3 SHL SHR NOT AND OR SWAP1 SSTORE JUMPDEST PUSH1 0x20 DUP2 ADD MLOAD DUP1 MLOAD PUSH1 0x3 DUP6 ADD SWAP2 PUSH1 0x1 PUSH1 0x1 PUSH1 0x40 SHL SUB DUP3 GT PUSH2 0x668 JUMPI DUP2 SWAP1 PUSH2 0x46A2 DUP5 SLOAD PUSH2 0x4F65 JUMP JUMPDEST PUSH1 0x1F DUP2 GT PUSH2 0x4BFC JUMPI JUMPDEST POP PUSH1 0x20 SWAP1 PUSH1 0x1F DUP4 GT PUSH1 0x1 EQ PUSH2 0x4B99 JUMPI PUSH0 SWAP3 PUSH2 0x4B8E JUMPI JUMPDEST POP POP DUP2 PUSH1 0x1 SHL SWAP2 PUSH0 NOT SWAP1 PUSH1 0x3 SHL SHR NOT AND OR SWAP1 SSTORE JUMPDEST PUSH1 0x80 DUP2 ADD MLOAD DUP1 MLOAD PUSH1 0x6 DUP6 ADD SWAP2 PUSH1 0x1 PUSH1 0x1 PUSH1 0x40 SHL SUB DUP3 GT PUSH2 0x668 JUMPI DUP2 SWAP1 PUSH2 0x46FB DUP5 SLOAD PUSH2 0x4F65 JUMP JUMPDEST PUSH1 0x1F DUP2 GT PUSH2 0x4B3E JUMPI JUMPDEST POP PUSH1 0x20 SWAP1 PUSH1 0x1F DUP4 GT PUSH1 0x1 EQ PUSH2 0x4ADB JUMPI PUSH0 SWAP3 PUSH2 0x4AD0 JUMPI JUMPDEST POP POP DUP2 PUSH1 0x1 SHL SWAP2 PUSH0 NOT SWAP1 PUSH1 0x3 SHL SHR NOT AND OR SWAP1 SSTORE JUMPDEST PUSH1 0x40 DUP2 ADD MLOAD DUP1 MLOAD PUSH1 0x4 DUP6 ADD SWAP2 PUSH1 0x1 PUSH1 0x1 PUSH1 0x40 SHL SUB DUP3 GT PUSH2 0x668 JUMPI DUP2 SWAP1 PUSH2 0x4754 DUP5 SLOAD PUSH2 0x4F65 JUMP JUMPDEST PUSH1 0x1F DUP2 GT PUSH2 0x4A80 JUMPI JUMPDEST POP PUSH1 0x20 SWAP1 PUSH1 0x1F DUP4 GT PUSH1 0x1 EQ PUSH2 0x4A1D JUMPI PUSH0 SWAP3 PUSH2 0x4A12 JUMPI JUMPDEST POP POP DUP2 PUSH1 0x1 SHL SWAP2 PUSH0 NOT SWAP1 PUSH1 0x3 SHL SHR NOT AND OR SWAP1 SSTORE JUMPDEST PUSH1 0x60 DUP2 ADD MLOAD DUP1 MLOAD PUSH1 0x5 DUP6 ADD SWAP2 PUSH1 0x1 PUSH1 0x1 PUSH1 0x40 SHL SUB DUP3 GT PUSH2 0x668 JUMPI PUSH2 0x47AB DUP4 SLOAD PUSH2 0x4F65 JUMP JUMPDEST PUSH1 0x1F DUP2 GT PUSH2 0x49CD JUMPI JUMPDEST POP PUSH1 0x20 SWAP1 PUSH1 0x1F DUP4 GT PUSH1 0x1 EQ PUSH2 0x4966 JUMPI PUSH1 0xA0 SWAP5 SWAP4 SWAP3 SWAP2 PUSH0 SWAP2 DUP4 PUSH2 0x495B JUMPI JUMPDEST POP POP DUP2 PUSH1 0x1 SHL SWAP2 PUSH0 NOT SWAP1 PUSH1 0x3 SHL SHR NOT AND OR SWAP1 SSTORE JUMPDEST ADD MLOAD SWAP2 PUSH1 0x7 DUP2 ADD DUP4 MLOAD PUSH1 0x1 PUSH1 0x1 PUSH1 0x40 SHL SUB DUP2 GT PUSH2 0x668 JUMPI PUSH2 0x4806 DUP3 SLOAD PUSH2 0x4F65 JUMP JUMPDEST PUSH1 0x1F DUP2 GT PUSH2 0x4916 JUMPI JUMPDEST POP PUSH1 0x20 SWAP5 PUSH1 0x1F DUP3 GT PUSH1 0x1 EQ PUSH2 0x48B5 JUMPI SWAP5 DUP2 SWAP3 SWAP4 SWAP5 SWAP6 PUSH0 SWAP3 PUSH2 0x48AA JUMPI JUMPDEST POP POP DUP2 PUSH1 0x1 SHL SWAP2 PUSH0 NOT SWAP1 PUSH1 0x3 SHL SHR NOT AND OR SWAP1 SSTORE JUMPDEST PUSH1 0x8 TIMESTAMP SWAP2 ADD SSTORE PUSH1 0x3 SLOAD PUSH1 0x1 PUSH1 0x40 SHL DUP2 LT ISZERO PUSH2 0x668 JUMPI DUP1 PUSH1 0x1 PUSH2 0x4866 SWAP3 ADD PUSH1 0x3 SSTORE PUSH1 0x3 PUSH2 0x5061 JUMP JUMPDEST DUP2 SLOAD PUSH1 0x1 PUSH1 0x1 PUSH1 0xA0 SHL SUB PUSH1 0x3 SWAP3 SWAP1 SWAP3 SHL SWAP2 DUP3 SHL NOT AND SWAP1 DUP4 SWAP1 SHL OR SWAP1 SSTORE PUSH1 0xD SLOAD PUSH2 0x488E SWAP1 PUSH2 0x53C1 JUMP JUMPDEST PUSH1 0xD SSTORE PUSH0 MSTORE PUSH1 0xA PUSH1 0x20 MSTORE PUSH1 0x40 PUSH0 KECCAK256 PUSH2 0x48A6 DUP2 SLOAD PUSH2 0x53C1 JUMP JUMPDEST SWAP1 SSTORE STOP JUMPDEST ADD MLOAD SWAP1 POP DUP6 DUP1 PUSH2 0x482B JUMP JUMPDEST PUSH1 0x1F NOT DUP3 AND SWAP6 DUP4 PUSH0 MSTORE DUP1 PUSH0 KECCAK256 SWAP2 PUSH0 JUMPDEST DUP9 DUP2 LT PUSH2 0x48FE JUMPI POP DUP4 PUSH1 0x1 SWAP6 SWAP7 SWAP8 SWAP9 LT PUSH2 0x48E6 JUMPI JUMPDEST POP POP POP DUP2 SHL ADD SWAP1 SSTORE PUSH2 0x483F JUMP JUMPDEST ADD MLOAD PUSH0 NOT PUSH1 0xF8 DUP5 PUSH1 0x3 SHL AND SHR NOT AND SWAP1 SSTORE DUP6 DUP1 DUP1 PUSH2 0x48D9 JUMP JUMPDEST SWAP2 SWAP3 PUSH1 0x20 PUSH1 0x1 DUP2 SWAP3 DUP7 DUP6 ADD MLOAD DUP2 SSTORE ADD SWAP5 ADD SWAP3 ADD PUSH2 0x48C4 JUMP JUMPDEST DUP3 PUSH0 MSTORE PUSH1 0x20 PUSH0 KECCAK256 PUSH1 0x1F DUP4 ADD PUSH1 0x5 SHR DUP2 ADD SWAP2 PUSH1 0x20 DUP5 LT PUSH2 0x4951 JUMPI JUMPDEST PUSH1 0x1F ADD PUSH1 0x5 SHR ADD SWAP1 JUMPDEST DUP2 DUP2 LT PUSH2 0x4946 JUMPI POP PUSH2 0x480F JUMP JUMPDEST PUSH0 DUP2 SSTORE PUSH1 0x1 ADD PUSH2 0x4939 JUMP JUMPDEST SWAP1 SWAP2 POP DUP2 SWAP1 PUSH2 0x4930 JUMP JUMPDEST ADD MLOAD SWAP1 POP DUP8 DUP1 PUSH2 0x47D1 JUMP JUMPDEST SWAP1 PUSH1 0x1F NOT DUP4 AND SWAP2 DUP5 PUSH0 MSTORE DUP2 PUSH0 KECCAK256 SWAP3 PUSH0 JUMPDEST DUP2 DUP2 LT PUSH2 0x49B5 JUMPI POP SWAP2 PUSH1 0x1 SWAP4 SWAP2 DUP6 PUSH1 0xA0 SWAP9 SWAP8 SWAP7 SWAP5 LT PUSH2 0x499D JUMPI JUMPDEST POP POP POP DUP2 SHL ADD SWAP1 SSTORE PUSH2 0x47E5 JUMP JUMPDEST ADD MLOAD PUSH0 NOT PUSH1 0xF8 DUP5 PUSH1 0x3 SHL AND SHR NOT AND SWAP1 SSTORE DUP8 DUP1 DUP1 PUSH2 0x4990 JUMP JUMPDEST SWAP3 SWAP4 PUSH1 0x20 PUSH1 0x1 DUP2 SWAP3 DUP8 DUP7 ADD MLOAD DUP2 SSTORE ADD SWAP6 ADD SWAP4 ADD PUSH2 0x4976 JUMP JUMPDEST DUP4 PUSH0 MSTORE PUSH1 0x20 PUSH0 KECCAK256 PUSH1 0x1F DUP5 ADD PUSH1 0x5 SHR DUP2 ADD SWAP2 PUSH1 0x20 DUP6 LT PUSH2 0x4A08 JUMPI JUMPDEST PUSH1 0x1F ADD PUSH1 0x5 SHR ADD SWAP1 JUMPDEST DUP2 DUP2 LT PUSH2 0x49FD JUMPI POP PUSH2 0x47B4 JUMP JUMPDEST PUSH0 DUP2 SSTORE PUSH1 0x1 ADD PUSH2 0x49F0 JUMP JUMPDEST SWAP1 SWAP2 POP DUP2 SWAP1 PUSH2 0x49E7 JUMP JUMPDEST ADD MLOAD SWAP1 POP DUP7 DUP1 PUSH2 0x4773 JUMP JUMPDEST PUSH0 DUP6 DUP2 MSTORE DUP3 DUP2 KECCAK256 SWAP4 POP PUSH1 0x1F NOT DUP6 AND SWAP1 JUMPDEST DUP2 DUP2 LT PUSH2 0x4A68 JUMPI POP SWAP1 DUP5 PUSH1 0x1 SWAP6 SWAP5 SWAP4 SWAP3 LT PUSH2 0x4A50 JUMPI JUMPDEST POP POP POP DUP2 SHL ADD SWAP1 SSTORE PUSH2 0x4787 JUMP JUMPDEST ADD MLOAD PUSH0 NOT PUSH1 0xF8 DUP5 PUSH1 0x3 SHL AND SHR NOT AND SWAP1 SSTORE DUP7 DUP1 DUP1 PUSH2 0x4A43 JUMP JUMPDEST SWAP3 SWAP4 PUSH1 0x20 PUSH1 0x1 DUP2 SWAP3 DUP8 DUP7 ADD MLOAD DUP2 SSTORE ADD SWAP6 ADD SWAP4 ADD PUSH2 0x4A2D JUMP JUMPDEST SWAP1 SWAP2 POP DUP4 PUSH0 MSTORE PUSH1 0x20 PUSH0 KECCAK256 PUSH1 0x1F DUP5 ADD PUSH1 0x5 SHR DUP2 ADD SWAP2 PUSH1 0x20 DUP6 LT PUSH2 0x4AC6 JUMPI JUMPDEST SWAP1 PUSH1 0x1F DUP6 SWAP5 SWAP4 SWAP3 ADD PUSH1 0x5 SHR ADD SWAP1 JUMPDEST DUP2 DUP2 LT PUSH2 0x4AB8 JUMPI POP PUSH2 0x475D JUMP JUMPDEST PUSH0 DUP2 SSTORE DUP5 SWAP4 POP PUSH1 0x1 ADD PUSH2 0x4AAB JUMP JUMPDEST SWAP1 SWAP2 POP DUP2 SWAP1 PUSH2 0x4A9D JUMP JUMPDEST ADD MLOAD SWAP1 POP DUP7 DUP1 PUSH2 0x471A JUMP JUMPDEST PUSH0 DUP6 DUP2 MSTORE DUP3 DUP2 KECCAK256 SWAP4 POP PUSH1 0x1F NOT DUP6 AND SWAP1 JUMPDEST DUP2 DUP2 LT PUSH2 0x4B26 JUMPI POP SWAP1 DUP5 PUSH1 0x1 SWAP6 SWAP5 SWAP4 SWAP3 LT PUSH2 0x4B0E JUMPI JUMPDEST POP POP POP DUP2 SHL ADD SWAP1 SSTORE PUSH2 0x472E JUMP JUMPDEST ADD MLOAD PUSH0 NOT PUSH1 0xF8 DUP5 PUSH1 0x3 SHL AND SHR NOT AND SWAP1 SSTORE DUP7 DUP1 DUP1 PUSH2 0x4B01 JUMP JUMPDEST SWAP3 SWAP4 PUSH1 0x20 PUSH1 0x1 DUP2 SWAP3 DUP8 DUP7 ADD MLOAD DUP2 SSTORE ADD SWAP6 ADD SWAP4 ADD PUSH2 0x4AEB JUMP JUMPDEST SWAP1 SWAP2 POP DUP4 PUSH0 MSTORE PUSH1 0x20 PUSH0 KECCAK256 PUSH1 0x1F DUP5 ADD PUSH1 0x5 SHR DUP2 ADD SWAP2 PUSH1 0x20 DUP6 LT PUSH2 0x4B84 JUMPI JUMPDEST SWAP1 PUSH1 0x1F DUP6 SWAP5 SWAP4 SWAP3 ADD PUSH1 0x5 SHR ADD SWAP1 JUMPDEST DUP2 DUP2 LT PUSH2 0x4B76 JUMPI POP PUSH2 0x4704 JUMP JUMPDEST PUSH0 DUP2 SSTORE DUP5 SWAP4 POP PUSH1 0x1 ADD PUSH2 0x4B69 JUMP JUMPDEST SWAP1 SWAP2 POP DUP2 SWAP1 PUSH2 0x4B5B JUMP JUMPDEST ADD MLOAD SWAP1 POP DUP7 DUP1 PUSH2 0x46C1 JUMP JUMPDEST PUSH0 DUP6 DUP2 MSTORE DUP3 DUP2 KECCAK256 SWAP4 POP PUSH1 0x1F NOT DUP6 AND SWAP1 JUMPDEST DUP2 DUP2 LT PUSH2 0x4BE4 JUMPI POP SWAP1 DUP5 PUSH1 0x1 SWAP6 SWAP5 SWAP4 SWAP3 LT PUSH2 0x4BCC JUMPI JUMPDEST POP POP POP DUP2 SHL ADD SWAP1 SSTORE PUSH2 0x46D5 JUMP JUMPDEST ADD MLOAD PUSH0 NOT PUSH1 0xF8 DUP5 PUSH1 0x3 SHL AND SHR NOT AND SWAP1 SSTORE DUP7 DUP1 DUP1 PUSH2 0x4BBF JUMP JUMPDEST SWAP3 SWAP4 PUSH1 0x20 PUSH1 0x1 DUP2 SWAP3 DUP8 DUP7 ADD MLOAD DUP2 SSTORE ADD SWAP6 ADD SWAP4 ADD PUSH2 0x4BA9 JUMP JUMPDEST SWAP1 SWAP2 POP DUP4 PUSH0 MSTORE PUSH1 0x20 PUSH0 KECCAK256 PUSH1 0x1F DUP5 ADD PUSH1 0x5 SHR DUP2 ADD SWAP2 PUSH1 0x20 DUP6 LT PUSH2 0x4C42 JUMPI JUMPDEST SWAP1 PUSH1 0x1F DUP6 SWAP5 SWAP4 SWAP3 ADD PUSH1 0x5 SHR ADD SWAP1 JUMPDEST DUP2 DUP2 LT PUSH2 0x4C34 JUMPI POP PUSH2 0x46AB JUMP JUMPDEST PUSH0 DUP2 SSTORE DUP5 SWAP4 POP PUSH1 0x1 ADD PUSH2 0x4C27 JUMP JUMPDEST SWAP1 SWAP2 POP DUP2 SWAP1 PUSH2 0x4C19 JUMP JUMPDEST ADD MLOAD SWAP1 POP DUP7 DUP1 PUSH2 0x4668 JUMP JUMPDEST PUSH0 DUP6 DUP2 MSTORE DUP3 DUP2 KECCAK256 SWAP4 POP PUSH1 0x1F NOT DUP6 AND SWAP1 JUMPDEST DUP2 DUP2 LT PUSH2 0x4CA2 JUMPI POP SWAP1 DUP5 PUSH1 0x1 SWAP6 SWAP5 SWAP4 SWAP3 LT PUSH2 0x4C8A JUMPI JUMPDEST POP POP POP DUP2 SHL ADD SWAP1 SSTORE PUSH2 0x467C JUMP JUMPDEST ADD MLOAD PUSH0 NOT PUSH1 0xF8 DUP5 PUSH1 0x3 SHL AND SHR NOT AND SWAP1 SSTORE DUP7 DUP1 DUP1 PUSH2 0x4C7D JUMP JUMPDEST SWAP3 SWAP4 PUSH1 0x20 PUSH1 0x1 DUP2 SWAP3 DUP8 DUP7 ADD MLOAD DUP2 SSTORE ADD SWAP6 ADD SWAP4 ADD PUSH2 0x4C67 JUMP JUMPDEST SWAP1 SWAP2 POP DUP4 PUSH0 MSTORE PUSH1 0x20 PUSH0 KECCAK256 PUSH1 0x1F DUP5 ADD PUSH1 0x5 SHR DUP2 ADD SWAP2 PUSH1 0x20 DUP6 LT PUSH2 0x4D00 JUMPI JUMPDEST SWAP1 PUSH1 0x1F DUP6 SWAP5 SWAP4 SWAP3 ADD PUSH1 0x5 SHR ADD SWAP1 JUMPDEST DUP2 DUP2 LT PUSH2 0x4CF2 JUMPI POP PUSH2 0x4652 JUMP JUMPDEST PUSH0 DUP2 SSTORE DUP5 SWAP4 POP PUSH1 0x1 ADD PUSH2 0x4CE5 JUMP JUMPDEST SWAP1 SWAP2 POP DUP2 SWAP1 PUSH2 0x4CD7 JUMP JUMPDEST PUSH1 0x40 MLOAD PUSH3 0x461BCD PUSH1 0xE5 SHL DUP2 MSTORE PUSH1 0x20 PUSH1 0x4 DUP3 ADD MSTORE PUSH1 0x24 DUP1 DUP3 ADD MSTORE PUSH32 0x4F6E6C7920646F63746F72732063616E20637265617465206170706F696E746D PUSH1 0x44 DUP3 ADD MSTORE PUSH4 0x656E7473 PUSH1 0xE0 SHL PUSH1 0x64 DUP3 ADD MSTORE PUSH1 0x84 SWAP1 REVERT JUMPDEST PUSH1 0x4 CALLDATALOAD SWAP1 PUSH1 0x1 PUSH1 0x1 PUSH1 0xA0 SHL SUB DUP3 AND DUP3 SUB PUSH2 0x195 JUMPI JUMP JUMPDEST PUSH2 0x1E0 DUP2 ADD SWAP1 DUP2 LT PUSH1 0x1 PUSH1 0x1 PUSH1 0x40 SHL SUB DUP3 GT OR PUSH2 0x668 JUMPI PUSH1 0x40 MSTORE JUMP JUMPDEST PUSH2 0x120 DUP2 ADD SWAP1 DUP2 LT PUSH1 0x1 PUSH1 0x1 PUSH1 0x40 SHL SUB DUP3 GT OR PUSH2 0x668 JUMPI PUSH1 0x40 MSTORE JUMP JUMPDEST SWAP1 PUSH1 0x1F DUP1 NOT SWAP2 ADD AND DUP2 ADD SWAP1 DUP2 LT PUSH1 0x1 PUSH1 0x1 PUSH1 0x40 SHL SUB DUP3 GT OR PUSH2 0x668 JUMPI PUSH1 0x40 MSTORE JUMP JUMPDEST DUP2 PUSH1 0x1F DUP3 ADD SLT ISZERO PUSH2 0x195 JUMPI DUP1 CALLDATALOAD SWAP1 PUSH1 0x1 PUSH1 0x1 PUSH1 0x40 SHL SUB DUP3 GT PUSH2 0x668 JUMPI PUSH1 0x40 MLOAD SWAP3 PUSH2 0x4DFE PUSH1 0x1F DUP5 ADD PUSH1 0x1F NOT AND PUSH1 0x20 ADD DUP6 PUSH2 0x4DA9 JUMP JUMPDEST DUP3 DUP5 MSTORE PUSH1 0x20 DUP4 DUP4 ADD ADD GT PUSH2 0x195 JUMPI DUP2 PUSH0 SWAP3 PUSH1 0x20 DUP1 SWAP4 ADD DUP4 DUP7 ADD CALLDATACOPY DUP4 ADD ADD MSTORE SWAP1 JUMP JUMPDEST SWAP1 PUSH1 0x40 PUSH1 0x3 NOT DUP4 ADD SLT PUSH2 0x195 JUMPI PUSH1 0x4 CALLDATALOAD PUSH1 0x1 PUSH1 0x1 PUSH1 0xA0 SHL SUB DUP2 AND DUP2 SUB PUSH2 0x195 JUMPI SWAP2 PUSH1 0x24 CALLDATALOAD PUSH1 0x1 PUSH1 0x1 PUSH1 0x40 SHL SUB DUP2 GT PUSH2 0x195 JUMPI PUSH1 0xC0 DUP2 DUP4 SUB PUSH1 0x3 NOT ADD SLT PUSH2 0x195 JUMPI PUSH1 0x40 MLOAD SWAP2 PUSH1 0xC0 DUP4 ADD DUP4 DUP2 LT PUSH1 0x1 PUSH1 0x1 PUSH1 0x40 SHL SUB DUP3 GT OR PUSH2 0x668 JUMPI PUSH1 0x40 MSTORE DUP2 PUSH1 0x4 ADD CALLDATALOAD PUSH1 0x1 PUSH1 0x1 PUSH1 0x40 SHL SUB DUP2 GT PUSH2 0x195 JUMPI DUP2 PUSH1 0x4 PUSH2 0x4E9E SWAP3 DUP6 ADD ADD PUSH2 0x4DCA JUMP JUMPDEST DUP4 MSTORE PUSH1 0x24 DUP3 ADD CALLDATALOAD PUSH1 0x1 PUSH1 0x1 PUSH1 0x40 SHL SUB DUP2 GT PUSH2 0x195 JUMPI DUP2 PUSH1 0x4 PUSH2 0x4EC2 SWAP3 DUP6 ADD ADD PUSH2 0x4DCA JUMP JUMPDEST PUSH1 0x20 DUP5 ADD MSTORE PUSH1 0x44 DUP3 ADD CALLDATALOAD PUSH1 0x1 PUSH1 0x1 PUSH1 0x40 SHL SUB DUP2 GT PUSH2 0x195 JUMPI DUP2 PUSH1 0x4 PUSH2 0x4EE9 SWAP3 DUP6 ADD ADD PUSH2 0x4DCA JUMP JUMPDEST PUSH1 0x40 DUP5 ADD MSTORE PUSH1 0x64 DUP3 ADD CALLDATALOAD PUSH1 0x1 PUSH1 0x1 PUSH1 0x40 SHL SUB DUP2 GT PUSH2 0x195 JUMPI DUP2 PUSH1 0x4 PUSH2 0x4F10 SWAP3 DUP6 ADD ADD PUSH2 0x4DCA JUMP JUMPDEST PUSH1 0x60 DUP5 ADD MSTORE PUSH1 0x84 DUP3 ADD CALLDATALOAD PUSH1 0x1 PUSH1 0x1 PUSH1 0x40 SHL SUB DUP2 GT PUSH2 0x195 JUMPI DUP2 PUSH1 0x4 PUSH2 0x4F37 SWAP3 DUP6 ADD ADD PUSH2 0x4DCA JUMP JUMPDEST PUSH1 0x80 DUP5 ADD MSTORE PUSH1 0xA4 DUP3 ADD CALLDATALOAD SWAP2 PUSH1 0x1 PUSH1 0x1 PUSH1 0x40 SHL SUB DUP4 GT PUSH2 0x195 JUMPI PUSH2 0x4F5D SWAP3 ADD PUSH1 0x4 ADD PUSH2 0x4DCA JUMP JUMPDEST PUSH1 0xA0 DUP3 ADD MSTORE SWAP1 JUMP JUMPDEST SWAP1 PUSH1 0x1 DUP3 DUP2 SHR SWAP3 AND DUP1 ISZERO PUSH2 0x4F93 JUMPI JUMPDEST PUSH1 0x20 DUP4 LT EQ PUSH2 0x4F7F JUMPI JUMP JUMPDEST PUSH4 0x4E487B71 PUSH1 0xE0 SHL PUSH0 MSTORE PUSH1 0x22 PUSH1 0x4 MSTORE PUSH1 0x24 PUSH0 REVERT JUMPDEST SWAP2 PUSH1 0x7F AND SWAP2 PUSH2 0x4F74 JUMP JUMPDEST SWAP1 PUSH1 0x40 MLOAD SWAP2 DUP3 PUSH0 DUP3 SLOAD SWAP3 PUSH2 0x4FB0 DUP5 PUSH2 0x4F65 JUMP JUMPDEST DUP1 DUP5 MSTORE SWAP4 PUSH1 0x1 DUP2 AND SWAP1 DUP2 ISZERO PUSH2 0x501B JUMPI POP PUSH1 0x1 EQ PUSH2 0x4FD7 JUMPI JUMPDEST POP PUSH2 0x4FD5 SWAP3 POP SUB DUP4 PUSH2 0x4DA9 JUMP JUMPDEST JUMP JUMPDEST SWAP1 POP PUSH0 SWAP3 SWAP2 SWAP3 MSTORE PUSH1 0x20 PUSH0 KECCAK256 SWAP1 PUSH0 SWAP2 JUMPDEST DUP2 DUP4 LT PUSH2 0x4FFF JUMPI POP POP SWAP1 PUSH1 0x20 PUSH2 0x4FD5 SWAP3 DUP3 ADD ADD PUSH0 PUSH2 0x4FC8 JUMP JUMPDEST PUSH1 0x20 SWAP2 SWAP4 POP DUP1 PUSH1 0x1 SWAP2 SLOAD DUP4 DUP6 DUP10 ADD ADD MSTORE ADD SWAP2 ADD SWAP1 SWAP2 DUP5 SWAP3 PUSH2 0x4FE6 JUMP JUMPDEST SWAP1 POP PUSH1 0x20 SWAP3 POP PUSH2 0x4FD5 SWAP5 SWAP2 POP PUSH1 0xFF NOT AND DUP3 DUP5 ADD MSTORE ISZERO ISZERO PUSH1 0x5 SHL DUP3 ADD ADD PUSH0 PUSH2 0x4FC8 JUMP JUMPDEST DUP1 MLOAD DUP1 DUP4 MSTORE PUSH1 0x20 SWAP3 SWAP2 DUP2 SWAP1 DUP5 ADD DUP5 DUP5 ADD MCOPY PUSH0 DUP3 DUP3 ADD DUP5 ADD MSTORE PUSH1 0x1F ADD PUSH1 0x1F NOT AND ADD ADD SWAP1 JUMP JUMPDEST DUP1 SLOAD DUP3 LT ISZERO PUSH2 0x235 JUMPI PUSH0 MSTORE PUSH1 0x20 PUSH0 KECCAK256 ADD SWAP1 PUSH0 SWAP1 JUMP JUMPDEST PUSH1 0x20 PUSH1 0x40 DUP2 DUP4 ADD SWAP3 DUP3 DUP2 MSTORE DUP5 MLOAD DUP1 SWAP5 MSTORE ADD SWAP3 ADD SWAP1 PUSH0 JUMPDEST DUP2 DUP2 LT PUSH2 0x5099 JUMPI POP POP POP SWAP1 JUMP JUMPDEST DUP3 MLOAD PUSH1 0x1 PUSH1 0x1 PUSH1 0xA0 SHL SUB AND DUP5 MSTORE PUSH1 0x20 SWAP4 DUP5 ADD SWAP4 SWAP1 SWAP3 ADD SWAP2 PUSH1 0x1 ADD PUSH2 0x508C JUMP JUMPDEST PUSH2 0x1A0 PUSH1 0x3 NOT DUP3 ADD SLT PUSH2 0x195 JUMPI PUSH1 0x4 CALLDATALOAD PUSH1 0x1 PUSH1 0x1 PUSH1 0x40 SHL SUB DUP2 GT PUSH2 0x195 JUMPI DUP2 PUSH2 0x50E3 SWAP2 PUSH1 0x4 ADD PUSH2 0x4DCA JUMP JUMPDEST SWAP2 PUSH1 0x24 CALLDATALOAD PUSH1 0x1 PUSH1 0x1 PUSH1 0x40 SHL SUB DUP2 GT PUSH2 0x195 JUMPI DUP3 PUSH2 0x5102 SWAP2 PUSH1 0x4 ADD PUSH2 0x4DCA JUMP JUMPDEST SWAP2 PUSH1 0x44 CALLDATALOAD PUSH1 0x1 PUSH1 0x1 PUSH1 0x40 SHL SUB DUP2 GT PUSH2 0x195 JUMPI DUP2 PUSH2 0x5121 SWAP2 PUSH1 0x4 ADD PUSH2 0x4DCA JUMP JUMPDEST SWAP2 PUSH1 0x64 CALLDATALOAD PUSH1 0x1 PUSH1 0x1 PUSH1 0x40 SHL SUB DUP2 GT PUSH2 0x195 JUMPI DUP3 PUSH2 0x5140 SWAP2 PUSH1 0x4 ADD PUSH2 0x4DCA JUMP JUMPDEST SWAP2 PUSH1 0x84 CALLDATALOAD PUSH1 0x1 PUSH1 0x1 PUSH1 0x40 SHL SUB DUP2 GT PUSH2 0x195 JUMPI DUP2 PUSH2 0x515F SWAP2 PUSH1 0x4 ADD PUSH2 0x4DCA JUMP JUMPDEST SWAP2 PUSH1 0xA4 CALLDATALOAD PUSH1 0x1 PUSH1 0x1 PUSH1 0x40 SHL SUB DUP2 GT PUSH2 0x195 JUMPI DUP3 PUSH2 0x517E SWAP2 PUSH1 0x4 ADD PUSH2 0x4DCA JUMP JUMPDEST SWAP2 PUSH1 0xC4 CALLDATALOAD PUSH1 0x1 PUSH1 0x1 PUSH1 0x40 SHL SUB DUP2 GT PUSH2 0x195 JUMPI DUP2 PUSH2 0x519D SWAP2 PUSH1 0x4 ADD PUSH2 0x4DCA JUMP JUMPDEST SWAP2 PUSH1 0xE4 CALLDATALOAD PUSH1 0x1 PUSH1 0x1 PUSH1 0x40 SHL SUB DUP2 GT PUSH2 0x195 JUMPI DUP3 PUSH2 0x51BC SWAP2 PUSH1 0x4 ADD PUSH2 0x4DCA JUMP JUMPDEST SWAP2 PUSH2 0x104 CALLDATALOAD PUSH1 0x1 PUSH1 0x1 PUSH1 0x40 SHL SUB DUP2 GT PUSH2 0x195 JUMPI DUP2 PUSH2 0x51DC SWAP2 PUSH1 0x4 ADD PUSH2 0x4DCA JUMP JUMPDEST SWAP2 PUSH2 0x124 CALLDATALOAD PUSH1 0x1 PUSH1 0x1 PUSH1 0x40 SHL SUB DUP2 GT PUSH2 0x195 JUMPI DUP3 PUSH2 0x51FC SWAP2 PUSH1 0x4 ADD PUSH2 0x4DCA JUMP JUMPDEST SWAP2 PUSH2 0x144 CALLDATALOAD PUSH1 0x1 PUSH1 0x1 PUSH1 0x40 SHL SUB DUP2 GT PUSH2 0x195 JUMPI DUP2 PUSH2 0x521C SWAP2 PUSH1 0x4 ADD PUSH2 0x4DCA JUMP JUMPDEST SWAP2 PUSH2 0x164 CALLDATALOAD PUSH1 0x1 PUSH1 0x1 PUSH1 0x40 SHL SUB DUP2 GT PUSH2 0x195 JUMPI DUP3 PUSH2 0x523C SWAP2 PUSH1 0x4 ADD PUSH2 0x4DCA JUMP JUMPDEST SWAP2 PUSH2 0x184 CALLDATALOAD SWAP1 PUSH1 0x1 PUSH1 0x1 PUSH1 0x40 SHL SUB DUP3 GT PUSH2 0x195 JUMPI PUSH2 0x525C SWAP2 PUSH1 0x4 ADD PUSH2 0x4DCA JUMP JUMPDEST SWAP1 JUMP JUMPDEST SWAP6 SWAP3 PUSH2 0x52CF SWAP5 PUSH2 0x52A5 PUSH2 0x52B3 SWAP3 PUSH2 0x5297 PUSH2 0x52C1 SWAP7 PUSH2 0x5289 PUSH2 0x525C SWAP14 SWAP12 SWAP8 PUSH1 0xE0 DUP15 DUP2 DUP2 MSTORE ADD SWAP1 PUSH2 0x503D JUMP JUMPDEST DUP13 DUP2 SUB PUSH1 0x20 DUP15 ADD MSTORE SWAP1 PUSH2 0x503D JUMP JUMPDEST SWAP1 DUP11 DUP3 SUB PUSH1 0x40 DUP13 ADD MSTORE PUSH2 0x503D JUMP JUMPDEST SWAP1 DUP9 DUP3 SUB PUSH1 0x60 DUP11 ADD MSTORE PUSH2 0x503D JUMP JUMPDEST SWAP1 DUP7 DUP3 SUB PUSH1 0x80 DUP9 ADD MSTORE PUSH2 0x503D JUMP JUMPDEST SWAP1 DUP5 DUP3 SUB PUSH1 0xA0 DUP7 ADD MSTORE PUSH2 0x503D JUMP JUMPDEST SWAP2 PUSH1 0xC0 DUP2 DUP5 SUB SWAP2 ADD MSTORE PUSH2 0x503D JUMP JUMPDEST PUSH1 0xE0 PUSH1 0x3 NOT DUP3 ADD SLT PUSH2 0x195 JUMPI PUSH1 0x4 CALLDATALOAD PUSH1 0x1 PUSH1 0x1 PUSH1 0x40 SHL SUB DUP2 GT PUSH2 0x195 JUMPI DUP2 PUSH2 0x5307 SWAP2 PUSH1 0x4 ADD PUSH2 0x4DCA JUMP JUMPDEST SWAP2 PUSH1 0x24 CALLDATALOAD PUSH1 0x1 PUSH1 0x1 PUSH1 0x40 SHL SUB DUP2 GT PUSH2 0x195 JUMPI DUP3 PUSH2 0x5326 SWAP2 PUSH1 0x4 ADD PUSH2 0x4DCA JUMP JUMPDEST SWAP2 PUSH1 0x44 CALLDATALOAD PUSH1 0x1 PUSH1 0x1 PUSH1 0x40 SHL SUB DUP2 GT PUSH2 0x195 JUMPI DUP2 PUSH2 0x5345 SWAP2 PUSH1 0x4 ADD PUSH2 0x4DCA JUMP JUMPDEST SWAP2 PUSH1 0x64 CALLDATALOAD PUSH1 0x1 PUSH1 0x1 PUSH1 0x40 SHL SUB DUP2 GT PUSH2 0x195 JUMPI DUP3 PUSH2 0x5364 SWAP2 PUSH1 0x4 ADD PUSH2 0x4DCA JUMP JUMPDEST SWAP2 PUSH1 0x84 CALLDATALOAD PUSH1 0x1 PUSH1 0x1 PUSH1 0x40 SHL SUB DUP2 GT PUSH2 0x195 JUMPI DUP2 PUSH2 0x5383 SWAP2 PUSH1 0x4 ADD PUSH2 0x4DCA JUMP JUMPDEST SWAP2 PUSH1 0xA4 CALLDATALOAD PUSH1 0x1 PUSH1 0x1 PUSH1 0x40 SHL SUB DUP2 GT PUSH2 0x195 JUMPI DUP3 PUSH2 0x53A2 SWAP2 PUSH1 0x4 ADD PUSH2 0x4DCA JUMP JUMPDEST SWAP2 PUSH1 0xC4 CALLDATALOAD SWAP1 PUSH1 0x1 PUSH1 0x1 PUSH1 0x40 SHL SUB DUP3 GT PUSH2 0x195 JUMPI PUSH2 0x525C SWAP2 PUSH1 0x4 ADD PUSH2 0x4DCA JUMP JUMPDEST PUSH0 NOT DUP2 EQ PUSH2 0x53CF JUMPI PUSH1 0x1 ADD SWAP1 JUMP JUMPDEST PUSH4 0x4E487B71 PUSH1 0xE0 SHL PUSH0 MSTORE PUSH1 0x11 PUSH1 0x4 MSTORE PUSH1 0x24 PUSH0 REVERT JUMPDEST ISZERO PUSH2 0x53EA JUMPI JUMP JUMPDEST PUSH1 0x40 MLOAD PUSH3 0x461BCD PUSH1 0xE5 SHL DUP2 MSTORE PUSH1 0x20 PUSH1 0x4 DUP3 ADD MSTORE PUSH1 0xD PUSH1 0x24 DUP3 ADD MSTORE PUSH13 0x1058D8D95CDCC819195B9A5959 PUSH1 0x9A SHL PUSH1 0x44 DUP3 ADD MSTORE PUSH1 0x64 SWAP1 REVERT JUMPDEST ISZERO PUSH2 0x5426 JUMPI JUMP JUMPDEST PUSH1 0x40 MLOAD PUSH3 0x461BCD PUSH1 0xE5 SHL DUP2 MSTORE PUSH1 0x20 PUSH1 0x4 DUP3 ADD MSTORE PUSH1 0x17 PUSH1 0x24 DUP3 ADD MSTORE PUSH32 0x4E6F742061207265676973746572656420646F63746F72000000000000000000 PUSH1 0x44 DUP3 ADD MSTORE PUSH1 0x64 SWAP1 REVERT INVALID LOG2 PUSH5 0x6970667358 0x22 SLT KECCAK256 0xBD PUSH0 0xCC NOT PUSH16 0x6132572E322B59927352EB51DA93A158 BLOBBASEFEE 0xC1 0xED NOT DUP10 ADD SAR CREATE 0xAF INVALID SHL PUSH5 0x736F6C6343 STOP ADDMOD SHR STOP CALLER "}}}