{"abi":[{"inputs":[],"stateMutability":"nonpayable","type":"constructor"},{"inputs":[],"name":"appointmentCount","outputs":[{"internalType":"uint256","name":"","type":"uint256"}],"stateMutability":"view","type":"function"},{"inputs":[{"internalType":"uint256","name":"","type":"uint256"}],"name":"appointmentList","outputs":[{"internalType":"address","name":"","type":"address"}],"stateMutability":"view","type":"function"},{"inputs":[],"name":"doctorCount","outputs":[{"internalType":"uint256","name":"","type":"uint256"}],"stateMutability":"view","type":"function"},{"inputs":[{"internalType":"uint256","name":"","type":"uint256"}],"name":"doctorList","outputs":[{"internalType":"address","name":"","type":"address"}],"stateMutability":"view","type":"function"},{"inputs":[{"components":[{"internalType":"string","name":"ic","type":"string"},{"internalType":"string","name":"name","type":"string"},{"internalType":"string","name":"phone","type":"string"},{"internalType":"string","name":"gender","type":"string"},{"internalType":"string","name":"dob","type":"string"},{"internalType":"string","name":"height","type":"string"},{"internalType":"string","name":"weight","type":"string"},{"internalType":"string","name":"houseaddr","type":"string"},{"internalType":"string","name":"bloodgroup","type":"string"},{"internalType":"string","name":"allergies","type":"string"},{"internalType":"string","name":"medication","type":"string"},{"internalType":"string","name":"emergencyName","type":"string"},{"internalType":"string","name":"emergencyContact","type":"string"}],"internalType":"struct Record.PatientUpdate","name":"update","type":"tuple"}],"name":"editDetails","outputs":[],"stateMutability":"nonpayable","type":"function"},{"inputs":[{"internalType":"string","name":"_ic","type":"string"},{"internalType":"string","name":"_name","type":"string"},{"internalType":"string","name":"_phone","type":"string"},{"internalType":"string","name":"_gender","type":"string"},{"internalType":"string","name":"_dob","type":"string"},{"internalType":"string","name":"_qualification","type":"string"},{"internalType":"string","name":"_major","type":"string"}],"name":"editDoctor","outputs":[],"stateMutability":"nonpayable","type":"function"},{"inputs":[],"name":"getAppointmentCount","outputs":[{"internalType":"uint256","name":"","type":"uint256"}],"stateMutability":"view","type":"function"},{"inputs":[{"internalType":"address","name":"_address","type":"address"}],"name":"getAppointmentPerPatient","outputs":[{"internalType":"uint256","name":"","type":"uint256"}],"stateMutability":"view","type":"function"},{"inputs":[],"name":"getAppointments","outputs":[{"internalType":"address[]","name":"","type":"address[]"}],"stateMutability":"view","type":"function"},{"inputs":[],"name":"getDoctorCount","outputs":[{"internalType":"uint256","name":"","type":"uint256"}],"stateMutability":"view","type":"function"},{"inputs":[],"name":"getDoctors","outputs":[{"internalType":"address[]","name":"","type":"address[]"}],"stateMutability":"view","type":"function"},{"inputs":[],"name":"getPatientCount","outputs":[{"internalType":"uint256","name":"","type":"uint256"}],"stateMutability":"view","type":"function"},{"inputs":[],"name":"getPatients","outputs":[{"internalType":"address[]","name":"","type":"address[]"}],"stateMutability":"view","type":"function"},{"inputs":[],"name":"getPermissionGrantedCount","outputs":[{"internalType":"uint256","name":"","type":"uint256"}],"stateMutability":"view","type":"function"},{"inputs":[{"internalType":"address","name":"_address","type":"address"}],"name":"givePermission","outputs":[{"internalType":"bool","name":"success","type":"bool"}],"stateMutability":"nonpayable","type":"function"},{"inputs":[],"name":"owner","outputs":[{"internalType":"address","name":"","type":"address"}],"stateMutability":"view","type":"function"},{"inputs":[],"name":"patientCount","outputs":[{"internalType":"uint256","name":"","type":"uint256"}],"stateMutability":"view","type":"function"},{"inputs":[{"internalType":"uint256","name":"","type":"uint256"}],"name":"patientList","outputs":[{"internalType":"address","name":"","type":"address"}],"stateMutability":"view","type":"function"},{"inputs":[{"internalType":"address","name":"","type":"address"}],"name":"patients","outputs":[{"internalType":"string","name":"ic","type":"string"},{"internalType":"string","name":"name","type":"string"},{"internalType":"string","name":"phone","type":"string"},{"internalType":"string","name":"gender","type":"string"},{"internalType":"string","name":"dob","type":"string"},{"internalType":"string","name":"height","type":"string"},{"internalType":"string","name":"weight","type":"string"},{"internalType":"string","name":"houseaddr","type":"string"},{"internalType":"string","name":"bloodgroup","type":"string"},{"internalType":"string","name":"allergies","type":"string"},{"internalType":"string","name":"medication","type":"string"},{"internalType":"string","name":"emergencyName","type":"string"},{"internalType":"string","name":"emergencyContact","type":"string"},{"internalType":"address","name":"addr","type":"address"},{"internalType":"uint256","name":"date","type":"uint256"}],"stateMutability":"view","type":"function"},{"inputs":[],"name":"permissionGrantedCount","outputs":[{"internalType":"uint256","name":"","type":"uint256"}],"stateMutability":"view","type":"function"},{"inputs":[{"internalType":"address","name":"_address","type":"address"}],"name":"revokePermission","outputs":[{"internalType":"bool","name":"success","type":"bool"}],"stateMutability":"nonpayable","type":"function"},{"inputs":[{"internalType":"address","name":"_address","type":"address"}],"name":"searchAppointment","outputs":[{"internalType":"address","name":"","type":"address"},{"internalType":"string","name":"","type":"string"},{"internalType":"string","name":"","type":"string"},{"internalType":"string","name":"","type":"string"},{"internalType":"string","name":"","type":"string"},{"internalType":"string","name":"","type":"string"},{"internalType":"string","name":"","type":"string"},{"internalType":"string","name":"","type":"string"}],"stateMutability":"view","type":"function"},{"inputs":[{"internalType":"address","name":"_address","type":"address"}],"name":"searchAppointmentDate","outputs":[{"internalType":"uint256","name":"","type":"uint256"}],"stateMutability":"view","type":"function"},{"inputs":[{"internalType":"address","name":"_address","type":"address"}],"name":"searchDoctor","outputs":[{"internalType":"string","name":"","type":"string"},{"internalType":"string","name":"","type":"string"},{"internalType":"string","name":"","type":"string"},{"internalType":"string","name":"","type":"string"},{"internalType":"string","name":"","type":"string"},{"internalType":"string","name":"","type":"string"},{"internalType":"string","name":"","type":"string"}],"stateMutability":"view","type":"function"},{"inputs":[{"internalType":"address","name":"_address","type":"address"}],"name":"searchDoctorDate","outputs":[{"internalType":"uint256","name":"","type":"uint256"}],"stateMutability":"view","type":"function"},{"inputs":[{"internalType":"address","name":"_address","type":"address"}],"name":"searchPatientDemographic","outputs":[{"internalType":"string","name":"","type":"string"},{"internalType":"string","name":"","type":"string"},{"internalType":"string","name":"","type":"string"},{"internalType":"string","name":"","type":"string"},{"internalType":"string","name":"","type":"string"},{"internalType":"string","name":"","type":"string"},{"internalType":"string","name":"","type":"string"}],"stateMutability":"view","type":"function"},{"inputs":[{"internalType":"address","name":"_address","type":"address"}],"name":"searchPatientMedical","outputs":[{"internalType":"string","name":"","type":"string"},{"internalType":"string","name":"","type":"string"},{"internalType":"string","name":"","type":"string"},{"internalType":"string","name":"","type":"string"},{"internalType":"string","name":"","type":"string"},{"internalType":"string","name":"","type":"string"}],"stateMutability":"view","type":"function"},{"inputs":[{"internalType":"address","name":"_address","type":"address"}],"name":"searchRecordDate","outputs":[{"internalType":"uint256","name":"","type":"uint256"}],"stateMutability":"view","type":"function"},{"inputs":[{"internalType":"address","name":"_addr","type":"address"},{"components":[{"internalType":"string","name":"date","type":"string"},{"internalType":"string","name":"time","type":"string"},{"internalType":"string","name":"prescription","type":"string"},{"internalType":"string","name":"description","type":"string"},{"internalType":"string","name":"diagnosis","type":"string"},{"internalType":"string","name":"status","type":"string"}],"internalType":"struct Record.AppointmentDetails","name":"details","type":"tuple"}],"name":"setAppointment","outputs":[],"stateMutability":"nonpayable","type":"function"},{"inputs":[{"internalType":"string","name":"_ic","type":"string"},{"internalType":"string","name":"_name","type":"string"},{"internalType":"string","name":"_phone","type":"string"},{"internalType":"string","name":"_gender","type":"string"},{"internalType":"string","name":"_dob","type":"string"},{"internalType":"string","name":"_height","type":"string"},{"internalType":"string","name":"_weight","type":"string"},{"internalType":"string","name":"_houseaddr","type":"string"},{"internalType":"string","name":"_bloodgroup","type":"string"},{"internalType":"string","name":"_allergies","type":"string"},{"internalType":"string","name":"_medication","type":"string"},{"internalType":"string","name":"_emergencyName","type":"string"},{"internalType":"string","name":"_emergencyContact","type":"string"}],"name":"setDetails","outputs":[],"stateMutability":"nonpayable","type":"function"},{"inputs":[{"internalType":"string","name":"_ic","type":"string"},{"internalType":"string","name":"_name","type":"string"},{"internalType":"string","name":"_phone","type":"string"},{"internalType":"string","name":"_gender","type":"string"},{"internalType":"string","name":"_dob","type":"string"},{"internalType":"string","name":"_qualification","type":"string"},{"internalType":"string","name":"_major","type":"string"}],"name":"setDoctor","outputs":[],"stateMutability":"nonpayable","type":"function"},{"inputs":[{"internalType":"address","name":"_addr","type":"address"},{"components":[{"internalType":"string","name":"date","type":"string"},{"internalType":"string","name":"time","type":"string"},{"internalType":"string","name":"prescription","type":"string"},{"internalType":"string","name":"description","type":"string"},{"internalType":"string","name":"diagnosis","type":"string"},{"internalType":"string","name":"status","type":"string"}],"internalType":"struct Record.AppointmentDetails","name":"details","type":"tuple"}],"name":"updateAppointment","outputs":[],"stateMutability":"nonpayable","type":"function"}],"evm":{"bytecode":{"linkReferences":{},"object":"608080604052346034575f600b555f600c555f600d555f600e553360018060a01b03195f5416175f556156f890816100398239f35b5f80fdfe60806040526004361015610011575f80fd5b5f3560e01c80621feeeb146149c55780630869cfbc146147e5578063127ca4b41461478157806312ad1c371461470457806324c24b2b14610a6757806329e4afbb146101785780632a825ba0146145265780633bc982801461439e5780633d391f70146143435780634c14b38d146142745780635a579768146131d0578063625961fc146130fd57806378522bc4146130e057806379111c1c146130e05780638b945c6d146128855780638da5cb5b1461285e578063920419821461263557806396b80d08146125b857806399a363c614611472578063a0303c4114610a4a578063a3bf5b9a14611428578063a5aca8bc14610cb0578063b13d5d9414610c27578063babb1d4114610bc3578063bd6f972b14610a84578063c0cb24ba14610a67578063c190665b14610a4a578063c3dfb22f1461035b578063caee6c8514610249578063e6fce0d2146101d1578063e93a15b9146101995763eebc3fb214610178575f80fd5b34610195575f366003190112610195576020600d54604051908152f35b5f80fd5b34610195576020366003190112610195576001600160a01b036101ba615156565b165f52600a602052602060405f2054604051908152f35b3461019557602036600319011261019557600435600354811015610195576003548110156102355760035f527fc2575a0e9e593c00f959f8c92f12db2869c3395a3b0502d05e2516446f71f85b01546040516001600160a01b039091168152602090f35b634e487b7160e01b5f52603260045260245ffd5b34610195576020366003190112610195576001600160a01b0361026a615156565b16805f52600960205261028360ff60405f205416615676565b5f52600560205260405f206040519061029b82615188565b6102a481615398565b82526103576102b560018301615398565b91602084019283526102c960028201615398565b93604081019485526102dd60038301615398565b90606081019182526102f160048401615398565b6080820190815261030460058501615398565b9160a08101928352600861031a60068701615398565b60c0830181905260078701546001600160a01b031660e08401529501546101008201525195519651925190519151604051978897919491886154b3565b0390f35b34610195576103693661521a565b90335f52600960205260ff60405f205416156109f95760018060a01b03165f52600660205260405f208151916002820183516001600160401b038111610668576103b38254615360565b601f81116109b4575b50602094601f8211600114610953579481929394955f92610948575b50508160011b915f199060031b1c19161790555b6020810151916003810183516001600160401b038111610668576104108254615360565b601f8111610903575b50602094601f82116001146108a2579481929394955f92610897575b50508160011b915f199060031b1c19161790555b6080820151916006820183516001600160401b0381116106685761046d8254615360565b601f8111610852575b50602094601f82116001146107f1579481929394955f926107e6575b50508160011b915f199060031b1c19161790555b6040810151916004810183516001600160401b038111610668576104ca8254615360565b601f81116107a1575b50602094601f8211600114610740579481929394955f92610735575b50508160011b915f199060031b1c19161790555b6060820151916005820183516001600160401b038111610668576105278254615360565b601f81116106f0575b506020601f821160011461068757908060a0949392600796975f9261067c575b50508160011b915f199060031b1c19161790555b0151910181516001600160401b038111610668576105828254615360565b601f8111610623575b50602092601f82116001146105c757928192935f926105bc575b50505f19600383901b1c191660019190911b179055005b0151905083806105a5565b601f19821693835f52805f20915f5b86811061060b57508360019596106105f3575b505050811b019055005b01515f1960f88460031b161c191690558380806105e9565b919260206001819286850151815501940192016105d6565b825f5260205f20601f830160051c8101916020841061065e575b601f0160051c01905b818110610653575061058b565b5f8155600101610646565b909150819061063d565b634e487b7160e01b5f52604160045260245ffd5b015190508780610550565b601f19821695835f52815f20965f5b8181106106d8575096600192849260a09796956007999a106106c0575b505050811b019055610564565b01515f1960f88460031b161c191690558780806106b3565b83830151895560019098019760209384019301610696565b825f5260205f20601f830160051c8101916020841061072b575b601f0160051c01905b8181106107205750610530565b5f8155600101610713565b909150819061070a565b0151905085806104ef565b601f19821695835f52805f20915f5b88811061078957508360019596979810610771575b505050811b019055610503565b01515f1960f88460031b161c19169055858080610764565b9192602060018192868501518155019401920161074f565b825f5260205f20601f830160051c810191602084106107dc575b601f0160051c01905b8181106107d157506104d3565b5f81556001016107c4565b90915081906107bb565b015190508580610492565b601f19821695835f52805f20915f5b88811061083a57508360019596979810610822575b505050811b0190556104a6565b01515f1960f88460031b161c19169055858080610815565b91926020600181928685015181550194019201610800565b825f5260205f20601f830160051c8101916020841061088d575b601f0160051c01905b8181106108825750610476565b5f8155600101610875565b909150819061086c565b015190508580610435565b601f19821695835f52805f20915f5b8881106108eb575083600195969798106108d3575b505050811b019055610449565b01515f1960f88460031b161c191690558580806108c6565b919260206001819286850151815501940192016108b1565b825f5260205f20601f830160051c8101916020841061093e575b601f0160051c01905b8181106109335750610419565b5f8155600101610926565b909150819061091d565b0151905085806103d8565b601f19821695835f52805f20915f5b88811061099c57508360019596979810610984575b505050811b0190556103ec565b01515f1960f88460031b161c19169055858080610977565b91926020600181928685015181550194019201610962565b825f5260205f20601f830160051c810191602084106109ef575b601f0160051c01905b8181106109e457506103bc565b5f81556001016109d7565b90915081906109ce565b60405162461bcd60e51b8152602060048201526024808201527f4f6e6c7920646f63746f72732063616e20757064617465206170706f696e746d604482015263656e747360e01b6064820152608490fd5b34610195575f366003190112610195576020600b54604051908152f35b34610195575f366003190112610195576020600e54604051908152f35b34610195576020366003190112610195576001600160a01b03610aa5615156565b165f52600460205260206101c060405f20600e60405191610ac58361516c565b610ace81615398565b8352610adc60018201615398565b85840152610aec60028201615398565b6040840152610afd60038201615398565b6060840152610b0e60048201615398565b6080840152610b1f60058201615398565b60a0840152610b3060068201615398565b60c0840152610b4160078201615398565b60e0840152610b5260088201615398565b610100840152610b6460098201615398565b610120840152610b76600a8201615398565b610140840152610b88600b8201615398565b610160840152610b9a600c8201615398565b610180840152600d8101546001600160a01b03166101a084015201549101819052604051908152f35b3461019557602036600319011261019557600435600154811015610195576001548110156102355760015f527fb10e2d527612073b26eecdfd717e6a320cf44b4afac2b0732d9fcbe2b7fa0cf601546040516001600160a01b039091168152602090f35b34610195575f3660031901126101955760405180602060025491828152019060025f527f405787fa12a823e0f2b7631cc41b3ba8828b3321ca811111fa75cd3aa3bb5ace905f5b818110610c915761035785610c85818703826151a4565b60405191829182615471565b82546001600160a01b0316845260209093019260019283019201610c6e565b3461019557610cbe36615534565b9495939095929192335f526009602052610cde60ff60405f205416615676565b335f52600560205260405f20948051906001600160401b038211610668578190610d088854615360565b601f81116113d8575b50602090601f8311600114611375575f9261136a575b50508160011b915f199060031b1c19161785555b805160018601916001600160401b038211610668578190610d5c8454615360565b601f811161131a575b50602090601f83116001146112b7575f926112ac575b50508160011b915f199060031b1c19161790555b805160028501916001600160401b038211610668578190610db08454615360565b601f811161125c575b50602090601f83116001146111f9575f926111ee575b50508160011b915f199060031b1c19161790555b805160038401916001600160401b038211610668578190610e048454615360565b601f811161119e575b50602090601f831160011461113b575f92611130575b50508160011b915f199060031b1c19161790555b805160048301916001600160401b038211610668578190610e588454615360565b601f81116110e0575b50602090601f831160011461107d575f92611072575b50508160011b915f199060031b1c19161790555b6005810183516001600160401b03811161066857610ea98254615360565b601f811161102d575b506020601f8211600114610fc8578190600695965f92610fbd575b50508160011b915f199060031b1c19161790555b0181516001600160401b03811161066857610efc8254615360565b601f8111610f78575b50602092601f8211600114610f3557928192935f926105bc5750505f19600383901b1c191660019190911b179055005b601f19821693835f52805f20915f5b868110610f6057508360019596106105f357505050811b019055005b91926020600181928685015181550194019201610f44565b825f5260205f20601f830160051c81019160208410610fb3575b601f0160051c01905b818110610fa85750610f05565b5f8155600101610f9b565b9091508190610f92565b015190508680610ecd565b601f19821695835f52815f20965f5b8181106110155750916006969791846001959410610ffd575b505050811b019055610ee1565b01515f1960f88460031b161c19169055868080610ff0565b83830151895560019098019760209384019301610fd7565b825f5260205f20601f830160051c81019160208410611068575b601f0160051c01905b81811061105d5750610eb2565b5f8155600101611050565b9091508190611047565b015190508680610e77565b5f8581528281209350601f198516905b8181106110c857509084600195949392106110b0575b505050811b019055610e8b565b01515f1960f88460031b161c191690558680806110a3565b9293602060018192878601518155019501930161108d565b909150835f5260205f20601f840160051c81019160208510611126575b90601f859493920160051c01905b8181106111185750610e61565b5f815584935060010161110b565b90915081906110fd565b015190508780610e23565b5f8581528281209350601f198516905b818110611186575090846001959493921061116e575b505050811b019055610e37565b01515f1960f88460031b161c19169055878080611161565b9293602060018192878601518155019501930161114b565b909150835f5260205f20601f840160051c810191602085106111e4575b90601f859493920160051c01905b8181106111d65750610e0d565b5f81558493506001016111c9565b90915081906111bb565b015190508880610dcf565b5f8581528281209350601f198516905b818110611244575090846001959493921061122c575b505050811b019055610de3565b01515f1960f88460031b161c1916905588808061121f565b92936020600181928786015181550195019301611209565b909150835f5260205f20601f840160051c810191602085106112a2575b90601f859493920160051c01905b8181106112945750610db9565b5f8155849350600101611287565b9091508190611279565b015190508980610d7b565b5f8581528281209350601f198516905b81811061130257509084600195949392106112ea575b505050811b019055610d8f565b01515f1960f88460031b161c191690558980806112dd565b929360206001819287860151815501950193016112c7565b909150835f5260205f20601f840160051c81019160208510611360575b90601f859493920160051c01905b8181106113525750610d65565b5f8155849350600101611345565b9091508190611337565b015190508980610d27565b5f8981528281209350601f198516905b8181106113c057509084600195949392106113a8575b505050811b018555610d3b565b01515f1960f88460031b161c1916905589808061139b565b92936020600181928786015181550195019301611385565b909150875f5260205f20601f840160051c8101916020851061141e575b90601f859493920160051c01905b8181106114105750610d11565b5f8155849350600101611403565b90915081906113f5565b3461019557602036600319011261019557611441615156565b335f52600760205260405f209060018060a01b03165f5260205260405f2060ff198154169055602060405160018152f35b34610195576101a0366003190112610195576004356001600160401b038111610195576114a39036906004016151c5565b6024356001600160401b038111610195576114c29036906004016151c5565b6044356001600160401b038111610195576114e19036906004016151c5565b6064356001600160401b038111610195576115009036906004016151c5565b6084356001600160401b0381116101955761151f9036906004016151c5565b60a4356001600160401b0381116101955761153e9036906004016151c5565b60c4356001600160401b0381116101955761155d9036906004016151c5565b60e4356001600160401b0381116101955761157c9036906004016151c5565b90610104356001600160401b0381116101955761159d9036906004016151c5565b92610124356001600160401b038111610195576115be9036906004016151c5565b94610144356001600160401b038111610195576115df9036906004016151c5565b96610164356001600160401b038111610195576116009036906004016151c5565b98610184356001600160401b038111610195576116219036906004016151c5565b9a335f52600860205260ff60405f205416612573576040519c6116438e61516c565b8d5260208d015260408c015260608b015260808a015260a089015260c088015260e08701526101008601526101208501526101408401526101608301526101808201908152336101a0830152426101c0830152335f52600460205260405f2082519283516001600160401b038111610668576116bf8354615360565b601f8111612532575b506020601f82116001146124ce5781929394955f926124c3575b50508160011b915f199060031b1c19161782555b6001820160208201518051906001600160401b03821161066857819061171c8454615360565b601f8111612473575b50602090601f8311600114612410575f92612405575b50508160011b915f199060031b1c19161790555b6002820160408201518051906001600160401b0382116106685781906117758454615360565b601f81116123b5575b50602090601f8311600114612352575f92612347575b50508160011b915f199060031b1c19161790555b6003820160608201518051906001600160401b0382116106685781906117ce8454615360565b601f81116122f7575b50602090601f8311600114612294575f92612289575b50508160011b915f199060031b1c19161790555b6004820160808201518051906001600160401b0382116106685781906118278454615360565b601f8111612239575b50602090601f83116001146121d6575f926121cb575b50508160011b915f199060031b1c19161790555b6005820160a08201518051906001600160401b0382116106685781906118808454615360565b601f811161217b575b50602090601f8311600114612118575f9261210d575b50508160011b915f199060031b1c19161790555b6006820160c08201518051906001600160401b0382116106685781906118d98454615360565b601f81116120bd575b50602090601f831160011461205a575f9261204f575b50508160011b915f199060031b1c19161790555b6007820160e08201518051906001600160401b0382116106685781906119328454615360565b601f8111611fff575b50602090601f8311600114611f9c575f92611f91575b50508160011b915f199060031b1c19161790555b600882016101008201518051906001600160401b03821161066857819061198c8454615360565b601f8111611f41575b50602090601f8311600114611ede575f92611ed3575b50508160011b915f199060031b1c19161790555b600982016101208201518051906001600160401b0382116106685781906119e68454615360565b601f8111611e83575b50602090601f8311600114611e20575f92611e15575b50508160011b915f199060031b1c19161790555b600a82016101408201518051906001600160401b038211610668578190611a408454615360565b601f8111611dc5575b50602090601f8311600114611d62575f92611d57575b50508160011b915f199060031b1c19161790555b600b82016101608201518051906001600160401b038211610668578190611a9a8454615360565b601f8111611d07575b50602090601f8311600114611ca4575f92611c99575b50508160011b915f199060031b1c19161790555b600c820192519283516001600160401b03811161066857611aee8254615360565b601f8111611c54575b506020601f8211600114611bea5790806101c0949392600e96975f92611bdf575b50508160011b915f199060031b1c19161790555b6101a0810151600d850180546001600160a01b0319166001600160a01b03929092169190911790550151910155600154600160401b81101561066857806001611b7a9201600155600161545c565b81546001600160a01b0360039290921b91821b1916339182901b179091555f908152600860209081526040808320805460ff19908116600190811790925560078452828520909352922080549091169091179055600b54611bda90615618565b600b55005b015190508780611b18565b601f19821695835f52815f20965f5b818110611c3c57509660019284926101c0979695600e999a10611c24575b505050811b019055611b2c565b01515f1960f88460031b161c19169055878080611c17565b83830151895560019098019760209384019301611bf9565b825f5260205f20601f830160051c81019160208410611c8f575b601f0160051c01905b818110611c845750611af7565b5f8155600101611c77565b9091508190611c6e565b015190508680611ab9565b5f8581528281209350601f198516905b818110611cef5750908460019594939210611cd7575b505050811b019055611acd565b01515f1960f88460031b161c19169055868080611cca565b92936020600181928786015181550195019301611cb4565b909150835f5260205f20601f840160051c81019160208510611d4d575b90601f859493920160051c01905b818110611d3f5750611aa3565b5f8155849350600101611d32565b9091508190611d24565b015190508680611a5f565b5f8581528281209350601f198516905b818110611dad5750908460019594939210611d95575b505050811b019055611a73565b01515f1960f88460031b161c19169055868080611d88565b92936020600181928786015181550195019301611d72565b909150835f5260205f20601f840160051c81019160208510611e0b575b90601f859493920160051c01905b818110611dfd5750611a49565b5f8155849350600101611df0565b9091508190611de2565b015190508680611a05565b5f8581528281209350601f198516905b818110611e6b5750908460019594939210611e53575b505050811b019055611a19565b01515f1960f88460031b161c19169055868080611e46565b92936020600181928786015181550195019301611e30565b909150835f5260205f20601f840160051c81019160208510611ec9575b90601f859493920160051c01905b818110611ebb57506119ef565b5f8155849350600101611eae565b9091508190611ea0565b0151905086806119ab565b5f8581528281209350601f198516905b818110611f295750908460019594939210611f11575b505050811b0190556119bf565b01515f1960f88460031b161c19169055868080611f04565b92936020600181928786015181550195019301611eee565b909150835f5260205f20601f840160051c81019160208510611f87575b90601f859493920160051c01905b818110611f795750611995565b5f8155849350600101611f6c565b9091508190611f5e565b015190508680611951565b5f8581528281209350601f198516905b818110611fe75750908460019594939210611fcf575b505050811b019055611965565b01515f1960f88460031b161c19169055868080611fc2565b92936020600181928786015181550195019301611fac565b909150835f5260205f20601f840160051c81019160208510612045575b90601f859493920160051c01905b818110612037575061193b565b5f815584935060010161202a565b909150819061201c565b0151905086806118f8565b5f8581528281209350601f198516905b8181106120a5575090846001959493921061208d575b505050811b01905561190c565b01515f1960f88460031b161c19169055868080612080565b9293602060018192878601518155019501930161206a565b909150835f5260205f20601f840160051c81019160208510612103575b90601f859493920160051c01905b8181106120f557506118e2565b5f81558493506001016120e8565b90915081906120da565b01519050868061189f565b5f8581528281209350601f198516905b818110612163575090846001959493921061214b575b505050811b0190556118b3565b01515f1960f88460031b161c1916905586808061213e565b92936020600181928786015181550195019301612128565b909150835f5260205f20601f840160051c810191602085106121c1575b90601f859493920160051c01905b8181106121b35750611889565b5f81558493506001016121a6565b9091508190612198565b015190508680611846565b5f8581528281209350601f198516905b8181106122215750908460019594939210612209575b505050811b01905561185a565b01515f1960f88460031b161c191690558680806121fc565b929360206001819287860151815501950193016121e6565b909150835f5260205f20601f840160051c8101916020851061227f575b90601f859493920160051c01905b8181106122715750611830565b5f8155849350600101612264565b9091508190612256565b0151905086806117ed565b5f8581528281209350601f198516905b8181106122df57509084600195949392106122c7575b505050811b019055611801565b01515f1960f88460031b161c191690558680806122ba565b929360206001819287860151815501950193016122a4565b909150835f5260205f20601f840160051c8101916020851061233d575b90601f859493920160051c01905b81811061232f57506117d7565b5f8155849350600101612322565b9091508190612314565b015190508680611794565b5f8581528281209350601f198516905b81811061239d5750908460019594939210612385575b505050811b0190556117a8565b01515f1960f88460031b161c19169055868080612378565b92936020600181928786015181550195019301612362565b909150835f5260205f20601f840160051c810191602085106123fb575b90601f859493920160051c01905b8181106123ed575061177e565b5f81558493506001016123e0565b90915081906123d2565b01519050868061173b565b5f8581528281209350601f198516905b81811061245b5750908460019594939210612443575b505050811b01905561174f565b01515f1960f88460031b161c19169055868080612436565b92936020600181928786015181550195019301612420565b909150835f5260205f20601f840160051c810191602085106124b9575b90601f859493920160051c01905b8181106124ab5750611725565b5f815584935060010161249e565b9091508190612490565b0151905085806116e2565b835f52805f20905f5b601f198416811061251a575060019394959683601f19811610612502575b505050811b0182556116f6565b01515f1960f88460031b161c191690558580806124f5565b9091602060018192858b0151815501930191016124d7565b835f5260205f20601f830160051c81016020841061256c575b601f830160051c820181106125615750506116c8565b5f815560010161254b565b508061254b565b60405162461bcd60e51b815260206004820152601c60248201527f416c7265616479206120726567697374657265642070617469656e74000000006044820152606490fd5b34610195575f3660031901126101955760405180602060035491828152019060035f527fc2575a0e9e593c00f959f8c92f12db2869c3395a3b0502d05e2516446f71f85b905f5b8181106126165761035785610c85818703826151a4565b82546001600160a01b03168452602090930192600192830192016125ff565b34610195576020366003190112610195576001600160a01b03612656615156565b165f52600660205260405f2060405161266e81615188565b81546001600160a01b039081168252600183015416602082015261269460028301615398565b60408201908152916126a860038201615398565b60608301908152906126bc60048201615398565b608084019081526126cf60058301615398565b60a08501908152906126e360068401615398565b60c086019081526126f660078501615398565b9360e0870194855260080154610100870152600160a01b600190038651165f52600560205260405f209560405161272c81615188565b61273588615398565b815261274360018901615398565b602082019081529761275760028201615398565b604083015261276860038201615398565b606083015261277960048201615398565b608083015261278a60058201615398565b60a083015261279b60068201615398565b60c0830152600160a01b6001900360078201541660e083015260080154906101000152600160a01b60019003905116955196519451905191519251935194604051978897885260208801610100905261010088016127f891615438565b878103604089015261280991615438565b868103606088015261281a91615438565b858103608087015261282b91615438565b84810360a086015261283c91615438565b83810360c085015261284d91615438565b82810360e084015261035791615438565b34610195575f366003190112610195575f546040516001600160a01b039091168152602090f35b346101955761289336615534565b9495939095929192335f52600960205260ff60405f20541661309b57335f52600560205260405f20948051906001600160401b0382116106685781906128d98854615360565b601f811161304b575b50602090601f8311600114612fe8575f92612fdd575b50508160011b915f199060031b1c19161785555b805160018601916001600160401b03821161066857819061292d8454615360565b601f8111612f8d575b50602090601f8311600114612f2a575f92612f1f575b50508160011b915f199060031b1c19161790555b805160028501916001600160401b0382116106685781906129818454615360565b601f8111612ecf575b50602090601f8311600114612e6c575f92612e61575b50508160011b915f199060031b1c19161790555b805160038401916001600160401b0382116106685781906129d58454615360565b601f8111612e11575b50602090601f8311600114612dae575f92612da3575b50508160011b915f199060031b1c19161790555b805160048301916001600160401b038211610668578190612a298454615360565b601f8111612d53575b50602090601f8311600114612cf0575f92612ce5575b50508160011b915f199060031b1c19161790555b6005810183516001600160401b03811161066857612a7a8254615360565b601f8111612ca0575b50602094601f8211600114612c3f579481929394955f92612c34575b50508160011b915f199060031b1c19161790555b6006810182516001600160401b03811161066857612ad18254615360565b601f8111612bef575b506020601f8211600114612b8e57819293945f92612b83575b50508160011b915f199060031b1c19161790555b6007810180546001600160a01b0319163317905542600890910155600254600160401b81101561066857806001612b439201600255600261545c565b81549060031b9033821b9160018060a01b03901b1916179055335f52600960205260405f20600160ff19825416179055612b7e600c54615618565b600c55005b015190508480612af3565b601f19821690835f52805f20915f5b818110612bd757509583600195969710612bbf575b505050811b019055612b07565b01515f1960f88460031b161c19169055848080612bb2565b9192602060018192868b015181550194019201612b9d565b825f5260205f20601f830160051c81019160208410612c2a575b601f0160051c01905b818110612c1f5750612ada565b5f8155600101612c12565b9091508190612c09565b015190508580612a9f565b601f19821695835f52805f20915f5b888110612c8857508360019596979810612c70575b505050811b019055612ab3565b01515f1960f88460031b161c19169055858080612c63565b91926020600181928685015181550194019201612c4e565b825f5260205f20601f830160051c81019160208410612cdb575b601f0160051c01905b818110612cd05750612a83565b5f8155600101612cc3565b9091508190612cba565b015190508680612a48565b5f8581528281209350601f198516905b818110612d3b5750908460019594939210612d23575b505050811b019055612a5c565b01515f1960f88460031b161c19169055868080612d16565b92936020600181928786015181550195019301612d00565b909150835f5260205f20601f840160051c81019160208510612d99575b90601f859493920160051c01905b818110612d8b5750612a32565b5f8155849350600101612d7e565b9091508190612d70565b0151905087806129f4565b5f8581528281209350601f198516905b818110612df95750908460019594939210612de1575b505050811b019055612a08565b01515f1960f88460031b161c19169055878080612dd4565b92936020600181928786015181550195019301612dbe565b909150835f5260205f20601f840160051c81019160208510612e57575b90601f859493920160051c01905b818110612e4957506129de565b5f8155849350600101612e3c565b9091508190612e2e565b0151905088806129a0565b5f8581528281209350601f198516905b818110612eb75750908460019594939210612e9f575b505050811b0190556129b4565b01515f1960f88460031b161c19169055888080612e92565b92936020600181928786015181550195019301612e7c565b909150835f5260205f20601f840160051c81019160208510612f15575b90601f859493920160051c01905b818110612f07575061298a565b5f8155849350600101612efa565b9091508190612eec565b01519050898061294c565b5f8581528281209350601f198516905b818110612f755750908460019594939210612f5d575b505050811b019055612960565b01515f1960f88460031b161c19169055898080612f50565b92936020600181928786015181550195019301612f3a565b909150835f5260205f20601f840160051c81019160208510612fd3575b90601f859493920160051c01905b818110612fc55750612936565b5f8155849350600101612fb8565b9091508190612faa565b0151905089806128f8565b5f8981528281209350601f198516905b818110613033575090846001959493921061301b575b505050811b01855561290c565b01515f1960f88460031b161c1916905589808061300e565b92936020600181928786015181550195019301612ff8565b909150875f5260205f20601f840160051c81019160208510613091575b90601f859493920160051c01905b81811061308357506128e2565b5f8155849350600101613076565b9091508190613068565b60405162461bcd60e51b815260206004820152601b60248201527f416c72656164792061207265676973746572656420646f63746f7200000000006044820152606490fd5b34610195575f366003190112610195576020600c54604051908152f35b34610195576020366003190112610195576001600160a01b0361311e615156565b165f526005602052602061010060405f2060086040519161313e83615188565b61314781615398565b835261315560018201615398565b8584015261316560028201615398565b604084015261317660038201615398565b606084015261318760048201615398565b608084015261319860058201615398565b60a08401526131a960068201615398565b60c084015260078101546001600160a01b031660e084015201549101819052604051908152f35b34610195576020366003190112610195576004356001600160401b038111610195576101a06003198236030112610195576040516101a081018181106001600160401b038211176106685760405281600401356001600160401b0381116101955761324190600436918501016151c5565b815260248201356001600160401b0381116101955761326690600436918501016151c5565b906020810191825260448301356001600160401b0381116101955761329190600436918601016151c5565b926040820193845260648101356001600160401b038111610195576132bc90600436918401016151c5565b6060830190815260848201356001600160401b038111610195576132e690600436918501016151c5565b6080840190815260a48301356001600160401b0381116101955761331090600436918601016151c5565b9160a0850192835260c48401356001600160401b0381116101955761333b90600436918701016151c5565b9360c0860194855260e48101356001600160401b0381116101955761336690600436918401016151c5565b60e08701526101048101356001600160401b0381116101955761338f90600436918401016151c5565b6101008701526101248101356001600160401b038111610195576133b990600436918401016151c5565b6101208701526101448101356001600160401b038111610195576133e390600436918401016151c5565b6101408701526101648101356001600160401b0381116101955761340d90600436918401016151c5565b610160870152610184810135906001600160401b03821161019557600461343792369201016151c5565b966101808601978852335f52600860205260ff60405f2054161561422f57335f52600460205260405f209686518051906001600160401b0382116106685781906134818b54615360565b601f81116141df575b50602090601f831160011461417c575f92614171575b50508160011b915f199060031b1c19161788555b51805160018901916001600160401b0382116106685781906134d68454615360565b601f8111614121575b50602090601f83116001146140be575f926140b3575b50508160011b915f199060031b1c19161790555b51805160028801916001600160401b03821161066857819061352b8454615360565b601f8111614063575b50602090601f8311600114614000575f92613ff5575b50508160011b915f199060031b1c19161790555b51805160038701916001600160401b0382116106685781906135808454615360565b601f8111613fa5575b50602090601f8311600114613f42575f92613f37575b50508160011b915f199060031b1c19161790555b51805160048601916001600160401b0382116106685781906135d58454615360565b601f8111613ee7575b50602090601f8311600114613e84575f92613e79575b50508160011b915f199060031b1c19161790555b51805160058501916001600160401b03821161066857819061362a8454615360565b601f8111613e29575b50602090601f8311600114613dc6575f92613dbb575b50508160011b915f199060031b1c19161790555b51805160068401916001600160401b03821161066857819061367f8454615360565b601f8111613d6b575b50602090601f8311600114613d08575f92613cfd575b50508160011b915f199060031b1c19161790555b60e0810151805160078401916001600160401b0382116106685781906136d88454615360565b601f8111613cad575b50602090601f8311600114613c4a575f92613c3f575b50508160011b915f199060031b1c19161790555b610100810151805160088401916001600160401b0382116106685781906137328454615360565b601f8111613bef575b50602090601f8311600114613b8c575f92613b81575b50508160011b915f199060031b1c19161790555b610120810151805160098401916001600160401b03821161066857819061378c8454615360565b601f8111613b31575b50602090601f8311600114613ace575f92613ac3575b50508160011b915f199060031b1c19161790555b6101408101518051600a8401916001600160401b038211610668576137e48354615360565b601f8111613a7e575b50602090601f8311600114613a1657610160949392915f9183613a0b575b50508160011b915f199060031b1c19161790555b015191600b820183516001600160401b038111610668576138408254615360565b601f81116139c6575b506020601f8211600114613961578190600c95965f92613956575b50508160011b915f199060031b1c19161790555b51910181516001600160401b038111610668576138958254615360565b601f8111613911575b50602092601f82116001146138ce57928192935f926105bc5750505f19600383901b1c191660019190911b179055005b601f19821693835f52805f20915f5b8681106138f957508360019596106105f357505050811b019055005b919260206001819286850151815501940192016138dd565b825f5260205f20601f830160051c8101916020841061394c575b601f0160051c01905b818110613941575061389e565b5f8155600101613934565b909150819061392b565b015190508680613864565b601f19821695835f52815f20965f5b8181106139ae575091600c969791846001959410613996575b505050811b019055613878565b01515f1960f88460031b161c19169055868080613989565b83830151895560019098019760209384019301613970565b825f5260205f20601f830160051c81019160208410613a01575b601f0160051c01905b8181106139f65750613849565b5f81556001016139e9565b90915081906139e0565b01519050878061380b565b90601f19831691845f52815f20925f5b818110613a6657509160019391856101609897969410613a4e575b505050811b01905561381f565b01515f1960f88460031b161c19169055878080613a41565b92936020600181928786015181550195019301613a26565b835f5260205f20601f840160051c81019160208510613ab9575b601f0160051c01905b818110613aae57506137ed565b5f8155600101613aa1565b9091508190613a98565b0151905086806137ab565b5f8581528281209350601f198516905b818110613b195750908460019594939210613b01575b505050811b0190556137bf565b01515f1960f88460031b161c19169055868080613af4565b92936020600181928786015181550195019301613ade565b909150835f5260205f20601f840160051c81019160208510613b77575b90601f859493920160051c01905b818110613b695750613795565b5f8155849350600101613b5c565b9091508190613b4e565b015190508680613751565b5f8581528281209350601f198516905b818110613bd75750908460019594939210613bbf575b505050811b019055613765565b01515f1960f88460031b161c19169055868080613bb2565b92936020600181928786015181550195019301613b9c565b909150835f5260205f20601f840160051c81019160208510613c35575b90601f859493920160051c01905b818110613c27575061373b565b5f8155849350600101613c1a565b9091508190613c0c565b0151905086806136f7565b5f8581528281209350601f198516905b818110613c955750908460019594939210613c7d575b505050811b01905561370b565b01515f1960f88460031b161c19169055868080613c70565b92936020600181928786015181550195019301613c5a565b909150835f5260205f20601f840160051c81019160208510613cf3575b90601f859493920160051c01905b818110613ce557506136e1565b5f8155849350600101613cd8565b9091508190613cca565b01519050868061369e565b5f8581528281209350601f198516905b818110613d535750908460019594939210613d3b575b505050811b0190556136b2565b01515f1960f88460031b161c19169055868080613d2e565b92936020600181928786015181550195019301613d18565b909150835f5260205f20601f840160051c81019160208510613db1575b90601f859493920160051c01905b818110613da35750613688565b5f8155849350600101613d96565b9091508190613d88565b015190508780613649565b5f8581528281209350601f198516905b818110613e115750908460019594939210613df9575b505050811b01905561365d565b01515f1960f88460031b161c19169055878080613dec565b92936020600181928786015181550195019301613dd6565b909150835f5260205f20601f840160051c81019160208510613e6f575b90601f859493920160051c01905b818110613e615750613633565b5f8155849350600101613e54565b9091508190613e46565b0151905088806135f4565b5f8581528281209350601f198516905b818110613ecf5750908460019594939210613eb7575b505050811b019055613608565b01515f1960f88460031b161c19169055888080613eaa565b92936020600181928786015181550195019301613e94565b909150835f5260205f20601f840160051c81019160208510613f2d575b90601f859493920160051c01905b818110613f1f57506135de565b5f8155849350600101613f12565b9091508190613f04565b01519050898061359f565b5f8581528281209350601f198516905b818110613f8d5750908460019594939210613f75575b505050811b0190556135b3565b01515f1960f88460031b161c19169055898080613f68565b92936020600181928786015181550195019301613f52565b909150835f5260205f20601f840160051c81019160208510613feb575b90601f859493920160051c01905b818110613fdd5750613589565b5f8155849350600101613fd0565b9091508190613fc2565b015190508a8061354a565b5f8581528281209350601f198516905b81811061404b5750908460019594939210614033575b505050811b01905561355e565b01515f1960f88460031b161c191690558a8080614026565b92936020600181928786015181550195019301614010565b909150835f5260205f20601f840160051c810191602085106140a9575b90601f859493920160051c01905b81811061409b5750613534565b5f815584935060010161408e565b9091508190614080565b015190508b806134f5565b5f8581528281209350601f198516905b81811061410957509084600195949392106140f1575b505050811b019055613509565b01515f1960f88460031b161c191690558b80806140e4565b929360206001819287860151815501950193016140ce565b909150835f5260205f20601f840160051c81019160208510614167575b90601f859493920160051c01905b81811061415957506134df565b5f815584935060010161414c565b909150819061413e565b015190508b806134a0565b5f8c81528281209350601f198516905b8181106141c757509084600195949392106141af575b505050811b0188556134b4565b01515f1960f88460031b161c191690558b80806141a2565b9293602060018192878601518155019501930161418c565b9091508a5f5260205f20601f840160051c81019160208510614225575b90601f859493920160051c01905b818110614217575061348a565b5f815584935060010161420a565b90915081906141fc565b60405162461bcd60e51b815260206004820152601860248201527f4e6f74206120726567697374657265642070617469656e7400000000000000006044820152606490fd5b34610195576020366003190112610195576001600160a01b03614295615156565b165f526006602052602061010060405f206008604051916142b583615188565b80546001600160a01b039081168452600182015416858401526142da60028201615398565b60408401526142eb60038201615398565b60608401526142fc60048201615398565b608084015261430d60058201615398565b60a084015261431e60068201615398565b60c084015261432f60078201615398565b60e084015201549182910152604051908152f35b346101955760203660031901126101955761435c615156565b335f52600760205260405f209060018060a01b03165f5260205260405f20600160ff19825416179055614390600e54615618565b600e55602060405160018152f35b34610195576020366003190112610195576001600160a01b036143bf615156565b165f8181526007602090815260408083203384529091529020546143e59060ff1661563a565b5f52600460205260405f206040516143fc8161516c565b61440582615398565b815261035761441660018401615398565b916020810192835261442a60028501615398565b936040820194855261443e60038201615398565b916060810192835261445260048301615398565b6080820190815261446560058401615398565b9160a08101928352600e61447b60068601615398565b9460c0830195865261448f60078201615398565b60e08401526144a060088201615398565b6101008401526144b260098201615398565b6101208401526144c4600a8201615398565b6101408401526144d6600b8201615398565b6101608401526144e8600c8201615398565b610180840152600d8101546001600160a01b03166101a084015201546101c082015251955196519351905191519251604051978897919591886154b3565b34610195576020366003190112610195576001600160a01b03614547615156565b165f81815260076020908152604080832033845290915290205461456d9060ff1661563a565b5f5260046020526146be60405f206103576040519161458b8361516c565b61459481615398565b83526145a260018201615398565b60208401526145b360028201615398565b60408401526145c460038201615398565b60608401526145d560048201615398565b60808401526145e660058201615398565b60a08401526145f760068201615398565b60c08401526146f661460b60078301615398565b60e085019081526146e861462160088501615398565b9561010081019687526146da61463960098701615398565b9361012083019485526146cc614651600a8901615398565b916101408501928352614666600b8a01615398565b9461016081019586526101c0600e614680600c8d01615398565b9b8c61018085015260018060a01b03600d820154166101a08501520154910152519951955191519351956040519b8c9b60c08d5260c08d0190615438565b908b820360208d0152615438565b9089820360408b0152615438565b908782036060890152615438565b908582036080870152615438565b9083820360a0850152615438565b34610195575f3660031901126101955760405180602060015491828152019060015f527fb10e2d527612073b26eecdfd717e6a320cf44b4afac2b0732d9fcbe2b7fa0cf6905f5b8181106147625761035785610c85818703826151a4565b82546001600160a01b031684526020909301926001928301920161474b565b3461019557602036600319011261019557600435600254811015610195576002548110156102355760025f527f405787fa12a823e0f2b7631cc41b3ba8828b3321ca811111fa75cd3aa3bb5ace01546040516001600160a01b039091168152602090f35b34610195576020366003190112610195576001600160a01b03614806615156565b165f52600460205260405f2061481b81615398565b9061482860018201615398565b9061483560028201615398565b61484160038301615398565b61484d60048401615398565b61485960058501615398565b61486560068601615398565b61487160078701615398565b61487d60088801615398565b9061488a60098901615398565b92614897600a8a01615398565b946148a4600b8b01615398565b966148b1600c8c01615398565b98600160a01b60019003600d8d0154169b600e01549a6040519e8f9e8f916101e083526101e083016148e291615438565b82810360208401526148f391615438565b90808203906040015261490591615438565b8d810360608f015261491691615438565b8c810360808e015261492791615438565b8b810360a08d015261493891615438565b8a810360c08c015261494991615438565b89810360e08b015261495a91615438565b8881036101008a015261496c91615438565b87810361012089015261497e91615438565b86810361014088015261499091615438565b8581036101608701526149a291615438565b8481036101808601526149b491615438565b916101a08401526101c08301520390f35b34610195576149d33661521a565b90335f52600960205260ff60405f20541615615105576001600160a01b03165f81815260066020526040902080546001600160a01b031990811633178255600182018054909116831790558251805191939160028501916001600160401b038211610668578190614a448454615360565b601f81116150b5575b50602090601f8311600114615052575f92615047575b50508160011b915f199060031b1c19161790555b6020810151805160038501916001600160401b038211610668578190614a9d8454615360565b601f8111614ff7575b50602090601f8311600114614f94575f92614f89575b50508160011b915f199060031b1c19161790555b6080810151805160068501916001600160401b038211610668578190614af68454615360565b601f8111614f39575b50602090601f8311600114614ed6575f92614ecb575b50508160011b915f199060031b1c19161790555b6040810151805160048501916001600160401b038211610668578190614b4f8454615360565b601f8111614e7b575b50602090601f8311600114614e18575f92614e0d575b50508160011b915f199060031b1c19161790555b6060810151805160058501916001600160401b03821161066857614ba68354615360565b601f8111614dc8575b50602090601f8311600114614d615760a0949392915f9183614d56575b50508160011b915f199060031b1c19161790555b0151916007810183516001600160401b03811161066857614c018254615360565b601f8111614d11575b50602094601f8211600114614cb0579481929394955f92614ca5575b50508160011b915f199060031b1c19161790555b600842910155600354600160401b81101561066857806001614c619201600355600361545c565b81546001600160a01b0360039290921b91821b19169083901b179055600d54614c8990615618565b600d555f52600a60205260405f20614ca18154615618565b9055005b015190508580614c26565b601f19821695835f52805f20915f5b888110614cf957508360019596979810614ce1575b505050811b019055614c3a565b01515f1960f88460031b161c19169055858080614cd4565b91926020600181928685015181550194019201614cbf565b825f5260205f20601f830160051c81019160208410614d4c575b601f0160051c01905b818110614d415750614c0a565b5f8155600101614d34565b9091508190614d2b565b015190508780614bcc565b90601f19831691845f52815f20925f5b818110614db0575091600193918560a09897969410614d98575b505050811b019055614be0565b01515f1960f88460031b161c19169055878080614d8b565b92936020600181928786015181550195019301614d71565b835f5260205f20601f840160051c81019160208510614e03575b601f0160051c01905b818110614df85750614baf565b5f8155600101614deb565b9091508190614de2565b015190508680614b6e565b5f8581528281209350601f198516905b818110614e635750908460019594939210614e4b575b505050811b019055614b82565b01515f1960f88460031b161c19169055868080614e3e565b92936020600181928786015181550195019301614e28565b909150835f5260205f20601f840160051c81019160208510614ec1575b90601f859493920160051c01905b818110614eb35750614b58565b5f8155849350600101614ea6565b9091508190614e98565b015190508680614b15565b5f8581528281209350601f198516905b818110614f215750908460019594939210614f09575b505050811b019055614b29565b01515f1960f88460031b161c19169055868080614efc565b92936020600181928786015181550195019301614ee6565b909150835f5260205f20601f840160051c81019160208510614f7f575b90601f859493920160051c01905b818110614f715750614aff565b5f8155849350600101614f64565b9091508190614f56565b015190508680614abc565b5f8581528281209350601f198516905b818110614fdf5750908460019594939210614fc7575b505050811b019055614ad0565b01515f1960f88460031b161c19169055868080614fba565b92936020600181928786015181550195019301614fa4565b909150835f5260205f20601f840160051c8101916020851061503d575b90601f859493920160051c01905b81811061502f5750614aa6565b5f8155849350600101615022565b9091508190615014565b015190508680614a63565b5f8581528281209350601f198516905b81811061509d5750908460019594939210615085575b505050811b019055614a77565b01515f1960f88460031b161c19169055868080615078565b92936020600181928786015181550195019301615062565b909150835f5260205f20601f840160051c810191602085106150fb575b90601f859493920160051c01905b8181106150ed5750614a4d565b5f81558493506001016150e0565b90915081906150d2565b60405162461bcd60e51b8152602060048201526024808201527f4f6e6c7920646f63746f72732063616e20637265617465206170706f696e746d604482015263656e747360e01b6064820152608490fd5b600435906001600160a01b038216820361019557565b6101e081019081106001600160401b0382111761066857604052565b61012081019081106001600160401b0382111761066857604052565b90601f801991011681019081106001600160401b0382111761066857604052565b81601f82011215610195578035906001600160401b03821161066857604051926151f9601f8401601f1916602001856151a4565b8284526020838301011161019557815f926020809301838601378301015290565b906040600319830112610195576004356001600160a01b038116810361019557916024356001600160401b0381116101955760c08183036003190112610195576040519160c083018381106001600160401b038211176106685760405281600401356001600160401b03811161019557816004615299928501016151c5565b835260248201356001600160401b038111610195578160046152bd928501016151c5565b602084015260448201356001600160401b038111610195578160046152e4928501016151c5565b604084015260648201356001600160401b0381116101955781600461530b928501016151c5565b606084015260848201356001600160401b03811161019557816004615332928501016151c5565b608084015260a4820135916001600160401b0383116101955761535892016004016151c5565b60a082015290565b90600182811c9216801561538e575b602083101461537a57565b634e487b7160e01b5f52602260045260245ffd5b91607f169161536f565b9060405191825f8254926153ab84615360565b808452936001811690811561541657506001146153d2575b506153d0925003836151a4565b565b90505f9291925260205f20905f915b8183106153fa5750509060206153d0928201015f6153c3565b60209193508060019154838589010152019101909184926153e1565b9050602092506153d094915060ff191682840152151560051b8201015f6153c3565b805180835260209291819084018484015e5f828201840152601f01601f1916010190565b8054821015610235575f5260205f2001905f90565b60206040818301928281528451809452019201905f5b8181106154945750505090565b82516001600160a01b0316845260209384019390920191600101615487565b9592615523946154f9615507926154eb615515966154dd6155319d9b9760e08e8181520190615438565b8c810360208e015290615438565b908a820360408c0152615438565b9088820360608a0152615438565b908682036080880152615438565b9084820360a0860152615438565b9160c0818403910152615438565b90565b60e0600319820112610195576004356001600160401b038111610195578161555e916004016151c5565b916024356001600160401b038111610195578261557d916004016151c5565b916044356001600160401b038111610195578161559c916004016151c5565b916064356001600160401b03811161019557826155bb916004016151c5565b916084356001600160401b03811161019557816155da916004016151c5565b9160a4356001600160401b03811161019557826155f9916004016151c5565b9160c435906001600160401b03821161019557615531916004016151c5565b5f1981146156265760010190565b634e487b7160e01b5f52601160045260245ffd5b1561564157565b60405162461bcd60e51b815260206004820152600d60248201526c1058d8d95cdcc819195b9a5959609a1b6044820152606490fd5b1561567d57565b60405162461bcd60e51b815260206004820152601760248201527f4e6f742061207265676973746572656420646f63746f720000000000000000006044820152606490fdfea264697066735822122060ecb6662807ef3183578d1c9885d6d5fdd0dfb385a6fe8a748526af3a654e7a64736f6c634300081c0033","opcodes":"PUSH1 0x80 DUP1 PUSH1 0x40 MSTORE CALLVALUE PUSH1 0x34 JUMPI PUSH0 PUSH1 0xB SSTORE PUSH0 PUSH1 0xC SSTORE PUSH0 PUSH1 0xD SSTORE PUSH0 PUSH1 0xE SSTORE CALLER PUSH1 0x1 DUP1 PUSH1 0xA0 SHL SUB NOT PUSH0 SLOAD AND OR PUSH0 SSTORE PUSH2 0x56F8 SWAP1 DUP2 PUSH2 0x39 DUP3 CODECOPY RETURN JUMPDEST PUSH0 DUP1 REVERT INVALID PUSH1 0x80 PUSH1 0x40 MSTORE PUSH1 0x4 CALLDATASIZE LT ISZERO PUSH2 0x11 JUMPI PUSH0 DUP1 REVERT JUMPDEST PUSH0 CALLDATALOAD PUSH1 0xE0 SHR DUP1 PUSH3 0x1FEEEB EQ PUSH2 0x49C5 JUMPI DUP1 PUSH4 0x869CFBC EQ PUSH2 0x47E5 JUMPI DUP1 PUSH4 0x127CA4B4 EQ PUSH2 0x4781 JUMPI DUP1 PUSH4 0x12AD1C37 EQ PUSH2 0x4704 JUMPI DUP1 PUSH4 0x24C24B2B EQ PUSH2 0xA67 JUMPI DUP1 PUSH4 0x29E4AFBB EQ PUSH2 0x178 JUMPI DUP1 PUSH4 0x2A825BA0 EQ PUSH2 0x4526 JUMPI DUP1 PUSH4 0x3BC98280 EQ PUSH2 0x439E JUMPI DUP1 PUSH4 0x3D391F70 EQ PUSH2 0x4343 JUMPI DUP1 PUSH4 0x4C14B38D EQ PUSH2 0x4274 JUMPI DUP1 PUSH4 0x5A579768 EQ PUSH2 0x31D0 JUMPI DUP1 PUSH4 0x625961FC EQ PUSH2 0x30FD JUMPI DUP1 PUSH4 0x78522BC4 EQ PUSH2 0x30E0 JUMPI DUP1 PUSH4 0x79111C1C EQ PUSH2 0x30E0 JUMPI DUP1 PUSH4 0x8B945C6D EQ PUSH2 0x2885 JUMPI DUP1 PUSH4 0x8DA5CB5B EQ PUSH2 0x285E JUMPI DUP1 PUSH4 0x92041982 EQ PUSH2 0x2635 JUMPI DUP1 PUSH4 0x96B80D08 EQ PUSH2 0x25B8 JUMPI DUP1 PUSH4 0x99A363C6 EQ PUSH2 0x1472 JUMPI DUP1 PUSH4 0xA0303C41 EQ PUSH2 0xA4A JUMPI DUP1 PUSH4 0xA3BF5B9A EQ PUSH2 0x1428 JUMPI DUP1 PUSH4 0xA5ACA8BC EQ PUSH2 0xCB0 JUMPI DUP1 PUSH4 0xB13D5D94 EQ PUSH2 0xC27 JUMPI DUP1 PUSH4 0xBABB1D41 EQ PUSH2 0xBC3 JUMPI DUP1 PUSH4 0xBD6F972B EQ PUSH2 0xA84 JUMPI DUP1 PUSH4 0xC0CB24BA EQ PUSH2 0xA67 JUMPI DUP1 PUSH4 0xC190665B EQ PUSH2 0xA4A JUMPI DUP1 PUSH4 0xC3DFB22F EQ PUSH2 0x35B JUMPI DUP1 PUSH4 0xCAEE6C85 EQ PUSH2 0x249 JUMPI DUP1 PUSH4 0xE6FCE0D2 EQ PUSH2 0x1D1 JUMPI DUP1 PUSH4 0xE93A15B9 EQ PUSH2 0x199 JUMPI PUSH4 0xEEBC3FB2 EQ PUSH2 0x178 JUMPI PUSH0 DUP1 REVERT JUMPDEST CALLVALUE PUSH2 0x195 JUMPI PUSH0 CALLDATASIZE PUSH1 0x3 NOT ADD SLT PUSH2 0x195 JUMPI PUSH1 0x20 PUSH1 0xD SLOAD PUSH1 0x40 MLOAD SWAP1 DUP2 MSTORE RETURN JUMPDEST PUSH0 DUP1 REVERT JUMPDEST CALLVALUE PUSH2 0x195 JUMPI PUSH1 0x20 CALLDATASIZE PUSH1 0x3 NOT ADD SLT PUSH2 0x195 JUMPI PUSH1 0x1 PUSH1 0x1 PUSH1 0xA0 SHL SUB PUSH2 0x1BA PUSH2 0x5156 JUMP JUMPDEST AND PUSH0 MSTORE PUSH1 0xA PUSH1 0x20 MSTORE PUSH1 0x20 PUSH1 0x40 PUSH0 KECCAK256 SLOAD PUSH1 0x40 MLOAD SWAP1 DUP2 MSTORE RETURN JUMPDEST CALLVALUE PUSH2 0x195 JUMPI PUSH1 0x20 CALLDATASIZE PUSH1 0x3 NOT ADD SLT PUSH2 0x195 JUMPI PUSH1 0x4 CALLDATALOAD PUSH1 0x3 SLOAD DUP2 LT ISZERO PUSH2 0x195 JUMPI PUSH1 0x3 SLOAD DUP2 LT ISZERO PUSH2 0x235 JUMPI PUSH1 0x3 PUSH0 MSTORE PUSH32 0xC2575A0E9E593C00F959F8C92F12DB2869C3395A3B0502D05E2516446F71F85B ADD SLOAD PUSH1 0x40 MLOAD PUSH1 0x1 PUSH1 0x1 PUSH1 0xA0 SHL SUB SWAP1 SWAP2 AND DUP2 MSTORE PUSH1 0x20 SWAP1 RETURN JUMPDEST PUSH4 0x4E487B71 PUSH1 0xE0 SHL PUSH0 MSTORE PUSH1 0x32 PUSH1 0x4 MSTORE PUSH1 0x24 PUSH0 REVERT JUMPDEST CALLVALUE PUSH2 0x195 JUMPI PUSH1 0x20 CALLDATASIZE PUSH1 0x3 NOT ADD SLT PUSH2 0x195 JUMPI PUSH1 0x1 PUSH1 0x1 PUSH1 0xA0 SHL SUB PUSH2 0x26A PUSH2 0x5156 JUMP JUMPDEST AND DUP1 PUSH0 MSTORE PUSH1 0x9 PUSH1 0x20 MSTORE PUSH2 0x283 PUSH1 0xFF PUSH1 0x40 PUSH0 KECCAK256 SLOAD AND PUSH2 0x5676 JUMP JUMPDEST PUSH0 MSTORE PUSH1 0x5 PUSH1 0x20 MSTORE PUSH1 0x40 PUSH0 KECCAK256 PUSH1 0x40 MLOAD SWAP1 PUSH2 0x29B DUP3 PUSH2 0x5188 JUMP JUMPDEST PUSH2 0x2A4 DUP2 PUSH2 0x5398 JUMP JUMPDEST DUP3 MSTORE PUSH2 0x357 PUSH2 0x2B5 PUSH1 0x1 DUP4 ADD PUSH2 0x5398 JUMP JUMPDEST SWAP2 PUSH1 0x20 DUP5 ADD SWAP3 DUP4 MSTORE PUSH2 0x2C9 PUSH1 0x2 DUP3 ADD PUSH2 0x5398 JUMP JUMPDEST SWAP4 PUSH1 0x40 DUP2 ADD SWAP5 DUP6 MSTORE PUSH2 0x2DD PUSH1 0x3 DUP4 ADD PUSH2 0x5398 JUMP JUMPDEST SWAP1 PUSH1 0x60 DUP2 ADD SWAP2 DUP3 MSTORE PUSH2 0x2F1 PUSH1 0x4 DUP5 ADD PUSH2 0x5398 JUMP JUMPDEST PUSH1 0x80 DUP3 ADD SWAP1 DUP2 MSTORE PUSH2 0x304 PUSH1 0x5 DUP6 ADD PUSH2 0x5398 JUMP JUMPDEST SWAP2 PUSH1 0xA0 DUP2 ADD SWAP3 DUP4 MSTORE PUSH1 0x8 PUSH2 0x31A PUSH1 0x6 DUP8 ADD PUSH2 0x5398 JUMP JUMPDEST PUSH1 0xC0 DUP4 ADD DUP2 SWAP1 MSTORE PUSH1 0x7 DUP8 ADD SLOAD PUSH1 0x1 PUSH1 0x1 PUSH1 0xA0 SHL SUB AND PUSH1 0xE0 DUP5 ADD MSTORE SWAP6 ADD SLOAD PUSH2 0x100 DUP3 ADD MSTORE MLOAD SWAP6 MLOAD SWAP7 MLOAD SWAP3 MLOAD SWAP1 MLOAD SWAP2 MLOAD PUSH1 0x40 MLOAD SWAP8 DUP9 SWAP8 SWAP2 SWAP5 SWAP2 DUP9 PUSH2 0x54B3 JUMP JUMPDEST SUB SWAP1 RETURN JUMPDEST CALLVALUE PUSH2 0x195 JUMPI PUSH2 0x369 CALLDATASIZE PUSH2 0x521A JUMP JUMPDEST SWAP1 CALLER PUSH0 MSTORE PUSH1 0x9 PUSH1 0x20 MSTORE PUSH1 0xFF PUSH1 0x40 PUSH0 KECCAK256 SLOAD AND ISZERO PUSH2 0x9F9 JUMPI PUSH1 0x1 DUP1 PUSH1 0xA0 SHL SUB AND PUSH0 MSTORE PUSH1 0x6 PUSH1 0x20 MSTORE PUSH1 0x40 PUSH0 KECCAK256 DUP2 MLOAD SWAP2 PUSH1 0x2 DUP3 ADD DUP4 MLOAD PUSH1 0x1 PUSH1 0x1 PUSH1 0x40 SHL SUB DUP2 GT PUSH2 0x668 JUMPI PUSH2 0x3B3 DUP3 SLOAD PUSH2 0x5360 JUMP JUMPDEST PUSH1 0x1F DUP2 GT PUSH2 0x9B4 JUMPI JUMPDEST POP PUSH1 0x20 SWAP5 PUSH1 0x1F DUP3 GT PUSH1 0x1 EQ PUSH2 0x953 JUMPI SWAP5 DUP2 SWAP3 SWAP4 SWAP5 SWAP6 PUSH0 SWAP3 PUSH2 0x948 JUMPI JUMPDEST POP POP DUP2 PUSH1 0x1 SHL SWAP2 PUSH0 NOT SWAP1 PUSH1 0x3 SHL SHR NOT AND OR SWAP1 SSTORE JUMPDEST PUSH1 0x20 DUP2 ADD MLOAD SWAP2 PUSH1 0x3 DUP2 ADD DUP4 MLOAD PUSH1 0x1 PUSH1 0x1 PUSH1 0x40 SHL SUB DUP2 GT PUSH2 0x668 JUMPI PUSH2 0x410 DUP3 SLOAD PUSH2 0x5360 JUMP JUMPDEST PUSH1 0x1F DUP2 GT PUSH2 0x903 JUMPI JUMPDEST POP PUSH1 0x20 SWAP5 PUSH1 0x1F DUP3 GT PUSH1 0x1 EQ PUSH2 0x8A2 JUMPI SWAP5 DUP2 SWAP3 SWAP4 SWAP5 SWAP6 PUSH0 SWAP3 PUSH2 0x897 JUMPI JUMPDEST POP POP DUP2 PUSH1 0x1 SHL SWAP2 PUSH0 NOT SWAP1 PUSH1 0x3 SHL SHR NOT AND OR SWAP1 SSTORE JUMPDEST PUSH1 0x80 DUP3 ADD MLOAD SWAP2 PUSH1 0x6 DUP3 ADD DUP4 MLOAD PUSH1 0x1 PUSH1 0x1 PUSH1 0x40 SHL SUB DUP2 GT PUSH2 0x668 JUMPI PUSH2 0x46D DUP3 SLOAD PUSH2 0x5360 JUMP JUMPDEST PUSH1 0x1F DUP2 GT PUSH2 0x852 JUMPI JUMPDEST POP PUSH1 0x20 SWAP5 PUSH1 0x1F DUP3 GT PUSH1 0x1 EQ PUSH2 0x7F1 JUMPI SWAP5 DUP2 SWAP3 SWAP4 SWAP5 SWAP6 PUSH0 SWAP3 PUSH2 0x7E6 JUMPI JUMPDEST POP POP DUP2 PUSH1 0x1 SHL SWAP2 PUSH0 NOT SWAP1 PUSH1 0x3 SHL SHR NOT AND OR SWAP1 SSTORE JUMPDEST PUSH1 0x40 DUP2 ADD MLOAD SWAP2 PUSH1 0x4 DUP2 ADD DUP4 MLOAD PUSH1 0x1 PUSH1 0x1 PUSH1 0x40 SHL SUB DUP2 GT PUSH2 0x668 JUMPI PUSH2 0x4CA DUP3 SLOAD PUSH2 0x5360 JUMP JUMPDEST PUSH1 0x1F DUP2 GT PUSH2 0x7A1 JUMPI JUMPDEST POP PUSH1 0x20 SWAP5 PUSH1 0x1F DUP3 GT PUSH1 0x1 EQ PUSH2 0x740 JUMPI SWAP5 DUP2 SWAP3 SWAP4 SWAP5 SWAP6 PUSH0 SWAP3 PUSH2 0x735 JUMPI JUMPDEST POP POP DUP2 PUSH1 0x1 SHL SWAP2 PUSH0 NOT SWAP1 PUSH1 0x3 SHL SHR NOT AND OR SWAP1 SSTORE JUMPDEST PUSH1 0x60 DUP3 ADD MLOAD SWAP2 PUSH1 0x5 DUP3 ADD DUP4 MLOAD PUSH1 0x1 PUSH1 0x1 PUSH1 0x40 SHL SUB DUP2 GT PUSH2 0x668 JUMPI PUSH2 0x527 DUP3 SLOAD PUSH2 0x5360 JUMP JUMPDEST PUSH1 0x1F DUP2 GT PUSH2 0x6F0 JUMPI JUMPDEST POP PUSH1 0x20 PUSH1 0x1F DUP3 GT PUSH1 0x1 EQ PUSH2 0x687 JUMPI SWAP1 DUP1 PUSH1 0xA0 SWAP5 SWAP4 SWAP3 PUSH1 0x7 SWAP7 SWAP8 PUSH0 SWAP3 PUSH2 0x67C JUMPI JUMPDEST POP POP DUP2 PUSH1 0x1 SHL SWAP2 PUSH0 NOT SWAP1 PUSH1 0x3 SHL SHR NOT AND OR SWAP1 SSTORE JUMPDEST ADD MLOAD SWAP2 ADD DUP2 MLOAD PUSH1 0x1 PUSH1 0x1 PUSH1 0x40 SHL SUB DUP2 GT PUSH2 0x668 JUMPI PUSH2 0x582 DUP3 SLOAD PUSH2 0x5360 JUMP JUMPDEST PUSH1 0x1F DUP2 GT PUSH2 0x623 JUMPI JUMPDEST POP PUSH1 0x20 SWAP3 PUSH1 0x1F DUP3 GT PUSH1 0x1 EQ PUSH2 0x5C7 JUMPI SWAP3 DUP2 SWAP3 SWAP4 PUSH0 SWAP3 PUSH2 0x5BC JUMPI JUMPDEST POP POP PUSH0 NOT PUSH1 0x3 DUP4 SWAP1 SHL SHR NOT AND PUSH1 0x1 SWAP2 SWAP1 SWAP2 SHL OR SWAP1 SSTORE STOP JUMPDEST ADD MLOAD SWAP1 POP DUP4 DUP1 PUSH2 0x5A5 JUMP JUMPDEST PUSH1 0x1F NOT DUP3 AND SWAP4 DUP4 PUSH0 MSTORE DUP1 PUSH0 KECCAK256 SWAP2 PUSH0 JUMPDEST DUP7 DUP2 LT PUSH2 0x60B JUMPI POP DUP4 PUSH1 0x1 SWAP6 SWAP7 LT PUSH2 0x5F3 JUMPI JUMPDEST POP POP POP DUP2 SHL ADD SWAP1 SSTORE STOP JUMPDEST ADD MLOAD PUSH0 NOT PUSH1 0xF8 DUP5 PUSH1 0x3 SHL AND SHR NOT AND SWAP1 SSTORE DUP4 DUP1 DUP1 PUSH2 0x5E9 JUMP JUMPDEST SWAP2 SWAP3 PUSH1 0x20 PUSH1 0x1 DUP2 SWAP3 DUP7 DUP6 ADD MLOAD DUP2 SSTORE ADD SWAP5 ADD SWAP3 ADD PUSH2 0x5D6 JUMP JUMPDEST DUP3 PUSH0 MSTORE PUSH1 0x20 PUSH0 KECCAK256 PUSH1 0x1F DUP4 ADD PUSH1 0x5 SHR DUP2 ADD SWAP2 PUSH1 0x20 DUP5 LT PUSH2 0x65E JUMPI JUMPDEST PUSH1 0x1F ADD PUSH1 0x5 SHR ADD SWAP1 JUMPDEST DUP2 DUP2 LT PUSH2 0x653 JUMPI POP PUSH2 0x58B JUMP JUMPDEST PUSH0 DUP2 SSTORE PUSH1 0x1 ADD PUSH2 0x646 JUMP JUMPDEST SWAP1 SWAP2 POP DUP2 SWAP1 PUSH2 0x63D JUMP JUMPDEST PUSH4 0x4E487B71 PUSH1 0xE0 SHL PUSH0 MSTORE PUSH1 0x41 PUSH1 0x4 MSTORE PUSH1 0x24 PUSH0 REVERT JUMPDEST ADD MLOAD SWAP1 POP DUP8 DUP1 PUSH2 0x550 JUMP JUMPDEST PUSH1 0x1F NOT DUP3 AND SWAP6 DUP4 PUSH0 MSTORE DUP2 PUSH0 KECCAK256 SWAP7 PUSH0 JUMPDEST DUP2 DUP2 LT PUSH2 0x6D8 JUMPI POP SWAP7 PUSH1 0x1 SWAP3 DUP5 SWAP3 PUSH1 0xA0 SWAP8 SWAP7 SWAP6 PUSH1 0x7 SWAP10 SWAP11 LT PUSH2 0x6C0 JUMPI JUMPDEST POP POP POP DUP2 SHL ADD SWAP1 SSTORE PUSH2 0x564 JUMP JUMPDEST ADD MLOAD PUSH0 NOT PUSH1 0xF8 DUP5 PUSH1 0x3 SHL AND SHR NOT AND SWAP1 SSTORE DUP8 DUP1 DUP1 PUSH2 0x6B3 JUMP JUMPDEST DUP4 DUP4 ADD MLOAD DUP10 SSTORE PUSH1 0x1 SWAP1 SWAP9 ADD SWAP8 PUSH1 0x20 SWAP4 DUP5 ADD SWAP4 ADD PUSH2 0x696 JUMP JUMPDEST DUP3 PUSH0 MSTORE PUSH1 0x20 PUSH0 KECCAK256 PUSH1 0x1F DUP4 ADD PUSH1 0x5 SHR DUP2 ADD SWAP2 PUSH1 0x20 DUP5 LT PUSH2 0x72B JUMPI JUMPDEST PUSH1 0x1F ADD PUSH1 0x5 SHR ADD SWAP1 JUMPDEST DUP2 DUP2 LT PUSH2 0x720 JUMPI POP PUSH2 0x530 JUMP JUMPDEST PUSH0 DUP2 SSTORE PUSH1 0x1 ADD PUSH2 0x713 JUMP JUMPDEST SWAP1 SWAP2 POP DUP2 SWAP1 PUSH2 0x70A JUMP JUMPDEST ADD MLOAD SWAP1 POP DUP6 DUP1 PUSH2 0x4EF JUMP JUMPDEST PUSH1 0x1F NOT DUP3 AND SWAP6 DUP4 PUSH0 MSTORE DUP1 PUSH0 KECCAK256 SWAP2 PUSH0 JUMPDEST DUP9 DUP2 LT PUSH2 0x789 JUMPI POP DUP4 PUSH1 0x1 SWAP6 SWAP7 SWAP8 SWAP9 LT PUSH2 0x771 JUMPI JUMPDEST POP POP POP DUP2 SHL ADD SWAP1 SSTORE PUSH2 0x503 JUMP JUMPDEST ADD MLOAD PUSH0 NOT PUSH1 0xF8 DUP5 PUSH1 0x3 SHL AND SHR NOT AND SWAP1 SSTORE DUP6 DUP1 DUP1 PUSH2 0x764 JUMP JUMPDEST SWAP2 SWAP3 PUSH1 0x20 PUSH1 0x1 DUP2 SWAP3 DUP7 DUP6 ADD MLOAD DUP2 SSTORE ADD SWAP5 ADD SWAP3 ADD PUSH2 0x74F JUMP JUMPDEST DUP3 PUSH0 MSTORE PUSH1 0x20 PUSH0 KECCAK256 PUSH1 0x1F DUP4 ADD PUSH1 0x5 SHR DUP2 ADD SWAP2 PUSH1 0x20 DUP5 LT PUSH2 0x7DC JUMPI JUMPDEST PUSH1 0x1F ADD PUSH1 0x5 SHR ADD SWAP1 JUMPDEST DUP2 DUP2 LT PUSH2 0x7D1 JUMPI POP PUSH2 0x4D3 JUMP JUMPDEST PUSH0 DUP2 SSTORE PUSH1 0x1 ADD PUSH2 0x7C4 JUMP JUMPDEST SWAP1 SWAP2 POP DUP2 SWAP1 PUSH2 0x7BB JUMP JUMPDEST ADD MLOAD SWAP1 POP DUP6 DUP1 PUSH2 0x492 JUMP JUMPDEST PUSH1 0x1F NOT DUP3 AND SWAP6 DUP4 PUSH0 MSTORE DUP1 PUSH0 KECCAK256 SWAP2 PUSH0 JUMPDEST DUP9 DUP2 LT PUSH2 0x83A JUMPI POP DUP4 PUSH1 0x1 SWAP6 SWAP7 SWAP8 SWAP9 LT PUSH2 0x822 JUMPI JUMPDEST POP POP POP DUP2 SHL ADD SWAP1 SSTORE PUSH2 0x4A6 JUMP JUMPDEST ADD MLOAD PUSH0 NOT PUSH1 0xF8 DUP5 PUSH1 0x3 SHL AND SHR NOT AND SWAP1 SSTORE DUP6 DUP1 DUP1 PUSH2 0x815 JUMP JUMPDEST SWAP2 SWAP3 PUSH1 0x20 PUSH1 0x1 DUP2 SWAP3 DUP7 DUP6 ADD MLOAD DUP2 SSTORE ADD SWAP5 ADD SWAP3 ADD PUSH2 0x800 JUMP JUMPDEST DUP3 PUSH0 MSTORE PUSH1 0x20 PUSH0 KECCAK256 PUSH1 0x1F DUP4 ADD PUSH1 0x5 SHR DUP2 ADD SWAP2 PUSH1 0x20 DUP5 LT PUSH2 0x88D JUMPI JUMPDEST PUSH1 0x1F ADD PUSH1 0x5 SHR ADD SWAP1 JUMPDEST DUP2 DUP2 LT PUSH2 0x882 JUMPI POP PUSH2 0x476 JUMP JUMPDEST PUSH0 DUP2 SSTORE PUSH1 0x1 ADD PUSH2 0x875 JUMP JUMPDEST SWAP1 SWAP2 POP DUP2 SWAP1 PUSH2 0x86C JUMP JUMPDEST ADD MLOAD SWAP1 POP DUP6 DUP1 PUSH2 0x435 JUMP JUMPDEST PUSH1 0x1F NOT DUP3 AND SWAP6 DUP4 PUSH0 MSTORE DUP1 PUSH0 KECCAK256 SWAP2 PUSH0 JUMPDEST DUP9 DUP2 LT PUSH2 0x8EB JUMPI POP DUP4 PUSH1 0x1 SWAP6 SWAP7 SWAP8 SWAP9 LT PUSH2 0x8D3 JUMPI JUMPDEST POP POP POP DUP2 SHL ADD SWAP1 SSTORE PUSH2 0x449 JUMP JUMPDEST ADD MLOAD PUSH0 NOT PUSH1 0xF8 DUP5 PUSH1 0x3 SHL AND SHR NOT AND SWAP1 SSTORE DUP6 DUP1 DUP1 PUSH2 0x8C6 JUMP JUMPDEST SWAP2 SWAP3 PUSH1 0x20 PUSH1 0x1 DUP2 SWAP3 DUP7 DUP6 ADD MLOAD DUP2 SSTORE ADD SWAP5 ADD SWAP3 ADD PUSH2 0x8B1 JUMP JUMPDEST DUP3 PUSH0 MSTORE PUSH1 0x20 PUSH0 KECCAK256 PUSH1 0x1F DUP4 ADD PUSH1 0x5 SHR DUP2 ADD SWAP2 PUSH1 0x20 DUP5 LT PUSH2 0x93E JUMPI JUMPDEST PUSH1 0x1F ADD PUSH1 0x5 SHR ADD SWAP1 JUMPDEST DUP2 DUP2 LT PUSH2 0x933 JUMPI POP PUSH2 0x419 JUMP JUMPDEST PUSH0 DUP2 SSTORE PUSH1 0x1 ADD PUSH2 0x926 JUMP JUMPDEST SWAP1 SWAP2 POP DUP2 SWAP1 PUSH2 0x91D JUMP JUMPDEST ADD MLOAD SWAP1 POP DUP6 DUP1 PUSH2 0x3D8 JUMP JUMPDEST PUSH1 0x1F NOT DUP3 AND SWAP6 DUP4 PUSH0 MSTORE DUP1 PUSH0 KECCAK256 SWAP2 PUSH0 JUMPDEST DUP9 DUP2 LT PUSH2 0x99C JUMPI POP DUP4 PUSH1 0x1 SWAP6 SWAP7 SWAP8 SWAP9 LT PUSH2 0x984 JUMPI JUMPDEST POP POP POP DUP2 SHL ADD SWAP1 SSTORE PUSH2 0x3EC JUMP JUMPDEST ADD MLOAD PUSH0 NOT PUSH1 0xF8 DUP5 PUSH1 0x3 SHL AND SHR NOT AND SWAP1 SSTORE DUP6 DUP1 DUP1 PUSH2 0x977 JUMP JUMPDEST SWAP2 SWAP3 PUSH1 0x20 PUSH1 0x1 DUP2 SWAP3 DUP7 DUP6 ADD MLOAD DUP2 SSTORE ADD SWAP5 ADD SWAP3 ADD PUSH2 0x962 JUMP JUMPDEST DUP3 PUSH0 MSTORE PUSH1 0x20 PUSH0 KECCAK256 PUSH1 0x1F DUP4 ADD PUSH1 0x5 SHR DUP2 ADD SWAP2 PUSH1 0x20 DUP5 LT PUSH2 0x9EF JUMPI JUMPDEST PUSH1 0x1F ADD PUSH1 0x5 SHR ADD SWAP1 JUMPDEST DUP2 DUP2 LT PUSH2 0x9E4 JUMPI POP PUSH2 0x3BC JUMP JUMPDEST PUSH0 DUP2 SSTORE PUSH1 0x1 ADD PUSH2 0x9D7 JUMP JUMPDEST SWAP1 SWAP2 POP DUP2 SWAP1 PUSH2 0x9CE JUMP JUMPDEST PUSH1 0x40 MLOAD PUSH3 0x461BCD PUSH1 0xE5 SHL DUP2 MSTORE PUSH1 0x20 PUSH1 0x4 DUP3 ADD MSTORE PUSH1 0x24 DUP1 DUP3 ADD MSTORE PUSH32 0x4F6E6C7920646F63746F72732063616E20757064617465206170706F696E746D PUSH1 0x44 DUP3 ADD MSTORE PUSH4 0x656E7473 PUSH1 0xE0 SHL PUSH1 0x64 DUP3 ADD MSTORE PUSH1 0x84 SWAP1 REVERT JUMPDEST CALLVALUE PUSH2 0x195 JUMPI PUSH0 CALLDATASIZE PUSH1 0x3 NOT ADD SLT PUSH2 0x195 JUMPI PUSH1 0x20 PUSH1 0xB SLOAD PUSH1 0x40 MLOAD SWAP1 DUP2 MSTORE RETURN JUMPDEST CALLVALUE PUSH2 0x195 JUMPI PUSH0 CALLDATASIZE PUSH1 0x3 NOT ADD SLT PUSH2 0x195 JUMPI PUSH1 0x20 PUSH1 0xE SLOAD PUSH1 0x40 MLOAD SWAP1 DUP2 MSTORE RETURN JUMPDEST CALLVALUE PUSH2 0x195 JUMPI PUSH1 0x20 CALLDATASIZE PUSH1 0x3 NOT ADD SLT PUSH2 0x195 JUMPI PUSH1 0x1 PUSH1 0x1 PUSH1 0xA0 SHL SUB PUSH2 0xAA5 PUSH2 0x5156 JUMP JUMPDEST AND PUSH0 MSTORE PUSH1 0x4 PUSH1 0x20 MSTORE PUSH1 0x20 PUSH2 0x1C0 PUSH1 0x40 PUSH0 KECCAK256 PUSH1 0xE PUSH1 0x40 MLOAD SWAP2 PUSH2 0xAC5 DUP4 PUSH2 0x516C JUMP JUMPDEST PUSH2 0xACE DUP2 PUSH2 0x5398 JUMP JUMPDEST DUP4 MSTORE PUSH2 0xADC PUSH1 0x1 DUP3 ADD PUSH2 0x5398 JUMP JUMPDEST DUP6 DUP5 ADD MSTORE PUSH2 0xAEC PUSH1 0x2 DUP3 ADD PUSH2 0x5398 JUMP JUMPDEST PUSH1 0x40 DUP5 ADD MSTORE PUSH2 0xAFD PUSH1 0x3 DUP3 ADD PUSH2 0x5398 JUMP JUMPDEST PUSH1 0x60 DUP5 ADD MSTORE PUSH2 0xB0E PUSH1 0x4 DUP3 ADD PUSH2 0x5398 JUMP JUMPDEST PUSH1 0x80 DUP5 ADD MSTORE PUSH2 0xB1F PUSH1 0x5 DUP3 ADD PUSH2 0x5398 JUMP JUMPDEST PUSH1 0xA0 DUP5 ADD MSTORE PUSH2 0xB30 PUSH1 0x6 DUP3 ADD PUSH2 0x5398 JUMP JUMPDEST PUSH1 0xC0 DUP5 ADD MSTORE PUSH2 0xB41 PUSH1 0x7 DUP3 ADD PUSH2 0x5398 JUMP JUMPDEST PUSH1 0xE0 DUP5 ADD MSTORE PUSH2 0xB52 PUSH1 0x8 DUP3 ADD PUSH2 0x5398 JUMP JUMPDEST PUSH2 0x100 DUP5 ADD MSTORE PUSH2 0xB64 PUSH1 0x9 DUP3 ADD PUSH2 0x5398 JUMP JUMPDEST PUSH2 0x120 DUP5 ADD MSTORE PUSH2 0xB76 PUSH1 0xA DUP3 ADD PUSH2 0x5398 JUMP JUMPDEST PUSH2 0x140 DUP5 ADD MSTORE PUSH2 0xB88 PUSH1 0xB DUP3 ADD PUSH2 0x5398 JUMP JUMPDEST PUSH2 0x160 DUP5 ADD MSTORE PUSH2 0xB9A PUSH1 0xC DUP3 ADD PUSH2 0x5398 JUMP JUMPDEST PUSH2 0x180 DUP5 ADD MSTORE PUSH1 0xD DUP2 ADD SLOAD PUSH1 0x1 PUSH1 0x1 PUSH1 0xA0 SHL SUB AND PUSH2 0x1A0 DUP5 ADD MSTORE ADD SLOAD SWAP2 ADD DUP2 SWAP1 MSTORE PUSH1 0x40 MLOAD SWAP1 DUP2 MSTORE RETURN JUMPDEST CALLVALUE PUSH2 0x195 JUMPI PUSH1 0x20 CALLDATASIZE PUSH1 0x3 NOT ADD SLT PUSH2 0x195 JUMPI PUSH1 0x4 CALLDATALOAD PUSH1 0x1 SLOAD DUP2 LT ISZERO PUSH2 0x195 JUMPI PUSH1 0x1 SLOAD DUP2 LT ISZERO PUSH2 0x235 JUMPI PUSH1 0x1 PUSH0 MSTORE PUSH32 0xB10E2D527612073B26EECDFD717E6A320CF44B4AFAC2B0732D9FCBE2B7FA0CF6 ADD SLOAD PUSH1 0x40 MLOAD PUSH1 0x1 PUSH1 0x1 PUSH1 0xA0 SHL SUB SWAP1 SWAP2 AND DUP2 MSTORE PUSH1 0x20 SWAP1 RETURN JUMPDEST CALLVALUE PUSH2 0x195 JUMPI PUSH0 CALLDATASIZE PUSH1 0x3 NOT ADD SLT PUSH2 0x195 JUMPI PUSH1 0x40 MLOAD DUP1 PUSH1 0x20 PUSH1 0x2 SLOAD SWAP2 DUP3 DUP2 MSTORE ADD SWAP1 PUSH1 0x2 PUSH0 MSTORE PUSH32 0x405787FA12A823E0F2B7631CC41B3BA8828B3321CA811111FA75CD3AA3BB5ACE SWAP1 PUSH0 JUMPDEST DUP2 DUP2 LT PUSH2 0xC91 JUMPI PUSH2 0x357 DUP6 PUSH2 0xC85 DUP2 DUP8 SUB DUP3 PUSH2 0x51A4 JUMP JUMPDEST PUSH1 0x40 MLOAD SWAP2 DUP3 SWAP2 DUP3 PUSH2 0x5471 JUMP JUMPDEST DUP3 SLOAD PUSH1 0x1 PUSH1 0x1 PUSH1 0xA0 SHL SUB AND DUP5 MSTORE PUSH1 0x20 SWAP1 SWAP4 ADD SWAP3 PUSH1 0x1 SWAP3 DUP4 ADD SWAP3 ADD PUSH2 0xC6E JUMP JUMPDEST CALLVALUE PUSH2 0x195 JUMPI PUSH2 0xCBE CALLDATASIZE PUSH2 0x5534 JUMP JUMPDEST SWAP5 SWAP6 SWAP4 SWAP1 SWAP6 SWAP3 SWAP2 SWAP3 CALLER PUSH0 MSTORE PUSH1 0x9 PUSH1 0x20 MSTORE PUSH2 0xCDE PUSH1 0xFF PUSH1 0x40 PUSH0 KECCAK256 SLOAD AND PUSH2 0x5676 JUMP JUMPDEST CALLER PUSH0 MSTORE PUSH1 0x5 PUSH1 0x20 MSTORE PUSH1 0x40 PUSH0 KECCAK256 SWAP5 DUP1 MLOAD SWAP1 PUSH1 0x1 PUSH1 0x1 PUSH1 0x40 SHL SUB DUP3 GT PUSH2 0x668 JUMPI DUP2 SWAP1 PUSH2 0xD08 DUP9 SLOAD PUSH2 0x5360 JUMP JUMPDEST PUSH1 0x1F DUP2 GT PUSH2 0x13D8 JUMPI JUMPDEST POP PUSH1 0x20 SWAP1 PUSH1 0x1F DUP4 GT PUSH1 0x1 EQ PUSH2 0x1375 JUMPI PUSH0 SWAP3 PUSH2 0x136A JUMPI JUMPDEST POP POP DUP2 PUSH1 0x1 SHL SWAP2 PUSH0 NOT SWAP1 PUSH1 0x3 SHL SHR NOT AND OR DUP6 SSTORE JUMPDEST DUP1 MLOAD PUSH1 0x1 DUP7 ADD SWAP2 PUSH1 0x1 PUSH1 0x1 PUSH1 0x40 SHL SUB DUP3 GT PUSH2 0x668 JUMPI DUP2 SWAP1 PUSH2 0xD5C DUP5 SLOAD PUSH2 0x5360 JUMP JUMPDEST PUSH1 0x1F DUP2 GT PUSH2 0x131A JUMPI JUMPDEST POP PUSH1 0x20 SWAP1 PUSH1 0x1F DUP4 GT PUSH1 0x1 EQ PUSH2 0x12B7 JUMPI PUSH0 SWAP3 PUSH2 0x12AC JUMPI JUMPDEST POP POP DUP2 PUSH1 0x1 SHL SWAP2 PUSH0 NOT SWAP1 PUSH1 0x3 SHL SHR NOT AND OR SWAP1 SSTORE JUMPDEST DUP1 MLOAD PUSH1 0x2 DUP6 ADD SWAP2 PUSH1 0x1 PUSH1 0x1 PUSH1 0x40 SHL SUB DUP3 GT PUSH2 0x668 JUMPI DUP2 SWAP1 PUSH2 0xDB0 DUP5 SLOAD PUSH2 0x5360 JUMP JUMPDEST PUSH1 0x1F DUP2 GT PUSH2 0x125C JUMPI JUMPDEST POP PUSH1 0x20 SWAP1 PUSH1 0x1F DUP4 GT PUSH1 0x1 EQ PUSH2 0x11F9 JUMPI PUSH0 SWAP3 PUSH2 0x11EE JUMPI JUMPDEST POP POP DUP2 PUSH1 0x1 SHL SWAP2 PUSH0 NOT SWAP1 PUSH1 0x3 SHL SHR NOT AND OR SWAP1 SSTORE JUMPDEST DUP1 MLOAD PUSH1 0x3 DUP5 ADD SWAP2 PUSH1 0x1 PUSH1 0x1 PUSH1 0x40 SHL SUB DUP3 GT PUSH2 0x668 JUMPI DUP2 SWAP1 PUSH2 0xE04 DUP5 SLOAD PUSH2 0x5360 JUMP JUMPDEST PUSH1 0x1F DUP2 GT PUSH2 0x119E JUMPI JUMPDEST POP PUSH1 0x20 SWAP1 PUSH1 0x1F DUP4 GT PUSH1 0x1 EQ PUSH2 0x113B JUMPI PUSH0 SWAP3 PUSH2 0x1130 JUMPI JUMPDEST POP POP DUP2 PUSH1 0x1 SHL SWAP2 PUSH0 NOT SWAP1 PUSH1 0x3 SHL SHR NOT AND OR SWAP1 SSTORE JUMPDEST DUP1 MLOAD PUSH1 0x4 DUP4 ADD SWAP2 PUSH1 0x1 PUSH1 0x1 PUSH1 0x40 SHL SUB DUP3 GT PUSH2 0x668 JUMPI DUP2 SWAP1 PUSH2 0xE58 DUP5 SLOAD PUSH2 0x5360 JUMP JUMPDEST PUSH1 0x1F DUP2 GT PUSH2 0x10E0 JUMPI JUMPDEST POP PUSH1 0x20 SWAP1 PUSH1 0x1F DUP4 GT PUSH1 0x1 EQ PUSH2 0x107D JUMPI PUSH0 SWAP3 PUSH2 0x1072 JUMPI JUMPDEST POP POP DUP2 PUSH1 0x1 SHL SWAP2 PUSH0 NOT SWAP1 PUSH1 0x3 SHL SHR NOT AND OR SWAP1 SSTORE JUMPDEST PUSH1 0x5 DUP2 ADD DUP4 MLOAD PUSH1 0x1 PUSH1 0x1 PUSH1 0x40 SHL SUB DUP2 GT PUSH2 0x668 JUMPI PUSH2 0xEA9 DUP3 SLOAD PUSH2 0x5360 JUMP JUMPDEST PUSH1 0x1F DUP2 GT PUSH2 0x102D JUMPI JUMPDEST POP PUSH1 0x20 PUSH1 0x1F DUP3 GT PUSH1 0x1 EQ PUSH2 0xFC8 JUMPI DUP2 SWAP1 PUSH1 0x6 SWAP6 SWAP7 PUSH0 SWAP3 PUSH2 0xFBD JUMPI JUMPDEST POP POP DUP2 PUSH1 0x1 SHL SWAP2 PUSH0 NOT SWAP1 PUSH1 0x3 SHL SHR NOT AND OR SWAP1 SSTORE JUMPDEST ADD DUP2 MLOAD PUSH1 0x1 PUSH1 0x1 PUSH1 0x40 SHL SUB DUP2 GT PUSH2 0x668 JUMPI PUSH2 0xEFC DUP3 SLOAD PUSH2 0x5360 JUMP JUMPDEST PUSH1 0x1F DUP2 GT PUSH2 0xF78 JUMPI JUMPDEST POP PUSH1 0x20 SWAP3 PUSH1 0x1F DUP3 GT PUSH1 0x1 EQ PUSH2 0xF35 JUMPI SWAP3 DUP2 SWAP3 SWAP4 PUSH0 SWAP3 PUSH2 0x5BC JUMPI POP POP PUSH0 NOT PUSH1 0x3 DUP4 SWAP1 SHL SHR NOT AND PUSH1 0x1 SWAP2 SWAP1 SWAP2 SHL OR SWAP1 SSTORE STOP JUMPDEST PUSH1 0x1F NOT DUP3 AND SWAP4 DUP4 PUSH0 MSTORE DUP1 PUSH0 KECCAK256 SWAP2 PUSH0 JUMPDEST DUP7 DUP2 LT PUSH2 0xF60 JUMPI POP DUP4 PUSH1 0x1 SWAP6 SWAP7 LT PUSH2 0x5F3 JUMPI POP POP POP DUP2 SHL ADD SWAP1 SSTORE STOP JUMPDEST SWAP2 SWAP3 PUSH1 0x20 PUSH1 0x1 DUP2 SWAP3 DUP7 DUP6 ADD MLOAD DUP2 SSTORE ADD SWAP5 ADD SWAP3 ADD PUSH2 0xF44 JUMP JUMPDEST DUP3 PUSH0 MSTORE PUSH1 0x20 PUSH0 KECCAK256 PUSH1 0x1F DUP4 ADD PUSH1 0x5 SHR DUP2 ADD SWAP2 PUSH1 0x20 DUP5 LT PUSH2 0xFB3 JUMPI JUMPDEST PUSH1 0x1F ADD PUSH1 0x5 SHR ADD SWAP1 JUMPDEST DUP2 DUP2 LT PUSH2 0xFA8 JUMPI POP PUSH2 0xF05 JUMP JUMPDEST PUSH0 DUP2 SSTORE PUSH1 0x1 ADD PUSH2 0xF9B JUMP JUMPDEST SWAP1 SWAP2 POP DUP2 SWAP1 PUSH2 0xF92 JUMP JUMPDEST ADD MLOAD SWAP1 POP DUP7 DUP1 PUSH2 0xECD JUMP JUMPDEST PUSH1 0x1F NOT DUP3 AND SWAP6 DUP4 PUSH0 MSTORE DUP2 PUSH0 KECCAK256 SWAP7 PUSH0 JUMPDEST DUP2 DUP2 LT PUSH2 0x1015 JUMPI POP SWAP2 PUSH1 0x6 SWAP7 SWAP8 SWAP2 DUP5 PUSH1 0x1 SWAP6 SWAP5 LT PUSH2 0xFFD JUMPI JUMPDEST POP POP POP DUP2 SHL ADD SWAP1 SSTORE PUSH2 0xEE1 JUMP JUMPDEST ADD MLOAD PUSH0 NOT PUSH1 0xF8 DUP5 PUSH1 0x3 SHL AND SHR NOT AND SWAP1 SSTORE DUP7 DUP1 DUP1 PUSH2 0xFF0 JUMP JUMPDEST DUP4 DUP4 ADD MLOAD DUP10 SSTORE PUSH1 0x1 SWAP1 SWAP9 ADD SWAP8 PUSH1 0x20 SWAP4 DUP5 ADD SWAP4 ADD PUSH2 0xFD7 JUMP JUMPDEST DUP3 PUSH0 MSTORE PUSH1 0x20 PUSH0 KECCAK256 PUSH1 0x1F DUP4 ADD PUSH1 0x5 SHR DUP2 ADD SWAP2 PUSH1 0x20 DUP5 LT PUSH2 0x1068 JUMPI JUMPDEST PUSH1 0x1F ADD PUSH1 0x5 SHR ADD SWAP1 JUMPDEST DUP2 DUP2 LT PUSH2 0x105D JUMPI POP PUSH2 0xEB2 JUMP JUMPDEST PUSH0 DUP2 SSTORE PUSH1 0x1 ADD PUSH2 0x1050 JUMP JUMPDEST SWAP1 SWAP2 POP DUP2 SWAP1 PUSH2 0x1047 JUMP JUMPDEST ADD MLOAD SWAP1 POP DUP7 DUP1 PUSH2 0xE77 JUMP JUMPDEST PUSH0 DUP6 DUP2 MSTORE DUP3 DUP2 KECCAK256 SWAP4 POP PUSH1 0x1F NOT DUP6 AND SWAP1 JUMPDEST DUP2 DUP2 LT PUSH2 0x10C8 JUMPI POP SWAP1 DUP5 PUSH1 0x1 SWAP6 SWAP5 SWAP4 SWAP3 LT PUSH2 0x10B0 JUMPI JUMPDEST POP POP POP DUP2 SHL ADD SWAP1 SSTORE PUSH2 0xE8B JUMP JUMPDEST ADD MLOAD PUSH0 NOT PUSH1 0xF8 DUP5 PUSH1 0x3 SHL AND SHR NOT AND SWAP1 SSTORE DUP7 DUP1 DUP1 PUSH2 0x10A3 JUMP JUMPDEST SWAP3 SWAP4 PUSH1 0x20 PUSH1 0x1 DUP2 SWAP3 DUP8 DUP7 ADD MLOAD DUP2 SSTORE ADD SWAP6 ADD SWAP4 ADD PUSH2 0x108D JUMP JUMPDEST SWAP1 SWAP2 POP DUP4 PUSH0 MSTORE PUSH1 0x20 PUSH0 KECCAK256 PUSH1 0x1F DUP5 ADD PUSH1 0x5 SHR DUP2 ADD SWAP2 PUSH1 0x20 DUP6 LT PUSH2 0x1126 JUMPI JUMPDEST SWAP1 PUSH1 0x1F DUP6 SWAP5 SWAP4 SWAP3 ADD PUSH1 0x5 SHR ADD SWAP1 JUMPDEST DUP2 DUP2 LT PUSH2 0x1118 JUMPI POP PUSH2 0xE61 JUMP JUMPDEST PUSH0 DUP2 SSTORE DUP5 SWAP4 POP PUSH1 0x1 ADD PUSH2 0x110B JUMP JUMPDEST SWAP1 SWAP2 POP DUP2 SWAP1 PUSH2 0x10FD JUMP JUMPDEST ADD MLOAD SWAP1 POP DUP8 DUP1 PUSH2 0xE23 JUMP JUMPDEST PUSH0 DUP6 DUP2 MSTORE DUP3 DUP2 KECCAK256 SWAP4 POP PUSH1 0x1F NOT DUP6 AND SWAP1 JUMPDEST DUP2 DUP2 LT PUSH2 0x1186 JUMPI POP SWAP1 DUP5 PUSH1 0x1 SWAP6 SWAP5 SWAP4 SWAP3 LT PUSH2 0x116E JUMPI JUMPDEST POP POP POP DUP2 SHL ADD SWAP1 SSTORE PUSH2 0xE37 JUMP JUMPDEST ADD MLOAD PUSH0 NOT PUSH1 0xF8 DUP5 PUSH1 0x3 SHL AND SHR NOT AND SWAP1 SSTORE DUP8 DUP1 DUP1 PUSH2 0x1161 JUMP JUMPDEST SWAP3 SWAP4 PUSH1 0x20 PUSH1 0x1 DUP2 SWAP3 DUP8 DUP7 ADD MLOAD DUP2 SSTORE ADD SWAP6 ADD SWAP4 ADD PUSH2 0x114B JUMP JUMPDEST SWAP1 SWAP2 POP DUP4 PUSH0 MSTORE PUSH1 0x20 PUSH0 KECCAK256 PUSH1 0x1F DUP5 ADD PUSH1 0x5 SHR DUP2 ADD SWAP2 PUSH1 0x20 DUP6 LT PUSH2 0x11E4 JUMPI JUMPDEST SWAP1 PUSH1 0x1F DUP6 SWAP5 SWAP4 SWAP3 ADD PUSH1 0x5 SHR ADD SWAP1 JUMPDEST DUP2 DUP2 LT PUSH2 0x11D6 JUMPI POP PUSH2 0xE0D JUMP JUMPDEST PUSH0 DUP2 SSTORE DUP5 SWAP4 POP PUSH1 0x1 ADD PUSH2 0x11C9 JUMP JUMPDEST SWAP1 SWAP2 POP DUP2 SWAP1 PUSH2 0x11BB JUMP JUMPDEST ADD MLOAD SWAP1 POP DUP9 DUP1 PUSH2 0xDCF JUMP JUMPDEST PUSH0 DUP6 DUP2 MSTORE DUP3 DUP2 KECCAK256 SWAP4 POP PUSH1 0x1F NOT DUP6 AND SWAP1 JUMPDEST DUP2 DUP2 LT PUSH2 0x1244 JUMPI POP SWAP1 DUP5 PUSH1 0x1 SWAP6 SWAP5 SWAP4 SWAP3 LT PUSH2 0x122C JUMPI JUMPDEST POP POP POP DUP2 SHL ADD SWAP1 SSTORE PUSH2 0xDE3 JUMP JUMPDEST ADD MLOAD PUSH0 NOT PUSH1 0xF8 DUP5 PUSH1 0x3 SHL AND SHR NOT AND SWAP1 SSTORE DUP9 DUP1 DUP1 PUSH2 0x121F JUMP JUMPDEST SWAP3 SWAP4 PUSH1 0x20 PUSH1 0x1 DUP2 SWAP3 DUP8 DUP7 ADD MLOAD DUP2 SSTORE ADD SWAP6 ADD SWAP4 ADD PUSH2 0x1209 JUMP JUMPDEST SWAP1 SWAP2 POP DUP4 PUSH0 MSTORE PUSH1 0x20 PUSH0 KECCAK256 PUSH1 0x1F DUP5 ADD PUSH1 0x5 SHR DUP2 ADD SWAP2 PUSH1 0x20 DUP6 LT PUSH2 0x12A2 JUMPI JUMPDEST SWAP1 PUSH1 0x1F DUP6 SWAP5 SWAP4 SWAP3 ADD PUSH1 0x5 SHR ADD SWAP1 JUMPDEST DUP2 DUP2 LT PUSH2 0x1294 JUMPI POP PUSH2 0xDB9 JUMP JUMPDEST PUSH0 DUP2 SSTORE DUP5 SWAP4 POP PUSH1 0x1 ADD PUSH2 0x1287 JUMP JUMPDEST SWAP1 SWAP2 POP DUP2 SWAP1 PUSH2 0x1279 JUMP JUMPDEST ADD MLOAD SWAP1 POP DUP10 DUP1 PUSH2 0xD7B JUMP JUMPDEST PUSH0 DUP6 DUP2 MSTORE DUP3 DUP2 KECCAK256 SWAP4 POP PUSH1 0x1F NOT DUP6 AND SWAP1 JUMPDEST DUP2 DUP2 LT PUSH2 0x1302 JUMPI POP SWAP1 DUP5 PUSH1 0x1 SWAP6 SWAP5 SWAP4 SWAP3 LT PUSH2 0x12EA JUMPI JUMPDEST POP POP POP DUP2 SHL ADD SWAP1 SSTORE PUSH2 0xD8F JUMP JUMPDEST ADD MLOAD PUSH0 NOT PUSH1 0xF8 DUP5 PUSH1 0x3 SHL AND SHR NOT AND SWAP1 SSTORE DUP10 DUP1 DUP1 PUSH2 0x12DD JUMP JUMPDEST SWAP3 SWAP4 PUSH1 0x20 PUSH1 0x1 DUP2 SWAP3 DUP8 DUP7 ADD MLOAD DUP2 SSTORE ADD SWAP6 ADD SWAP4 ADD PUSH2 0x12C7 JUMP JUMPDEST SWAP1 SWAP2 POP DUP4 PUSH0 MSTORE PUSH1 0x20 PUSH0 KECCAK256 PUSH1 0x1F DUP5 ADD PUSH1 0x5 SHR DUP2 ADD SWAP2 PUSH1 0x20 DUP6 LT PUSH2 0x1360 JUMPI JUMPDEST SWAP1 PUSH1 0x1F DUP6 SWAP5 SWAP4 SWAP3 ADD PUSH1 0x5 SHR ADD SWAP1 JUMPDEST DUP2 DUP2 LT PUSH2 0x1352 JUMPI POP PUSH2 0xD65 JUMP JUMPDEST PUSH0 DUP2 SSTORE DUP5 SWAP4 POP PUSH1 0x1 ADD PUSH2 0x1345 JUMP JUMPDEST SWAP1 SWAP2 POP DUP2 SWAP1 PUSH2 0x1337 JUMP JUMPDEST ADD MLOAD SWAP1 POP DUP10 DUP1 PUSH2 0xD27 JUMP JUMPDEST PUSH0 DUP10 DUP2 MSTORE DUP3 DUP2 KECCAK256 SWAP4 POP PUSH1 0x1F NOT DUP6 AND SWAP1 JUMPDEST DUP2 DUP2 LT PUSH2 0x13C0 JUMPI POP SWAP1 DUP5 PUSH1 0x1 SWAP6 SWAP5 SWAP4 SWAP3 LT PUSH2 0x13A8 JUMPI JUMPDEST POP POP POP DUP2 SHL ADD DUP6 SSTORE PUSH2 0xD3B JUMP JUMPDEST ADD MLOAD PUSH0 NOT PUSH1 0xF8 DUP5 PUSH1 0x3 SHL AND SHR NOT AND SWAP1 SSTORE DUP10 DUP1 DUP1 PUSH2 0x139B JUMP JUMPDEST SWAP3 SWAP4 PUSH1 0x20 PUSH1 0x1 DUP2 SWAP3 DUP8 DUP7 ADD MLOAD DUP2 SSTORE ADD SWAP6 ADD SWAP4 ADD PUSH2 0x1385 JUMP JUMPDEST SWAP1 SWAP2 POP DUP8 PUSH0 MSTORE PUSH1 0x20 PUSH0 KECCAK256 PUSH1 0x1F DUP5 ADD PUSH1 0x5 SHR DUP2 ADD SWAP2 PUSH1 0x20 DUP6 LT PUSH2 0x141E JUMPI JUMPDEST SWAP1 PUSH1 0x1F DUP6 SWAP5 SWAP4 SWAP3 ADD PUSH1 0x5 SHR ADD SWAP1 JUMPDEST DUP2 DUP2 LT PUSH2 0x1410 JUMPI POP PUSH2 0xD11 JUMP JUMPDEST PUSH0 DUP2 SSTORE DUP5 SWAP4 POP PUSH1 0x1 ADD PUSH2 0x1403 JUMP JUMPDEST SWAP1 SWAP2 POP DUP2 SWAP1 PUSH2 0x13F5 JUMP JUMPDEST CALLVALUE PUSH2 0x195 JUMPI PUSH1 0x20 CALLDATASIZE PUSH1 0x3 NOT ADD SLT PUSH2 0x195 JUMPI PUSH2 0x1441 PUSH2 0x5156 JUMP JUMPDEST CALLER PUSH0 MSTORE PUSH1 0x7 PUSH1 0x20 MSTORE PUSH1 0x40 PUSH0 KECCAK256 SWAP1 PUSH1 0x1 DUP1 PUSH1 0xA0 SHL SUB AND PUSH0 MSTORE PUSH1 0x20 MSTORE PUSH1 0x40 PUSH0 KECCAK256 PUSH1 0xFF NOT DUP2 SLOAD AND SWAP1 SSTORE PUSH1 0x20 PUSH1 0x40 MLOAD PUSH1 0x1 DUP2 MSTORE RETURN JUMPDEST CALLVALUE PUSH2 0x195 JUMPI PUSH2 0x1A0 CALLDATASIZE PUSH1 0x3 NOT ADD SLT PUSH2 0x195 JUMPI PUSH1 0x4 CALLDATALOAD PUSH1 0x1 PUSH1 0x1 PUSH1 0x40 SHL SUB DUP2 GT PUSH2 0x195 JUMPI PUSH2 0x14A3 SWAP1 CALLDATASIZE SWAP1 PUSH1 0x4 ADD PUSH2 0x51C5 JUMP JUMPDEST PUSH1 0x24 CALLDATALOAD PUSH1 0x1 PUSH1 0x1 PUSH1 0x40 SHL SUB DUP2 GT PUSH2 0x195 JUMPI PUSH2 0x14C2 SWAP1 CALLDATASIZE SWAP1 PUSH1 0x4 ADD PUSH2 0x51C5 JUMP JUMPDEST PUSH1 0x44 CALLDATALOAD PUSH1 0x1 PUSH1 0x1 PUSH1 0x40 SHL SUB DUP2 GT PUSH2 0x195 JUMPI PUSH2 0x14E1 SWAP1 CALLDATASIZE SWAP1 PUSH1 0x4 ADD PUSH2 0x51C5 JUMP JUMPDEST PUSH1 0x64 CALLDATALOAD PUSH1 0x1 PUSH1 0x1 PUSH1 0x40 SHL SUB DUP2 GT PUSH2 0x195 JUMPI PUSH2 0x1500 SWAP1 CALLDATASIZE SWAP1 PUSH1 0x4 ADD PUSH2 0x51C5 JUMP JUMPDEST PUSH1 0x84 CALLDATALOAD PUSH1 0x1 PUSH1 0x1 PUSH1 0x40 SHL SUB DUP2 GT PUSH2 0x195 JUMPI PUSH2 0x151F SWAP1 CALLDATASIZE SWAP1 PUSH1 0x4 ADD PUSH2 0x51C5 JUMP JUMPDEST PUSH1 0xA4 CALLDATALOAD PUSH1 0x1 PUSH1 0x1 PUSH1 0x40 SHL SUB DUP2 GT PUSH2 0x195 JUMPI PUSH2 0x153E SWAP1 CALLDATASIZE SWAP1 PUSH1 0x4 ADD PUSH2 0x51C5 JUMP JUMPDEST PUSH1 0xC4 CALLDATALOAD PUSH1 0x1 PUSH1 0x1 PUSH1 0x40 SHL SUB DUP2 GT PUSH2 0x195 JUMPI PUSH2 0x155D SWAP1 CALLDATASIZE SWAP1 PUSH1 0x4 ADD PUSH2 0x51C5 JUMP JUMPDEST PUSH1 0xE4 CALLDATALOAD PUSH1 0x1 PUSH1 0x1 PUSH1 0x40 SHL SUB DUP2 GT PUSH2 0x195 JUMPI PUSH2 0x157C SWAP1 CALLDATASIZE SWAP1 PUSH1 0x4 ADD PUSH2 0x51C5 JUMP JUMPDEST SWAP1 PUSH2 0x104 CALLDATALOAD PUSH1 0x1 PUSH1 0x1 PUSH1 0x40 SHL SUB DUP2 GT PUSH2 0x195 JUMPI PUSH2 0x159D SWAP1 CALLDATASIZE SWAP1 PUSH1 0x4 ADD PUSH2 0x51C5 JUMP JUMPDEST SWAP3 PUSH2 0x124 CALLDATALOAD PUSH1 0x1 PUSH1 0x1 PUSH1 0x40 SHL SUB DUP2 GT PUSH2 0x195 JUMPI PUSH2 0x15BE SWAP1 CALLDATASIZE SWAP1 PUSH1 0x4 ADD PUSH2 0x51C5 JUMP JUMPDEST SWAP5 PUSH2 0x144 CALLDATALOAD PUSH1 0x1 PUSH1 0x1 PUSH1 0x40 SHL SUB DUP2 GT PUSH2 0x195 JUMPI PUSH2 0x15DF SWAP1 CALLDATASIZE SWAP1 PUSH1 0x4 ADD PUSH2 0x51C5 JUMP JUMPDEST SWAP7 PUSH2 0x164 CALLDATALOAD PUSH1 0x1 PUSH1 0x1 PUSH1 0x40 SHL SUB DUP2 GT PUSH2 0x195 JUMPI PUSH2 0x1600 SWAP1 CALLDATASIZE SWAP1 PUSH1 0x4 ADD PUSH2 0x51C5 JUMP JUMPDEST SWAP9 PUSH2 0x184 CALLDATALOAD PUSH1 0x1 PUSH1 0x1 PUSH1 0x40 SHL SUB DUP2 GT PUSH2 0x195 JUMPI PUSH2 0x1621 SWAP1 CALLDATASIZE SWAP1 PUSH1 0x4 ADD PUSH2 0x51C5 JUMP JUMPDEST SWAP11 CALLER PUSH0 MSTORE PUSH1 0x8 PUSH1 0x20 MSTORE PUSH1 0xFF PUSH1 0x40 PUSH0 KECCAK256 SLOAD AND PUSH2 0x2573 JUMPI PUSH1 0x40 MLOAD SWAP13 PUSH2 0x1643 DUP15 PUSH2 0x516C JUMP JUMPDEST DUP14 MSTORE PUSH1 0x20 DUP14 ADD MSTORE PUSH1 0x40 DUP13 ADD MSTORE PUSH1 0x60 DUP12 ADD MSTORE PUSH1 0x80 DUP11 ADD MSTORE PUSH1 0xA0 DUP10 ADD MSTORE PUSH1 0xC0 DUP9 ADD MSTORE PUSH1 0xE0 DUP8 ADD MSTORE PUSH2 0x100 DUP7 ADD MSTORE PUSH2 0x120 DUP6 ADD MSTORE PUSH2 0x140 DUP5 ADD MSTORE PUSH2 0x160 DUP4 ADD MSTORE PUSH2 0x180 DUP3 ADD SWAP1 DUP2 MSTORE CALLER PUSH2 0x1A0 DUP4 ADD MSTORE TIMESTAMP PUSH2 0x1C0 DUP4 ADD MSTORE CALLER PUSH0 MSTORE PUSH1 0x4 PUSH1 0x20 MSTORE PUSH1 0x40 PUSH0 KECCAK256 DUP3 MLOAD SWAP3 DUP4 MLOAD PUSH1 0x1 PUSH1 0x1 PUSH1 0x40 SHL SUB DUP2 GT PUSH2 0x668 JUMPI PUSH2 0x16BF DUP4 SLOAD PUSH2 0x5360 JUMP JUMPDEST PUSH1 0x1F DUP2 GT PUSH2 0x2532 JUMPI JUMPDEST POP PUSH1 0x20 PUSH1 0x1F DUP3 GT PUSH1 0x1 EQ PUSH2 0x24CE JUMPI DUP2 SWAP3 SWAP4 SWAP5 SWAP6 PUSH0 SWAP3 PUSH2 0x24C3 JUMPI JUMPDEST POP POP DUP2 PUSH1 0x1 SHL SWAP2 PUSH0 NOT SWAP1 PUSH1 0x3 SHL SHR NOT AND OR DUP3 SSTORE JUMPDEST PUSH1 0x1 DUP3 ADD PUSH1 0x20 DUP3 ADD MLOAD DUP1 MLOAD SWAP1 PUSH1 0x1 PUSH1 0x1 PUSH1 0x40 SHL SUB DUP3 GT PUSH2 0x668 JUMPI DUP2 SWAP1 PUSH2 0x171C DUP5 SLOAD PUSH2 0x5360 JUMP JUMPDEST PUSH1 0x1F DUP2 GT PUSH2 0x2473 JUMPI JUMPDEST POP PUSH1 0x20 SWAP1 PUSH1 0x1F DUP4 GT PUSH1 0x1 EQ PUSH2 0x2410 JUMPI PUSH0 SWAP3 PUSH2 0x2405 JUMPI JUMPDEST POP POP DUP2 PUSH1 0x1 SHL SWAP2 PUSH0 NOT SWAP1 PUSH1 0x3 SHL SHR NOT AND OR SWAP1 SSTORE JUMPDEST PUSH1 0x2 DUP3 ADD PUSH1 0x40 DUP3 ADD MLOAD DUP1 MLOAD SWAP1 PUSH1 0x1 PUSH1 0x1 PUSH1 0x40 SHL SUB DUP3 GT PUSH2 0x668 JUMPI DUP2 SWAP1 PUSH2 0x1775 DUP5 SLOAD PUSH2 0x5360 JUMP JUMPDEST PUSH1 0x1F DUP2 GT PUSH2 0x23B5 JUMPI JUMPDEST POP PUSH1 0x20 SWAP1 PUSH1 0x1F DUP4 GT PUSH1 0x1 EQ PUSH2 0x2352 JUMPI PUSH0 SWAP3 PUSH2 0x2347 JUMPI JUMPDEST POP POP DUP2 PUSH1 0x1 SHL SWAP2 PUSH0 NOT SWAP1 PUSH1 0x3 SHL SHR NOT AND OR SWAP1 SSTORE JUMPDEST PUSH1 0x3 DUP3 ADD PUSH1 0x60 DUP3 ADD MLOAD DUP1 MLOAD SWAP1 PUSH1 0x1 PUSH1 0x1 PUSH1 0x40 SHL SUB DUP3 GT PUSH2 0x668 JUMPI DUP2 SWAP1 PUSH2 0x17CE DUP5 SLOAD PUSH2 0x5360 JUMP JUMPDEST PUSH1 0x1F DUP2 GT PUSH2 0x22F7 JUMPI JUMPDEST POP PUSH1 0x20 SWAP1 PUSH1 0x1F DUP4 GT PUSH1 0x1 EQ PUSH2 0x2294 JUMPI PUSH0 SWAP3 PUSH2 0x2289 JUMPI JUMPDEST POP POP DUP2 PUSH1 0x1 SHL SWAP2 PUSH0 NOT SWAP1 PUSH1 0x3 SHL SHR NOT AND OR SWAP1 SSTORE JUMPDEST PUSH1 0x4 DUP3 ADD PUSH1 0x80 DUP3 ADD MLOAD DUP1 MLOAD SWAP1 PUSH1 0x1 PUSH1 0x1 PUSH1 0x40 SHL SUB DUP3 GT PUSH2 0x668 JUMPI DUP2 SWAP1 PUSH2 0x1827 DUP5 SLOAD PUSH2 0x5360 JUMP JUMPDEST PUSH1 0x1F DUP2 GT PUSH2 0x2239 JUMPI JUMPDEST POP PUSH1 0x20 SWAP1 PUSH1 0x1F DUP4 GT PUSH1 0x1 EQ PUSH2 0x21D6 JUMPI PUSH0 SWAP3 PUSH2 0x21CB JUMPI JUMPDEST POP POP DUP2 PUSH1 0x1 SHL SWAP2 PUSH0 NOT SWAP1 PUSH1 0x3 SHL SHR NOT AND OR SWAP1 SSTORE JUMPDEST PUSH1 0x5 DUP3 ADD PUSH1 0xA0 DUP3 ADD MLOAD DUP1 MLOAD SWAP1 PUSH1 0x1 PUSH1 0x1 PUSH1 0x40 SHL SUB DUP3 GT PUSH2 0x668 JUMPI DUP2 SWAP1 PUSH2 0x1880 DUP5 SLOAD PUSH2 0x5360 JUMP JUMPDEST PUSH1 0x1F DUP2 GT PUSH2 0x217B JUMPI JUMPDEST POP PUSH1 0x20 SWAP1 PUSH1 0x1F DUP4 GT PUSH1 0x1 EQ PUSH2 0x2118 JUMPI PUSH0 SWAP3 PUSH2 0x210D JUMPI JUMPDEST POP POP DUP2 PUSH1 0x1 SHL SWAP2 PUSH0 NOT SWAP1 PUSH1 0x3 SHL SHR NOT AND OR SWAP1 SSTORE JUMPDEST PUSH1 0x6 DUP3 ADD PUSH1 0xC0 DUP3 ADD MLOAD DUP1 MLOAD SWAP1 PUSH1 0x1 PUSH1 0x1 PUSH1 0x40 SHL SUB DUP3 GT PUSH2 0x668 JUMPI DUP2 SWAP1 PUSH2 0x18D9 DUP5 SLOAD PUSH2 0x5360 JUMP JUMPDEST PUSH1 0x1F DUP2 GT PUSH2 0x20BD JUMPI JUMPDEST POP PUSH1 0x20 SWAP1 PUSH1 0x1F DUP4 GT PUSH1 0x1 EQ PUSH2 0x205A JUMPI PUSH0 SWAP3 PUSH2 0x204F JUMPI JUMPDEST POP POP DUP2 PUSH1 0x1 SHL SWAP2 PUSH0 NOT SWAP1 PUSH1 0x3 SHL SHR NOT AND OR SWAP1 SSTORE JUMPDEST PUSH1 0x7 DUP3 ADD PUSH1 0xE0 DUP3 ADD MLOAD DUP1 MLOAD SWAP1 PUSH1 0x1 PUSH1 0x1 PUSH1 0x40 SHL SUB DUP3 GT PUSH2 0x668 JUMPI DUP2 SWAP1 PUSH2 0x1932 DUP5 SLOAD PUSH2 0x5360 JUMP JUMPDEST PUSH1 0x1F DUP2 GT PUSH2 0x1FFF JUMPI JUMPDEST POP PUSH1 0x20 SWAP1 PUSH1 0x1F DUP4 GT PUSH1 0x1 EQ PUSH2 0x1F9C JUMPI PUSH0 SWAP3 PUSH2 0x1F91 JUMPI JUMPDEST POP POP DUP2 PUSH1 0x1 SHL SWAP2 PUSH0 NOT SWAP1 PUSH1 0x3 SHL SHR NOT AND OR SWAP1 SSTORE JUMPDEST PUSH1 0x8 DUP3 ADD PUSH2 0x100 DUP3 ADD MLOAD DUP1 MLOAD SWAP1 PUSH1 0x1 PUSH1 0x1 PUSH1 0x40 SHL SUB DUP3 GT PUSH2 0x668 JUMPI DUP2 SWAP1 PUSH2 0x198C DUP5 SLOAD PUSH2 0x5360 JUMP JUMPDEST PUSH1 0x1F DUP2 GT PUSH2 0x1F41 JUMPI JUMPDEST POP PUSH1 0x20 SWAP1 PUSH1 0x1F DUP4 GT PUSH1 0x1 EQ PUSH2 0x1EDE JUMPI PUSH0 SWAP3 PUSH2 0x1ED3 JUMPI JUMPDEST POP POP DUP2 PUSH1 0x1 SHL SWAP2 PUSH0 NOT SWAP1 PUSH1 0x3 SHL SHR NOT AND OR SWAP1 SSTORE JUMPDEST PUSH1 0x9 DUP3 ADD PUSH2 0x120 DUP3 ADD MLOAD DUP1 MLOAD SWAP1 PUSH1 0x1 PUSH1 0x1 PUSH1 0x40 SHL SUB DUP3 GT PUSH2 0x668 JUMPI DUP2 SWAP1 PUSH2 0x19E6 DUP5 SLOAD PUSH2 0x5360 JUMP JUMPDEST PUSH1 0x1F DUP2 GT PUSH2 0x1E83 JUMPI JUMPDEST POP PUSH1 0x20 SWAP1 PUSH1 0x1F DUP4 GT PUSH1 0x1 EQ PUSH2 0x1E20 JUMPI PUSH0 SWAP3 PUSH2 0x1E15 JUMPI JUMPDEST POP POP DUP2 PUSH1 0x1 SHL SWAP2 PUSH0 NOT SWAP1 PUSH1 0x3 SHL SHR NOT AND OR SWAP1 SSTORE JUMPDEST PUSH1 0xA DUP3 ADD PUSH2 0x140 DUP3 ADD MLOAD DUP1 MLOAD SWAP1 PUSH1 0x1 PUSH1 0x1 PUSH1 0x40 SHL SUB DUP3 GT PUSH2 0x668 JUMPI DUP2 SWAP1 PUSH2 0x1A40 DUP5 SLOAD PUSH2 0x5360 JUMP JUMPDEST PUSH1 0x1F DUP2 GT PUSH2 0x1DC5 JUMPI JUMPDEST POP PUSH1 0x20 SWAP1 PUSH1 0x1F DUP4 GT PUSH1 0x1 EQ PUSH2 0x1D62 JUMPI PUSH0 SWAP3 PUSH2 0x1D57 JUMPI JUMPDEST POP POP DUP2 PUSH1 0x1 SHL SWAP2 PUSH0 NOT SWAP1 PUSH1 0x3 SHL SHR NOT AND OR SWAP1 SSTORE JUMPDEST PUSH1 0xB DUP3 ADD PUSH2 0x160 DUP3 ADD MLOAD DUP1 MLOAD SWAP1 PUSH1 0x1 PUSH1 0x1 PUSH1 0x40 SHL SUB DUP3 GT PUSH2 0x668 JUMPI DUP2 SWAP1 PUSH2 0x1A9A DUP5 SLOAD PUSH2 0x5360 JUMP JUMPDEST PUSH1 0x1F DUP2 GT PUSH2 0x1D07 JUMPI JUMPDEST POP PUSH1 0x20 SWAP1 PUSH1 0x1F DUP4 GT PUSH1 0x1 EQ PUSH2 0x1CA4 JUMPI PUSH0 SWAP3 PUSH2 0x1C99 JUMPI JUMPDEST POP POP DUP2 PUSH1 0x1 SHL SWAP2 PUSH0 NOT SWAP1 PUSH1 0x3 SHL SHR NOT AND OR SWAP1 SSTORE JUMPDEST PUSH1 0xC DUP3 ADD SWAP3 MLOAD SWAP3 DUP4 MLOAD PUSH1 0x1 PUSH1 0x1 PUSH1 0x40 SHL SUB DUP2 GT PUSH2 0x668 JUMPI PUSH2 0x1AEE DUP3 SLOAD PUSH2 0x5360 JUMP JUMPDEST PUSH1 0x1F DUP2 GT PUSH2 0x1C54 JUMPI JUMPDEST POP PUSH1 0x20 PUSH1 0x1F DUP3 GT PUSH1 0x1 EQ PUSH2 0x1BEA JUMPI SWAP1 DUP1 PUSH2 0x1C0 SWAP5 SWAP4 SWAP3 PUSH1 0xE SWAP7 SWAP8 PUSH0 SWAP3 PUSH2 0x1BDF JUMPI JUMPDEST POP POP DUP2 PUSH1 0x1 SHL SWAP2 PUSH0 NOT SWAP1 PUSH1 0x3 SHL SHR NOT AND OR SWAP1 SSTORE JUMPDEST PUSH2 0x1A0 DUP2 ADD MLOAD PUSH1 0xD DUP6 ADD DUP1 SLOAD PUSH1 0x1 PUSH1 0x1 PUSH1 0xA0 SHL SUB NOT AND PUSH1 0x1 PUSH1 0x1 PUSH1 0xA0 SHL SUB SWAP3 SWAP1 SWAP3 AND SWAP2 SWAP1 SWAP2 OR SWAP1 SSTORE ADD MLOAD SWAP2 ADD SSTORE PUSH1 0x1 SLOAD PUSH1 0x1 PUSH1 0x40 SHL DUP2 LT ISZERO PUSH2 0x668 JUMPI DUP1 PUSH1 0x1 PUSH2 0x1B7A SWAP3 ADD PUSH1 0x1 SSTORE PUSH1 0x1 PUSH2 0x545C JUMP JUMPDEST DUP2 SLOAD PUSH1 0x1 PUSH1 0x1 PUSH1 0xA0 SHL SUB PUSH1 0x3 SWAP3 SWAP1 SWAP3 SHL SWAP2 DUP3 SHL NOT AND CALLER SWAP2 DUP3 SWAP1 SHL OR SWAP1 SWAP2 SSTORE PUSH0 SWAP1 DUP2 MSTORE PUSH1 0x8 PUSH1 0x20 SWAP1 DUP2 MSTORE PUSH1 0x40 DUP1 DUP4 KECCAK256 DUP1 SLOAD PUSH1 0xFF NOT SWAP1 DUP2 AND PUSH1 0x1 SWAP1 DUP2 OR SWAP1 SWAP3 SSTORE PUSH1 0x7 DUP5 MSTORE DUP3 DUP6 KECCAK256 SWAP1 SWAP4 MSTORE SWAP3 KECCAK256 DUP1 SLOAD SWAP1 SWAP2 AND SWAP1 SWAP2 OR SWAP1 SSTORE PUSH1 0xB SLOAD PUSH2 0x1BDA SWAP1 PUSH2 0x5618 JUMP JUMPDEST PUSH1 0xB SSTORE STOP JUMPDEST ADD MLOAD SWAP1 POP DUP8 DUP1 PUSH2 0x1B18 JUMP JUMPDEST PUSH1 0x1F NOT DUP3 AND SWAP6 DUP4 PUSH0 MSTORE DUP2 PUSH0 KECCAK256 SWAP7 PUSH0 JUMPDEST DUP2 DUP2 LT PUSH2 0x1C3C JUMPI POP SWAP7 PUSH1 0x1 SWAP3 DUP5 SWAP3 PUSH2 0x1C0 SWAP8 SWAP7 SWAP6 PUSH1 0xE SWAP10 SWAP11 LT PUSH2 0x1C24 JUMPI JUMPDEST POP POP POP DUP2 SHL ADD SWAP1 SSTORE PUSH2 0x1B2C JUMP JUMPDEST ADD MLOAD PUSH0 NOT PUSH1 0xF8 DUP5 PUSH1 0x3 SHL AND SHR NOT AND SWAP1 SSTORE DUP8 DUP1 DUP1 PUSH2 0x1C17 JUMP JUMPDEST DUP4 DUP4 ADD MLOAD DUP10 SSTORE PUSH1 0x1 SWAP1 SWAP9 ADD SWAP8 PUSH1 0x20 SWAP4 DUP5 ADD SWAP4 ADD PUSH2 0x1BF9 JUMP JUMPDEST DUP3 PUSH0 MSTORE PUSH1 0x20 PUSH0 KECCAK256 PUSH1 0x1F DUP4 ADD PUSH1 0x5 SHR DUP2 ADD SWAP2 PUSH1 0x20 DUP5 LT PUSH2 0x1C8F JUMPI JUMPDEST PUSH1 0x1F ADD PUSH1 0x5 SHR ADD SWAP1 JUMPDEST DUP2 DUP2 LT PUSH2 0x1C84 JUMPI POP PUSH2 0x1AF7 JUMP JUMPDEST PUSH0 DUP2 SSTORE PUSH1 0x1 ADD PUSH2 0x1C77 JUMP JUMPDEST SWAP1 SWAP2 POP DUP2 SWAP1 PUSH2 0x1C6E JUMP JUMPDEST ADD MLOAD SWAP1 POP DUP7 DUP1 PUSH2 0x1AB9 JUMP JUMPDEST PUSH0 DUP6 DUP2 MSTORE DUP3 DUP2 KECCAK256 SWAP4 POP PUSH1 0x1F NOT DUP6 AND SWAP1 JUMPDEST DUP2 DUP2 LT PUSH2 0x1CEF JUMPI POP SWAP1 DUP5 PUSH1 0x1 SWAP6 SWAP5 SWAP4 SWAP3 LT PUSH2 0x1CD7 JUMPI JUMPDEST POP POP POP DUP2 SHL ADD SWAP1 SSTORE PUSH2 0x1ACD JUMP JUMPDEST ADD MLOAD PUSH0 NOT PUSH1 0xF8 DUP5 PUSH1 0x3 SHL AND SHR NOT AND SWAP1 SSTORE DUP7 DUP1 DUP1 PUSH2 0x1CCA JUMP JUMPDEST SWAP3 SWAP4 PUSH1 0x20 PUSH1 0x1 DUP2 SWAP3 DUP8 DUP7 ADD MLOAD DUP2 SSTORE ADD SWAP6 ADD SWAP4 ADD PUSH2 0x1CB4 JUMP JUMPDEST SWAP1 SWAP2 POP DUP4 PUSH0 MSTORE PUSH1 0x20 PUSH0 KECCAK256 PUSH1 0x1F DUP5 ADD PUSH1 0x5 SHR DUP2 ADD SWAP2 PUSH1 0x20 DUP6 LT PUSH2 0x1D4D JUMPI JUMPDEST SWAP1 PUSH1 0x1F DUP6 SWAP5 SWAP4 SWAP3 ADD PUSH1 0x5 SHR ADD SWAP1 JUMPDEST DUP2 DUP2 LT PUSH2 0x1D3F JUMPI POP PUSH2 0x1AA3 JUMP JUMPDEST PUSH0 DUP2 SSTORE DUP5 SWAP4 POP PUSH1 0x1 ADD PUSH2 0x1D32 JUMP JUMPDEST SWAP1 SWAP2 POP DUP2 SWAP1 PUSH2 0x1D24 JUMP JUMPDEST ADD MLOAD SWAP1 POP DUP7 DUP1 PUSH2 0x1A5F JUMP JUMPDEST PUSH0 DUP6 DUP2 MSTORE DUP3 DUP2 KECCAK256 SWAP4 POP PUSH1 0x1F NOT DUP6 AND SWAP1 JUMPDEST DUP2 DUP2 LT PUSH2 0x1DAD JUMPI POP SWAP1 DUP5 PUSH1 0x1 SWAP6 SWAP5 SWAP4 SWAP3 LT PUSH2 0x1D95 JUMPI JUMPDEST POP POP POP DUP2 SHL ADD SWAP1 SSTORE PUSH2 0x1A73 JUMP JUMPDEST ADD MLOAD PUSH0 NOT PUSH1 0xF8 DUP5 PUSH1 0x3 SHL AND SHR NOT AND SWAP1 SSTORE DUP7 DUP1 DUP1 PUSH2 0x1D88 JUMP JUMPDEST SWAP3 SWAP4 PUSH1 0x20 PUSH1 0x1 DUP2 SWAP3 DUP8 DUP7 ADD MLOAD DUP2 SSTORE ADD SWAP6 ADD SWAP4 ADD PUSH2 0x1D72 JUMP JUMPDEST SWAP1 SWAP2 POP DUP4 PUSH0 MSTORE PUSH1 0x20 PUSH0 KECCAK256 PUSH1 0x1F DUP5 ADD PUSH1 0x5 SHR DUP2 ADD SWAP2 PUSH1 0x20 DUP6 LT PUSH2 0x1E0B JUMPI JUMPDEST SWAP1 PUSH1 0x1F DUP6 SWAP5 SWAP4 SWAP3 ADD PUSH1 0x5 SHR ADD SWAP1 JUMPDEST DUP2 DUP2 LT PUSH2 0x1DFD JUMPI POP PUSH2 0x1A49 JUMP JUMPDEST PUSH0 DUP2 SSTORE DUP5 SWAP4 POP PUSH1 0x1 ADD PUSH2 0x1DF0 JUMP JUMPDEST SWAP1 SWAP2 POP DUP2 SWAP1 PUSH2 0x1DE2 JUMP JUMPDEST ADD MLOAD SWAP1 POP DUP7 DUP1 PUSH2 0x1A05 JUMP JUMPDEST PUSH0 DUP6 DUP2 MSTORE DUP3 DUP2 KECCAK256 SWAP4 POP PUSH1 0x1F NOT DUP6 AND SWAP1 JUMPDEST DUP2 DUP2 LT PUSH2 0x1E6B JUMPI POP SWAP1 DUP5 PUSH1 0x1 SWAP6 SWAP5 SWAP4 SWAP3 LT PUSH2 0x1E53 JUMPI JUMPDEST POP POP POP DUP2 SHL ADD SWAP1 SSTORE PUSH2 0x1A19 JUMP JUMPDEST ADD MLOAD PUSH0 NOT PUSH1 0xF8 DUP5 PUSH1 0x3 SHL AND SHR NOT AND SWAP1 SSTORE DUP7 DUP1 DUP1 PUSH2 0x1E46 JUMP JUMPDEST SWAP3 SWAP4 PUSH1 0x20 PUSH1 0x1 DUP2 SWAP3 DUP8 DUP7 ADD MLOAD DUP2 SSTORE ADD SWAP6 ADD SWAP4 ADD PUSH2 0x1E30 JUMP JUMPDEST SWAP1 SWAP2 POP DUP4 PUSH0 MSTORE PUSH1 0x20 PUSH0 KECCAK256 PUSH1 0x1F DUP5 ADD PUSH1 0x5 SHR DUP2 ADD SWAP2 PUSH1 0x20 DUP6 LT PUSH2 0x1EC9 JUMPI JUMPDEST SWAP1 PUSH1 0x1F DUP6 SWAP5 SWAP4 SWAP3 ADD PUSH1 0x5 SHR ADD SWAP1 JUMPDEST DUP2 DUP2 LT PUSH2 0x1EBB JUMPI POP PUSH2 0x19EF JUMP JUMPDEST PUSH0 DUP2 SSTORE DUP5 SWAP4 POP PUSH1 0x1 ADD PUSH2 0x1EAE JUMP JUMPDEST SWAP1 SWAP2 POP DUP2 SWAP1 PUSH2 0x1EA0 JUMP JUMPDEST ADD MLOAD SWAP1 POP DUP7 DUP1 PUSH2 0x19AB JUMP JUMPDEST PUSH0 DUP6 DUP2 MSTORE DUP3 DUP2 KECCAK256 SWAP4 POP PUSH1 0x1F NOT DUP6 AND SWAP1 JUMPDEST DUP2 DUP2 LT PUSH2 0x1F29 JUMPI POP SWAP1 DUP5 PUSH1 0x1 SWAP6 SWAP5 SWAP4 SWAP3 LT PUSH2 0x1F11 JUMPI JUMPDEST POP POP POP DUP2 SHL ADD SWAP1 SSTORE PUSH2 0x19BF JUMP JUMPDEST ADD MLOAD PUSH0 NOT PUSH1 0xF8 DUP5 PUSH1 0x3 SHL AND SHR NOT AND SWAP1 SSTORE DUP7 DUP1 DUP1 PUSH2 0x1F04 JUMP JUMPDEST SWAP3 SWAP4 PUSH1 0x20 PUSH1 0x1 DUP2 SWAP3 DUP8 DUP7 ADD MLOAD DUP2 SSTORE ADD SWAP6 ADD SWAP4 ADD PUSH2 0x1EEE JUMP JUMPDEST SWAP1 SWAP2 POP DUP4 PUSH0 MSTORE PUSH1 0x20 PUSH0 KECCAK256 PUSH1 0x1F DUP5 ADD PUSH1 0x5 SHR DUP2 ADD SWAP2 PUSH1 0x20 DUP6 LT PUSH2 0x1F87 JUMPI JUMPDEST SWAP1 PUSH1 0x1F DUP6 SWAP5 SWAP4 SWAP3 ADD PUSH1 0x5 SHR ADD SWAP1 JUMPDEST DUP2 DUP2 LT PUSH2 0x1F79 JUMPI POP PUSH2 0x1995 JUMP JUMPDEST PUSH0 DUP2 SSTORE DUP5 SWAP4 POP PUSH1 0x1 ADD PUSH2 0x1F6C JUMP JUMPDEST SWAP1 SWAP2 POP DUP2 SWAP1 PUSH2 0x1F5E JUMP JUMPDEST ADD MLOAD SWAP1 POP DUP7 DUP1 PUSH2 0x1951 JUMP JUMPDEST PUSH0 DUP6 DUP2 MSTORE DUP3 DUP2 KECCAK256 SWAP4 POP PUSH1 0x1F NOT DUP6 AND SWAP1 JUMPDEST DUP2 DUP2 LT PUSH2 0x1FE7 JUMPI POP SWAP1 DUP5 PUSH1 0x1 SWAP6 SWAP5 SWAP4 SWAP3 LT PUSH2 0x1FCF JUMPI JUMPDEST POP POP POP DUP2 SHL ADD SWAP1 SSTORE PUSH2 0x1965 JUMP JUMPDEST ADD MLOAD PUSH0 NOT PUSH1 0xF8 DUP5 PUSH1 0x3 SHL AND SHR NOT AND SWAP1 SSTORE DUP7 DUP1 DUP1 PUSH2 0x1FC2 JUMP JUMPDEST SWAP3 SWAP4 PUSH1 0x20 PUSH1 0x1 DUP2 SWAP3 DUP8 DUP7 ADD MLOAD DUP2 SSTORE ADD SWAP6 ADD SWAP4 ADD PUSH2 0x1FAC JUMP JUMPDEST SWAP1 SWAP2 POP DUP4 PUSH0 MSTORE PUSH1 0x20 PUSH0 KECCAK256 PUSH1 0x1F DUP5 ADD PUSH1 0x5 SHR DUP2 ADD SWAP2 PUSH1 0x20 DUP6 LT PUSH2 0x2045 JUMPI JUMPDEST SWAP1 PUSH1 0x1F DUP6 SWAP5 SWAP4 SWAP3 ADD PUSH1 0x5 SHR ADD SWAP1 JUMPDEST DUP2 DUP2 LT PUSH2 0x2037 JUMPI POP PUSH2 0x193B JUMP JUMPDEST PUSH0 DUP2 SSTORE DUP5 SWAP4 POP PUSH1 0x1 ADD PUSH2 0x202A JUMP JUMPDEST SWAP1 SWAP2 POP DUP2 SWAP1 PUSH2 0x201C JUMP JUMPDEST ADD MLOAD SWAP1 POP DUP7 DUP1 PUSH2 0x18F8 JUMP JUMPDEST PUSH0 DUP6 DUP2 MSTORE DUP3 DUP2 KECCAK256 SWAP4 POP PUSH1 0x1F NOT DUP6 AND SWAP1 JUMPDEST DUP2 DUP2 LT PUSH2 0x20A5 JUMPI POP SWAP1 DUP5 PUSH1 0x1 SWAP6 SWAP5 SWAP4 SWAP3 LT PUSH2 0x208D JUMPI JUMPDEST POP POP POP DUP2 SHL ADD SWAP1 SSTORE PUSH2 0x190C JUMP JUMPDEST ADD MLOAD PUSH0 NOT PUSH1 0xF8 DUP5 PUSH1 0x3 SHL AND SHR NOT AND SWAP1 SSTORE DUP7 DUP1 DUP1 PUSH2 0x2080 JUMP JUMPDEST SWAP3 SWAP4 PUSH1 0x20 PUSH1 0x1 DUP2 SWAP3 DUP8 DUP7 ADD MLOAD DUP2 SSTORE ADD SWAP6 ADD SWAP4 ADD PUSH2 0x206A JUMP JUMPDEST SWAP1 SWAP2 POP DUP4 PUSH0 MSTORE PUSH1 0x20 PUSH0 KECCAK256 PUSH1 0x1F DUP5 ADD PUSH1 0x5 SHR DUP2 ADD SWAP2 PUSH1 0x20 DUP6 LT PUSH2 0x2103 JUMPI JUMPDEST SWAP1 PUSH1 0x1F DUP6 SWAP5 SWAP4 SWAP3 ADD PUSH1 0x5 SHR ADD SWAP1 JUMPDEST DUP2 DUP2 LT PUSH2 0x20F5 JUMPI POP PUSH2 0x18E2 JUMP JUMPDEST PUSH0 DUP2 SSTORE DUP5 SWAP4 POP PUSH1 0x1 ADD PUSH2 0x20E8 JUMP JUMPDEST SWAP1 SWAP2 POP DUP2 SWAP1 PUSH2 0x20DA JUMP JUMPDEST ADD MLOAD SWAP1 POP DUP7 DUP1 PUSH2 0x189F JUMP JUMPDEST PUSH0 DUP6 DUP2 MSTORE DUP3 DUP2 KECCAK256 SWAP4 POP PUSH1 0x1F NOT DUP6 AND SWAP1 JUMPDEST DUP2 DUP2 LT PUSH2 0x2163 JUMPI POP SWAP1 DUP5 PUSH1 0x1 SWAP6 SWAP5 SWAP4 SWAP3 LT PUSH2 0x214B JUMPI JUMPDEST POP POP POP DUP2 SHL ADD SWAP1 SSTORE PUSH2 0x18B3 JUMP JUMPDEST ADD MLOAD PUSH0 NOT PUSH1 0xF8 DUP5 PUSH1 0x3 SHL AND SHR NOT AND SWAP1 SSTORE DUP7 DUP1 DUP1 PUSH2 0x213E JUMP JUMPDEST SWAP3 SWAP4 PUSH1 0x20 PUSH1 0x1 DUP2 SWAP3 DUP8 DUP7 ADD MLOAD DUP2 SSTORE ADD SWAP6 ADD SWAP4 ADD PUSH2 0x2128 JUMP JUMPDEST SWAP1 SWAP2 POP DUP4 PUSH0 MSTORE PUSH1 0x20 PUSH0 KECCAK256 PUSH1 0x1F DUP5 ADD PUSH1 0x5 SHR DUP2 ADD SWAP2 PUSH1 0x20 DUP6 LT PUSH2 0x21C1 JUMPI JUMPDEST SWAP1 PUSH1 0x1F DUP6 SWAP5 SWAP4 SWAP3 ADD PUSH1 0x5 SHR ADD SWAP1 JUMPDEST DUP2 DUP2 LT PUSH2 0x21B3 JUMPI POP PUSH2 0x1889 JUMP JUMPDEST PUSH0 DUP2 SSTORE DUP5 SWAP4 POP PUSH1 0x1 ADD PUSH2 0x21A6 JUMP JUMPDEST SWAP1 SWAP2 POP DUP2 SWAP1 PUSH2 0x2198 JUMP JUMPDEST ADD MLOAD SWAP1 POP DUP7 DUP1 PUSH2 0x1846 JUMP JUMPDEST PUSH0 DUP6 DUP2 MSTORE DUP3 DUP2 KECCAK256 SWAP4 POP PUSH1 0x1F NOT DUP6 AND SWAP1 JUMPDEST DUP2 DUP2 LT PUSH2 0x2221 JUMPI POP SWAP1 DUP5 PUSH1 0x1 SWAP6 SWAP5 SWAP4 SWAP3 LT PUSH2 0x2209 JUMPI JUMPDEST POP POP POP DUP2 SHL ADD SWAP1 SSTORE PUSH2 0x185A JUMP JUMPDEST ADD MLOAD PUSH0 NOT PUSH1 0xF8 DUP5 PUSH1 0x3 SHL AND SHR NOT AND SWAP1 SSTORE DUP7 DUP1 DUP1 PUSH2 0x21FC JUMP JUMPDEST SWAP3 SWAP4 PUSH1 0x20 PUSH1 0x1 DUP2 SWAP3 DUP8 DUP7 ADD MLOAD DUP2 SSTORE ADD SWAP6 ADD SWAP4 ADD PUSH2 0x21E6 JUMP JUMPDEST SWAP1 SWAP2 POP DUP4 PUSH0 MSTORE PUSH1 0x20 PUSH0 KECCAK256 PUSH1 0x1F DUP5 ADD PUSH1 0x5 SHR DUP2 ADD SWAP2 PUSH1 0x20 DUP6 LT PUSH2 0x227F JUMPI JUMPDEST SWAP1 PUSH1 0x1F DUP6 SWAP5 SWAP4 SWAP3 ADD PUSH1 0x5 SHR ADD SWAP1 JUMPDEST DUP2 DUP2 LT PUSH2 0x2271 JUMPI POP PUSH2 0x1830 JUMP JUMPDEST PUSH0 DUP2 SSTORE DUP5 SWAP4 POP PUSH1 0x1 ADD PUSH2 0x2264 JUMP JUMPDEST SWAP1 SWAP2 POP DUP2 SWAP1 PUSH2 0x2256 JUMP JUMPDEST ADD MLOAD SWAP1 POP DUP7 DUP1 PUSH2 0x17ED JUMP JUMPDEST PUSH0 DUP6 DUP2 MSTORE DUP3 DUP2 KECCAK256 SWAP4 POP PUSH1 0x1F NOT DUP6 AND SWAP1 JUMPDEST DUP2 DUP2 LT PUSH2 0x22DF JUMPI POP SWAP1 DUP5 PUSH1 0x1 SWAP6 SWAP5 SWAP4 SWAP3 LT PUSH2 0x22C7 JUMPI JUMPDEST POP POP POP DUP2 SHL ADD SWAP1 SSTORE PUSH2 0x1801 JUMP JUMPDEST ADD MLOAD PUSH0 NOT PUSH1 0xF8 DUP5 PUSH1 0x3 SHL AND SHR NOT AND SWAP1 SSTORE DUP7 DUP1 DUP1 PUSH2 0x22BA JUMP JUMPDEST SWAP3 SWAP4 PUSH1 0x20 PUSH1 0x1 DUP2 SWAP3 DUP8 DUP7 ADD MLOAD DUP2 SSTORE ADD SWAP6 ADD SWAP4 ADD PUSH2 0x22A4 JUMP JUMPDEST SWAP1 SWAP2 POP DUP4 PUSH0 MSTORE PUSH1 0x20 PUSH0 KECCAK256 PUSH1 0x1F DUP5 ADD PUSH1 0x5 SHR DUP2 ADD SWAP2 PUSH1 0x20 DUP6 LT PUSH2 0x233D JUMPI JUMPDEST SWAP1 PUSH1 0x1F DUP6 SWAP5 SWAP4 SWAP3 ADD PUSH1 0x5 SHR ADD SWAP1 JUMPDEST DUP2 DUP2 LT PUSH2 0x232F JUMPI POP PUSH2 0x17D7 JUMP JUMPDEST PUSH0 DUP2 SSTORE DUP5 SWAP4 POP PUSH1 0x1 ADD PUSH2 0x2322 JUMP JUMPDEST SWAP1 SWAP2 POP DUP2 SWAP1 PUSH2 0x2314 JUMP JUMPDEST ADD MLOAD SWAP1 POP DUP7 DUP1 PUSH2 0x1794 JUMP JUMPDEST PUSH0 DUP6 DUP2 MSTORE DUP3 DUP2 KECCAK256 SWAP4 POP PUSH1 0x1F NOT DUP6 AND SWAP1 JUMPDEST DUP2 DUP2 LT PUSH2 0x239D JUMPI POP SWAP1 DUP5 PUSH1 0x1 SWAP6 SWAP5 SWAP4 SWAP3 LT PUSH2 0x2385 JUMPI JUMPDEST POP POP POP DUP2 SHL ADD SWAP1 SSTORE PUSH2 0x17A8 JUMP JUMPDEST ADD MLOAD PUSH0 NOT PUSH1 0xF8 DUP5 PUSH1 0x3 SHL AND SHR NOT AND SWAP1 SSTORE DUP7 DUP1 DUP1 PUSH2 0x2378 JUMP JUMPDEST SWAP3 SWAP4 PUSH1 0x20 PUSH1 0x1 DUP2 SWAP3 DUP8 DUP7 ADD MLOAD DUP2 SSTORE ADD SWAP6 ADD SWAP4 ADD PUSH2 0x2362 JUMP JUMPDEST SWAP1 SWAP2 POP DUP4 PUSH0 MSTORE PUSH1 0x20 PUSH0 KECCAK256 PUSH1 0x1F DUP5 ADD PUSH1 0x5 SHR DUP2 ADD SWAP2 PUSH1 0x20 DUP6 LT PUSH2 0x23FB JUMPI JUMPDEST SWAP1 PUSH1 0x1F DUP6 SWAP5 SWAP4 SWAP3 ADD PUSH1 0x5 SHR ADD SWAP1 JUMPDEST DUP2 DUP2 LT PUSH2 0x23ED JUMPI POP PUSH2 0x177E JUMP JUMPDEST PUSH0 DUP2 SSTORE DUP5 SWAP4 POP PUSH1 0x1 ADD PUSH2 0x23E0 JUMP JUMPDEST SWAP1 SWAP2 POP DUP2 SWAP1 PUSH2 0x23D2 JUMP JUMPDEST ADD MLOAD SWAP1 POP DUP7 DUP1 PUSH2 0x173B JUMP JUMPDEST PUSH0 DUP6 DUP2 MSTORE DUP3 DUP2 KECCAK256 SWAP4 POP PUSH1 0x1F NOT DUP6 AND SWAP1 JUMPDEST DUP2 DUP2 LT PUSH2 0x245B JUMPI POP SWAP1 DUP5 PUSH1 0x1 SWAP6 SWAP5 SWAP4 SWAP3 LT PUSH2 0x2443 JUMPI JUMPDEST POP POP POP DUP2 SHL ADD SWAP1 SSTORE PUSH2 0x174F JUMP JUMPDEST ADD MLOAD PUSH0 NOT PUSH1 0xF8 DUP5 PUSH1 0x3 SHL AND SHR NOT AND SWAP1 SSTORE DUP7 DUP1 DUP1 PUSH2 0x2436 JUMP JUMPDEST SWAP3 SWAP4 PUSH1 0x20 PUSH1 0x1 DUP2 SWAP3 DUP8 DUP7 ADD MLOAD DUP2 SSTORE ADD SWAP6 ADD SWAP4 ADD PUSH2 0x2420 JUMP JUMPDEST SWAP1 SWAP2 POP DUP4 PUSH0 MSTORE PUSH1 0x20 PUSH0 KECCAK256 PUSH1 0x1F DUP5 ADD PUSH1 0x5 SHR DUP2 ADD SWAP2 PUSH1 0x20 DUP6 LT PUSH2 0x24B9 JUMPI JUMPDEST SWAP1 PUSH1 0x1F DUP6 SWAP5 SWAP4 SWAP3 ADD PUSH1 0x5 SHR ADD SWAP1 JUMPDEST DUP2 DUP2 LT PUSH2 0x24AB JUMPI POP PUSH2 0x1725 JUMP JUMPDEST PUSH0 DUP2 SSTORE DUP5 SWAP4 POP PUSH1 0x1 ADD PUSH2 0x249E JUMP JUMPDEST SWAP1 SWAP2 POP DUP2 SWAP1 PUSH2 0x2490 JUMP JUMPDEST ADD MLOAD SWAP1 POP DUP6 DUP1 PUSH2 0x16E2 JUMP JUMPDEST DUP4 PUSH0 MSTORE DUP1 PUSH0 KECCAK256 SWAP1 PUSH0 JUMPDEST PUSH1 0x1F NOT DUP5 AND DUP2 LT PUSH2 0x251A JUMPI POP PUSH1 0x1 SWAP4 SWAP5 SWAP6 SWAP7 DUP4 PUSH1 0x1F NOT DUP2 AND LT PUSH2 0x2502 JUMPI JUMPDEST POP POP POP DUP2 SHL ADD DUP3 SSTORE PUSH2 0x16F6 JUMP JUMPDEST ADD MLOAD PUSH0 NOT PUSH1 0xF8 DUP5 PUSH1 0x3 SHL AND SHR NOT AND SWAP1 SSTORE DUP6 DUP1 DUP1 PUSH2 0x24F5 JUMP JUMPDEST SWAP1 SWAP2 PUSH1 0x20 PUSH1 0x1 DUP2 SWAP3 DUP6 DUP12 ADD MLOAD DUP2 SSTORE ADD SWAP4 ADD SWAP2 ADD PUSH2 0x24D7 JUMP JUMPDEST DUP4 PUSH0 MSTORE PUSH1 0x20 PUSH0 KECCAK256 PUSH1 0x1F DUP4 ADD PUSH1 0x5 SHR DUP2 ADD PUSH1 0x20 DUP5 LT PUSH2 0x256C JUMPI JUMPDEST PUSH1 0x1F DUP4 ADD PUSH1 0x5 SHR DUP3 ADD DUP2 LT PUSH2 0x2561 JUMPI POP POP PUSH2 0x16C8 JUMP JUMPDEST PUSH0 DUP2 SSTORE PUSH1 0x1 ADD PUSH2 0x254B JUMP JUMPDEST POP DUP1 PUSH2 0x254B JUMP JUMPDEST PUSH1 0x40 MLOAD PUSH3 0x461BCD PUSH1 0xE5 SHL DUP2 MSTORE PUSH1 0x20 PUSH1 0x4 DUP3 ADD MSTORE PUSH1 0x1C PUSH1 0x24 DUP3 ADD MSTORE PUSH32 0x416C7265616479206120726567697374657265642070617469656E7400000000 PUSH1 0x44 DUP3 ADD MSTORE PUSH1 0x64 SWAP1 REVERT JUMPDEST CALLVALUE PUSH2 0x195 JUMPI PUSH0 CALLDATASIZE PUSH1 0x3 NOT ADD SLT PUSH2 0x195 JUMPI PUSH1 0x40 MLOAD DUP1 PUSH1 0x20 PUSH1 0x3 SLOAD SWAP2 DUP3 DUP2 MSTORE ADD SWAP1 PUSH1 0x3 PUSH0 MSTORE PUSH32 0xC2575A0E9E593C00F959F8C92F12DB2869C3395A3B0502D05E2516446F71F85B SWAP1 PUSH0 JUMPDEST DUP2 DUP2 LT PUSH2 0x2616 JUMPI PUSH2 0x357 DUP6 PUSH2 0xC85 DUP2 DUP8 SUB DUP3 PUSH2 0x51A4 JUMP JUMPDEST DUP3 SLOAD PUSH1 0x1 PUSH1 0x1 PUSH1 0xA0 SHL SUB AND DUP5 MSTORE PUSH1 0x20 SWAP1 SWAP4 ADD SWAP3 PUSH1 0x1 SWAP3 DUP4 ADD SWAP3 ADD PUSH2 0x25FF JUMP JUMPDEST CALLVALUE PUSH2 0x195 JUMPI PUSH1 0x20 CALLDATASIZE PUSH1 0x3 NOT ADD SLT PUSH2 0x195 JUMPI PUSH1 0x1 PUSH1 0x1 PUSH1 0xA0 SHL SUB PUSH2 0x2656 PUSH2 0x5156 JUMP JUMPDEST AND PUSH0 MSTORE PUSH1 0x6 PUSH1 0x20 MSTORE PUSH1 0x40 PUSH0 KECCAK256 PUSH1 0x40 MLOAD PUSH2 0x266E DUP2 PUSH2 0x5188 JUMP JUMPDEST DUP2 SLOAD PUSH1 0x1 PUSH1 0x1 PUSH1 0xA0 SHL SUB SWAP1 DUP2 AND DUP3 MSTORE PUSH1 0x1 DUP4 ADD SLOAD AND PUSH1 0x20 DUP3 ADD MSTORE PUSH2 0x2694 PUSH1 0x2 DUP4 ADD PUSH2 0x5398 JUMP JUMPDEST PUSH1 0x40 DUP3 ADD SWAP1 DUP2 MSTORE SWAP2 PUSH2 0x26A8 PUSH1 0x3 DUP3 ADD PUSH2 0x5398 JUMP JUMPDEST PUSH1 0x60 DUP4 ADD SWAP1 DUP2 MSTORE SWAP1 PUSH2 0x26BC PUSH1 0x4 DUP3 ADD PUSH2 0x5398 JUMP JUMPDEST PUSH1 0x80 DUP5 ADD SWAP1 DUP2 MSTORE PUSH2 0x26CF PUSH1 0x5 DUP4 ADD PUSH2 0x5398 JUMP JUMPDEST PUSH1 0xA0 DUP6 ADD SWAP1 DUP2 MSTORE SWAP1 PUSH2 0x26E3 PUSH1 0x6 DUP5 ADD PUSH2 0x5398 JUMP JUMPDEST PUSH1 0xC0 DUP7 ADD SWAP1 DUP2 MSTORE PUSH2 0x26F6 PUSH1 0x7 DUP6 ADD PUSH2 0x5398 JUMP JUMPDEST SWAP4 PUSH1 0xE0 DUP8 ADD SWAP5 DUP6 MSTORE PUSH1 0x8 ADD SLOAD PUSH2 0x100 DUP8 ADD MSTORE PUSH1 0x1 PUSH1 0xA0 SHL PUSH1 0x1 SWAP1 SUB DUP7 MLOAD AND PUSH0 MSTORE PUSH1 0x5 PUSH1 0x20 MSTORE PUSH1 0x40 PUSH0 KECCAK256 SWAP6 PUSH1 0x40 MLOAD PUSH2 0x272C DUP2 PUSH2 0x5188 JUMP JUMPDEST PUSH2 0x2735 DUP9 PUSH2 0x5398 JUMP JUMPDEST DUP2 MSTORE PUSH2 0x2743 PUSH1 0x1 DUP10 ADD PUSH2 0x5398 JUMP JUMPDEST PUSH1 0x20 DUP3 ADD SWAP1 DUP2 MSTORE SWAP8 PUSH2 0x2757 PUSH1 0x2 DUP3 ADD PUSH2 0x5398 JUMP JUMPDEST PUSH1 0x40 DUP4 ADD MSTORE PUSH2 0x2768 PUSH1 0x3 DUP3 ADD PUSH2 0x5398 JUMP JUMPDEST PUSH1 0x60 DUP4 ADD MSTORE PUSH2 0x2779 PUSH1 0x4 DUP3 ADD PUSH2 0x5398 JUMP JUMPDEST PUSH1 0x80 DUP4 ADD MSTORE PUSH2 0x278A PUSH1 0x5 DUP3 ADD PUSH2 0x5398 JUMP JUMPDEST PUSH1 0xA0 DUP4 ADD MSTORE PUSH2 0x279B PUSH1 0x6 DUP3 ADD PUSH2 0x5398 JUMP JUMPDEST PUSH1 0xC0 DUP4 ADD MSTORE PUSH1 0x1 PUSH1 0xA0 SHL PUSH1 0x1 SWAP1 SUB PUSH1 0x7 DUP3 ADD SLOAD AND PUSH1 0xE0 DUP4 ADD MSTORE PUSH1 0x8 ADD SLOAD SWAP1 PUSH2 0x100 ADD MSTORE PUSH1 0x1 PUSH1 0xA0 SHL PUSH1 0x1 SWAP1 SUB SWAP1 MLOAD AND SWAP6 MLOAD SWAP7 MLOAD SWAP5 MLOAD SWAP1 MLOAD SWAP2 MLOAD SWAP3 MLOAD SWAP4 MLOAD SWAP5 PUSH1 0x40 MLOAD SWAP8 DUP9 SWAP8 DUP9 MSTORE PUSH1 0x20 DUP9 ADD PUSH2 0x100 SWAP1 MSTORE PUSH2 0x100 DUP9 ADD PUSH2 0x27F8 SWAP2 PUSH2 0x5438 JUMP JUMPDEST DUP8 DUP2 SUB PUSH1 0x40 DUP10 ADD MSTORE PUSH2 0x2809 SWAP2 PUSH2 0x5438 JUMP JUMPDEST DUP7 DUP2 SUB PUSH1 0x60 DUP9 ADD MSTORE PUSH2 0x281A SWAP2 PUSH2 0x5438 JUMP JUMPDEST DUP6 DUP2 SUB PUSH1 0x80 DUP8 ADD MSTORE PUSH2 0x282B SWAP2 PUSH2 0x5438 JUMP JUMPDEST DUP5 DUP2 SUB PUSH1 0xA0 DUP7 ADD MSTORE PUSH2 0x283C SWAP2 PUSH2 0x5438 JUMP JUMPDEST DUP4 DUP2 SUB PUSH1 0xC0 DUP6 ADD MSTORE PUSH2 0x284D SWAP2 PUSH2 0x5438 JUMP JUMPDEST DUP3 DUP2 SUB PUSH1 0xE0 DUP5 ADD MSTORE PUSH2 0x357 SWAP2 PUSH2 0x5438 JUMP JUMPDEST CALLVALUE PUSH2 0x195 JUMPI PUSH0 CALLDATASIZE PUSH1 0x3 NOT ADD SLT PUSH2 0x195 JUMPI PUSH0 SLOAD PUSH1 0x40 MLOAD PUSH1 0x1 PUSH1 0x1 PUSH1 0xA0 SHL SUB SWAP1 SWAP2 AND DUP2 MSTORE PUSH1 0x20 SWAP1 RETURN JUMPDEST CALLVALUE PUSH2 0x195 JUMPI PUSH2 0x2893 CALLDATASIZE PUSH2 0x5534 JUMP JUMPDEST SWAP5 SWAP6 SWAP4 SWAP1 SWAP6 SWAP3 SWAP2 SWAP3 CALLER PUSH0 MSTORE PUSH1 0x9 PUSH1 0x20 MSTORE PUSH1 0xFF PUSH1 0x40 PUSH0 KECCAK256 SLOAD AND PUSH2 0x309B JUMPI CALLER PUSH0 MSTORE PUSH1 0x5 PUSH1 0x20 MSTORE PUSH1 0x40 PUSH0 KECCAK256 SWAP5 DUP1 MLOAD SWAP1 PUSH1 0x1 PUSH1 0x1 PUSH1 0x40 SHL SUB DUP3 GT PUSH2 0x668 JUMPI DUP2 SWAP1 PUSH2 0x28D9 DUP9 SLOAD PUSH2 0x5360 JUMP JUMPDEST PUSH1 0x1F DUP2 GT PUSH2 0x304B JUMPI JUMPDEST POP PUSH1 0x20 SWAP1 PUSH1 0x1F DUP4 GT PUSH1 0x1 EQ PUSH2 0x2FE8 JUMPI PUSH0 SWAP3 PUSH2 0x2FDD JUMPI JUMPDEST POP POP DUP2 PUSH1 0x1 SHL SWAP2 PUSH0 NOT SWAP1 PUSH1 0x3 SHL SHR NOT AND OR DUP6 SSTORE JUMPDEST DUP1 MLOAD PUSH1 0x1 DUP7 ADD SWAP2 PUSH1 0x1 PUSH1 0x1 PUSH1 0x40 SHL SUB DUP3 GT PUSH2 0x668 JUMPI DUP2 SWAP1 PUSH2 0x292D DUP5 SLOAD PUSH2 0x5360 JUMP JUMPDEST PUSH1 0x1F DUP2 GT PUSH2 0x2F8D JUMPI JUMPDEST POP PUSH1 0x20 SWAP1 PUSH1 0x1F DUP4 GT PUSH1 0x1 EQ PUSH2 0x2F2A JUMPI PUSH0 SWAP3 PUSH2 0x2F1F JUMPI JUMPDEST POP POP DUP2 PUSH1 0x1 SHL SWAP2 PUSH0 NOT SWAP1 PUSH1 0x3 SHL SHR NOT AND OR SWAP1 SSTORE JUMPDEST DUP1 MLOAD PUSH1 0x2 DUP6 ADD SWAP2 PUSH1 0x1 PUSH1 0x1 PUSH1 0x40 SHL SUB DUP3 GT PUSH2 0x668 JUMPI DUP2 SWAP1 PUSH2 0x2981 DUP5 SLOAD PUSH2 0x5360 JUMP JUMPDEST PUSH1 0x1F DUP2 GT PUSH2 0x2ECF JUMPI JUMPDEST POP PUSH1 0x20 SWAP1 PUSH1 0x1F DUP4 GT PUSH1 0x1 EQ PUSH2 0x2E6C JUMPI PUSH0 SWAP3 PUSH2 0x2E61 JUMPI JUMPDEST POP POP DUP2 PUSH1 0x1 SHL SWAP2 PUSH0 NOT SWAP1 PUSH1 0x3 SHL SHR NOT AND OR SWAP1 SSTORE JUMPDEST DUP1 MLOAD PUSH1 0x3 DUP5 ADD SWAP2 PUSH1 0x1 PUSH1 0x1 PUSH1 0x40 SHL SUB DUP3 GT PUSH2 0x668 JUMPI DUP2 SWAP1 PUSH2 0x29D5 DUP5 SLOAD PUSH2 0x5360 JUMP JUMPDEST PUSH1 0x1F DUP2 GT PUSH2 0x2E11 JUMPI JUMPDEST POP PUSH1 0x20 SWAP1 PUSH1 0x1F DUP4 GT PUSH1 0x1 EQ PUSH2 0x2DAE JUMPI PUSH0 SWAP3 PUSH2 0x2DA3 JUMPI JUMPDEST POP POP DUP2 PUSH1 0x1 SHL SWAP2 PUSH0 NOT SWAP1 PUSH1 0x3 SHL SHR NOT AND OR SWAP1 SSTORE JUMPDEST DUP1 MLOAD PUSH1 0x4 DUP4 ADD SWAP2 PUSH1 0x1 PUSH1 0x1 PUSH1 0x40 SHL SUB DUP3 GT PUSH2 0x668 JUMPI DUP2 SWAP1 PUSH2 0x2A29 DUP5 SLOAD PUSH2 0x5360 JUMP JUMPDEST PUSH1 0x1F DUP2 GT PUSH2 0x2D53 JUMPI JUMPDEST POP PUSH1 0x20 SWAP1 PUSH1 0x1F DUP4 GT PUSH1 0x1 EQ PUSH2 0x2CF0 JUMPI PUSH0 SWAP3 PUSH2 0x2CE5 JUMPI JUMPDEST POP POP DUP2 PUSH1 0x1 SHL SWAP2 PUSH0 NOT SWAP1 PUSH1 0x3 SHL SHR NOT AND OR SWAP1 SSTORE JUMPDEST PUSH1 0x5 DUP2 ADD DUP4 MLOAD PUSH1 0x1 PUSH1 0x1 PUSH1 0x40 SHL SUB DUP2 GT PUSH2 0x668 JUMPI PUSH2 0x2A7A DUP3 SLOAD PUSH2 0x5360 JUMP JUMPDEST PUSH1 0x1F DUP2 GT PUSH2 0x2CA0 JUMPI JUMPDEST POP PUSH1 0x20 SWAP5 PUSH1 0x1F DUP3 GT PUSH1 0x1 EQ PUSH2 0x2C3F JUMPI SWAP5 DUP2 SWAP3 SWAP4 SWAP5 SWAP6 PUSH0 SWAP3 PUSH2 0x2C34 JUMPI JUMPDEST POP POP DUP2 PUSH1 0x1 SHL SWAP2 PUSH0 NOT SWAP1 PUSH1 0x3 SHL SHR NOT AND OR SWAP1 SSTORE JUMPDEST PUSH1 0x6 DUP2 ADD DUP3 MLOAD PUSH1 0x1 PUSH1 0x1 PUSH1 0x40 SHL SUB DUP2 GT PUSH2 0x668 JUMPI PUSH2 0x2AD1 DUP3 SLOAD PUSH2 0x5360 JUMP JUMPDEST PUSH1 0x1F DUP2 GT PUSH2 0x2BEF JUMPI JUMPDEST POP PUSH1 0x20 PUSH1 0x1F DUP3 GT PUSH1 0x1 EQ PUSH2 0x2B8E JUMPI DUP2 SWAP3 SWAP4 SWAP5 PUSH0 SWAP3 PUSH2 0x2B83 JUMPI JUMPDEST POP POP DUP2 PUSH1 0x1 SHL SWAP2 PUSH0 NOT SWAP1 PUSH1 0x3 SHL SHR NOT AND OR SWAP1 SSTORE JUMPDEST PUSH1 0x7 DUP2 ADD DUP1 SLOAD PUSH1 0x1 PUSH1 0x1 PUSH1 0xA0 SHL SUB NOT AND CALLER OR SWAP1 SSTORE TIMESTAMP PUSH1 0x8 SWAP1 SWAP2 ADD SSTORE PUSH1 0x2 SLOAD PUSH1 0x1 PUSH1 0x40 SHL DUP2 LT ISZERO PUSH2 0x668 JUMPI DUP1 PUSH1 0x1 PUSH2 0x2B43 SWAP3 ADD PUSH1 0x2 SSTORE PUSH1 0x2 PUSH2 0x545C JUMP JUMPDEST DUP2 SLOAD SWAP1 PUSH1 0x3 SHL SWAP1 CALLER DUP3 SHL SWAP2 PUSH1 0x1 DUP1 PUSH1 0xA0 SHL SUB SWAP1 SHL NOT AND OR SWAP1 SSTORE CALLER PUSH0 MSTORE PUSH1 0x9 PUSH1 0x20 MSTORE PUSH1 0x40 PUSH0 KECCAK256 PUSH1 0x1 PUSH1 0xFF NOT DUP3 SLOAD AND OR SWAP1 SSTORE PUSH2 0x2B7E PUSH1 0xC SLOAD PUSH2 0x5618 JUMP JUMPDEST PUSH1 0xC SSTORE STOP JUMPDEST ADD MLOAD SWAP1 POP DUP5 DUP1 PUSH2 0x2AF3 JUMP JUMPDEST PUSH1 0x1F NOT DUP3 AND SWAP1 DUP4 PUSH0 MSTORE DUP1 PUSH0 KECCAK256 SWAP2 PUSH0 JUMPDEST DUP2 DUP2 LT PUSH2 0x2BD7 JUMPI POP SWAP6 DUP4 PUSH1 0x1 SWAP6 SWAP7 SWAP8 LT PUSH2 0x2BBF JUMPI JUMPDEST POP POP POP DUP2 SHL ADD SWAP1 SSTORE PUSH2 0x2B07 JUMP JUMPDEST ADD MLOAD PUSH0 NOT PUSH1 0xF8 DUP5 PUSH1 0x3 SHL AND SHR NOT AND SWAP1 SSTORE DUP5 DUP1 DUP1 PUSH2 0x2BB2 JUMP JUMPDEST SWAP2 SWAP3 PUSH1 0x20 PUSH1 0x1 DUP2 SWAP3 DUP7 DUP12 ADD MLOAD DUP2 SSTORE ADD SWAP5 ADD SWAP3 ADD PUSH2 0x2B9D JUMP JUMPDEST DUP3 PUSH0 MSTORE PUSH1 0x20 PUSH0 KECCAK256 PUSH1 0x1F DUP4 ADD PUSH1 0x5 SHR DUP2 ADD SWAP2 PUSH1 0x20 DUP5 LT PUSH2 0x2C2A JUMPI JUMPDEST PUSH1 0x1F ADD PUSH1 0x5 SHR ADD SWAP1 JUMPDEST DUP2 DUP2 LT PUSH2 0x2C1F JUMPI POP PUSH2 0x2ADA JUMP JUMPDEST PUSH0 DUP2 SSTORE PUSH1 0x1 ADD PUSH2 0x2C12 JUMP JUMPDEST SWAP1 SWAP2 POP DUP2 SWAP1 PUSH2 0x2C09 JUMP JUMPDEST ADD MLOAD SWAP1 POP DUP6 DUP1 PUSH2 0x2A9F JUMP JUMPDEST PUSH1 0x1F NOT DUP3 AND SWAP6 DUP4 PUSH0 MSTORE DUP1 PUSH0 KECCAK256 SWAP2 PUSH0 JUMPDEST DUP9 DUP2 LT PUSH2 0x2C88 JUMPI POP DUP4 PUSH1 0x1 SWAP6 SWAP7 SWAP8 SWAP9 LT PUSH2 0x2C70 JUMPI JUMPDEST POP POP POP DUP2 SHL ADD SWAP1 SSTORE PUSH2 0x2AB3 JUMP JUMPDEST ADD MLOAD PUSH0 NOT PUSH1 0xF8 DUP5 PUSH1 0x3 SHL AND SHR NOT AND SWAP1 SSTORE DUP6 DUP1 DUP1 PUSH2 0x2C63 JUMP JUMPDEST SWAP2 SWAP3 PUSH1 0x20 PUSH1 0x1 DUP2 SWAP3 DUP7 DUP6 ADD MLOAD DUP2 SSTORE ADD SWAP5 ADD SWAP3 ADD PUSH2 0x2C4E JUMP JUMPDEST DUP3 PUSH0 MSTORE PUSH1 0x20 PUSH0 KECCAK256 PUSH1 0x1F DUP4 ADD PUSH1 0x5 SHR DUP2 ADD SWAP2 PUSH1 0x20 DUP5 LT PUSH2 0x2CDB JUMPI JUMPDEST PUSH1 0x1F ADD PUSH1 0x5 SHR ADD SWAP1 JUMPDEST DUP2 DUP2 LT PUSH2 0x2CD0 JUMPI POP PUSH2 0x2A83 JUMP JUMPDEST PUSH0 DUP2 SSTORE PUSH1 0x1 ADD PUSH2 0x2CC3 JUMP JUMPDEST SWAP1 SWAP2 POP DUP2 SWAP1 PUSH2 0x2CBA JUMP JUMPDEST ADD MLOAD SWAP1 POP DUP7 DUP1 PUSH2 0x2A48 JUMP JUMPDEST PUSH0 DUP6 DUP2 MSTORE DUP3 DUP2 KECCAK256 SWAP4 POP PUSH1 0x1F NOT DUP6 AND SWAP1 JUMPDEST DUP2 DUP2 LT PUSH2 0x2D3B JUMPI POP SWAP1 DUP5 PUSH1 0x1 SWAP6 SWAP5 SWAP4 SWAP3 LT PUSH2 0x2D23 JUMPI JUMPDEST POP POP POP DUP2 SHL ADD SWAP1 SSTORE PUSH2 0x2A5C JUMP JUMPDEST ADD MLOAD PUSH0 NOT PUSH1 0xF8 DUP5 PUSH1 0x3 SHL AND SHR NOT AND SWAP1 SSTORE DUP7 DUP1 DUP1 PUSH2 0x2D16 JUMP JUMPDEST SWAP3 SWAP4 PUSH1 0x20 PUSH1 0x1 DUP2 SWAP3 DUP8 DUP7 ADD MLOAD DUP2 SSTORE ADD SWAP6 ADD SWAP4 ADD PUSH2 0x2D00 JUMP JUMPDEST SWAP1 SWAP2 POP DUP4 PUSH0 MSTORE PUSH1 0x20 PUSH0 KECCAK256 PUSH1 0x1F DUP5 ADD PUSH1 0x5 SHR DUP2 ADD SWAP2 PUSH1 0x20 DUP6 LT PUSH2 0x2D99 JUMPI JUMPDEST SWAP1 PUSH1 0x1F DUP6 SWAP5 SWAP4 SWAP3 ADD PUSH1 0x5 SHR ADD SWAP1 JUMPDEST DUP2 DUP2 LT PUSH2 0x2D8B JUMPI POP PUSH2 0x2A32 JUMP JUMPDEST PUSH0 DUP2 SSTORE DUP5 SWAP4 POP PUSH1 0x1 ADD PUSH2 0x2D7E JUMP JUMPDEST SWAP1 SWAP2 POP DUP2 SWAP1 PUSH2 0x2D70 JUMP JUMPDEST ADD MLOAD SWAP1 POP DUP8 DUP1 PUSH2 0x29F4 JUMP JUMPDEST PUSH0 DUP6 DUP2 MSTORE DUP3 DUP2 KECCAK256 SWAP4 POP PUSH1 0x1F NOT DUP6 AND SWAP1 JUMPDEST DUP2 DUP2 LT PUSH2 0x2DF9 JUMPI POP SWAP1 DUP5 PUSH1 0x1 SWAP6 SWAP5 SWAP4 SWAP3 LT PUSH2 0x2DE1 JUMPI JUMPDEST POP POP POP DUP2 SHL ADD SWAP1 SSTORE PUSH2 0x2A08 JUMP JUMPDEST ADD MLOAD PUSH0 NOT PUSH1 0xF8 DUP5 PUSH1 0x3 SHL AND SHR NOT AND SWAP1 SSTORE DUP8 DUP1 DUP1 PUSH2 0x2DD4 JUMP JUMPDEST SWAP3 SWAP4 PUSH1 0x20 PUSH1 0x1 DUP2 SWAP3 DUP8 DUP7 ADD MLOAD DUP2 SSTORE ADD SWAP6 ADD SWAP4 ADD PUSH2 0x2DBE JUMP JUMPDEST SWAP1 SWAP2 POP DUP4 PUSH0 MSTORE PUSH1 0x20 PUSH0 KECCAK256 PUSH1 0x1F DUP5 ADD PUSH1 0x5 SHR DUP2 ADD SWAP2 PUSH1 0x20 DUP6 LT PUSH2 0x2E57 JUMPI JUMPDEST SWAP1 PUSH1 0x1F DUP6 SWAP5 SWAP4 SWAP3 ADD PUSH1 0x5 SHR ADD SWAP1 JUMPDEST DUP2 DUP2 LT PUSH2 0x2E49 JUMPI POP PUSH2 0x29DE JUMP JUMPDEST PUSH0 DUP2 SSTORE DUP5 SWAP4 POP PUSH1 0x1 ADD PUSH2 0x2E3C JUMP JUMPDEST SWAP1 SWAP2 POP DUP2 SWAP1 PUSH2 0x2E2E JUMP JUMPDEST ADD MLOAD SWAP1 POP DUP9 DUP1 PUSH2 0x29A0 JUMP JUMPDEST PUSH0 DUP6 DUP2 MSTORE DUP3 DUP2 KECCAK256 SWAP4 POP PUSH1 0x1F NOT DUP6 AND SWAP1 JUMPDEST DUP2 DUP2 LT PUSH2 0x2EB7 JUMPI POP SWAP1 DUP5 PUSH1 0x1 SWAP6 SWAP5 SWAP4 SWAP3 LT PUSH2 0x2E9F JUMPI JUMPDEST POP POP POP DUP2 SHL ADD SWAP1 SSTORE PUSH2 0x29B4 JUMP JUMPDEST ADD MLOAD PUSH0 NOT PUSH1 0xF8 DUP5 PUSH1 0x3 SHL AND SHR NOT AND SWAP1 SSTORE DUP9 DUP1 DUP1 PUSH2 0x2E92 JUMP JUMPDEST SWAP3 SWAP4 PUSH1 0x20 PUSH1 0x1 DUP2 SWAP3 DUP8 DUP7 ADD MLOAD DUP2 SSTORE ADD SWAP6 ADD SWAP4 ADD PUSH2 0x2E7C JUMP JUMPDEST SWAP1 SWAP2 POP DUP4 PUSH0 MSTORE PUSH1 0x20 PUSH0 KECCAK256 PUSH1 0x1F DUP5 ADD PUSH1 0x5 SHR DUP2 ADD SWAP2 PUSH1 0x20 DUP6 LT PUSH2 0x2F15 JUMPI JUMPDEST SWAP1 PUSH1 0x1F DUP6 SWAP5 SWAP4 SWAP3 ADD PUSH1 0x5 SHR ADD SWAP1 JUMPDEST DUP2 DUP2 LT PUSH2 0x2F07 JUMPI POP PUSH2 0x298A JUMP JUMPDEST PUSH0 DUP2 SSTORE DUP5 SWAP4 POP PUSH1 0x1 ADD PUSH2 0x2EFA JUMP JUMPDEST SWAP1 SWAP2 POP DUP2 SWAP1 PUSH2 0x2EEC JUMP JUMPDEST ADD MLOAD SWAP1 POP DUP10 DUP1 PUSH2 0x294C JUMP JUMPDEST PUSH0 DUP6 DUP2 MSTORE DUP3 DUP2 KECCAK256 SWAP4 POP PUSH1 0x1F NOT DUP6 AND SWAP1 JUMPDEST DUP2 DUP2 LT PUSH2 0x2F75 JUMPI POP SWAP1 DUP5 PUSH1 0x1 SWAP6 SWAP5 SWAP4 SWAP3 LT PUSH2 0x2F5D JUMPI JUMPDEST POP POP POP DUP2 SHL ADD SWAP1 SSTORE PUSH2 0x2960 JUMP JUMPDEST ADD MLOAD PUSH0 NOT PUSH1 0xF8 DUP5 PUSH1 0x3 SHL AND SHR NOT AND SWAP1 SSTORE DUP10 DUP1 DUP1 PUSH2 0x2F50 JUMP JUMPDEST SWAP3 SWAP4 PUSH1 0x20 PUSH1 0x1 DUP2 SWAP3 DUP8 DUP7 ADD MLOAD DUP2 SSTORE ADD SWAP6 ADD SWAP4 ADD PUSH2 0x2F3A JUMP JUMPDEST SWAP1 SWAP2 POP DUP4 PUSH0 MSTORE PUSH1 0x20 PUSH0 KECCAK256 PUSH1 0x1F DUP5 ADD PUSH1 0x5 SHR DUP2 ADD SWAP2 PUSH1 0x20 DUP6 LT PUSH2 0x2FD3 JUMPI JUMPDEST SWAP1 PUSH1 0x1F DUP6 SWAP5 SWAP4 SWAP3 ADD PUSH1 0x5 SHR ADD SWAP1 JUMPDEST DUP2 DUP2 LT PUSH2 0x2FC5 JUMPI POP PUSH2 0x2936 JUMP JUMPDEST PUSH0 DUP2 SSTORE DUP5 SWAP4 POP PUSH1 0x1 ADD PUSH2 0x2FB8 JUMP JUMPDEST SWAP1 SWAP2 POP DUP2 SWAP1 PUSH2 0x2FAA JUMP JUMPDEST ADD MLOAD SWAP1 POP DUP10 DUP1 PUSH2 0x28F8 JUMP JUMPDEST PUSH0 DUP10 DUP2 MSTORE DUP3 DUP2 KECCAK256 SWAP4 POP PUSH1 0x1F NOT DUP6 AND SWAP1 JUMPDEST DUP2 DUP2 LT PUSH2 0x3033 JUMPI POP SWAP1 DUP5 PUSH1 0x1 SWAP6 SWAP5 SWAP4 SWAP3 LT PUSH2 0x301B JUMPI JUMPDEST POP POP POP DUP2 SHL ADD DUP6 SSTORE PUSH2 0x290C JUMP JUMPDEST ADD MLOAD PUSH0 NOT PUSH1 0xF8 DUP5 PUSH1 0x3 SHL AND SHR NOT AND SWAP1 SSTORE DUP10 DUP1 DUP1 PUSH2 0x300E JUMP JUMPDEST SWAP3 SWAP4 PUSH1 0x20 PUSH1 0x1 DUP2 SWAP3 DUP8 DUP7 ADD MLOAD DUP2 SSTORE ADD SWAP6 ADD SWAP4 ADD PUSH2 0x2FF8 JUMP JUMPDEST SWAP1 SWAP2 POP DUP8 PUSH0 MSTORE PUSH1 0x20 PUSH0 KECCAK256 PUSH1 0x1F DUP5 ADD PUSH1 0x5 SHR DUP2 ADD SWAP2 PUSH1 0x20 DUP6 LT PUSH2 0x3091 JUMPI JUMPDEST SWAP1 PUSH1 0x1F DUP6 SWAP5 SWAP4 SWAP3 ADD PUSH1 0x5 SHR ADD SWAP1 JUMPDEST DUP2 DUP2 LT PUSH2 0x3083 JUMPI POP PUSH2 0x28E2 JUMP JUMPDEST PUSH0 DUP2 SSTORE DUP5 SWAP4 POP PUSH1 0x1 ADD PUSH2 0x3076 JUMP JUMPDEST SWAP1 SWAP2 POP DUP2 SWAP1 PUSH2 0x3068 JUMP JUMPDEST PUSH1 0x40 MLOAD PUSH3 0x461BCD PUSH1 0xE5 SHL DUP2 MSTORE PUSH1 0x20 PUSH1 0x4 DUP3 ADD MSTORE PUSH1 0x1B PUSH1 0x24 DUP3 ADD MSTORE PUSH32 0x416C72656164792061207265676973746572656420646F63746F720000000000 PUSH1 0x44 DUP3 ADD MSTORE PUSH1 0x64 SWAP1 REVERT JUMPDEST CALLVALUE PUSH2 0x195 JUMPI PUSH0 CALLDATASIZE PUSH1 0x3 NOT ADD SLT PUSH2 0x195 JUMPI PUSH1 0x20 PUSH1 0xC SLOAD PUSH1 0x40 MLOAD SWAP1 DUP2 MSTORE RETURN JUMPDEST CALLVALUE PUSH2 0x195 JUMPI PUSH1 0x20 CALLDATASIZE PUSH1 0x3 NOT ADD SLT PUSH2 0x195 JUMPI PUSH1 0x1 PUSH1 0x1 PUSH1 0xA0 SHL SUB PUSH2 0x311E PUSH2 0x5156 JUMP JUMPDEST AND PUSH0 MSTORE PUSH1 0x5 PUSH1 0x20 MSTORE PUSH1 0x20 PUSH2 0x100 PUSH1 0x40 PUSH0 KECCAK256 PUSH1 0x8 PUSH1 0x40 MLOAD SWAP2 PUSH2 0x313E DUP4 PUSH2 0x5188 JUMP JUMPDEST PUSH2 0x3147 DUP2 PUSH2 0x5398 JUMP JUMPDEST DUP4 MSTORE PUSH2 0x3155 PUSH1 0x1 DUP3 ADD PUSH2 0x5398 JUMP JUMPDEST DUP6 DUP5 ADD MSTORE PUSH2 0x3165 PUSH1 0x2 DUP3 ADD PUSH2 0x5398 JUMP JUMPDEST PUSH1 0x40 DUP5 ADD MSTORE PUSH2 0x3176 PUSH1 0x3 DUP3 ADD PUSH2 0x5398 JUMP JUMPDEST PUSH1 0x60 DUP5 ADD MSTORE PUSH2 0x3187 PUSH1 0x4 DUP3 ADD PUSH2 0x5398 JUMP JUMPDEST PUSH1 0x80 DUP5 ADD MSTORE PUSH2 0x3198 PUSH1 0x5 DUP3 ADD PUSH2 0x5398 JUMP JUMPDEST PUSH1 0xA0 DUP5 ADD MSTORE PUSH2 0x31A9 PUSH1 0x6 DUP3 ADD PUSH2 0x5398 JUMP JUMPDEST PUSH1 0xC0 DUP5 ADD MSTORE PUSH1 0x7 DUP2 ADD SLOAD PUSH1 0x1 PUSH1 0x1 PUSH1 0xA0 SHL SUB AND PUSH1 0xE0 DUP5 ADD MSTORE ADD SLOAD SWAP2 ADD DUP2 SWAP1 MSTORE PUSH1 0x40 MLOAD SWAP1 DUP2 MSTORE RETURN JUMPDEST CALLVALUE PUSH2 0x195 JUMPI PUSH1 0x20 CALLDATASIZE PUSH1 0x3 NOT ADD SLT PUSH2 0x195 JUMPI PUSH1 0x4 CALLDATALOAD PUSH1 0x1 PUSH1 0x1 PUSH1 0x40 SHL SUB DUP2 GT PUSH2 0x195 JUMPI PUSH2 0x1A0 PUSH1 0x3 NOT DUP3 CALLDATASIZE SUB ADD SLT PUSH2 0x195 JUMPI PUSH1 0x40 MLOAD PUSH2 0x1A0 DUP2 ADD DUP2 DUP2 LT PUSH1 0x1 PUSH1 0x1 PUSH1 0x40 SHL SUB DUP3 GT OR PUSH2 0x668 JUMPI PUSH1 0x40 MSTORE DUP2 PUSH1 0x4 ADD CALLDATALOAD PUSH1 0x1 PUSH1 0x1 PUSH1 0x40 SHL SUB DUP2 GT PUSH2 0x195 JUMPI PUSH2 0x3241 SWAP1 PUSH1 0x4 CALLDATASIZE SWAP2 DUP6 ADD ADD PUSH2 0x51C5 JUMP JUMPDEST DUP2 MSTORE PUSH1 0x24 DUP3 ADD CALLDATALOAD PUSH1 0x1 PUSH1 0x1 PUSH1 0x40 SHL SUB DUP2 GT PUSH2 0x195 JUMPI PUSH2 0x3266 SWAP1 PUSH1 0x4 CALLDATASIZE SWAP2 DUP6 ADD ADD PUSH2 0x51C5 JUMP JUMPDEST SWAP1 PUSH1 0x20 DUP2 ADD SWAP2 DUP3 MSTORE PUSH1 0x44 DUP4 ADD CALLDATALOAD PUSH1 0x1 PUSH1 0x1 PUSH1 0x40 SHL SUB DUP2 GT PUSH2 0x195 JUMPI PUSH2 0x3291 SWAP1 PUSH1 0x4 CALLDATASIZE SWAP2 DUP7 ADD ADD PUSH2 0x51C5 JUMP JUMPDEST SWAP3 PUSH1 0x40 DUP3 ADD SWAP4 DUP5 MSTORE PUSH1 0x64 DUP2 ADD CALLDATALOAD PUSH1 0x1 PUSH1 0x1 PUSH1 0x40 SHL SUB DUP2 GT PUSH2 0x195 JUMPI PUSH2 0x32BC SWAP1 PUSH1 0x4 CALLDATASIZE SWAP2 DUP5 ADD ADD PUSH2 0x51C5 JUMP JUMPDEST PUSH1 0x60 DUP4 ADD SWAP1 DUP2 MSTORE PUSH1 0x84 DUP3 ADD CALLDATALOAD PUSH1 0x1 PUSH1 0x1 PUSH1 0x40 SHL SUB DUP2 GT PUSH2 0x195 JUMPI PUSH2 0x32E6 SWAP1 PUSH1 0x4 CALLDATASIZE SWAP2 DUP6 ADD ADD PUSH2 0x51C5 JUMP JUMPDEST PUSH1 0x80 DUP5 ADD SWAP1 DUP2 MSTORE PUSH1 0xA4 DUP4 ADD CALLDATALOAD PUSH1 0x1 PUSH1 0x1 PUSH1 0x40 SHL SUB DUP2 GT PUSH2 0x195 JUMPI PUSH2 0x3310 SWAP1 PUSH1 0x4 CALLDATASIZE SWAP2 DUP7 ADD ADD PUSH2 0x51C5 JUMP JUMPDEST SWAP2 PUSH1 0xA0 DUP6 ADD SWAP3 DUP4 MSTORE PUSH1 0xC4 DUP5 ADD CALLDATALOAD PUSH1 0x1 PUSH1 0x1 PUSH1 0x40 SHL SUB DUP2 GT PUSH2 0x195 JUMPI PUSH2 0x333B SWAP1 PUSH1 0x4 CALLDATASIZE SWAP2 DUP8 ADD ADD PUSH2 0x51C5 JUMP JUMPDEST SWAP4 PUSH1 0xC0 DUP7 ADD SWAP5 DUP6 MSTORE PUSH1 0xE4 DUP2 ADD CALLDATALOAD PUSH1 0x1 PUSH1 0x1 PUSH1 0x40 SHL SUB DUP2 GT PUSH2 0x195 JUMPI PUSH2 0x3366 SWAP1 PUSH1 0x4 CALLDATASIZE SWAP2 DUP5 ADD ADD PUSH2 0x51C5 JUMP JUMPDEST PUSH1 0xE0 DUP8 ADD MSTORE PUSH2 0x104 DUP2 ADD CALLDATALOAD PUSH1 0x1 PUSH1 0x1 PUSH1 0x40 SHL SUB DUP2 GT PUSH2 0x195 JUMPI PUSH2 0x338F SWAP1 PUSH1 0x4 CALLDATASIZE SWAP2 DUP5 ADD ADD PUSH2 0x51C5 JUMP JUMPDEST PUSH2 0x100 DUP8 ADD MSTORE PUSH2 0x124 DUP2 ADD CALLDATALOAD PUSH1 0x1 PUSH1 0x1 PUSH1 0x40 SHL SUB DUP2 GT PUSH2 0x195 JUMPI PUSH2 0x33B9 SWAP1 PUSH1 0x4 CALLDATASIZE SWAP2 DUP5 ADD ADD PUSH2 0x51C5 JUMP JUMPDEST PUSH2 0x120 DUP8 ADD MSTORE PUSH2 0x144 DUP2 ADD CALLDATALOAD PUSH1 0x1 PUSH1 0x1 PUSH1 0x40 SHL SUB DUP2 GT PUSH2 0x195 JUMPI PUSH2 0x33E3 SWAP1 PUSH1 0x4 CALLDATASIZE SWAP2 DUP5 ADD ADD PUSH2 0x51C5 JUMP JUMPDEST PUSH2 0x140 DUP8 ADD MSTORE PUSH2 0x164 DUP2 ADD CALLDATALOAD PUSH1 0x1 PUSH1 0x1 PUSH1 0x40 SHL SUB DUP2 GT PUSH2 0x195 JUMPI PUSH2 0x340D SWAP1 PUSH1 0x4 CALLDATASIZE SWAP2 DUP5 ADD ADD PUSH2 0x51C5 JUMP JUMPDEST PUSH2 0x160 DUP8 ADD MSTORE PUSH2 0x184 DUP2 ADD CALLDATALOAD SWAP1 PUSH1 0x1 PUSH1 0x1 PUSH1 0x40 SHL SUB DUP3 GT PUSH2 0x195 JUMPI PUSH1 0x4 PUSH2 0x3437 SWAP3 CALLDATASIZE SWAP3 ADD ADD PUSH2 0x51C5 JUMP JUMPDEST SWAP7 PUSH2 0x180 DUP7 ADD SWAP8 DUP9 MSTORE CALLER PUSH0 MSTORE PUSH1 0x8 PUSH1 0x20 MSTORE PUSH1 0xFF PUSH1 0x40 PUSH0 KECCAK256 SLOAD AND ISZERO PUSH2 0x422F JUMPI CALLER PUSH0 MSTORE PUSH1 0x4 PUSH1 0x20 MSTORE PUSH1 0x40 PUSH0 KECCAK256 SWAP7 DUP7 MLOAD DUP1 MLOAD SWAP1 PUSH1 0x1 PUSH1 0x1 PUSH1 0x40 SHL SUB DUP3 GT PUSH2 0x668 JUMPI DUP2 SWAP1 PUSH2 0x3481 DUP12 SLOAD PUSH2 0x5360 JUMP JUMPDEST PUSH1 0x1F DUP2 GT PUSH2 0x41DF JUMPI JUMPDEST POP PUSH1 0x20 SWAP1 PUSH1 0x1F DUP4 GT PUSH1 0x1 EQ PUSH2 0x417C JUMPI PUSH0 SWAP3 PUSH2 0x4171 JUMPI JUMPDEST POP POP DUP2 PUSH1 0x1 SHL SWAP2 PUSH0 NOT SWAP1 PUSH1 0x3 SHL SHR NOT AND OR DUP9 SSTORE JUMPDEST MLOAD DUP1 MLOAD PUSH1 0x1 DUP10 ADD SWAP2 PUSH1 0x1 PUSH1 0x1 PUSH1 0x40 SHL SUB DUP3 GT PUSH2 0x668 JUMPI DUP2 SWAP1 PUSH2 0x34D6 DUP5 SLOAD PUSH2 0x5360 JUMP JUMPDEST PUSH1 0x1F DUP2 GT PUSH2 0x4121 JUMPI JUMPDEST POP PUSH1 0x20 SWAP1 PUSH1 0x1F DUP4 GT PUSH1 0x1 EQ PUSH2 0x40BE JUMPI PUSH0 SWAP3 PUSH2 0x40B3 JUMPI JUMPDEST POP POP DUP2 PUSH1 0x1 SHL SWAP2 PUSH0 NOT SWAP1 PUSH1 0x3 SHL SHR NOT AND OR SWAP1 SSTORE JUMPDEST MLOAD DUP1 MLOAD PUSH1 0x2 DUP9 ADD SWAP2 PUSH1 0x1 PUSH1 0x1 PUSH1 0x40 SHL SUB DUP3 GT PUSH2 0x668 JUMPI DUP2 SWAP1 PUSH2 0x352B DUP5 SLOAD PUSH2 0x5360 JUMP JUMPDEST PUSH1 0x1F DUP2 GT PUSH2 0x4063 JUMPI JUMPDEST POP PUSH1 0x20 SWAP1 PUSH1 0x1F DUP4 GT PUSH1 0x1 EQ PUSH2 0x4000 JUMPI PUSH0 SWAP3 PUSH2 0x3FF5 JUMPI JUMPDEST POP POP DUP2 PUSH1 0x1 SHL SWAP2 PUSH0 NOT SWAP1 PUSH1 0x3 SHL SHR NOT AND OR SWAP1 SSTORE JUMPDEST MLOAD DUP1 MLOAD PUSH1 0x3 DUP8 ADD SWAP2 PUSH1 0x1 PUSH1 0x1 PUSH1 0x40 SHL SUB DUP3 GT PUSH2 0x668 JUMPI DUP2 SWAP1 PUSH2 0x3580 DUP5 SLOAD PUSH2 0x5360 JUMP JUMPDEST PUSH1 0x1F DUP2 GT PUSH2 0x3FA5 JUMPI JUMPDEST POP PUSH1 0x20 SWAP1 PUSH1 0x1F DUP4 GT PUSH1 0x1 EQ PUSH2 0x3F42 JUMPI PUSH0 SWAP3 PUSH2 0x3F37 JUMPI JUMPDEST POP POP DUP2 PUSH1 0x1 SHL SWAP2 PUSH0 NOT SWAP1 PUSH1 0x3 SHL SHR NOT AND OR SWAP1 SSTORE JUMPDEST MLOAD DUP1 MLOAD PUSH1 0x4 DUP7 ADD SWAP2 PUSH1 0x1 PUSH1 0x1 PUSH1 0x40 SHL SUB DUP3 GT PUSH2 0x668 JUMPI DUP2 SWAP1 PUSH2 0x35D5 DUP5 SLOAD PUSH2 0x5360 JUMP JUMPDEST PUSH1 0x1F DUP2 GT PUSH2 0x3EE7 JUMPI JUMPDEST POP PUSH1 0x20 SWAP1 PUSH1 0x1F DUP4 GT PUSH1 0x1 EQ PUSH2 0x3E84 JUMPI PUSH0 SWAP3 PUSH2 0x3E79 JUMPI JUMPDEST POP POP DUP2 PUSH1 0x1 SHL SWAP2 PUSH0 NOT SWAP1 PUSH1 0x3 SHL SHR NOT AND OR SWAP1 SSTORE JUMPDEST MLOAD DUP1 MLOAD PUSH1 0x5 DUP6 ADD SWAP2 PUSH1 0x1 PUSH1 0x1 PUSH1 0x40 SHL SUB DUP3 GT PUSH2 0x668 JUMPI DUP2 SWAP1 PUSH2 0x362A DUP5 SLOAD PUSH2 0x5360 JUMP JUMPDEST PUSH1 0x1F DUP2 GT PUSH2 0x3E29 JUMPI JUMPDEST POP PUSH1 0x20 SWAP1 PUSH1 0x1F DUP4 GT PUSH1 0x1 EQ PUSH2 0x3DC6 JUMPI PUSH0 SWAP3 PUSH2 0x3DBB JUMPI JUMPDEST POP POP DUP2 PUSH1 0x1 SHL SWAP2 PUSH0 NOT SWAP1 PUSH1 0x3 SHL SHR NOT AND OR SWAP1 SSTORE JUMPDEST MLOAD DUP1 MLOAD PUSH1 0x6 DUP5 ADD SWAP2 PUSH1 0x1 PUSH1 0x1 PUSH1 0x40 SHL SUB DUP3 GT PUSH2 0x668 JUMPI DUP2 SWAP1 PUSH2 0x367F DUP5 SLOAD PUSH2 0x5360 JUMP JUMPDEST PUSH1 0x1F DUP2 GT PUSH2 0x3D6B JUMPI JUMPDEST POP PUSH1 0x20 SWAP1 PUSH1 0x1F DUP4 GT PUSH1 0x1 EQ PUSH2 0x3D08 JUMPI PUSH0 SWAP3 PUSH2 0x3CFD JUMPI JUMPDEST POP POP DUP2 PUSH1 0x1 SHL SWAP2 PUSH0 NOT SWAP1 PUSH1 0x3 SHL SHR NOT AND OR SWAP1 SSTORE JUMPDEST PUSH1 0xE0 DUP2 ADD MLOAD DUP1 MLOAD PUSH1 0x7 DUP5 ADD SWAP2 PUSH1 0x1 PUSH1 0x1 PUSH1 0x40 SHL SUB DUP3 GT PUSH2 0x668 JUMPI DUP2 SWAP1 PUSH2 0x36D8 DUP5 SLOAD PUSH2 0x5360 JUMP JUMPDEST PUSH1 0x1F DUP2 GT PUSH2 0x3CAD JUMPI JUMPDEST POP PUSH1 0x20 SWAP1 PUSH1 0x1F DUP4 GT PUSH1 0x1 EQ PUSH2 0x3C4A JUMPI PUSH0 SWAP3 PUSH2 0x3C3F JUMPI JUMPDEST POP POP DUP2 PUSH1 0x1 SHL SWAP2 PUSH0 NOT SWAP1 PUSH1 0x3 SHL SHR NOT AND OR SWAP1 SSTORE JUMPDEST PUSH2 0x100 DUP2 ADD MLOAD DUP1 MLOAD PUSH1 0x8 DUP5 ADD SWAP2 PUSH1 0x1 PUSH1 0x1 PUSH1 0x40 SHL SUB DUP3 GT PUSH2 0x668 JUMPI DUP2 SWAP1 PUSH2 0x3732 DUP5 SLOAD PUSH2 0x5360 JUMP JUMPDEST PUSH1 0x1F DUP2 GT PUSH2 0x3BEF JUMPI JUMPDEST POP PUSH1 0x20 SWAP1 PUSH1 0x1F DUP4 GT PUSH1 0x1 EQ PUSH2 0x3B8C JUMPI PUSH0 SWAP3 PUSH2 0x3B81 JUMPI JUMPDEST POP POP DUP2 PUSH1 0x1 SHL SWAP2 PUSH0 NOT SWAP1 PUSH1 0x3 SHL SHR NOT AND OR SWAP1 SSTORE JUMPDEST PUSH2 0x120 DUP2 ADD MLOAD DUP1 MLOAD PUSH1 0x9 DUP5 ADD SWAP2 PUSH1 0x1 PUSH1 0x1 PUSH1 0x40 SHL SUB DUP3 GT PUSH2 0x668 JUMPI DUP2 SWAP1 PUSH2 0x378C DUP5 SLOAD PUSH2 0x5360 JUMP JUMPDEST PUSH1 0x1F DUP2 GT PUSH2 0x3B31 JUMPI JUMPDEST POP PUSH1 0x20 SWAP1 PUSH1 0x1F DUP4 GT PUSH1 0x1 EQ PUSH2 0x3ACE JUMPI PUSH0 SWAP3 PUSH2 0x3AC3 JUMPI JUMPDEST POP POP DUP2 PUSH1 0x1 SHL SWAP2 PUSH0 NOT SWAP1 PUSH1 0x3 SHL SHR NOT AND OR SWAP1 SSTORE JUMPDEST PUSH2 0x140 DUP2 ADD MLOAD DUP1 MLOAD PUSH1 0xA DUP5 ADD SWAP2 PUSH1 0x1 PUSH1 0x1 PUSH1 0x40 SHL SUB DUP3 GT PUSH2 0x668 JUMPI PUSH2 0x37E4 DUP4 SLOAD PUSH2 0x5360 JUMP JUMPDEST PUSH1 0x1F DUP2 GT PUSH2 0x3A7E JUMPI JUMPDEST POP PUSH1 0x20 SWAP1 PUSH1 0x1F DUP4 GT PUSH1 0x1 EQ PUSH2 0x3A16 JUMPI PUSH2 0x160 SWAP5 SWAP4 SWAP3 SWAP2 PUSH0 SWAP2 DUP4 PUSH2 0x3A0B JUMPI JUMPDEST POP POP DUP2 PUSH1 0x1 SHL SWAP2 PUSH0 NOT SWAP1 PUSH1 0x3 SHL SHR NOT AND OR SWAP1 SSTORE JUMPDEST ADD MLOAD SWAP2 PUSH1 0xB DUP3 ADD DUP4 MLOAD PUSH1 0x1 PUSH1 0x1 PUSH1 0x40 SHL SUB DUP2 GT PUSH2 0x668 JUMPI PUSH2 0x3840 DUP3 SLOAD PUSH2 0x5360 JUMP JUMPDEST PUSH1 0x1F DUP2 GT PUSH2 0x39C6 JUMPI JUMPDEST POP PUSH1 0x20 PUSH1 0x1F DUP3 GT PUSH1 0x1 EQ PUSH2 0x3961 JUMPI DUP2 SWAP1 PUSH1 0xC SWAP6 SWAP7 PUSH0 SWAP3 PUSH2 0x3956 JUMPI JUMPDEST POP POP DUP2 PUSH1 0x1 SHL SWAP2 PUSH0 NOT SWAP1 PUSH1 0x3 SHL SHR NOT AND OR SWAP1 SSTORE JUMPDEST MLOAD SWAP2 ADD DUP2 MLOAD PUSH1 0x1 PUSH1 0x1 PUSH1 0x40 SHL SUB DUP2 GT PUSH2 0x668 JUMPI PUSH2 0x3895 DUP3 SLOAD PUSH2 0x5360 JUMP JUMPDEST PUSH1 0x1F DUP2 GT PUSH2 0x3911 JUMPI JUMPDEST POP PUSH1 0x20 SWAP3 PUSH1 0x1F DUP3 GT PUSH1 0x1 EQ PUSH2 0x38CE JUMPI SWAP3 DUP2 SWAP3 SWAP4 PUSH0 SWAP3 PUSH2 0x5BC JUMPI POP POP PUSH0 NOT PUSH1 0x3 DUP4 SWAP1 SHL SHR NOT AND PUSH1 0x1 SWAP2 SWAP1 SWAP2 SHL OR SWAP1 SSTORE STOP JUMPDEST PUSH1 0x1F NOT DUP3 AND SWAP4 DUP4 PUSH0 MSTORE DUP1 PUSH0 KECCAK256 SWAP2 PUSH0 JUMPDEST DUP7 DUP2 LT PUSH2 0x38F9 JUMPI POP DUP4 PUSH1 0x1 SWAP6 SWAP7 LT PUSH2 0x5F3 JUMPI POP POP POP DUP2 SHL ADD SWAP1 SSTORE STOP JUMPDEST SWAP2 SWAP3 PUSH1 0x20 PUSH1 0x1 DUP2 SWAP3 DUP7 DUP6 ADD MLOAD DUP2 SSTORE ADD SWAP5 ADD SWAP3 ADD PUSH2 0x38DD JUMP JUMPDEST DUP3 PUSH0 MSTORE PUSH1 0x20 PUSH0 KECCAK256 PUSH1 0x1F DUP4 ADD PUSH1 0x5 SHR DUP2 ADD SWAP2 PUSH1 0x20 DUP5 LT PUSH2 0x394C JUMPI JUMPDEST PUSH1 0x1F ADD PUSH1 0x5 SHR ADD SWAP1 JUMPDEST DUP2 DUP2 LT PUSH2 0x3941 JUMPI POP PUSH2 0x389E JUMP JUMPDEST PUSH0 DUP2 SSTORE PUSH1 0x1 ADD PUSH2 0x3934 JUMP JUMPDEST SWAP1 SWAP2 POP DUP2 SWAP1 PUSH2 0x392B JUMP JUMPDEST ADD MLOAD SWAP1 POP DUP7 DUP1 PUSH2 0x3864 JUMP JUMPDEST PUSH1 0x1F NOT DUP3 AND SWAP6 DUP4 PUSH0 MSTORE DUP2 PUSH0 KECCAK256 SWAP7 PUSH0 JUMPDEST DUP2 DUP2 LT PUSH2 0x39AE JUMPI POP SWAP2 PUSH1 0xC SWAP7 SWAP8 SWAP2 DUP5 PUSH1 0x1 SWAP6 SWAP5 LT PUSH2 0x3996 JUMPI JUMPDEST POP POP POP DUP2 SHL ADD SWAP1 SSTORE PUSH2 0x3878 JUMP JUMPDEST ADD MLOAD PUSH0 NOT PUSH1 0xF8 DUP5 PUSH1 0x3 SHL AND SHR NOT AND SWAP1 SSTORE DUP7 DUP1 DUP1 PUSH2 0x3989 JUMP JUMPDEST DUP4 DUP4 ADD MLOAD DUP10 SSTORE PUSH1 0x1 SWAP1 SWAP9 ADD SWAP8 PUSH1 0x20 SWAP4 DUP5 ADD SWAP4 ADD PUSH2 0x3970 JUMP JUMPDEST DUP3 PUSH0 MSTORE PUSH1 0x20 PUSH0 KECCAK256 PUSH1 0x1F DUP4 ADD PUSH1 0x5 SHR DUP2 ADD SWAP2 PUSH1 0x20 DUP5 LT PUSH2 0x3A01 JUMPI JUMPDEST PUSH1 0x1F ADD PUSH1 0x5 SHR ADD SWAP1 JUMPDEST DUP2 DUP2 LT PUSH2 0x39F6 JUMPI POP PUSH2 0x3849 JUMP JUMPDEST PUSH0 DUP2 SSTORE PUSH1 0x1 ADD PUSH2 0x39E9 JUMP JUMPDEST SWAP1 SWAP2 POP DUP2 SWAP1 PUSH2 0x39E0 JUMP JUMPDEST ADD MLOAD SWAP1 POP DUP8 DUP1 PUSH2 0x380B JUMP JUMPDEST SWAP1 PUSH1 0x1F NOT DUP4 AND SWAP2 DUP5 PUSH0 MSTORE DUP2 PUSH0 KECCAK256 SWAP3 PUSH0 JUMPDEST DUP2 DUP2 LT PUSH2 0x3A66 JUMPI POP SWAP2 PUSH1 0x1 SWAP4 SWAP2 DUP6 PUSH2 0x160 SWAP9 SWAP8 SWAP7 SWAP5 LT PUSH2 0x3A4E JUMPI JUMPDEST POP POP POP DUP2 SHL ADD SWAP1 SSTORE PUSH2 0x381F JUMP JUMPDEST ADD MLOAD PUSH0 NOT PUSH1 0xF8 DUP5 PUSH1 0x3 SHL AND SHR NOT AND SWAP1 SSTORE DUP8 DUP1 DUP1 PUSH2 0x3A41 JUMP JUMPDEST SWAP3 SWAP4 PUSH1 0x20 PUSH1 0x1 DUP2 SWAP3 DUP8 DUP7 ADD MLOAD DUP2 SSTORE ADD SWAP6 ADD SWAP4 ADD PUSH2 0x3A26 JUMP JUMPDEST DUP4 PUSH0 MSTORE PUSH1 0x20 PUSH0 KECCAK256 PUSH1 0x1F DUP5 ADD PUSH1 0x5 SHR DUP2 ADD SWAP2 PUSH1 0x20 DUP6 LT PUSH2 0x3AB9 JUMPI JUMPDEST PUSH1 0x1F ADD PUSH1 0x5 SHR ADD SWAP1 JUMPDEST DUP2 DUP2 LT PUSH2 0x3AAE JUMPI POP PUSH2 0x37ED JUMP JUMPDEST PUSH0 DUP2 SSTORE PUSH1 0x1 ADD PUSH2 0x3AA1 JUMP JUMPDEST SWAP1 SWAP2 POP DUP2 SWAP1 PUSH2 0x3A98 JUMP JUMPDEST ADD MLOAD SWAP1 POP DUP7 DUP1 PUSH2 0x37AB JUMP JUMPDEST PUSH0 DUP6 DUP2 MSTORE DUP3 DUP2 KECCAK256 SWAP4 POP PUSH1 0x1F NOT DUP6 AND SWAP1 JUMPDEST DUP2 DUP2 LT PUSH2 0x3B19 JUMPI POP SWAP1 DUP5 PUSH1 0x1 SWAP6 SWAP5 SWAP4 SWAP3 LT PUSH2 0x3B01 JUMPI JUMPDEST POP POP POP DUP2 SHL ADD SWAP1 SSTORE PUSH2 0x37BF JUMP JUMPDEST ADD MLOAD PUSH0 NOT PUSH1 0xF8 DUP5 PUSH1 0x3 SHL AND SHR NOT AND SWAP1 SSTORE DUP7 DUP1 DUP1 PUSH2 0x3AF4 JUMP JUMPDEST SWAP3 SWAP4 PUSH1 0x20 PUSH1 0x1 DUP2 SWAP3 DUP8 DUP7 ADD MLOAD DUP2 SSTORE ADD SWAP6 ADD SWAP4 ADD PUSH2 0x3ADE JUMP JUMPDEST SWAP1 SWAP2 POP DUP4 PUSH0 MSTORE PUSH1 0x20 PUSH0 KECCAK256 PUSH1 0x1F DUP5 ADD PUSH1 0x5 SHR DUP2 ADD SWAP2 PUSH1 0x20 DUP6 LT PUSH2 0x3B77 JUMPI JUMPDEST SWAP1 PUSH1 0x1F DUP6 SWAP5 SWAP4 SWAP3 ADD PUSH1 0x5 SHR ADD SWAP1 JUMPDEST DUP2 DUP2 LT PUSH2 0x3B69 JUMPI POP PUSH2 0x3795 JUMP JUMPDEST PUSH0 DUP2 SSTORE DUP5 SWAP4 POP PUSH1 0x1 ADD PUSH2 0x3B5C JUMP JUMPDEST SWAP1 SWAP2 POP DUP2 SWAP1 PUSH2 0x3B4E JUMP JUMPDEST ADD MLOAD SWAP1 POP DUP7 DUP1 PUSH2 0x3751 JUMP JUMPDEST PUSH0 DUP6 DUP2 MSTORE DUP3 DUP2 KECCAK256 SWAP4 POP PUSH1 0x1F NOT DUP6 AND SWAP1 JUMPDEST DUP2 DUP2 LT PUSH2 0x3BD7 JUMPI POP SWAP1 DUP5 PUSH1 0x1 SWAP6 SWAP5 SWAP4 SWAP3 LT PUSH2 0x3BBF JUMPI JUMPDEST POP POP POP DUP2 SHL ADD SWAP1 SSTORE PUSH2 0x3765 JUMP JUMPDEST ADD MLOAD PUSH0 NOT PUSH1 0xF8 DUP5 PUSH1 0x3 SHL AND SHR NOT AND SWAP1 SSTORE DUP7 DUP1 DUP1 PUSH2 0x3BB2 JUMP JUMPDEST SWAP3 SWAP4 PUSH1 0x20 PUSH1 0x1 DUP2 SWAP3 DUP8 DUP7 ADD MLOAD DUP2 SSTORE ADD SWAP6 ADD SWAP4 ADD PUSH2 0x3B9C JUMP JUMPDEST SWAP1 SWAP2 POP DUP4 PUSH0 MSTORE PUSH1 0x20 PUSH0 KECCAK256 PUSH1 0x1F DUP5 ADD PUSH1 0x5 SHR DUP2 ADD SWAP2 PUSH1 0x20 DUP6 LT PUSH2 0x3C35 JUMPI JUMPDEST SWAP1 PUSH1 0x1F DUP6 SWAP5 SWAP4 SWAP3 ADD PUSH1 0x5 SHR ADD SWAP1 JUMPDEST DUP2 DUP2 LT PUSH2 0x3C27 JUMPI POP PUSH2 0x373B JUMP JUMPDEST PUSH0 DUP2 SSTORE DUP5 SWAP4 POP PUSH1 0x1 ADD PUSH2 0x3C1A JUMP JUMPDEST SWAP1 SWAP2 POP DUP2 SWAP1 PUSH2 0x3C0C JUMP JUMPDEST ADD MLOAD SWAP1 POP DUP7 DUP1 PUSH2 0x36F7 JUMP JUMPDEST PUSH0 DUP6 DUP2 MSTORE DUP3 DUP2 KECCAK256 SWAP4 POP PUSH1 0x1F NOT DUP6 AND SWAP1 JUMPDEST DUP2 DUP2 LT PUSH2 0x3C95 JUMPI POP SWAP1 DUP5 PUSH1 0x1 SWAP6 SWAP5 SWAP4 SWAP3 LT PUSH2 0x3C7D JUMPI JUMPDEST POP POP POP DUP2 SHL ADD SWAP1 SSTORE PUSH2 0x370B JUMP JUMPDEST ADD MLOAD PUSH0 NOT PUSH1 0xF8 DUP5 PUSH1 0x3 SHL AND SHR NOT AND SWAP1 SSTORE DUP7 DUP1 DUP1 PUSH2 0x3C70 JUMP JUMPDEST SWAP3 SWAP4 PUSH1 0x20 PUSH1 0x1 DUP2 SWAP3 DUP8 DUP7 ADD MLOAD DUP2 SSTORE ADD SWAP6 ADD SWAP4 ADD PUSH2 0x3C5A JUMP JUMPDEST SWAP1 SWAP2 POP DUP4 PUSH0 MSTORE PUSH1 0x20 PUSH0 KECCAK256 PUSH1 0x1F DUP5 ADD PUSH1 0x5 SHR DUP2 ADD SWAP2 PUSH1 0x20 DUP6 LT PUSH2 0x3CF3 JUMPI JUMPDEST SWAP1 PUSH1 0x1F DUP6 SWAP5 SWAP4 SWAP3 ADD PUSH1 0x5 SHR ADD SWAP1 JUMPDEST DUP2 DUP2 LT PUSH2 0x3CE5 JUMPI POP PUSH2 0x36E1 JUMP JUMPDEST PUSH0 DUP2 SSTORE DUP5 SWAP4 POP PUSH1 0x1 ADD PUSH2 0x3CD8 JUMP JUMPDEST SWAP1 SWAP2 POP DUP2 SWAP1 PUSH2 0x3CCA JUMP JUMPDEST ADD MLOAD SWAP1 POP DUP7 DUP1 PUSH2 0x369E JUMP JUMPDEST PUSH0 DUP6 DUP2 MSTORE DUP3 DUP2 KECCAK256 SWAP4 POP PUSH1 0x1F NOT DUP6 AND SWAP1 JUMPDEST DUP2 DUP2 LT PUSH2 0x3D53 JUMPI POP SWAP1 DUP5 PUSH1 0x1 SWAP6 SWAP5 SWAP4 SWAP3 LT PUSH2 0x3D3B JUMPI JUMPDEST POP POP POP DUP2 SHL ADD SWAP1 SSTORE PUSH2 0x36B2 JUMP JUMPDEST ADD MLOAD PUSH0 NOT PUSH1 0xF8 DUP5 PUSH1 0x3 SHL AND SHR NOT AND SWAP1 SSTORE DUP7 DUP1 DUP1 PUSH2 0x3D2E JUMP JUMPDEST SWAP3 SWAP4 PUSH1 0x20 PUSH1 0x1 DUP2 SWAP3 DUP8 DUP7 ADD MLOAD DUP2 SSTORE ADD SWAP6 ADD SWAP4 ADD PUSH2 0x3D18 JUMP JUMPDEST SWAP1 SWAP2 POP DUP4 PUSH0 MSTORE PUSH1 0x20 PUSH0 KECCAK256 PUSH1 0x1F DUP5 ADD PUSH1 0x5 SHR DUP2 ADD SWAP2 PUSH1 0x20 DUP6 LT PUSH2 0x3DB1 JUMPI JUMPDEST SWAP1 PUSH1 0x1F DUP6 SWAP5 SWAP4 SWAP3 ADD PUSH1 0x5 SHR ADD SWAP1 JUMPDEST DUP2 DUP2 LT PUSH2 0x3DA3 JUMPI POP PUSH2 0x3688 JUMP JUMPDEST PUSH0 DUP2 SSTORE DUP5 SWAP4 POP PUSH1 0x1 ADD PUSH2 0x3D96 JUMP JUMPDEST SWAP1 SWAP2 POP DUP2 SWAP1 PUSH2 0x3D88 JUMP JUMPDEST ADD MLOAD SWAP1 POP DUP8 DUP1 PUSH2 0x3649 JUMP JUMPDEST PUSH0 DUP6 DUP2 MSTORE DUP3 DUP2 KECCAK256 SWAP4 POP PUSH1 0x1F NOT DUP6 AND SWAP1 JUMPDEST DUP2 DUP2 LT PUSH2 0x3E11 JUMPI POP SWAP1 DUP5 PUSH1 0x1 SWAP6 SWAP5 SWAP4 SWAP3 LT PUSH2 0x3DF9 JUMPI JUMPDEST POP POP POP DUP2 SHL ADD SWAP1 SSTORE PUSH2 0x365D JUMP JUMPDEST ADD MLOAD PUSH0 NOT PUSH1 0xF8 DUP5 PUSH1 0x3 SHL AND SHR NOT AND SWAP1 SSTORE DUP8 DUP1 DUP1 PUSH2 0x3DEC JUMP JUMPDEST SWAP3 SWAP4 PUSH1 0x20 PUSH1 0x1 DUP2 SWAP3 DUP8 DUP7 ADD MLOAD DUP2 SSTORE ADD SWAP6 ADD SWAP4 ADD PUSH2 0x3DD6 JUMP JUMPDEST SWAP1 SWAP2 POP DUP4 PUSH0 MSTORE PUSH1 0x20 PUSH0 KECCAK256 PUSH1 0x1F DUP5 ADD PUSH1 0x5 SHR DUP2 ADD SWAP2 PUSH1 0x20 DUP6 LT PUSH2 0x3E6F JUMPI JUMPDEST SWAP1 PUSH1 0x1F DUP6 SWAP5 SWAP4 SWAP3 ADD PUSH1 0x5 SHR ADD SWAP1 JUMPDEST DUP2 DUP2 LT PUSH2 0x3E61 JUMPI POP PUSH2 0x3633 JUMP JUMPDEST PUSH0 DUP2 SSTORE DUP5 SWAP4 POP PUSH1 0x1 ADD PUSH2 0x3E54 JUMP JUMPDEST SWAP1 SWAP2 POP DUP2 SWAP1 PUSH2 0x3E46 JUMP JUMPDEST ADD MLOAD SWAP1 POP DUP9 DUP1 PUSH2 0x35F4 JUMP JUMPDEST PUSH0 DUP6 DUP2 MSTORE DUP3 DUP2 KECCAK256 SWAP4 POP PUSH1 0x1F NOT DUP6 AND SWAP1 JUMPDEST DUP2 DUP2 LT PUSH2 0x3ECF JUMPI POP SWAP1 DUP5 PUSH1 0x1 SWAP6 SWAP5 SWAP4 SWAP3 LT PUSH2 0x3EB7 JUMPI JUMPDEST POP POP POP DUP2 SHL ADD SWAP1 SSTORE PUSH2 0x3608 JUMP JUMPDEST ADD MLOAD PUSH0 NOT PUSH1 0xF8 DUP5 PUSH1 0x3 SHL AND SHR NOT AND SWAP1 SSTORE DUP9 DUP1 DUP1 PUSH2 0x3EAA JUMP JUMPDEST SWAP3 SWAP4 PUSH1 0x20 PUSH1 0x1 DUP2 SWAP3 DUP8 DUP7 ADD MLOAD DUP2 SSTORE ADD SWAP6 ADD SWAP4 ADD PUSH2 0x3E94 JUMP JUMPDEST SWAP1 SWAP2 POP DUP4 PUSH0 MSTORE PUSH1 0x20 PUSH0 KECCAK256 PUSH1 0x1F DUP5 ADD PUSH1 0x5 SHR DUP2 ADD SWAP2 PUSH1 0x20 DUP6 LT PUSH2 0x3F2D JUMPI JUMPDEST SWAP1 PUSH1 0x1F DUP6 SWAP5 SWAP4 SWAP3 ADD PUSH1 0x5 SHR ADD SWAP1 JUMPDEST DUP2 DUP2 LT PUSH2 0x3F1F JUMPI POP PUSH2 0x35DE JUMP JUMPDEST PUSH0 DUP2 SSTORE DUP5 SWAP4 POP PUSH1 0x1 ADD PUSH2 0x3F12 JUMP JUMPDEST SWAP1 SWAP2 POP DUP2 SWAP1 PUSH2 0x3F04 JUMP JUMPDEST ADD MLOAD SWAP1 POP DUP10 DUP1 PUSH2 0x359F JUMP JUMPDEST PUSH0 DUP6 DUP2 MSTORE DUP3 DUP2 KECCAK256 SWAP4 POP PUSH1 0x1F NOT DUP6 AND SWAP1 JUMPDEST DUP2 DUP2 LT PUSH2 0x3F8D JUMPI POP SWAP1 DUP5 PUSH1 0x1 SWAP6 SWAP5 SWAP4 SWAP3 LT PUSH2 0x3F75 JUMPI JUMPDEST POP POP POP DUP2 SHL ADD SWAP1 SSTORE PUSH2 0x35B3 JUMP JUMPDEST ADD MLOAD PUSH0 NOT PUSH1 0xF8 DUP5 PUSH1 0x3 SHL AND SHR NOT AND SWAP1 SSTORE DUP10 DUP1 DUP1 PUSH2 0x3F68 JUMP JUMPDEST SWAP3 SWAP4 PUSH1 0x20 PUSH1 0x1 DUP2 SWAP3 DUP8 DUP7 ADD MLOAD DUP2 SSTORE ADD SWAP6 ADD SWAP4 ADD PUSH2 0x3F52 JUMP JUMPDEST SWAP1 SWAP2 POP DUP4 PUSH0 MSTORE PUSH1 0x20 PUSH0 KECCAK256 PUSH1 0x1F DUP5 ADD PUSH1 0x5 SHR DUP2 ADD SWAP2 PUSH1 0x20 DUP6 LT PUSH2 0x3FEB JUMPI JUMPDEST SWAP1 PUSH1 0x1F DUP6 SWAP5 SWAP4 SWAP3 ADD PUSH1 0x5 SHR ADD SWAP1 JUMPDEST DUP2 DUP2 LT PUSH2 0x3FDD JUMPI POP PUSH2 0x3589 JUMP JUMPDEST PUSH0 DUP2 SSTORE DUP5 SWAP4 POP PUSH1 0x1 ADD PUSH2 0x3FD0 JUMP JUMPDEST SWAP1 SWAP2 POP DUP2 SWAP1 PUSH2 0x3FC2 JUMP JUMPDEST ADD MLOAD SWAP1 POP DUP11 DUP1 PUSH2 0x354A JUMP JUMPDEST PUSH0 DUP6 DUP2 MSTORE DUP3 DUP2 KECCAK256 SWAP4 POP PUSH1 0x1F NOT DUP6 AND SWAP1 JUMPDEST DUP2 DUP2 LT PUSH2 0x404B JUMPI POP SWAP1 DUP5 PUSH1 0x1 SWAP6 SWAP5 SWAP4 SWAP3 LT PUSH2 0x4033 JUMPI JUMPDEST POP POP POP DUP2 SHL ADD SWAP1 SSTORE PUSH2 0x355E JUMP JUMPDEST ADD MLOAD PUSH0 NOT PUSH1 0xF8 DUP5 PUSH1 0x3 SHL AND SHR NOT AND SWAP1 SSTORE DUP11 DUP1 DUP1 PUSH2 0x4026 JUMP JUMPDEST SWAP3 SWAP4 PUSH1 0x20 PUSH1 0x1 DUP2 SWAP3 DUP8 DUP7 ADD MLOAD DUP2 SSTORE ADD SWAP6 ADD SWAP4 ADD PUSH2 0x4010 JUMP JUMPDEST SWAP1 SWAP2 POP DUP4 PUSH0 MSTORE PUSH1 0x20 PUSH0 KECCAK256 PUSH1 0x1F DUP5 ADD PUSH1 0x5 SHR DUP2 ADD SWAP2 PUSH1 0x20 DUP6 LT PUSH2 0x40A9 JUMPI JUMPDEST SWAP1 PUSH1 0x1F DUP6 SWAP5 SWAP4 SWAP3 ADD PUSH1 0x5 SHR ADD SWAP1 JUMPDEST DUP2 DUP2 LT PUSH2 0x409B JUMPI POP PUSH2 0x3534 JUMP JUMPDEST PUSH0 DUP2 SSTORE DUP5 SWAP4 POP PUSH1 0x1 ADD PUSH2 0x408E JUMP JUMPDEST SWAP1 SWAP2 POP DUP2 SWAP1 PUSH2 0x4080 JUMP JUMPDEST ADD MLOAD SWAP1 POP DUP12 DUP1 PUSH2 0x34F5 JUMP JUMPDEST PUSH0 DUP6 DUP2 MSTORE DUP3 DUP2 KECCAK256 SWAP4 POP PUSH1 0x1F NOT DUP6 AND SWAP1 JUMPDEST DUP2 DUP2 LT PUSH2 0x4109 JUMPI POP SWAP1 DUP5 PUSH1 0x1 SWAP6 SWAP5 SWAP4 SWAP3 LT PUSH2 0x40F1 JUMPI JUMPDEST POP POP POP DUP2 SHL ADD SWAP1 SSTORE PUSH2 0x3509 JUMP JUMPDEST ADD MLOAD PUSH0 NOT PUSH1 0xF8 DUP5 PUSH1 0x3 SHL AND SHR NOT AND SWAP1 SSTORE DUP12 DUP1 DUP1 PUSH2 0x40E4 JUMP JUMPDEST SWAP3 SWAP4 PUSH1 0x20 PUSH1 0x1 DUP2 SWAP3 DUP8 DUP7 ADD MLOAD DUP2 SSTORE ADD SWAP6 ADD SWAP4 ADD PUSH2 0x40CE JUMP JUMPDEST SWAP1 SWAP2 POP DUP4 PUSH0 MSTORE PUSH1 0x20 PUSH0 KECCAK256 PUSH1 0x1F DUP5 ADD PUSH1 0x5 SHR DUP2 ADD SWAP2 PUSH1 0x20 DUP6 LT PUSH2 0x4167 JUMPI JUMPDEST SWAP1 PUSH1 0x1F DUP6 SWAP5 SWAP4 SWAP3 ADD PUSH1 0x5 SHR ADD SWAP1 JUMPDEST DUP2 DUP2 LT PUSH2 0x4159 JUMPI POP PUSH2 0x34DF JUMP JUMPDEST PUSH0 DUP2 SSTORE DUP5 SWAP4 POP PUSH1 0x1 ADD PUSH2 0x414C JUMP JUMPDEST SWAP1 SWAP2 POP DUP2 SWAP1 PUSH2 0x413E JUMP JUMPDEST ADD MLOAD SWAP1 POP DUP12 DUP1 PUSH2 0x34A0 JUMP JUMPDEST PUSH0 DUP13 DUP2 MSTORE DUP3 DUP2 KECCAK256 SWAP4 POP PUSH1 0x1F NOT DUP6 AND SWAP1 JUMPDEST DUP2 DUP2 LT PUSH2 0x41C7 JUMPI POP SWAP1 DUP5 PUSH1 0x1 SWAP6 SWAP5 SWAP4 SWAP3 LT PUSH2 0x41AF JUMPI JUMPDEST POP POP POP DUP2 SHL ADD DUP9 SSTORE PUSH2 0x34B4 JUMP JUMPDEST ADD MLOAD PUSH0 NOT PUSH1 0xF8 DUP5 PUSH1 0x3 SHL AND SHR NOT AND SWAP1 SSTORE DUP12 DUP1 DUP1 PUSH2 0x41A2 JUMP JUMPDEST SWAP3 SWAP4 PUSH1 0x20 PUSH1 0x1 DUP2 SWAP3 DUP8 DUP7 ADD MLOAD DUP2 SSTORE ADD SWAP6 ADD SWAP4 ADD PUSH2 0x418C JUMP JUMPDEST SWAP1 SWAP2 POP DUP11 PUSH0 MSTORE PUSH1 0x20 PUSH0 KECCAK256 PUSH1 0x1F DUP5 ADD PUSH1 0x5 SHR DUP2 ADD SWAP2 PUSH1 0x20 DUP6 LT PUSH2 0x4225 JUMPI JUMPDEST SWAP1 PUSH1 0x1F DUP6 SWAP5 SWAP4 SWAP3 ADD PUSH1 0x5 SHR ADD SWAP1 JUMPDEST DUP2 DUP2 LT PUSH2 0x4217 JUMPI POP PUSH2 0x348A JUMP JUMPDEST PUSH0 DUP2 SSTORE DUP5 SWAP4 POP PUSH1 0x1 ADD PUSH2 0x420A JUMP JUMPDEST SWAP1 SWAP2 POP DUP2 SWAP1 PUSH2 0x41FC JUMP JUMPDEST PUSH1 0x40 MLOAD PUSH3 0x461BCD PUSH1 0xE5 SHL DUP2 MSTORE PUSH1 0x20 PUSH1 0x4 DUP3 ADD MSTORE PUSH1 0x18 PUSH1 0x24 DUP3 ADD MSTORE PUSH32 0x4E6F74206120726567697374657265642070617469656E740000000000000000 PUSH1 0x44 DUP3 ADD MSTORE PUSH1 0x64 SWAP1 REVERT JUMPDEST CALLVALUE PUSH2 0x195 JUMPI PUSH1 0x20 CALLDATASIZE PUSH1 0x3 NOT ADD SLT PUSH2 0x195 JUMPI PUSH1 0x1 PUSH1 0x1 PUSH1 0xA0 SHL SUB PUSH2 0x4295 PUSH2 0x5156 JUMP JUMPDEST AND PUSH0 MSTORE PUSH1 0x6 PUSH1 0x20 MSTORE PUSH1 0x20 PUSH2 0x100 PUSH1 0x40 PUSH0 KECCAK256 PUSH1 0x8 PUSH1 0x40 MLOAD SWAP2 PUSH2 0x42B5 DUP4 PUSH2 0x5188 JUMP JUMPDEST DUP1 SLOAD PUSH1 0x1 PUSH1 0x1 PUSH1 0xA0 SHL SUB SWAP1 DUP2 AND DUP5 MSTORE PUSH1 0x1 DUP3 ADD SLOAD AND DUP6 DUP5 ADD MSTORE PUSH2 0x42DA PUSH1 0x2 DUP3 ADD PUSH2 0x5398 JUMP JUMPDEST PUSH1 0x40 DUP5 ADD MSTORE PUSH2 0x42EB PUSH1 0x3 DUP3 ADD PUSH2 0x5398 JUMP JUMPDEST PUSH1 0x60 DUP5 ADD MSTORE PUSH2 0x42FC PUSH1 0x4 DUP3 ADD PUSH2 0x5398 JUMP JUMPDEST PUSH1 0x80 DUP5 ADD MSTORE PUSH2 0x430D PUSH1 0x5 DUP3 ADD PUSH2 0x5398 JUMP JUMPDEST PUSH1 0xA0 DUP5 ADD MSTORE PUSH2 0x431E PUSH1 0x6 DUP3 ADD PUSH2 0x5398 JUMP JUMPDEST PUSH1 0xC0 DUP5 ADD MSTORE PUSH2 0x432F PUSH1 0x7 DUP3 ADD PUSH2 0x5398 JUMP JUMPDEST PUSH1 0xE0 DUP5 ADD MSTORE ADD SLOAD SWAP2 DUP3 SWAP2 ADD MSTORE PUSH1 0x40 MLOAD SWAP1 DUP2 MSTORE RETURN JUMPDEST CALLVALUE PUSH2 0x195 JUMPI PUSH1 0x20 CALLDATASIZE PUSH1 0x3 NOT ADD SLT PUSH2 0x195 JUMPI PUSH2 0x435C PUSH2 0x5156 JUMP JUMPDEST CALLER PUSH0 MSTORE PUSH1 0x7 PUSH1 0x20 MSTORE PUSH1 0x40 PUSH0 KECCAK256 SWAP1 PUSH1 0x1 DUP1 PUSH1 0xA0 SHL SUB AND PUSH0 MSTORE PUSH1 0x20 MSTORE PUSH1 0x40 PUSH0 KECCAK256 PUSH1 0x1 PUSH1 0xFF NOT DUP3 SLOAD AND OR SWAP1 SSTORE PUSH2 0x4390 PUSH1 0xE SLOAD PUSH2 0x5618 JUMP JUMPDEST PUSH1 0xE SSTORE PUSH1 0x20 PUSH1 0x40 MLOAD PUSH1 0x1 DUP2 MSTORE RETURN JUMPDEST CALLVALUE PUSH2 0x195 JUMPI PUSH1 0x20 CALLDATASIZE PUSH1 0x3 NOT ADD SLT PUSH2 0x195 JUMPI PUSH1 0x1 PUSH1 0x1 PUSH1 0xA0 SHL SUB PUSH2 0x43BF PUSH2 0x5156 JUMP JUMPDEST AND PUSH0 DUP2 DUP2 MSTORE PUSH1 0x7 PUSH1 0x20 SWAP1 DUP2 MSTORE PUSH1 0x40 DUP1 DUP4 KECCAK256 CALLER DUP5 MSTORE SWAP1 SWAP2 MSTORE SWAP1 KECCAK256 SLOAD PUSH2 0x43E5 SWAP1 PUSH1 0xFF AND PUSH2 0x563A JUMP JUMPDEST PUSH0 MSTORE PUSH1 0x4 PUSH1 0x20 MSTORE PUSH1 0x40 PUSH0 KECCAK256 PUSH1 0x40 MLOAD PUSH2 0x43FC DUP2 PUSH2 0x516C JUMP JUMPDEST PUSH2 0x4405 DUP3 PUSH2 0x5398 JUMP JUMPDEST DUP2 MSTORE PUSH2 0x357 PUSH2 0x4416 PUSH1 0x1 DUP5 ADD PUSH2 0x5398 JUMP JUMPDEST SWAP2 PUSH1 0x20 DUP2 ADD SWAP3 DUP4 MSTORE PUSH2 0x442A PUSH1 0x2 DUP6 ADD PUSH2 0x5398 JUMP JUMPDEST SWAP4 PUSH1 0x40 DUP3 ADD SWAP5 DUP6 MSTORE PUSH2 0x443E PUSH1 0x3 DUP3 ADD PUSH2 0x5398 JUMP JUMPDEST SWAP2 PUSH1 0x60 DUP2 ADD SWAP3 DUP4 MSTORE PUSH2 0x4452 PUSH1 0x4 DUP4 ADD PUSH2 0x5398 JUMP JUMPDEST PUSH1 0x80 DUP3 ADD SWAP1 DUP2 MSTORE PUSH2 0x4465 PUSH1 0x5 DUP5 ADD PUSH2 0x5398 JUMP JUMPDEST SWAP2 PUSH1 0xA0 DUP2 ADD SWAP3 DUP4 MSTORE PUSH1 0xE PUSH2 0x447B PUSH1 0x6 DUP7 ADD PUSH2 0x5398 JUMP JUMPDEST SWAP5 PUSH1 0xC0 DUP4 ADD SWAP6 DUP7 MSTORE PUSH2 0x448F PUSH1 0x7 DUP3 ADD PUSH2 0x5398 JUMP JUMPDEST PUSH1 0xE0 DUP5 ADD MSTORE PUSH2 0x44A0 PUSH1 0x8 DUP3 ADD PUSH2 0x5398 JUMP JUMPDEST PUSH2 0x100 DUP5 ADD MSTORE PUSH2 0x44B2 PUSH1 0x9 DUP3 ADD PUSH2 0x5398 JUMP JUMPDEST PUSH2 0x120 DUP5 ADD MSTORE PUSH2 0x44C4 PUSH1 0xA DUP3 ADD PUSH2 0x5398 JUMP JUMPDEST PUSH2 0x140 DUP5 ADD MSTORE PUSH2 0x44D6 PUSH1 0xB DUP3 ADD PUSH2 0x5398 JUMP JUMPDEST PUSH2 0x160 DUP5 ADD MSTORE PUSH2 0x44E8 PUSH1 0xC DUP3 ADD PUSH2 0x5398 JUMP JUMPDEST PUSH2 0x180 DUP5 ADD MSTORE PUSH1 0xD DUP2 ADD SLOAD PUSH1 0x1 PUSH1 0x1 PUSH1 0xA0 SHL SUB AND PUSH2 0x1A0 DUP5 ADD MSTORE ADD SLOAD PUSH2 0x1C0 DUP3 ADD MSTORE MLOAD SWAP6 MLOAD SWAP7 MLOAD SWAP4 MLOAD SWAP1 MLOAD SWAP2 MLOAD SWAP3 MLOAD PUSH1 0x40 MLOAD SWAP8 DUP9 SWAP8 SWAP2 SWAP6 SWAP2 DUP9 PUSH2 0x54B3 JUMP JUMPDEST CALLVALUE PUSH2 0x195 JUMPI PUSH1 0x20 CALLDATASIZE PUSH1 0x3 NOT ADD SLT PUSH2 0x195 JUMPI PUSH1 0x1 PUSH1 0x1 PUSH1 0xA0 SHL SUB PUSH2 0x4547 PUSH2 0x5156 JUMP JUMPDEST AND PUSH0 DUP2 DUP2 MSTORE PUSH1 0x7 PUSH1 0x20 SWAP1 DUP2 MSTORE PUSH1 0x40 DUP1 DUP4 KECCAK256 CALLER DUP5 MSTORE SWAP1 SWAP2 MSTORE SWAP1 KECCAK256 SLOAD PUSH2 0x456D SWAP1 PUSH1 0xFF AND PUSH2 0x563A JUMP JUMPDEST PUSH0 MSTORE PUSH1 0x4 PUSH1 0x20 MSTORE PUSH2 0x46BE PUSH1 0x40 PUSH0 KECCAK256 PUSH2 0x357 PUSH1 0x40 MLOAD SWAP2 PUSH2 0x458B DUP4 PUSH2 0x516C JUMP JUMPDEST PUSH2 0x4594 DUP2 PUSH2 0x5398 JUMP JUMPDEST DUP4 MSTORE PUSH2 0x45A2 PUSH1 0x1 DUP3 ADD PUSH2 0x5398 JUMP JUMPDEST PUSH1 0x20 DUP5 ADD MSTORE PUSH2 0x45B3 PUSH1 0x2 DUP3 ADD PUSH2 0x5398 JUMP JUMPDEST PUSH1 0x40 DUP5 ADD MSTORE PUSH2 0x45C4 PUSH1 0x3 DUP3 ADD PUSH2 0x5398 JUMP JUMPDEST PUSH1 0x60 DUP5 ADD MSTORE PUSH2 0x45D5 PUSH1 0x4 DUP3 ADD PUSH2 0x5398 JUMP JUMPDEST PUSH1 0x80 DUP5 ADD MSTORE PUSH2 0x45E6 PUSH1 0x5 DUP3 ADD PUSH2 0x5398 JUMP JUMPDEST PUSH1 0xA0 DUP5 ADD MSTORE PUSH2 0x45F7 PUSH1 0x6 DUP3 ADD PUSH2 0x5398 JUMP JUMPDEST PUSH1 0xC0 DUP5 ADD MSTORE PUSH2 0x46F6 PUSH2 0x460B PUSH1 0x7 DUP4 ADD PUSH2 0x5398 JUMP JUMPDEST PUSH1 0xE0 DUP6 ADD SWAP1 DUP2 MSTORE PUSH2 0x46E8 PUSH2 0x4621 PUSH1 0x8 DUP6 ADD PUSH2 0x5398 JUMP JUMPDEST SWAP6 PUSH2 0x100 DUP2 ADD SWAP7 DUP8 MSTORE PUSH2 0x46DA PUSH2 0x4639 PUSH1 0x9 DUP8 ADD PUSH2 0x5398 JUMP JUMPDEST SWAP4 PUSH2 0x120 DUP4 ADD SWAP5 DUP6 MSTORE PUSH2 0x46CC PUSH2 0x4651 PUSH1 0xA DUP10 ADD PUSH2 0x5398 JUMP JUMPDEST SWAP2 PUSH2 0x140 DUP6 ADD SWAP3 DUP4 MSTORE PUSH2 0x4666 PUSH1 0xB DUP11 ADD PUSH2 0x5398 JUMP JUMPDEST SWAP5 PUSH2 0x160 DUP2 ADD SWAP6 DUP7 MSTORE PUSH2 0x1C0 PUSH1 0xE PUSH2 0x4680 PUSH1 0xC DUP14 ADD PUSH2 0x5398 JUMP JUMPDEST SWAP12 DUP13 PUSH2 0x180 DUP6 ADD MSTORE PUSH1 0x1 DUP1 PUSH1 0xA0 SHL SUB PUSH1 0xD DUP3 ADD SLOAD AND PUSH2 0x1A0 DUP6 ADD MSTORE ADD SLOAD SWAP2 ADD MSTORE MLOAD SWAP10 MLOAD SWAP6 MLOAD SWAP2 MLOAD SWAP4 MLOAD SWAP6 PUSH1 0x40 MLOAD SWAP12 DUP13 SWAP12 PUSH1 0xC0 DUP14 MSTORE PUSH1 0xC0 DUP14 ADD SWAP1 PUSH2 0x5438 JUMP JUMPDEST SWAP1 DUP12 DUP3 SUB PUSH1 0x20 DUP14 ADD MSTORE PUSH2 0x5438 JUMP JUMPDEST SWAP1 DUP10 DUP3 SUB PUSH1 0x40 DUP12 ADD MSTORE PUSH2 0x5438 JUMP JUMPDEST SWAP1 DUP8 DUP3 SUB PUSH1 0x60 DUP10 ADD MSTORE PUSH2 0x5438 JUMP JUMPDEST SWAP1 DUP6 DUP3 SUB PUSH1 0x80 DUP8 ADD MSTORE PUSH2 0x5438 JUMP JUMPDEST SWAP1 DUP4 DUP3 SUB PUSH1 0xA0 DUP6 ADD MSTORE PUSH2 0x5438 JUMP JUMPDEST CALLVALUE PUSH2 0x195 JUMPI PUSH0 CALLDATASIZE PUSH1 0x3 NOT ADD SLT PUSH2 0x195 JUMPI PUSH1 0x40 MLOAD DUP1 PUSH1 0x20 PUSH1 0x1 SLOAD SWAP2 DUP3 DUP2 MSTORE ADD SWAP1 PUSH1 0x1 PUSH0 MSTORE PUSH32 0xB10E2D527612073B26EECDFD717E6A320CF44B4AFAC2B0732D9FCBE2B7FA0CF6 SWAP1 PUSH0 JUMPDEST DUP2 DUP2 LT PUSH2 0x4762 JUMPI PUSH2 0x357 DUP6 PUSH2 0xC85 DUP2 DUP8 SUB DUP3 PUSH2 0x51A4 JUMP JUMPDEST DUP3 SLOAD PUSH1 0x1 PUSH1 0x1 PUSH1 0xA0 SHL SUB AND DUP5 MSTORE PUSH1 0x20 SWAP1 SWAP4 ADD SWAP3 PUSH1 0x1 SWAP3 DUP4 ADD SWAP3 ADD PUSH2 0x474B JUMP JUMPDEST CALLVALUE PUSH2 0x195 JUMPI PUSH1 0x20 CALLDATASIZE PUSH1 0x3 NOT ADD SLT PUSH2 0x195 JUMPI PUSH1 0x4 CALLDATALOAD PUSH1 0x2 SLOAD DUP2 LT ISZERO PUSH2 0x195 JUMPI PUSH1 0x2 SLOAD DUP2 LT ISZERO PUSH2 0x235 JUMPI PUSH1 0x2 PUSH0 MSTORE PUSH32 0x405787FA12A823E0F2B7631CC41B3BA8828B3321CA811111FA75CD3AA3BB5ACE ADD SLOAD PUSH1 0x40 MLOAD PUSH1 0x1 PUSH1 0x1 PUSH1 0xA0 SHL SUB SWAP1 SWAP2 AND DUP2 MSTORE PUSH1 0x20 SWAP1 RETURN JUMPDEST CALLVALUE PUSH2 0x195 JUMPI PUSH1 0x20 CALLDATASIZE PUSH1 0x3 NOT ADD SLT PUSH2 0x195 JUMPI PUSH1 0x1 PUSH1 0x1 PUSH1 0xA0 SHL SUB PUSH2 0x4806 PUSH2 0x5156 JUMP JUMPDEST AND PUSH0 MSTORE PUSH1 0x4 PUSH1 0x20 MSTORE PUSH1 0x40 PUSH0 KECCAK256 PUSH2 0x481B DUP2 PUSH2 0x5398 JUMP JUMPDEST SWAP1 PUSH2 0x4828 PUSH1 0x1 DUP3 ADD PUSH2 0x5398 JUMP JUMPDEST SWAP1 PUSH2 0x4835 PUSH1 0x2 DUP3 ADD PUSH2 0x5398 JUMP JUMPDEST PUSH2 0x4841 PUSH1 0x3 DUP4 ADD PUSH2 0x5398 JUMP JUMPDEST PUSH2 0x484D PUSH1 0x4 DUP5 ADD PUSH2 0x5398 JUMP JUMPDEST PUSH2 0x4859 PUSH1 0x5 DUP6 ADD PUSH2 0x5398 JUMP JUMPDEST PUSH2 0x4865 PUSH1 0x6 DUP7 ADD PUSH2 0x5398 JUMP JUMPDEST PUSH2 0x4871 PUSH1 0x7 DUP8 ADD PUSH2 0x5398 JUMP JUMPDEST PUSH2 0x487D PUSH1 0x8 DUP9 ADD PUSH2 0x5398 JUMP JUMPDEST SWAP1 PUSH2 0x488A PUSH1 0x9 DUP10 ADD PUSH2 0x5398 JUMP JUMPDEST SWAP3 PUSH2 0x4897 PUSH1 0xA DUP11 ADD PUSH2 0x5398 JUMP JUMPDEST SWAP5 PUSH2 0x48A4 PUSH1 0xB DUP12 ADD PUSH2 0x5398 JUMP JUMPDEST SWAP7 PUSH2 0x48B1 PUSH1 0xC DUP13 ADD PUSH2 0x5398 JUMP JUMPDEST SWAP9 PUSH1 0x1 PUSH1 0xA0 SHL PUSH1 0x1 SWAP1 SUB PUSH1 0xD DUP14 ADD SLOAD AND SWAP12 PUSH1 0xE ADD SLOAD SWAP11 PUSH1 0x40 MLOAD SWAP15 DUP16 SWAP15 DUP16 SWAP2 PUSH2 0x1E0 DUP4 MSTORE PUSH2 0x1E0 DUP4 ADD PUSH2 0x48E2 SWAP2 PUSH2 0x5438 JUMP JUMPDEST DUP3 DUP2 SUB PUSH1 0x20 DUP5 ADD MSTORE PUSH2 0x48F3 SWAP2 PUSH2 0x5438 JUMP JUMPDEST SWAP1 DUP1 DUP3 SUB SWAP1 PUSH1 0x40 ADD MSTORE PUSH2 0x4905 SWAP2 PUSH2 0x5438 JUMP JUMPDEST DUP14 DUP2 SUB PUSH1 0x60 DUP16 ADD MSTORE PUSH2 0x4916 SWAP2 PUSH2 0x5438 JUMP JUMPDEST DUP13 DUP2 SUB PUSH1 0x80 DUP15 ADD MSTORE PUSH2 0x4927 SWAP2 PUSH2 0x5438 JUMP JUMPDEST DUP12 DUP2 SUB PUSH1 0xA0 DUP14 ADD MSTORE PUSH2 0x4938 SWAP2 PUSH2 0x5438 JUMP JUMPDEST DUP11 DUP2 SUB PUSH1 0xC0 DUP13 ADD MSTORE PUSH2 0x4949 SWAP2 PUSH2 0x5438 JUMP JUMPDEST DUP10 DUP2 SUB PUSH1 0xE0 DUP12 ADD MSTORE PUSH2 0x495A SWAP2 PUSH2 0x5438 JUMP JUMPDEST DUP9 DUP2 SUB PUSH2 0x100 DUP11 ADD MSTORE PUSH2 0x496C SWAP2 PUSH2 0x5438 JUMP JUMPDEST DUP8 DUP2 SUB PUSH2 0x120 DUP10 ADD MSTORE PUSH2 0x497E SWAP2 PUSH2 0x5438 JUMP JUMPDEST DUP7 DUP2 SUB PUSH2 0x140 DUP9 ADD MSTORE PUSH2 0x4990 SWAP2 PUSH2 0x5438 JUMP JUMPDEST DUP6 DUP2 SUB PUSH2 0x160 DUP8 ADD MSTORE PUSH2 0x49A2 SWAP2 PUSH2 0x5438 JUMP JUMPDEST DUP5 DUP2 SUB PUSH2 0x180 DUP7 ADD MSTORE PUSH2 0x49B4 SWAP2 PUSH2 0x5438 JUMP JUMPDEST SWAP2 PUSH2 0x1A0 DUP5 ADD MSTORE PUSH2 0x1C0 DUP4 ADD MSTORE SUB SWAP1 RETURN JUMPDEST CALLVALUE PUSH2 0x195 JUMPI PUSH2 0x49D3 CALLDATASIZE PUSH2 0x521A JUMP JUMPDEST SWAP1 CALLER PUSH0 MSTORE PUSH1 0x9 PUSH1 0x20 MSTORE PUSH1 0xFF PUSH1 0x40 PUSH0 KECCAK256 SLOAD AND ISZERO PUSH2 0x5105 JUMPI PUSH1 0x1 PUSH1 0x1 PUSH1 0xA0 SHL SUB AND PUSH0 DUP2 DUP2 MSTORE PUSH1 0x6 PUSH1 0x20 MSTORE PUSH1 0x40 SWAP1 KECCAK256 DUP1 SLOAD PUSH1 0x1 PUSH1 0x1 PUSH1 0xA0 SHL SUB NOT SWAP1 DUP2 AND CALLER OR DUP3 SSTORE PUSH1 0x1 DUP3 ADD DUP1 SLOAD SWAP1 SWAP2 AND DUP4 OR SWAP1 SSTORE DUP3 MLOAD DUP1 MLOAD SWAP2 SWAP4 SWAP2 PUSH1 0x2 DUP6 ADD SWAP2 PUSH1 0x1 PUSH1 0x1 PUSH1 0x40 SHL SUB DUP3 GT PUSH2 0x668 JUMPI DUP2 SWAP1 PUSH2 0x4A44 DUP5 SLOAD PUSH2 0x5360 JUMP JUMPDEST PUSH1 0x1F DUP2 GT PUSH2 0x50B5 JUMPI JUMPDEST POP PUSH1 0x20 SWAP1 PUSH1 0x1F DUP4 GT PUSH1 0x1 EQ PUSH2 0x5052 JUMPI PUSH0 SWAP3 PUSH2 0x5047 JUMPI JUMPDEST POP POP DUP2 PUSH1 0x1 SHL SWAP2 PUSH0 NOT SWAP1 PUSH1 0x3 SHL SHR NOT AND OR SWAP1 SSTORE JUMPDEST PUSH1 0x20 DUP2 ADD MLOAD DUP1 MLOAD PUSH1 0x3 DUP6 ADD SWAP2 PUSH1 0x1 PUSH1 0x1 PUSH1 0x40 SHL SUB DUP3 GT PUSH2 0x668 JUMPI DUP2 SWAP1 PUSH2 0x4A9D DUP5 SLOAD PUSH2 0x5360 JUMP JUMPDEST PUSH1 0x1F DUP2 GT PUSH2 0x4FF7 JUMPI JUMPDEST POP PUSH1 0x20 SWAP1 PUSH1 0x1F DUP4 GT PUSH1 0x1 EQ PUSH2 0x4F94 JUMPI PUSH0 SWAP3 PUSH2 0x4F89 JUMPI JUMPDEST POP POP DUP2 PUSH1 0x1 SHL SWAP2 PUSH0 NOT SWAP1 PUSH1 0x3 SHL SHR NOT AND OR SWAP1 SSTORE JUMPDEST PUSH1 0x80 DUP2 ADD MLOAD DUP1 MLOAD PUSH1 0x6 DUP6 ADD SWAP2 PUSH1 0x1 PUSH1 0x1 PUSH1 0x40 SHL SUB DUP3 GT PUSH2 0x668 JUMPI DUP2 SWAP1 PUSH2 0x4AF6 DUP5 SLOAD PUSH2 0x5360 JUMP JUMPDEST PUSH1 0x1F DUP2 GT PUSH2 0x4F39 JUMPI JUMPDEST POP PUSH1 0x20 SWAP1 PUSH1 0x1F DUP4 GT PUSH1 0x1 EQ PUSH2 0x4ED6 JUMPI PUSH0 SWAP3 PUSH2 0x4ECB JUMPI JUMPDEST POP POP DUP2 PUSH1 0x1 SHL SWAP2 PUSH0 NOT SWAP1 PUSH1 0x3 SHL SHR NOT AND OR SWAP1 SSTORE JUMPDEST PUSH1 0x40 DUP2 ADD MLOAD DUP1 MLOAD PUSH1 0x4 DUP6 ADD SWAP2 PUSH1 0x1 PUSH1 0x1 PUSH1 0x40 SHL SUB DUP3 GT PUSH2 0x668 JUMPI DUP2 SWAP1 PUSH2 0x4B4F DUP5 SLOAD PUSH2 0x5360 JUMP JUMPDEST PUSH1 0x1F DUP2 GT PUSH2 0x4E7B JUMPI JUMPDEST POP PUSH1 0x20 SWAP1 PUSH1 0x1F DUP4 GT PUSH1 0x1 EQ PUSH2 0x4E18 JUMPI PUSH0 SWAP3 PUSH2 0x4E0D JUMPI JUMPDEST POP POP DUP2 PUSH1 0x1 SHL SWAP2 PUSH0 NOT SWAP1 PUSH1 0x3 SHL SHR NOT AND OR SWAP1 SSTORE JUMPDEST PUSH1 0x60 DUP2 ADD MLOAD DUP1 MLOAD PUSH1 0x5 DUP6 ADD SWAP2 PUSH1 0x1 PUSH1 0x1 PUSH1 0x40 SHL SUB DUP3 GT PUSH2 0x668 JUMPI PUSH2 0x4BA6 DUP4 SLOAD PUSH2 0x5360 JUMP JUMPDEST PUSH1 0x1F DUP2 GT PUSH2 0x4DC8 JUMPI JUMPDEST POP PUSH1 0x20 SWAP1 PUSH1 0x1F DUP4 GT PUSH1 0x1 EQ PUSH2 0x4D61 JUMPI PUSH1 0xA0 SWAP5 SWAP4 SWAP3 SWAP2 PUSH0 SWAP2 DUP4 PUSH2 0x4D56 JUMPI JUMPDEST POP POP DUP2 PUSH1 0x1 SHL SWAP2 PUSH0 NOT SWAP1 PUSH1 0x3 SHL SHR NOT AND OR SWAP1 SSTORE JUMPDEST ADD MLOAD SWAP2 PUSH1 0x7 DUP2 ADD DUP4 MLOAD PUSH1 0x1 PUSH1 0x1 PUSH1 0x40 SHL SUB DUP2 GT PUSH2 0x668 JUMPI PUSH2 0x4C01 DUP3 SLOAD PUSH2 0x5360 JUMP JUMPDEST PUSH1 0x1F DUP2 GT PUSH2 0x4D11 JUMPI JUMPDEST POP PUSH1 0x20 SWAP5 PUSH1 0x1F DUP3 GT PUSH1 0x1 EQ PUSH2 0x4CB0 JUMPI SWAP5 DUP2 SWAP3 SWAP4 SWAP5 SWAP6 PUSH0 SWAP3 PUSH2 0x4CA5 JUMPI JUMPDEST POP POP DUP2 PUSH1 0x1 SHL SWAP2 PUSH0 NOT SWAP1 PUSH1 0x3 SHL SHR NOT AND OR SWAP1 SSTORE JUMPDEST PUSH1 0x8 TIMESTAMP SWAP2 ADD SSTORE PUSH1 0x3 SLOAD PUSH1 0x1 PUSH1 0x40 SHL DUP2 LT ISZERO PUSH2 0x668 JUMPI DUP1 PUSH1 0x1 PUSH2 0x4C61 SWAP3 ADD PUSH1 0x3 SSTORE PUSH1 0x3 PUSH2 0x545C JUMP JUMPDEST DUP2 SLOAD PUSH1 0x1 PUSH1 0x1 PUSH1 0xA0 SHL SUB PUSH1 0x3 SWAP3 SWAP1 SWAP3 SHL SWAP2 DUP3 SHL NOT AND SWAP1 DUP4 SWAP1 SHL OR SWAP1 SSTORE PUSH1 0xD SLOAD PUSH2 0x4C89 SWAP1 PUSH2 0x5618 JUMP JUMPDEST PUSH1 0xD SSTORE PUSH0 MSTORE PUSH1 0xA PUSH1 0x20 MSTORE PUSH1 0x40 PUSH0 KECCAK256 PUSH2 0x4CA1 DUP2 SLOAD PUSH2 0x5618 JUMP JUMPDEST SWAP1 SSTORE STOP JUMPDEST ADD MLOAD SWAP1 POP DUP6 DUP1 PUSH2 0x4C26 JUMP JUMPDEST PUSH1 0x1F NOT DUP3 AND SWAP6 DUP4 PUSH0 MSTORE DUP1 PUSH0 KECCAK256 SWAP2 PUSH0 JUMPDEST DUP9 DUP2 LT PUSH2 0x4CF9 JUMPI POP DUP4 PUSH1 0x1 SWAP6 SWAP7 SWAP8 SWAP9 LT PUSH2 0x4CE1 JUMPI JUMPDEST POP POP POP DUP2 SHL ADD SWAP1 SSTORE PUSH2 0x4C3A JUMP JUMPDEST ADD MLOAD PUSH0 NOT PUSH1 0xF8 DUP5 PUSH1 0x3 SHL AND SHR NOT AND SWAP1 SSTORE DUP6 DUP1 DUP1 PUSH2 0x4CD4 JUMP JUMPDEST SWAP2 SWAP3 PUSH1 0x20 PUSH1 0x1 DUP2 SWAP3 DUP7 DUP6 ADD MLOAD DUP2 SSTORE ADD SWAP5 ADD SWAP3 ADD PUSH2 0x4CBF JUMP JUMPDEST DUP3 PUSH0 MSTORE PUSH1 0x20 PUSH0 KECCAK256 PUSH1 0x1F DUP4 ADD PUSH1 0x5 SHR DUP2 ADD SWAP2 PUSH1 0x20 DUP5 LT PUSH2 0x4D4C JUMPI JUMPDEST PUSH1 0x1F ADD PUSH1 0x5 SHR ADD SWAP1 JUMPDEST DUP2 DUP2 LT PUSH2 0x4D41 JUMPI POP PUSH2 0x4C0A JUMP JUMPDEST PUSH0 DUP2 SSTORE PUSH1 0x1 ADD PUSH2 0x4D34 JUMP JUMPDEST SWAP1 SWAP2 POP DUP2 SWAP1 PUSH2 0x4D2B JUMP JUMPDEST ADD MLOAD SWAP1 POP DUP8 DUP1 PUSH2 0x4BCC JUMP JUMPDEST SWAP1 PUSH1 0x1F NOT DUP4 AND SWAP2 DUP5 PUSH0 MSTORE DUP2 PUSH0 KECCAK256 SWAP3 PUSH0 JUMPDEST DUP2 DUP2 LT PUSH2 0x4DB0 JUMPI POP SWAP2 PUSH1 0x1 SWAP4 SWAP2 DUP6 PUSH1 0xA0 SWAP9 SWAP8 SWAP7 SWAP5 LT PUSH2 0x4D98 JUMPI JUMPDEST POP POP POP DUP2 SHL ADD SWAP1 SSTORE PUSH2 0x4BE0 JUMP JUMPDEST ADD MLOAD PUSH0 NOT PUSH1 0xF8 DUP5 PUSH1 0x3 SHL AND SHR NOT AND SWAP1 SSTORE DUP8 DUP1 DUP1 PUSH2 0x4D8B JUMP JUMPDEST SWAP3 SWAP4 PUSH1 0x20 PUSH1 0x1 DUP2 SWAP3 DUP8 DUP7 ADD MLOAD DUP2 SSTORE ADD SWAP6 ADD SWAP4 ADD PUSH2 0x4D71 JUMP JUMPDEST DUP4 PUSH0 MSTORE PUSH1 0x20 PUSH0 KECCAK256 PUSH1 0x1F DUP5 ADD PUSH1 0x5 SHR DUP2 ADD SWAP2 PUSH1 0x20 DUP6 LT PUSH2 0x4E03 JUMPI JUMPDEST PUSH1 0x1F ADD PUSH1 0x5 SHR ADD SWAP1 JUMPDEST DUP2 DUP2 LT PUSH2 0x4DF8 JUMPI POP PUSH2 0x4BAF JUMP JUMPDEST PUSH0 DUP2 SSTORE PUSH1 0x1 ADD PUSH2 0x4DEB JUMP JUMPDEST SWAP1 SWAP2 POP DUP2 SWAP1 PUSH2 0x4DE2 JUMP JUMPDEST ADD MLOAD SWAP1 POP DUP7 DUP1 PUSH2 0x4B6E JUMP JUMPDEST PUSH0 DUP6 DUP2 MSTORE DUP3 DUP2 KECCAK256 SWAP4 POP PUSH1 0x1F NOT DUP6 AND SWAP1 JUMPDEST DUP2 DUP2 LT PUSH2 0x4E63 JUMPI POP SWAP1 DUP5 PUSH1 0x1 SWAP6 SWAP5 SWAP4 SWAP3 LT PUSH2 0x4E4B JUMPI JUMPDEST POP POP POP DUP2 SHL ADD SWAP1 SSTORE PUSH2 0x4B82 JUMP JUMPDEST ADD MLOAD PUSH0 NOT PUSH1 0xF8 DUP5 PUSH1 0x3 SHL AND SHR NOT AND SWAP1 SSTORE DUP7 DUP1 DUP1 PUSH2 0x4E3E JUMP JUMPDEST SWAP3 SWAP4 PUSH1 0x20 PUSH1 0x1 DUP2 SWAP3 DUP8 DUP7 ADD MLOAD DUP2 SSTORE ADD SWAP6 ADD SWAP4 ADD PUSH2 0x4E28 JUMP JUMPDEST SWAP1 SWAP2 POP DUP4 PUSH0 MSTORE PUSH1 0x20 PUSH0 KECCAK256 PUSH1 0x1F DUP5 ADD PUSH1 0x5 SHR DUP2 ADD SWAP2 PUSH1 0x20 DUP6 LT PUSH2 0x4EC1 JUMPI JUMPDEST SWAP1 PUSH1 0x1F DUP6 SWAP5 SWAP4 SWAP3 ADD PUSH1 0x5 SHR ADD SWAP1 JUMPDEST DUP2 DUP2 LT PUSH2 0x4EB3 JUMPI POP PUSH2 0x4B58 JUMP JUMPDEST PUSH0 DUP2 SSTORE DUP5 SWAP4 POP PUSH1 0x1 ADD PUSH2 0x4EA6 JUMP JUMPDEST SWAP1 SWAP2 POP DUP2 SWAP1 PUSH2 0x4E98 JUMP JUMPDEST ADD MLOAD SWAP1 POP DUP7 DUP1 PUSH2 0x4B15 JUMP JUMPDEST PUSH0 DUP6 DUP2 MSTORE DUP3 DUP2 KECCAK256 SWAP4 POP PUSH1 0x1F NOT DUP6 AND SWAP1 JUMPDEST DUP2 DUP2 LT PUSH2 0x4F21 JUMPI POP SWAP1 DUP5 PUSH1 0x1 SWAP6 SWAP5 SWAP4 SWAP3 LT PUSH2 0x4F09 JUMPI JUMPDEST POP POP POP DUP2 SHL ADD SWAP1 SSTORE PUSH2 0x4B29 JUMP JUMPDEST ADD MLOAD PUSH0 NOT PUSH1 0xF8 DUP5 PUSH1 0x3 SHL AND SHR NOT AND SWAP1 SSTORE DUP7 DUP1 DUP1 PUSH2 0x4EFC JUMP JUMPDEST SWAP3 SWAP4 PUSH1 0x20 PUSH1 0x1 DUP2 SWAP3 DUP8 DUP7 ADD MLOAD DUP2 SSTORE ADD SWAP6 ADD SWAP4 ADD PUSH2 0x4EE6 JUMP JUMPDEST SWAP1 SWAP2 POP DUP4 PUSH0 MSTORE PUSH1 0x20 PUSH0 KECCAK256 PUSH1 0x1F DUP5 ADD PUSH1 0x5 SHR DUP2 ADD SWAP2 PUSH1 0x20 DUP6 LT PUSH2 0x4F7F JUMPI JUMPDEST SWAP1 PUSH1 0x1F DUP6 SWAP5 SWAP4 SWAP3 ADD PUSH1 0x5 SHR ADD SWAP1 JUMPDEST DUP2 DUP2 LT PUSH2 0x4F71 JUMPI POP PUSH2 0x4AFF JUMP JUMPDEST PUSH0 DUP2 SSTORE DUP5 SWAP4 POP PUSH1 0x1 ADD PUSH2 0x4F64 JUMP JUMPDEST SWAP1 SWAP2 POP DUP2 SWAP1 PUSH2 0x4F56 JUMP JUMPDEST ADD MLOAD SWAP1 POP DUP7 DUP1 PUSH2 0x4ABC JUMP JUMPDEST PUSH0 DUP6 DUP2 MSTORE DUP3 DUP2 KECCAK256 SWAP4 POP PUSH1 0x1F NOT DUP6 AND SWAP1 JUMPDEST DUP2 DUP2 LT PUSH2 0x4FDF JUMPI POP SWAP1 DUP5 PUSH1 0x1 SWAP6 SWAP5 SWAP4 SWAP3 LT PUSH2 0x4FC7 JUMPI JUMPDEST POP POP POP DUP2 SHL ADD SWAP1 SSTORE PUSH2 0x4AD0 JUMP JUMPDEST ADD MLOAD PUSH0 NOT PUSH1 0xF8 DUP5 PUSH1 0x3 SHL AND SHR NOT AND SWAP1 SSTORE DUP7 DUP1 DUP1 PUSH2 0x4FBA JUMP JUMPDEST SWAP3 SWAP4 PUSH1 0x20 PUSH1 0x1 DUP2 SWAP3 DUP8 DUP7 ADD MLOAD DUP2 SSTORE ADD SWAP6 ADD SWAP4 ADD PUSH2 0x4FA4 JUMP JUMPDEST SWAP1 SWAP2 POP DUP4 PUSH0 MSTORE PUSH1 0x20 PUSH0 KECCAK256 PUSH1 0x1F DUP5 ADD PUSH1 0x5 SHR DUP2 ADD SWAP2 PUSH1 0x20 DUP6 LT PUSH2 0x503D JUMPI JUMPDEST SWAP1 PUSH1 0x1F DUP6 SWAP5 SWAP4 SWAP3 ADD PUSH1 0x5 SHR ADD SWAP1 JUMPDEST DUP2 DUP2 LT PUSH2 0x502F JUMPI POP PUSH2 0x4AA6 JUMP JUMPDEST PUSH0 DUP2 SSTORE DUP5 SWAP4 POP PUSH1 0x1 ADD PUSH2 0x5022 JUMP JUMPDEST SWAP1 SWAP2 POP DUP2 SWAP1 PUSH2 0x5014 JUMP JUMPDEST ADD MLOAD SWAP1 POP DUP7 DUP1 PUSH2 0x4A63 JUMP JUMPDEST PUSH0 DUP6 DUP2 MSTORE DUP3 DUP2 KECCAK256 SWAP4 POP PUSH1 0x1F NOT DUP6 AND SWAP1 JUMPDEST DUP2 DUP2 LT PUSH2 0x509D JUMPI POP SWAP1 DUP5 PUSH1 0x1 SWAP6 SWAP5 SWAP4 SWAP3 LT PUSH2 0x5085 JUMPI JUMPDEST POP POP POP DUP2 SHL ADD SWAP1 SSTORE PUSH2 0x4A77 JUMP JUMPDEST ADD MLOAD PUSH0 NOT PUSH1 0xF8 DUP5 PUSH1 0x3 SHL AND SHR NOT AND SWAP1 SSTORE DUP7 DUP1 DUP1 PUSH2 0x5078 JUMP JUMPDEST SWAP3 SWAP4 PUSH1 0x20 PUSH1 0x1 DUP2 SWAP3 DUP8 DUP7 ADD MLOAD DUP2 SSTORE ADD SWAP6 ADD SWAP4 ADD PUSH2 0x5062 JUMP JUMPDEST SWAP1 SWAP2 POP DUP4 PUSH0 MSTORE PUSH1 0x20 PUSH0 KECCAK256 PUSH1 0x1F DUP5 ADD PUSH1 0x5 SHR DUP2 ADD SWAP2 PUSH1 0x20 DUP6 LT PUSH2 0x50FB JUMPI JUMPDEST SWAP1 PUSH1 0x1F DUP6 SWAP5 SWAP4 SWAP3 ADD PUSH1 0x5 SHR ADD SWAP1 JUMPDEST DUP2 DUP2 LT PUSH2 0x50ED JUMPI POP PUSH2 0x4A4D JUMP JUMPDEST PUSH0 DUP2 SSTORE DUP5 SWAP4 POP PUSH1 0x1 ADD PUSH2 0x50E0 JUMP JUMPDEST SWAP1 SWAP2 POP DUP2 SWAP1 PUSH2 0x50D2 JUMP JUMPDEST PUSH1 0x40 MLOAD PUSH3 0x461BCD PUSH1 0xE5 SHL DUP2 MSTORE PUSH1 0x20 PUSH1 0x4 DUP3 ADD MSTORE PUSH1 0x24 DUP1 DUP3 ADD MSTORE PUSH32 0x4F6E6C7920646F63746F72732063616E20637265617465206170706F696E746D PUSH1 0x44 DUP3 ADD MSTORE PUSH4 0x656E7473 PUSH1 0xE0 SHL PUSH1 0x64 DUP3 ADD MSTORE PUSH1 0x84 SWAP1 REVERT JUMPDEST PUSH1 0x4 CALLDATALOAD SWAP1 PUSH1 0x1 PUSH1 0x1 PUSH1 0xA0 SHL SUB DUP3 AND DUP3 SUB PUSH2 0x195 JUMPI JUMP JUMPDEST PUSH2 0x1E0 DUP2 ADD SWAP1 DUP2 LT PUSH1 0x1 PUSH1 0x1 PUSH1 0x40 SHL SUB DUP3 GT OR PUSH2 0x668 JUMPI PUSH1 0x40 MSTORE JUMP JUMPDEST PUSH2 0x120 DUP2 ADD SWAP1 DUP2 LT PUSH1 0x1 PUSH1 0x1 PUSH1 0x40 SHL SUB DUP3 GT OR PUSH2 0x668 JUMPI PUSH1 0x40 MSTORE JUMP JUMPDEST SWAP1 PUSH1 0x1F DUP1 NOT SWAP2 ADD AND DUP2 ADD SWAP1 DUP2 LT PUSH1 0x1 PUSH1 0x1 PUSH1 0x40 SHL SUB DUP3 GT OR PUSH2 0x668 JUMPI PUSH1 0x40 MSTORE JUMP JUMPDEST DUP2 PUSH1 0x1F DUP3 ADD SLT ISZERO PUSH2 0x195 JUMPI DUP1 CALLDATALOAD SWAP1 PUSH1 0x1 PUSH1 0x1 PUSH1 0x40 SHL SUB DUP3 GT PUSH2 0x668 JUMPI PUSH1 0x40 MLOAD SWAP3 PUSH2 0x51F9 PUSH1 0x1F DUP5 ADD PUSH1 0x1F NOT AND PUSH1 0x20 ADD DUP6 PUSH2 0x51A4 JUMP JUMPDEST DUP3 DUP5 MSTORE PUSH1 0x20 DUP4 DUP4 ADD ADD GT PUSH2 0x195 JUMPI DUP2 PUSH0 SWAP3 PUSH1 0x20 DUP1 SWAP4 ADD DUP4 DUP7 ADD CALLDATACOPY DUP4 ADD ADD MSTORE SWAP1 JUMP JUMPDEST SWAP1 PUSH1 0x40 PUSH1 0x3 NOT DUP4 ADD SLT PUSH2 0x195 JUMPI PUSH1 0x4 CALLDATALOAD PUSH1 0x1 PUSH1 0x1 PUSH1 0xA0 SHL SUB DUP2 AND DUP2 SUB PUSH2 0x195 JUMPI SWAP2 PUSH1 0x24 CALLDATALOAD PUSH1 0x1 PUSH1 0x1 PUSH1 0x40 SHL SUB DUP2 GT PUSH2 0x195 JUMPI PUSH1 0xC0 DUP2 DUP4 SUB PUSH1 0x3 NOT ADD SLT PUSH2 0x195 JUMPI PUSH1 0x40 MLOAD SWAP2 PUSH1 0xC0 DUP4 ADD DUP4 DUP2 LT PUSH1 0x1 PUSH1 0x1 PUSH1 0x40 SHL SUB DUP3 GT OR PUSH2 0x668 JUMPI PUSH1 0x40 MSTORE DUP2 PUSH1 0x4 ADD CALLDATALOAD PUSH1 0x1 PUSH1 0x1 PUSH1 0x40 SHL SUB DUP2 GT PUSH2 0x195 JUMPI DUP2 PUSH1 0x4 PUSH2 0x5299 SWAP3 DUP6 ADD ADD PUSH2 0x51C5 JUMP JUMPDEST DUP4 MSTORE PUSH1 0x24 DUP3 ADD CALLDATALOAD PUSH1 0x1 PUSH1 0x1 PUSH1 0x40 SHL SUB DUP2 GT PUSH2 0x195 JUMPI DUP2 PUSH1 0x4 PUSH2 0x52BD SWAP3 DUP6 ADD ADD PUSH2 0x51C5 JUMP JUMPDEST PUSH1 0x20 DUP5 ADD MSTORE PUSH1 0x44 DUP3 ADD CALLDATALOAD PUSH1 0x1 PUSH1 0x1 PUSH1 0x40 SHL SUB DUP2 GT PUSH2 0x195 JUMPI DUP2 PUSH1 0x4 PUSH2 0x52E4 SWAP3 DUP6 ADD ADD PUSH2 0x51C5 JUMP JUMPDEST PUSH1 0x40 DUP5 ADD MSTORE PUSH1 0x64 DUP3 ADD CALLDATALOAD PUSH1 0x1 PUSH1 0x1 PUSH1 0x40 SHL SUB DUP2 GT PUSH2 0x195 JUMPI DUP2 PUSH1 0x4 PUSH2 0x530B SWAP3 DUP6 ADD ADD PUSH2 0x51C5 JUMP JUMPDEST PUSH1 0x60 DUP5 ADD MSTORE PUSH1 0x84 DUP3 ADD CALLDATALOAD PUSH1 0x1 PUSH1 0x1 PUSH1 0x40 SHL SUB DUP2 GT PUSH2 0x195 JUMPI DUP2 PUSH1 0x4 PUSH2 0x5332 SWAP3 DUP6 ADD ADD PUSH2 0x51C5 JUMP JUMPDEST PUSH1 0x80 DUP5 ADD MSTORE PUSH1 0xA4 DUP3 ADD CALLDATALOAD SWAP2 PUSH1 0x1 PUSH1 0x1 PUSH1 0x40 SHL SUB DUP4 GT PUSH2 0x195 JUMPI PUSH2 0x5358 SWAP3 ADD PUSH1 0x4 ADD PUSH2 0x51C5 JUMP JUMPDEST PUSH1 0xA0 DUP3 ADD MSTORE SWAP1 JUMP JUMPDEST SWAP1 PUSH1 0x1 DUP3 DUP2 SHR SWAP3 AND DUP1 ISZERO PUSH2 0x538E JUMPI JUMPDEST PUSH1 0x20 DUP4 LT EQ PUSH2 0x537A JUMPI JUMP JUMPDEST PUSH4 0x4E487B71 PUSH1 0xE0 SHL PUSH0 MSTORE PUSH1 0x22 PUSH1 0x4 MSTORE PUSH1 0x24 PUSH0 REVERT JUMPDEST SWAP2 PUSH1 0x7F AND SWAP2 PUSH2 0x536F JUMP JUMPDEST SWAP1 PUSH1 0x40 MLOAD SWAP2 DUP3 PUSH0 DUP3 SLOAD SWAP3 PUSH2 0x53AB DUP5 PUSH2 0x5360 JUMP JUMPDEST DUP1 DUP5 MSTORE SWAP4 PUSH1 0x1 DUP2 AND SWAP1 DUP2 ISZERO PUSH2 0x5416 JUMPI POP PUSH1 0x1 EQ PUSH2 0x53D2 JUMPI JUMPDEST POP PUSH2 0x53D0 SWAP3 POP SUB DUP4 PUSH2 0x51A4 JUMP JUMPDEST JUMP JUMPDEST SWAP1 POP PUSH0 SWAP3 SWAP2 SWAP3 MSTORE PUSH1 0x20 PUSH0 KECCAK256 SWAP1 PUSH0 SWAP2 JUMPDEST DUP2 DUP4 LT PUSH2 0x53FA JUMPI POP POP SWAP1 PUSH1 0x20 PUSH2 0x53D0 SWAP3 DUP3 ADD ADD PUSH0 PUSH2 0x53C3 JUMP JUMPDEST PUSH1 0x20 SWAP2 SWAP4 POP DUP1 PUSH1 0x1 SWAP2 SLOAD DUP4 DUP6 DUP10 ADD ADD MSTORE ADD SWAP2 ADD SWAP1 SWAP2 DUP5 SWAP3 PUSH2 0x53E1 JUMP JUMPDEST SWAP1 POP PUSH1 0x20 SWAP3 POP PUSH2 0x53D0 SWAP5 SWAP2 POP PUSH1 0xFF NOT AND DUP3 DUP5 ADD MSTORE ISZERO ISZERO PUSH1 0x5 SHL DUP3 ADD ADD PUSH0 PUSH2 0x53C3 JUMP JUMPDEST DUP1 MLOAD DUP1 DUP4 MSTORE PUSH1 0x20 SWAP3 SWAP2 DUP2 SWAP1 DUP5 ADD DUP5 DUP5 ADD MCOPY PUSH0 DUP3 DUP3 ADD DUP5 ADD MSTORE PUSH1 0x1F ADD PUSH1 0x1F NOT AND ADD ADD SWAP1 JUMP JUMPDEST DUP1 SLOAD DUP3 LT ISZERO PUSH2 0x235 JUMPI PUSH0 MSTORE PUSH1 0x20 PUSH0 KECCAK256 ADD SWAP1 PUSH0 SWAP1 JUMP JUMPDEST PUSH1 0x20 PUSH1 0x40 DUP2 DUP4 ADD SWAP3 DUP3 DUP2 MSTORE DUP5 MLOAD DUP1 SWAP5 MSTORE ADD SWAP3 ADD SWAP1 PUSH0 JUMPDEST DUP2 DUP2 LT PUSH2 0x5494 JUMPI POP POP POP SWAP1 JUMP JUMPDEST DUP3 MLOAD PUSH1 0x1 PUSH1 0x1 PUSH1 0xA0 SHL SUB AND DUP5 MSTORE PUSH1 0x20 SWAP4 DUP5 ADD SWAP4 SWAP1 SWAP3 ADD SWAP2 PUSH1 0x1 ADD PUSH2 0x5487 JUMP JUMPDEST SWAP6 SWAP3 PUSH2 0x5523 SWAP5 PUSH2 0x54F9 PUSH2 0x5507 SWAP3 PUSH2 0x54EB PUSH2 0x5515 SWAP7 PUSH2 0x54DD PUSH2 0x5531 SWAP14 SWAP12 SWAP8 PUSH1 0xE0 DUP15 DUP2 DUP2 MSTORE ADD SWAP1 PUSH2 0x5438 JUMP JUMPDEST DUP13 DUP2 SUB PUSH1 0x20 DUP15 ADD MSTORE SWAP1 PUSH2 0x5438 JUMP JUMPDEST SWAP1 DUP11 DUP3 SUB PUSH1 0x40 DUP13 ADD MSTORE PUSH2 0x5438 JUMP JUMPDEST SWAP1 DUP9 DUP3 SUB PUSH1 0x60 DUP11 ADD MSTORE PUSH2 0x5438 JUMP JUMPDEST SWAP1 DUP7 DUP3 SUB PUSH1 0x80 DUP9 ADD MSTORE PUSH2 0x5438 JUMP JUMPDEST SWAP1 DUP5 DUP3 SUB PUSH1 0xA0 DUP7 ADD MSTORE PUSH2 0x5438 JUMP JUMPDEST SWAP2 PUSH1 0xC0 DUP2 DUP5 SUB SWAP2 ADD MSTORE PUSH2 0x5438 JUMP JUMPDEST SWAP1 JUMP JUMPDEST PUSH1 0xE0 PUSH1 0x3 NOT DUP3 ADD SLT PUSH2 0x195 JUMPI PUSH1 0x4 CALLDATALOAD PUSH1 0x1 PUSH1 0x1 PUSH1 0x40 SHL SUB DUP2 GT PUSH2 0x195 JUMPI DUP2 PUSH2 0x555E SWAP2 PUSH1 0x4 ADD PUSH2 0x51C5 JUMP JUMPDEST SWAP2 PUSH1 0x24 CALLDATALOAD PUSH1 0x1 PUSH1 0x1 PUSH1 0x40 SHL SUB DUP2 GT PUSH2 0x195 JUMPI DUP3 PUSH2 0x557D SWAP2 PUSH1 0x4 ADD PUSH2 0x51C5 JUMP JUMPDEST SWAP2 PUSH1 0x44 CALLDATALOAD PUSH1 0x1 PUSH1 0x1 PUSH1 0x40 SHL SUB DUP2 GT PUSH2 0x195 JUMPI DUP2 PUSH2 0x559C SWAP2 PUSH1 0x4 ADD PUSH2 0x51C5 JUMP JUMPDEST SWAP2 PUSH1 0x64 CALLDATALOAD PUSH1 0x1 PUSH1 0x1 PUSH1 0x40 SHL SUB DUP2 GT PUSH2 0x195 JUMPI DUP3 PUSH2 0x55BB SWAP2 PUSH1 0x4 ADD PUSH2 0x51C5 JUMP JUMPDEST SWAP2 PUSH1 0x84 CALLDATALOAD PUSH1 0x1 PUSH1 0x1 PUSH1 0x40 SHL SUB DUP2 GT PUSH2 0x195 JUMPI DUP2 PUSH2 0x55DA SWAP2 PUSH1 0x4 ADD PUSH2 0x51C5 JUMP JUMPDEST SWAP2 PUSH1 0xA4 CALLDATALOAD PUSH1 0x1 PUSH1 0x1 PUSH1 0x40 SHL SUB DUP2 GT PUSH2 0x195 JUMPI DUP3 PUSH2 0x55F9 SWAP2 PUSH1 0x4 ADD PUSH2 0x51C5 JUMP JUMPDEST SWAP2 PUSH1 0xC4 CALLDATALOAD SWAP1 PUSH1 0x1 PUSH1 0x1 PUSH1 0x40 SHL SUB DUP3 GT PUSH2 0x195 JUMPI PUSH2 0x5531 SWAP2 PUSH1 0x4 ADD PUSH2 0x51C5 JUMP JUMPDEST PUSH0 NOT DUP2 EQ PUSH2 0x5626 JUMPI PUSH1 0x1 ADD SWAP1 JUMP JUMPDEST PUSH4 0x4E487B71 PUSH1 0xE0 SHL PUSH0 MSTORE PUSH1 0x11 PUSH1 0x4 MSTORE PUSH1 0x24 PUSH0 REVERT JUMPDEST ISZERO PUSH2 0x5641 JUMPI JUMP JUMPDEST PUSH1 0x40 MLOAD PUSH3 0x461BCD PUSH1 0xE5 SHL DUP2 MSTORE PUSH1 0x20 PUSH1 0x4 DUP3 ADD MSTORE PUSH1 0xD PUSH1 0x24 DUP3 ADD MSTORE PUSH13 0x1058D8D95CDCC819195B9A5959 PUSH1 0x9A SHL PUSH1 0x44 DUP3 ADD MSTORE PUSH1 0x64 SWAP1 REVERT JUMPDEST ISZERO PUSH2 0x567D JUMPI JUMP JUMPDEST PUSH1 0x40 MLOAD PUSH3 0x461BCD PUSH1 0xE5 SHL DUP2 MSTORE PUSH1 0x20 PUSH1 0x4 DUP3 ADD MSTORE PUSH1 0x17 PUSH1 0x24 DUP3 ADD MSTORE PUSH32 0x4E6F742061207265676973746572656420646F63746F72000000000000000000 PUSH1 0x44 DUP3 ADD MSTORE PUSH1 0x64 SWAP1 REVERT INVALID LOG2 PUSH5 0x6970667358 0x22 SLT KECCAK256 PUSH1 0xEC 0xB6 PUSH7 0x2807EF3183578D SHR SWAP9 DUP6 0xD6 0xD5 REVERT 0xD0 0xDF 0xB3 DUP6 0xA6 INVALID DUP11 PUSH21 0x8526AF3A654E7A64736F6C634300081C0033000000 "}}}