{"abi":[{"inputs":[],"stateMutability":"nonpayable","type":"constructor"},{"inputs":[],"name":"appointmentCount","outputs":[{"internalType":"uint256","name":"","type":"uint256"}],"stateMutability":"view","type":"function"},{"inputs":[{"internalType":"uint256","name":"","type":"uint256"}],"name":"appointmentList","outputs":[{"internalType":"address","name":"","type":"address"}],"stateMutability":"view","type":"function"},{"inputs":[],"name":"doctorCount","outputs":[{"internalType":"uint256","name":"","type":"uint256"}],"stateMutability":"view","type":"function"},{"inputs":[{"internalType":"uint256","name":"","type":"uint256"}],"name":"doctorList","outputs":[{"internalType":"address","name":"","type":"address"}],"stateMutability":"view","type":"function"},{"inputs":[{"components":[{"internalType":"string","name":"ic","type":"string"},{"internalType":"string","name":"name","type":"string"},{"internalType":"string","name":"phone","type":"string"},{"internalType":"string","name":"gender","type":"string"},{"internalType":"string","name":"dob","type":"string"},{"internalType":"string","name":"height","type":"string"},{"internalType":"string","name":"weight","type":"string"},{"internalType":"string","name":"houseaddr","type":"string"},{"internalType":"string","name":"bloodgroup","type":"string"},{"internalType":"string","name":"allergies","type":"string"},{"internalType":"string","name":"medication","type":"string"},{"internalType":"string","name":"emergencyName","type":"string"},{"internalType":"string","name":"emergencyContact","type":"string"}],"internalType":"struct Record.PatientUpdate","name":"update","type":"tuple"}],"name":"editDetails","outputs":[],"stateMutability":"nonpayable","type":"function"},{"inputs":[{"internalType":"string","name":"_ic","type":"string"},{"internalType":"string","name":"_name","type":"string"},{"internalType":"string","name":"_phone","type":"string"},{"internalType":"string","name":"_gender","type":"string"},{"internalType":"string","name":"_dob","type":"string"},{"internalType":"string","name":"_qualification","type":"string"},{"internalType":"string","name":"_major","type":"string"}],"name":"editDoctor","outputs":[],"stateMutability":"nonpayable","type":"function"},{"inputs":[],"name":"getAppointmentCount","outputs":[{"internalType":"uint256","name":"","type":"uint256"}],"stateMutability":"view","type":"function"},{"inputs":[{"internalType":"address","name":"_address","type":"address"}],"name":"getAppointmentPerPatient","outputs":[{"internalType":"uint256","name":"","type":"uint256"}],"stateMutability":"view","type":"function"},{"inputs":[],"name":"getAppointments","outputs":[{"internalType":"address[]","name":"","type":"address[]"}],"stateMutability":"view","type":"function"},{"inputs":[],"name":"getDoctorCount","outputs":[{"internalType":"uint256","name":"","type":"uint256"}],"stateMutability":"view","type":"function"},{"inputs":[],"name":"getDoctors","outputs":[{"internalType":"address[]","name":"","type":"address[]"}],"stateMutability":"view","type":"function"},{"inputs":[],"name":"getPatientCount","outputs":[{"internalType":"uint256","name":"","type":"uint256"}],"stateMutability":"view","type":"function"},{"inputs":[],"name":"getPatients","outputs":[{"internalType":"address[]","name":"","type":"address[]"}],"stateMutability":"view","type":"function"},{"inputs":[],"name":"getPermissionGrantedCount","outputs":[{"internalType":"uint256","name":"","type":"uint256"}],"stateMutability":"view","type":"function"},{"inputs":[{"internalType":"address","name":"_address","type":"address"}],"name":"givePermission","outputs":[{"internalType":"bool","name":"success","type":"bool"}],"stateMutability":"nonpayable","type":"function"},{"inputs":[],"name":"owner","outputs":[{"internalType":"address","name":"","type":"address"}],"stateMutability":"view","type":"function"},{"inputs":[],"name":"patientCount","outputs":[{"internalType":"uint256","name":"","type":"uint256"}],"stateMutability":"view","type":"function"},{"inputs":[{"internalType":"uint256","name":"","type":"uint256"}],"name":"patientList","outputs":[{"internalType":"address","name":"","type":"address"}],"stateMutability":"view","type":"function"},{"inputs":[{"internalType":"address","name":"","type":"address"}],"name":"patients","outputs":[{"internalType":"string","name":"ic","type":"string"},{"internalType":"string","name":"name","type":"string"},{"internalType":"string","name":"phone","type":"string"},{"internalType":"string","name":"gender","type":"string"},{"internalType":"string","name":"dob","type":"string"},{"internalType":"string","name":"height","type":"string"},{"internalType":"string","name":"weight","type":"string"},{"internalType":"string","name":"houseaddr","type":"string"},{"internalType":"string","name":"bloodgroup","type":"string"},{"internalType":"string","name":"allergies","type":"string"},{"internalType":"string","name":"medication","type":"string"},{"internalType":"string","name":"emergencyName","type":"string"},{"internalType":"string","name":"emergencyContact","type":"string"},{"internalType":"address","name":"addr","type":"address"},{"internalType":"uint256","name":"date","type":"uint256"}],"stateMutability":"view","type":"function"},{"inputs":[],"name":"permissionGrantedCount","outputs":[{"internalType":"uint256","name":"","type":"uint256"}],"stateMutability":"view","type":"function"},{"inputs":[{"internalType":"address","name":"_address","type":"address"}],"name":"revokePermission","outputs":[{"internalType":"bool","name":"success","type":"bool"}],"stateMutability":"nonpayable","type":"function"},{"inputs":[{"internalType":"address","name":"_address","type":"address"}],"name":"searchAppointment","outputs":[{"internalType":"address","name":"","type":"address"},{"internalType":"string","name":"","type":"string"},{"internalType":"string","name":"","type":"string"},{"internalType":"string","name":"","type":"string"},{"internalType":"string","name":"","type":"string"},{"internalType":"string","name":"","type":"string"},{"internalType":"string","name":"","type":"string"},{"internalType":"string","name":"","type":"string"}],"stateMutability":"view","type":"function"},{"inputs":[{"internalType":"address","name":"_address","type":"address"}],"name":"searchAppointmentDate","outputs":[{"internalType":"uint256","name":"","type":"uint256"}],"stateMutability":"view","type":"function"},{"inputs":[{"internalType":"address","name":"_address","type":"address"}],"name":"searchDoctor","outputs":[{"internalType":"string","name":"","type":"string"},{"internalType":"string","name":"","type":"string"},{"internalType":"string","name":"","type":"string"},{"internalType":"string","name":"","type":"string"},{"internalType":"string","name":"","type":"string"},{"internalType":"string","name":"","type":"string"},{"internalType":"string","name":"","type":"string"}],"stateMutability":"view","type":"function"},{"inputs":[{"internalType":"address","name":"_address","type":"address"}],"name":"searchDoctorDate","outputs":[{"internalType":"uint256","name":"","type":"uint256"}],"stateMutability":"view","type":"function"},{"inputs":[{"internalType":"address","name":"_address","type":"address"}],"name":"searchPatientDemographic","outputs":[{"internalType":"string","name":"","type":"string"},{"internalType":"string","name":"","type":"string"},{"internalType":"string","name":"","type":"string"},{"internalType":"string","name":"","type":"string"},{"internalType":"string","name":"","type":"string"},{"internalType":"string","name":"","type":"string"},{"internalType":"string","name":"","type":"string"}],"stateMutability":"view","type":"function"},{"inputs":[{"internalType":"address","name":"_address","type":"address"}],"name":"searchPatientMedical","outputs":[{"internalType":"string","name":"","type":"string"},{"internalType":"string","name":"","type":"string"},{"internalType":"string","name":"","type":"string"},{"internalType":"string","name":"","type":"string"},{"internalType":"string","name":"","type":"string"},{"internalType":"string","name":"","type":"string"}],"stateMutability":"view","type":"function"},{"inputs":[{"internalType":"address","name":"_address","type":"address"}],"name":"searchRecordDate","outputs":[{"internalType":"uint256","name":"","type":"uint256"}],"stateMutability":"view","type":"function"},{"inputs":[{"internalType":"address","name":"_addr","type":"address"},{"components":[{"internalType":"string","name":"date","type":"string"},{"internalType":"string","name":"time","type":"string"},{"internalType":"string","name":"prescription","type":"string"},{"internalType":"string","name":"description","type":"string"},{"internalType":"string","name":"diagnosis","type":"string"},{"internalType":"string","name":"status","type":"string"}],"internalType":"struct Record.AppointmentDetails","name":"details","type":"tuple"}],"name":"setAppointment","outputs":[],"stateMutability":"nonpayable","type":"function"},{"inputs":[{"components":[{"internalType":"string","name":"ic","type":"string"},{"internalType":"string","name":"name","type":"string"},{"internalType":"string","name":"phone","type":"string"},{"internalType":"string","name":"gender","type":"string"},{"internalType":"string","name":"dob","type":"string"},{"internalType":"string","name":"height","type":"string"},{"internalType":"string","name":"weight","type":"string"},{"internalType":"string","name":"houseaddr","type":"string"},{"internalType":"string","name":"bloodgroup","type":"string"},{"internalType":"string","name":"allergies","type":"string"},{"internalType":"string","name":"medication","type":"string"},{"internalType":"string","name":"emergencyName","type":"string"},{"internalType":"string","name":"emergencyContact","type":"string"},{"internalType":"address","name":"addr","type":"address"},{"internalType":"uint256","name":"date","type":"uint256"}],"internalType":"struct Record.Patients","name":"patient","type":"tuple"}],"name":"setDetails","outputs":[],"stateMutability":"nonpayable","type":"function"},{"inputs":[{"internalType":"string","name":"_ic","type":"string"},{"internalType":"string","name":"_name","type":"string"},{"internalType":"string","name":"_phone","type":"string"},{"internalType":"string","name":"_gender","type":"string"},{"internalType":"string","name":"_dob","type":"string"},{"internalType":"string","name":"_qualification","type":"string"},{"internalType":"string","name":"_major","type":"string"}],"name":"setDoctor","outputs":[],"stateMutability":"nonpayable","type":"function"},{"inputs":[{"internalType":"address","name":"_addr","type":"address"},{"components":[{"internalType":"string","name":"date","type":"string"},{"internalType":"string","name":"time","type":"string"},{"internalType":"string","name":"prescription","type":"string"},{"internalType":"string","name":"description","type":"string"},{"internalType":"string","name":"diagnosis","type":"string"},{"internalType":"string","name":"status","type":"string"}],"internalType":"struct Record.AppointmentDetails","name":"details","type":"tuple"}],"name":"updateAppointment","outputs":[],"stateMutability":"nonpayable","type":"function"}],"evm":{"bytecode":{"linkReferences":{},"object":"608080604052346034575f600b555f600c555f600d555f600e553360018060a01b03195f5416175f5561576190816100398239f35b5f80fdfe60806040526004361015610011575f80fd5b5f3560e01c80621feeeb14614a2e5780630869cfbc1461484e578063127ca4b4146147ea57806312ad1c371461476d57806324c24b2b14610a6757806329e4afbb146101785780632a825ba01461458f5780633bc98280146144075780633d391f70146143ac5780634c14b38d146142dd5780635a57976814613239578063625961fc1461316657806378522bc41461314957806379111c1c146131495780637e4b80ad14611f9a5780638b945c6d1461173f5780638da5cb5b1461171857806392041982146114ef57806396b80d0814611472578063a0303c4114610a4a578063a3bf5b9a14611428578063a5aca8bc14610cb0578063b13d5d9414610c27578063babb1d4114610bc3578063bd6f972b14610a84578063c0cb24ba14610a67578063c190665b14610a4a578063c3dfb22f1461035b578063caee6c8514610249578063e6fce0d2146101d1578063e93a15b9146101995763eebc3fb214610178575f80fd5b34610195575f366003190112610195576020600d54604051908152f35b5f80fd5b34610195576020366003190112610195576001600160a01b036101ba6151bf565b165f52600a602052602060405f2054604051908152f35b3461019557602036600319011261019557600435600354811015610195576003548110156102355760035f527fc2575a0e9e593c00f959f8c92f12db2869c3395a3b0502d05e2516446f71f85b01546040516001600160a01b039091168152602090f35b634e487b7160e01b5f52603260045260245ffd5b34610195576020366003190112610195576001600160a01b0361026a6151bf565b16805f52600960205261028360ff60405f2054166156df565b5f52600560205260405f206040519061029b826151f1565b6102a481615401565b82526103576102b560018301615401565b91602084019283526102c960028201615401565b93604081019485526102dd60038301615401565b90606081019182526102f160048401615401565b6080820190815261030460058501615401565b9160a08101928352600861031a60068701615401565b60c0830181905260078701546001600160a01b031660e084015295015461010082015251955196519251905191516040519788979194918861551c565b0390f35b346101955761036936615283565b90335f52600960205260ff60405f205416156109f95760018060a01b03165f52600660205260405f208151916002820183516001600160401b038111610668576103b382546153c9565b601f81116109b4575b50602094601f8211600114610953579481929394955f92610948575b50508160011b915f199060031b1c19161790555b6020810151916003810183516001600160401b0381116106685761041082546153c9565b601f8111610903575b50602094601f82116001146108a2579481929394955f92610897575b50508160011b915f199060031b1c19161790555b6080820151916006820183516001600160401b0381116106685761046d82546153c9565b601f8111610852575b50602094601f82116001146107f1579481929394955f926107e6575b50508160011b915f199060031b1c19161790555b6040810151916004810183516001600160401b038111610668576104ca82546153c9565b601f81116107a1575b50602094601f8211600114610740579481929394955f92610735575b50508160011b915f199060031b1c19161790555b6060820151916005820183516001600160401b0381116106685761052782546153c9565b601f81116106f0575b506020601f821160011461068757908060a0949392600796975f9261067c575b50508160011b915f199060031b1c19161790555b0151910181516001600160401b0381116106685761058282546153c9565b601f8111610623575b50602092601f82116001146105c757928192935f926105bc575b50505f19600383901b1c191660019190911b179055005b0151905083806105a5565b601f19821693835f52805f20915f5b86811061060b57508360019596106105f3575b505050811b019055005b01515f1960f88460031b161c191690558380806105e9565b919260206001819286850151815501940192016105d6565b825f5260205f20601f830160051c8101916020841061065e575b601f0160051c01905b818110610653575061058b565b5f8155600101610646565b909150819061063d565b634e487b7160e01b5f52604160045260245ffd5b015190508780610550565b601f19821695835f52815f20965f5b8181106106d8575096600192849260a09796956007999a106106c0575b505050811b019055610564565b01515f1960f88460031b161c191690558780806106b3565b83830151895560019098019760209384019301610696565b825f5260205f20601f830160051c8101916020841061072b575b601f0160051c01905b8181106107205750610530565b5f8155600101610713565b909150819061070a565b0151905085806104ef565b601f19821695835f52805f20915f5b88811061078957508360019596979810610771575b505050811b019055610503565b01515f1960f88460031b161c19169055858080610764565b9192602060018192868501518155019401920161074f565b825f5260205f20601f830160051c810191602084106107dc575b601f0160051c01905b8181106107d157506104d3565b5f81556001016107c4565b90915081906107bb565b015190508580610492565b601f19821695835f52805f20915f5b88811061083a57508360019596979810610822575b505050811b0190556104a6565b01515f1960f88460031b161c19169055858080610815565b91926020600181928685015181550194019201610800565b825f5260205f20601f830160051c8101916020841061088d575b601f0160051c01905b8181106108825750610476565b5f8155600101610875565b909150819061086c565b015190508580610435565b601f19821695835f52805f20915f5b8881106108eb575083600195969798106108d3575b505050811b019055610449565b01515f1960f88460031b161c191690558580806108c6565b919260206001819286850151815501940192016108b1565b825f5260205f20601f830160051c8101916020841061093e575b601f0160051c01905b8181106109335750610419565b5f8155600101610926565b909150819061091d565b0151905085806103d8565b601f19821695835f52805f20915f5b88811061099c57508360019596979810610984575b505050811b0190556103ec565b01515f1960f88460031b161c19169055858080610977565b91926020600181928685015181550194019201610962565b825f5260205f20601f830160051c810191602084106109ef575b601f0160051c01905b8181106109e457506103bc565b5f81556001016109d7565b90915081906109ce565b60405162461bcd60e51b8152602060048201526024808201527f4f6e6c7920646f63746f72732063616e20757064617465206170706f696e746d604482015263656e747360e01b6064820152608490fd5b34610195575f366003190112610195576020600b54604051908152f35b34610195575f366003190112610195576020600e54604051908152f35b34610195576020366003190112610195576001600160a01b03610aa56151bf565b165f52600460205260206101c060405f20600e60405191610ac5836151d5565b610ace81615401565b8352610adc60018201615401565b85840152610aec60028201615401565b6040840152610afd60038201615401565b6060840152610b0e60048201615401565b6080840152610b1f60058201615401565b60a0840152610b3060068201615401565b60c0840152610b4160078201615401565b60e0840152610b5260088201615401565b610100840152610b6460098201615401565b610120840152610b76600a8201615401565b610140840152610b88600b8201615401565b610160840152610b9a600c8201615401565b610180840152600d8101546001600160a01b03166101a084015201549101819052604051908152f35b3461019557602036600319011261019557600435600154811015610195576001548110156102355760015f527fb10e2d527612073b26eecdfd717e6a320cf44b4afac2b0732d9fcbe2b7fa0cf601546040516001600160a01b039091168152602090f35b34610195575f3660031901126101955760405180602060025491828152019060025f527f405787fa12a823e0f2b7631cc41b3ba8828b3321ca811111fa75cd3aa3bb5ace905f5b818110610c915761035785610c858187038261520d565b604051918291826154da565b82546001600160a01b0316845260209093019260019283019201610c6e565b3461019557610cbe3661559d565b9495939095929192335f526009602052610cde60ff60405f2054166156df565b335f52600560205260405f20948051906001600160401b038211610668578190610d0888546153c9565b601f81116113d8575b50602090601f8311600114611375575f9261136a575b50508160011b915f199060031b1c19161785555b805160018601916001600160401b038211610668578190610d5c84546153c9565b601f811161131a575b50602090601f83116001146112b7575f926112ac575b50508160011b915f199060031b1c19161790555b805160028501916001600160401b038211610668578190610db084546153c9565b601f811161125c575b50602090601f83116001146111f9575f926111ee575b50508160011b915f199060031b1c19161790555b805160038401916001600160401b038211610668578190610e0484546153c9565b601f811161119e575b50602090601f831160011461113b575f92611130575b50508160011b915f199060031b1c19161790555b805160048301916001600160401b038211610668578190610e5884546153c9565b601f81116110e0575b50602090601f831160011461107d575f92611072575b50508160011b915f199060031b1c19161790555b6005810183516001600160401b03811161066857610ea982546153c9565b601f811161102d575b506020601f8211600114610fc8578190600695965f92610fbd575b50508160011b915f199060031b1c19161790555b0181516001600160401b03811161066857610efc82546153c9565b601f8111610f78575b50602092601f8211600114610f3557928192935f926105bc5750505f19600383901b1c191660019190911b179055005b601f19821693835f52805f20915f5b868110610f6057508360019596106105f357505050811b019055005b91926020600181928685015181550194019201610f44565b825f5260205f20601f830160051c81019160208410610fb3575b601f0160051c01905b818110610fa85750610f05565b5f8155600101610f9b565b9091508190610f92565b015190508680610ecd565b601f19821695835f52815f20965f5b8181106110155750916006969791846001959410610ffd575b505050811b019055610ee1565b01515f1960f88460031b161c19169055868080610ff0565b83830151895560019098019760209384019301610fd7565b825f5260205f20601f830160051c81019160208410611068575b601f0160051c01905b81811061105d5750610eb2565b5f8155600101611050565b9091508190611047565b015190508680610e77565b5f8581528281209350601f198516905b8181106110c857509084600195949392106110b0575b505050811b019055610e8b565b01515f1960f88460031b161c191690558680806110a3565b9293602060018192878601518155019501930161108d565b909150835f5260205f20601f840160051c81019160208510611126575b90601f859493920160051c01905b8181106111185750610e61565b5f815584935060010161110b565b90915081906110fd565b015190508780610e23565b5f8581528281209350601f198516905b818110611186575090846001959493921061116e575b505050811b019055610e37565b01515f1960f88460031b161c19169055878080611161565b9293602060018192878601518155019501930161114b565b909150835f5260205f20601f840160051c810191602085106111e4575b90601f859493920160051c01905b8181106111d65750610e0d565b5f81558493506001016111c9565b90915081906111bb565b015190508880610dcf565b5f8581528281209350601f198516905b818110611244575090846001959493921061122c575b505050811b019055610de3565b01515f1960f88460031b161c1916905588808061121f565b92936020600181928786015181550195019301611209565b909150835f5260205f20601f840160051c810191602085106112a2575b90601f859493920160051c01905b8181106112945750610db9565b5f8155849350600101611287565b9091508190611279565b015190508980610d7b565b5f8581528281209350601f198516905b81811061130257509084600195949392106112ea575b505050811b019055610d8f565b01515f1960f88460031b161c191690558980806112dd565b929360206001819287860151815501950193016112c7565b909150835f5260205f20601f840160051c81019160208510611360575b90601f859493920160051c01905b8181106113525750610d65565b5f8155849350600101611345565b9091508190611337565b015190508980610d27565b5f8981528281209350601f198516905b8181106113c057509084600195949392106113a8575b505050811b018555610d3b565b01515f1960f88460031b161c1916905589808061139b565b92936020600181928786015181550195019301611385565b909150875f5260205f20601f840160051c8101916020851061141e575b90601f859493920160051c01905b8181106114105750610d11565b5f8155849350600101611403565b90915081906113f5565b34610195576020366003190112610195576114416151bf565b335f52600760205260405f209060018060a01b03165f5260205260405f2060ff198154169055602060405160018152f35b34610195575f3660031901126101955760405180602060035491828152019060035f527fc2575a0e9e593c00f959f8c92f12db2869c3395a3b0502d05e2516446f71f85b905f5b8181106114d05761035785610c858187038261520d565b82546001600160a01b03168452602090930192600192830192016114b9565b34610195576020366003190112610195576001600160a01b036115106151bf565b165f52600660205260405f20604051611528816151f1565b81546001600160a01b039081168252600183015416602082015261154e60028301615401565b604082019081529161156260038201615401565b606083019081529061157660048201615401565b6080840190815261158960058301615401565b60a085019081529061159d60068401615401565b60c086019081526115b060078501615401565b9360e0870194855260080154610100870152600160a01b600190038651165f52600560205260405f20956040516115e6816151f1565b6115ef88615401565b81526115fd60018901615401565b602082019081529761161160028201615401565b604083015261162260038201615401565b606083015261163360048201615401565b608083015261164460058201615401565b60a083015261165560068201615401565b60c0830152600160a01b6001900360078201541660e083015260080154906101000152600160a01b60019003905116955196519451905191519251935194604051978897885260208801610100905261010088016116b2916154a1565b87810360408901526116c3916154a1565b86810360608801526116d4916154a1565b85810360808701526116e5916154a1565b84810360a08601526116f6916154a1565b83810360c0850152611707916154a1565b82810360e0840152610357916154a1565b34610195575f366003190112610195575f546040516001600160a01b039091168152602090f35b346101955761174d3661559d565b9495939095929192335f52600960205260ff60405f205416611f5557335f52600560205260405f20948051906001600160401b03821161066857819061179388546153c9565b601f8111611f05575b50602090601f8311600114611ea2575f92611e97575b50508160011b915f199060031b1c19161785555b805160018601916001600160401b0382116106685781906117e784546153c9565b601f8111611e47575b50602090601f8311600114611de4575f92611dd9575b50508160011b915f199060031b1c19161790555b805160028501916001600160401b03821161066857819061183b84546153c9565b601f8111611d89575b50602090601f8311600114611d26575f92611d1b575b50508160011b915f199060031b1c19161790555b805160038401916001600160401b03821161066857819061188f84546153c9565b601f8111611ccb575b50602090601f8311600114611c68575f92611c5d575b50508160011b915f199060031b1c19161790555b805160048301916001600160401b0382116106685781906118e384546153c9565b601f8111611c0d575b50602090601f8311600114611baa575f92611b9f575b50508160011b915f199060031b1c19161790555b6005810183516001600160401b0381116106685761193482546153c9565b601f8111611b5a575b50602094601f8211600114611af9579481929394955f92611aee575b50508160011b915f199060031b1c19161790555b6006810182516001600160401b0381116106685761198b82546153c9565b601f8111611aa9575b506020601f8211600114611a4857819293945f92611a3d575b50508160011b915f199060031b1c19161790555b6007810180546001600160a01b0319163317905542600890910155600254600160401b811015610668578060016119fd920160025560026154c5565b81549060031b9033821b9160018060a01b03901b1916179055335f52600960205260405f20600160ff19825416179055611a38600c54615681565b600c55005b0151905084806119ad565b601f19821690835f52805f20915f5b818110611a9157509583600195969710611a79575b505050811b0190556119c1565b01515f1960f88460031b161c19169055848080611a6c565b9192602060018192868b015181550194019201611a57565b825f5260205f20601f830160051c81019160208410611ae4575b601f0160051c01905b818110611ad95750611994565b5f8155600101611acc565b9091508190611ac3565b015190508580611959565b601f19821695835f52805f20915f5b888110611b4257508360019596979810611b2a575b505050811b01905561196d565b01515f1960f88460031b161c19169055858080611b1d565b91926020600181928685015181550194019201611b08565b825f5260205f20601f830160051c81019160208410611b95575b601f0160051c01905b818110611b8a575061193d565b5f8155600101611b7d565b9091508190611b74565b015190508680611902565b5f8581528281209350601f198516905b818110611bf55750908460019594939210611bdd575b505050811b019055611916565b01515f1960f88460031b161c19169055868080611bd0565b92936020600181928786015181550195019301611bba565b909150835f5260205f20601f840160051c81019160208510611c53575b90601f859493920160051c01905b818110611c4557506118ec565b5f8155849350600101611c38565b9091508190611c2a565b0151905087806118ae565b5f8581528281209350601f198516905b818110611cb35750908460019594939210611c9b575b505050811b0190556118c2565b01515f1960f88460031b161c19169055878080611c8e565b92936020600181928786015181550195019301611c78565b909150835f5260205f20601f840160051c81019160208510611d11575b90601f859493920160051c01905b818110611d035750611898565b5f8155849350600101611cf6565b9091508190611ce8565b01519050888061185a565b5f8581528281209350601f198516905b818110611d715750908460019594939210611d59575b505050811b01905561186e565b01515f1960f88460031b161c19169055888080611d4c565b92936020600181928786015181550195019301611d36565b909150835f5260205f20601f840160051c81019160208510611dcf575b90601f859493920160051c01905b818110611dc15750611844565b5f8155849350600101611db4565b9091508190611da6565b015190508980611806565b5f8581528281209350601f198516905b818110611e2f5750908460019594939210611e17575b505050811b01905561181a565b01515f1960f88460031b161c19169055898080611e0a565b92936020600181928786015181550195019301611df4565b909150835f5260205f20601f840160051c81019160208510611e8d575b90601f859493920160051c01905b818110611e7f57506117f0565b5f8155849350600101611e72565b9091508190611e64565b0151905089806117b2565b5f8981528281209350601f198516905b818110611eed5750908460019594939210611ed5575b505050811b0185556117c6565b01515f1960f88460031b161c19169055898080611ec8565b92936020600181928786015181550195019301611eb2565b909150875f5260205f20601f840160051c81019160208510611f4b575b90601f859493920160051c01905b818110611f3d575061179c565b5f8155849350600101611f30565b9091508190611f22565b60405162461bcd60e51b815260206004820152601b60248201527f416c72656164792061207265676973746572656420646f63746f7200000000006044820152606490fd5b34610195576020366003190112610195576004356001600160401b038111610195576101e060031982360301126101955760405190611fd8826151d5565b80600401356001600160401b03811161019557611ffb906004369184010161522e565b825260248101356001600160401b03811161019557612020906004369184010161522e565b602083015260448101356001600160401b03811161019557612048906004369184010161522e565b604083015260648101356001600160401b03811161019557612070906004369184010161522e565b606083015260848101356001600160401b03811161019557612098906004369184010161522e565b608083015260a48101356001600160401b038111610195576120c0906004369184010161522e565b60a083015260c48101356001600160401b038111610195576120e8906004369184010161522e565b60c083015260e48101356001600160401b03811161019557612110906004369184010161522e565b60e08301526101048101356001600160401b03811161019557612139906004369184010161522e565b6101008301526101248101356001600160401b03811161019557612163906004369184010161522e565b6101208301526101448101356001600160401b0381116101955761218d906004369184010161522e565b6101408301526101648101356001600160401b038111610195576121b7906004369184010161522e565b6101608301526101848101356001600160401b038111610195576121e1906004369184010161522e565b6101808301908152906101a4810135906001600160a01b0382168203610195576101c4916101a085015201356101c0830152335f52600860205260ff60405f20541661310457335f52600460205260405f2082519283516001600160401b0381116106685761225083546153c9565b601f81116130c3575b506020601f821160011461305f5781929394955f92613054575b50508160011b915f199060031b1c19161782555b6001820160208201518051906001600160401b0382116106685781906122ad84546153c9565b601f8111613004575b50602090601f8311600114612fa1575f92612f96575b50508160011b915f199060031b1c19161790555b6002820160408201518051906001600160401b03821161066857819061230684546153c9565b601f8111612f46575b50602090601f8311600114612ee3575f92612ed8575b50508160011b915f199060031b1c19161790555b6003820160608201518051906001600160401b03821161066857819061235f84546153c9565b601f8111612e88575b50602090601f8311600114612e25575f92612e1a575b50508160011b915f199060031b1c19161790555b6004820160808201518051906001600160401b0382116106685781906123b884546153c9565b601f8111612dca575b50602090601f8311600114612d67575f92612d5c575b50508160011b915f199060031b1c19161790555b6005820160a08201518051906001600160401b03821161066857819061241184546153c9565b601f8111612d0c575b50602090601f8311600114612ca9575f92612c9e575b50508160011b915f199060031b1c19161790555b6006820160c08201518051906001600160401b03821161066857819061246a84546153c9565b601f8111612c4e575b50602090601f8311600114612beb575f92612be0575b50508160011b915f199060031b1c19161790555b6007820160e08201518051906001600160401b0382116106685781906124c384546153c9565b601f8111612b90575b50602090601f8311600114612b2d575f92612b22575b50508160011b915f199060031b1c19161790555b600882016101008201518051906001600160401b03821161066857819061251d84546153c9565b601f8111612ad2575b50602090601f8311600114612a6f575f92612a64575b50508160011b915f199060031b1c19161790555b600982016101208201518051906001600160401b03821161066857819061257784546153c9565b601f8111612a14575b50602090601f83116001146129b1575f926129a6575b50508160011b915f199060031b1c19161790555b600a82016101408201518051906001600160401b0382116106685781906125d184546153c9565b601f8111612956575b50602090601f83116001146128f3575f926128e8575b50508160011b915f199060031b1c19161790555b600b82016101608201518051906001600160401b03821161066857819061262b84546153c9565b601f8111612898575b50602090601f8311600114612835575f9261282a575b50508160011b915f199060031b1c19161790555b600c820192519283516001600160401b0381116106685761267f82546153c9565b601f81116127e5575b506020601f821160011461277b5790806101c0949392600e96975f92612770575b50508160011b915f199060031b1c19161790555b6101a0810151600d850180546001600160a01b0319166001600160a01b03929092169190911790550151910155600154600160401b8110156106685780600161270b920160015560016154c5565b81546001600160a01b0360039290921b91821b1916339182901b179091555f908152600860209081526040808320805460ff19908116600190811790925560078452828520909352922080549091169091179055600b5461276b90615681565b600b55005b0151905087806126a9565b601f19821695835f52815f20965f5b8181106127cd57509660019284926101c0979695600e999a106127b5575b505050811b0190556126bd565b01515f1960f88460031b161c191690558780806127a8565b8383015189556001909801976020938401930161278a565b825f5260205f20601f830160051c81019160208410612820575b601f0160051c01905b8181106128155750612688565b5f8155600101612808565b90915081906127ff565b01519050868061264a565b5f8581528281209350601f198516905b8181106128805750908460019594939210612868575b505050811b01905561265e565b01515f1960f88460031b161c1916905586808061285b565b92936020600181928786015181550195019301612845565b909150835f5260205f20601f840160051c810191602085106128de575b90601f859493920160051c01905b8181106128d05750612634565b5f81558493506001016128c3565b90915081906128b5565b0151905086806125f0565b5f8581528281209350601f198516905b81811061293e5750908460019594939210612926575b505050811b019055612604565b01515f1960f88460031b161c19169055868080612919565b92936020600181928786015181550195019301612903565b909150835f5260205f20601f840160051c8101916020851061299c575b90601f859493920160051c01905b81811061298e57506125da565b5f8155849350600101612981565b9091508190612973565b015190508680612596565b5f8581528281209350601f198516905b8181106129fc57509084600195949392106129e4575b505050811b0190556125aa565b01515f1960f88460031b161c191690558680806129d7565b929360206001819287860151815501950193016129c1565b909150835f5260205f20601f840160051c81019160208510612a5a575b90601f859493920160051c01905b818110612a4c5750612580565b5f8155849350600101612a3f565b9091508190612a31565b01519050868061253c565b5f8581528281209350601f198516905b818110612aba5750908460019594939210612aa2575b505050811b019055612550565b01515f1960f88460031b161c19169055868080612a95565b92936020600181928786015181550195019301612a7f565b909150835f5260205f20601f840160051c81019160208510612b18575b90601f859493920160051c01905b818110612b0a5750612526565b5f8155849350600101612afd565b9091508190612aef565b0151905086806124e2565b5f8581528281209350601f198516905b818110612b785750908460019594939210612b60575b505050811b0190556124f6565b01515f1960f88460031b161c19169055868080612b53565b92936020600181928786015181550195019301612b3d565b909150835f5260205f20601f840160051c81019160208510612bd6575b90601f859493920160051c01905b818110612bc857506124cc565b5f8155849350600101612bbb565b9091508190612bad565b015190508680612489565b5f8581528281209350601f198516905b818110612c365750908460019594939210612c1e575b505050811b01905561249d565b01515f1960f88460031b161c19169055868080612c11565b92936020600181928786015181550195019301612bfb565b909150835f5260205f20601f840160051c81019160208510612c94575b90601f859493920160051c01905b818110612c865750612473565b5f8155849350600101612c79565b9091508190612c6b565b015190508680612430565b5f8581528281209350601f198516905b818110612cf45750908460019594939210612cdc575b505050811b019055612444565b01515f1960f88460031b161c19169055868080612ccf565b92936020600181928786015181550195019301612cb9565b909150835f5260205f20601f840160051c81019160208510612d52575b90601f859493920160051c01905b818110612d44575061241a565b5f8155849350600101612d37565b9091508190612d29565b0151905086806123d7565b5f8581528281209350601f198516905b818110612db25750908460019594939210612d9a575b505050811b0190556123eb565b01515f1960f88460031b161c19169055868080612d8d565b92936020600181928786015181550195019301612d77565b909150835f5260205f20601f840160051c81019160208510612e10575b90601f859493920160051c01905b818110612e0257506123c1565b5f8155849350600101612df5565b9091508190612de7565b01519050868061237e565b5f8581528281209350601f198516905b818110612e705750908460019594939210612e58575b505050811b019055612392565b01515f1960f88460031b161c19169055868080612e4b565b92936020600181928786015181550195019301612e35565b909150835f5260205f20601f840160051c81019160208510612ece575b90601f859493920160051c01905b818110612ec05750612368565b5f8155849350600101612eb3565b9091508190612ea5565b015190508680612325565b5f8581528281209350601f198516905b818110612f2e5750908460019594939210612f16575b505050811b019055612339565b01515f1960f88460031b161c19169055868080612f09565b92936020600181928786015181550195019301612ef3565b909150835f5260205f20601f840160051c81019160208510612f8c575b90601f859493920160051c01905b818110612f7e575061230f565b5f8155849350600101612f71565b9091508190612f63565b0151905086806122cc565b5f8581528281209350601f198516905b818110612fec5750908460019594939210612fd4575b505050811b0190556122e0565b01515f1960f88460031b161c19169055868080612fc7565b92936020600181928786015181550195019301612fb1565b909150835f5260205f20601f840160051c8101916020851061304a575b90601f859493920160051c01905b81811061303c57506122b6565b5f815584935060010161302f565b9091508190613021565b015190508580612273565b835f52805f20905f5b601f19841681106130ab575060019394959683601f19811610613093575b505050811b018255612287565b01515f1960f88460031b161c19169055858080613086565b9091602060018192858b015181550193019101613068565b835f5260205f20601f830160051c8101602084106130fd575b601f830160051c820181106130f2575050612259565b5f81556001016130dc565b50806130dc565b60405162461bcd60e51b815260206004820152601c60248201527f416c7265616479206120726567697374657265642070617469656e74000000006044820152606490fd5b34610195575f366003190112610195576020600c54604051908152f35b34610195576020366003190112610195576001600160a01b036131876151bf565b165f526005602052602061010060405f206008604051916131a7836151f1565b6131b081615401565b83526131be60018201615401565b858401526131ce60028201615401565b60408401526131df60038201615401565b60608401526131f060048201615401565b608084015261320160058201615401565b60a084015261321260068201615401565b60c084015260078101546001600160a01b031660e084015201549101819052604051908152f35b34610195576020366003190112610195576004356001600160401b038111610195576101a06003198236030112610195576040516101a081018181106001600160401b038211176106685760405281600401356001600160401b038111610195576132aa906004369185010161522e565b815260248201356001600160401b038111610195576132cf906004369185010161522e565b906020810191825260448301356001600160401b038111610195576132fa906004369186010161522e565b926040820193845260648101356001600160401b03811161019557613325906004369184010161522e565b6060830190815260848201356001600160401b0381116101955761334f906004369185010161522e565b6080840190815260a48301356001600160401b03811161019557613379906004369186010161522e565b9160a0850192835260c48401356001600160401b038111610195576133a4906004369187010161522e565b9360c0860194855260e48101356001600160401b038111610195576133cf906004369184010161522e565b60e08701526101048101356001600160401b038111610195576133f8906004369184010161522e565b6101008701526101248101356001600160401b03811161019557613422906004369184010161522e565b6101208701526101448101356001600160401b0381116101955761344c906004369184010161522e565b6101408701526101648101356001600160401b03811161019557613476906004369184010161522e565b610160870152610184810135906001600160401b0382116101955760046134a0923692010161522e565b966101808601978852335f52600860205260ff60405f2054161561429857335f52600460205260405f209686518051906001600160401b0382116106685781906134ea8b546153c9565b601f8111614248575b50602090601f83116001146141e5575f926141da575b50508160011b915f199060031b1c19161788555b51805160018901916001600160401b03821161066857819061353f84546153c9565b601f811161418a575b50602090601f8311600114614127575f9261411c575b50508160011b915f199060031b1c19161790555b51805160028801916001600160401b03821161066857819061359484546153c9565b601f81116140cc575b50602090601f8311600114614069575f9261405e575b50508160011b915f199060031b1c19161790555b51805160038701916001600160401b0382116106685781906135e984546153c9565b601f811161400e575b50602090601f8311600114613fab575f92613fa0575b50508160011b915f199060031b1c19161790555b51805160048601916001600160401b03821161066857819061363e84546153c9565b601f8111613f50575b50602090601f8311600114613eed575f92613ee2575b50508160011b915f199060031b1c19161790555b51805160058501916001600160401b03821161066857819061369384546153c9565b601f8111613e92575b50602090601f8311600114613e2f575f92613e24575b50508160011b915f199060031b1c19161790555b51805160068401916001600160401b0382116106685781906136e884546153c9565b601f8111613dd4575b50602090601f8311600114613d71575f92613d66575b50508160011b915f199060031b1c19161790555b60e0810151805160078401916001600160401b03821161066857819061374184546153c9565b601f8111613d16575b50602090601f8311600114613cb3575f92613ca8575b50508160011b915f199060031b1c19161790555b610100810151805160088401916001600160401b03821161066857819061379b84546153c9565b601f8111613c58575b50602090601f8311600114613bf5575f92613bea575b50508160011b915f199060031b1c19161790555b610120810151805160098401916001600160401b0382116106685781906137f584546153c9565b601f8111613b9a575b50602090601f8311600114613b37575f92613b2c575b50508160011b915f199060031b1c19161790555b6101408101518051600a8401916001600160401b0382116106685761384d83546153c9565b601f8111613ae7575b50602090601f8311600114613a7f57610160949392915f9183613a74575b50508160011b915f199060031b1c19161790555b015191600b820183516001600160401b038111610668576138a982546153c9565b601f8111613a2f575b506020601f82116001146139ca578190600c95965f926139bf575b50508160011b915f199060031b1c19161790555b51910181516001600160401b038111610668576138fe82546153c9565b601f811161397a575b50602092601f821160011461393757928192935f926105bc5750505f19600383901b1c191660019190911b179055005b601f19821693835f52805f20915f5b86811061396257508360019596106105f357505050811b019055005b91926020600181928685015181550194019201613946565b825f5260205f20601f830160051c810191602084106139b5575b601f0160051c01905b8181106139aa5750613907565b5f815560010161399d565b9091508190613994565b0151905086806138cd565b601f19821695835f52815f20965f5b818110613a17575091600c9697918460019594106139ff575b505050811b0190556138e1565b01515f1960f88460031b161c191690558680806139f2565b838301518955600190980197602093840193016139d9565b825f5260205f20601f830160051c81019160208410613a6a575b601f0160051c01905b818110613a5f57506138b2565b5f8155600101613a52565b9091508190613a49565b015190508780613874565b90601f19831691845f52815f20925f5b818110613acf57509160019391856101609897969410613ab7575b505050811b019055613888565b01515f1960f88460031b161c19169055878080613aaa565b92936020600181928786015181550195019301613a8f565b835f5260205f20601f840160051c81019160208510613b22575b601f0160051c01905b818110613b175750613856565b5f8155600101613b0a565b9091508190613b01565b015190508680613814565b5f8581528281209350601f198516905b818110613b825750908460019594939210613b6a575b505050811b019055613828565b01515f1960f88460031b161c19169055868080613b5d565b92936020600181928786015181550195019301613b47565b909150835f5260205f20601f840160051c81019160208510613be0575b90601f859493920160051c01905b818110613bd257506137fe565b5f8155849350600101613bc5565b9091508190613bb7565b0151905086806137ba565b5f8581528281209350601f198516905b818110613c405750908460019594939210613c28575b505050811b0190556137ce565b01515f1960f88460031b161c19169055868080613c1b565b92936020600181928786015181550195019301613c05565b909150835f5260205f20601f840160051c81019160208510613c9e575b90601f859493920160051c01905b818110613c9057506137a4565b5f8155849350600101613c83565b9091508190613c75565b015190508680613760565b5f8581528281209350601f198516905b818110613cfe5750908460019594939210613ce6575b505050811b019055613774565b01515f1960f88460031b161c19169055868080613cd9565b92936020600181928786015181550195019301613cc3565b909150835f5260205f20601f840160051c81019160208510613d5c575b90601f859493920160051c01905b818110613d4e575061374a565b5f8155849350600101613d41565b9091508190613d33565b015190508680613707565b5f8581528281209350601f198516905b818110613dbc5750908460019594939210613da4575b505050811b01905561371b565b01515f1960f88460031b161c19169055868080613d97565b92936020600181928786015181550195019301613d81565b909150835f5260205f20601f840160051c81019160208510613e1a575b90601f859493920160051c01905b818110613e0c57506136f1565b5f8155849350600101613dff565b9091508190613df1565b0151905087806136b2565b5f8581528281209350601f198516905b818110613e7a5750908460019594939210613e62575b505050811b0190556136c6565b01515f1960f88460031b161c19169055878080613e55565b92936020600181928786015181550195019301613e3f565b909150835f5260205f20601f840160051c81019160208510613ed8575b90601f859493920160051c01905b818110613eca575061369c565b5f8155849350600101613ebd565b9091508190613eaf565b01519050888061365d565b5f8581528281209350601f198516905b818110613f385750908460019594939210613f20575b505050811b019055613671565b01515f1960f88460031b161c19169055888080613f13565b92936020600181928786015181550195019301613efd565b909150835f5260205f20601f840160051c81019160208510613f96575b90601f859493920160051c01905b818110613f885750613647565b5f8155849350600101613f7b565b9091508190613f6d565b015190508980613608565b5f8581528281209350601f198516905b818110613ff65750908460019594939210613fde575b505050811b01905561361c565b01515f1960f88460031b161c19169055898080613fd1565b92936020600181928786015181550195019301613fbb565b909150835f5260205f20601f840160051c81019160208510614054575b90601f859493920160051c01905b81811061404657506135f2565b5f8155849350600101614039565b909150819061402b565b015190508a806135b3565b5f8581528281209350601f198516905b8181106140b4575090846001959493921061409c575b505050811b0190556135c7565b01515f1960f88460031b161c191690558a808061408f565b92936020600181928786015181550195019301614079565b909150835f5260205f20601f840160051c81019160208510614112575b90601f859493920160051c01905b818110614104575061359d565b5f81558493506001016140f7565b90915081906140e9565b015190508b8061355e565b5f8581528281209350601f198516905b818110614172575090846001959493921061415a575b505050811b019055613572565b01515f1960f88460031b161c191690558b808061414d565b92936020600181928786015181550195019301614137565b909150835f5260205f20601f840160051c810191602085106141d0575b90601f859493920160051c01905b8181106141c25750613548565b5f81558493506001016141b5565b90915081906141a7565b015190508b80613509565b5f8c81528281209350601f198516905b8181106142305750908460019594939210614218575b505050811b01885561351d565b01515f1960f88460031b161c191690558b808061420b565b929360206001819287860151815501950193016141f5565b9091508a5f5260205f20601f840160051c8101916020851061428e575b90601f859493920160051c01905b81811061428057506134f3565b5f8155849350600101614273565b9091508190614265565b60405162461bcd60e51b815260206004820152601860248201527f4e6f74206120726567697374657265642070617469656e7400000000000000006044820152606490fd5b34610195576020366003190112610195576001600160a01b036142fe6151bf565b165f526006602052602061010060405f2060086040519161431e836151f1565b80546001600160a01b0390811684526001820154168584015261434360028201615401565b604084015261435460038201615401565b606084015261436560048201615401565b608084015261437660058201615401565b60a084015261438760068201615401565b60c084015261439860078201615401565b60e084015201549182910152604051908152f35b34610195576020366003190112610195576143c56151bf565b335f52600760205260405f209060018060a01b03165f5260205260405f20600160ff198254161790556143f9600e54615681565b600e55602060405160018152f35b34610195576020366003190112610195576001600160a01b036144286151bf565b165f81815260076020908152604080832033845290915290205461444e9060ff166156a3565b5f52600460205260405f20604051614465816151d5565b61446e82615401565b815261035761447f60018401615401565b916020810192835261449360028501615401565b93604082019485526144a760038201615401565b91606081019283526144bb60048301615401565b608082019081526144ce60058401615401565b9160a08101928352600e6144e460068601615401565b9460c083019586526144f860078201615401565b60e084015261450960088201615401565b61010084015261451b60098201615401565b61012084015261452d600a8201615401565b61014084015261453f600b8201615401565b610160840152614551600c8201615401565b610180840152600d8101546001600160a01b03166101a084015201546101c0820152519551965193519051915192516040519788979195918861551c565b34610195576020366003190112610195576001600160a01b036145b06151bf565b165f8181526007602090815260408083203384529091529020546145d69060ff166156a3565b5f52600460205261472760405f20610357604051916145f4836151d5565b6145fd81615401565b835261460b60018201615401565b602084015261461c60028201615401565b604084015261462d60038201615401565b606084015261463e60048201615401565b608084015261464f60058201615401565b60a084015261466060068201615401565b60c084015261475f61467460078301615401565b60e0850190815261475161468a60088501615401565b9561010081019687526147436146a260098701615401565b9361012083019485526147356146ba600a8901615401565b9161014085019283526146cf600b8a01615401565b9461016081019586526101c0600e6146e9600c8d01615401565b9b8c61018085015260018060a01b03600d820154166101a08501520154910152519951955191519351956040519b8c9b60c08d5260c08d01906154a1565b908b820360208d01526154a1565b9089820360408b01526154a1565b9087820360608901526154a1565b9085820360808701526154a1565b9083820360a08501526154a1565b34610195575f3660031901126101955760405180602060015491828152019060015f527fb10e2d527612073b26eecdfd717e6a320cf44b4afac2b0732d9fcbe2b7fa0cf6905f5b8181106147cb5761035785610c858187038261520d565b82546001600160a01b03168452602090930192600192830192016147b4565b3461019557602036600319011261019557600435600254811015610195576002548110156102355760025f527f405787fa12a823e0f2b7631cc41b3ba8828b3321ca811111fa75cd3aa3bb5ace01546040516001600160a01b039091168152602090f35b34610195576020366003190112610195576001600160a01b0361486f6151bf565b165f52600460205260405f2061488481615401565b9061489160018201615401565b9061489e60028201615401565b6148aa60038301615401565b6148b660048401615401565b6148c260058501615401565b6148ce60068601615401565b6148da60078701615401565b6148e660088801615401565b906148f360098901615401565b92614900600a8a01615401565b9461490d600b8b01615401565b9661491a600c8c01615401565b98600160a01b60019003600d8d0154169b600e01549a6040519e8f9e8f916101e083526101e0830161494b916154a1565b828103602084015261495c916154a1565b90808203906040015261496e916154a1565b8d810360608f015261497f916154a1565b8c810360808e0152614990916154a1565b8b810360a08d01526149a1916154a1565b8a810360c08c01526149b2916154a1565b89810360e08b01526149c3916154a1565b8881036101008a01526149d5916154a1565b8781036101208901526149e7916154a1565b8681036101408801526149f9916154a1565b858103610160870152614a0b916154a1565b848103610180860152614a1d916154a1565b916101a08401526101c08301520390f35b3461019557614a3c36615283565b90335f52600960205260ff60405f2054161561516e576001600160a01b03165f81815260066020526040902080546001600160a01b031990811633178255600182018054909116831790558251805191939160028501916001600160401b038211610668578190614aad84546153c9565b601f811161511e575b50602090601f83116001146150bb575f926150b0575b50508160011b915f199060031b1c19161790555b6020810151805160038501916001600160401b038211610668578190614b0684546153c9565b601f8111615060575b50602090601f8311600114614ffd575f92614ff2575b50508160011b915f199060031b1c19161790555b6080810151805160068501916001600160401b038211610668578190614b5f84546153c9565b601f8111614fa2575b50602090601f8311600114614f3f575f92614f34575b50508160011b915f199060031b1c19161790555b6040810151805160048501916001600160401b038211610668578190614bb884546153c9565b601f8111614ee4575b50602090601f8311600114614e81575f92614e76575b50508160011b915f199060031b1c19161790555b6060810151805160058501916001600160401b03821161066857614c0f83546153c9565b601f8111614e31575b50602090601f8311600114614dca5760a0949392915f9183614dbf575b50508160011b915f199060031b1c19161790555b0151916007810183516001600160401b03811161066857614c6a82546153c9565b601f8111614d7a575b50602094601f8211600114614d19579481929394955f92614d0e575b50508160011b915f199060031b1c19161790555b600842910155600354600160401b81101561066857806001614cca920160035560036154c5565b81546001600160a01b0360039290921b91821b19169083901b179055600d54614cf290615681565b600d555f52600a60205260405f20614d0a8154615681565b9055005b015190508580614c8f565b601f19821695835f52805f20915f5b888110614d6257508360019596979810614d4a575b505050811b019055614ca3565b01515f1960f88460031b161c19169055858080614d3d565b91926020600181928685015181550194019201614d28565b825f5260205f20601f830160051c81019160208410614db5575b601f0160051c01905b818110614daa5750614c73565b5f8155600101614d9d565b9091508190614d94565b015190508780614c35565b90601f19831691845f52815f20925f5b818110614e19575091600193918560a09897969410614e01575b505050811b019055614c49565b01515f1960f88460031b161c19169055878080614df4565b92936020600181928786015181550195019301614dda565b835f5260205f20601f840160051c81019160208510614e6c575b601f0160051c01905b818110614e615750614c18565b5f8155600101614e54565b9091508190614e4b565b015190508680614bd7565b5f8581528281209350601f198516905b818110614ecc5750908460019594939210614eb4575b505050811b019055614beb565b01515f1960f88460031b161c19169055868080614ea7565b92936020600181928786015181550195019301614e91565b909150835f5260205f20601f840160051c81019160208510614f2a575b90601f859493920160051c01905b818110614f1c5750614bc1565b5f8155849350600101614f0f565b9091508190614f01565b015190508680614b7e565b5f8581528281209350601f198516905b818110614f8a5750908460019594939210614f72575b505050811b019055614b92565b01515f1960f88460031b161c19169055868080614f65565b92936020600181928786015181550195019301614f4f565b909150835f5260205f20601f840160051c81019160208510614fe8575b90601f859493920160051c01905b818110614fda5750614b68565b5f8155849350600101614fcd565b9091508190614fbf565b015190508680614b25565b5f8581528281209350601f198516905b8181106150485750908460019594939210615030575b505050811b019055614b39565b01515f1960f88460031b161c19169055868080615023565b9293602060018192878601518155019501930161500d565b909150835f5260205f20601f840160051c810191602085106150a6575b90601f859493920160051c01905b8181106150985750614b0f565b5f815584935060010161508b565b909150819061507d565b015190508680614acc565b5f8581528281209350601f198516905b81811061510657509084600195949392106150ee575b505050811b019055614ae0565b01515f1960f88460031b161c191690558680806150e1565b929360206001819287860151815501950193016150cb565b909150835f5260205f20601f840160051c81019160208510615164575b90601f859493920160051c01905b8181106151565750614ab6565b5f8155849350600101615149565b909150819061513b565b60405162461bcd60e51b8152602060048201526024808201527f4f6e6c7920646f63746f72732063616e20637265617465206170706f696e746d604482015263656e747360e01b6064820152608490fd5b600435906001600160a01b038216820361019557565b6101e081019081106001600160401b0382111761066857604052565b61012081019081106001600160401b0382111761066857604052565b90601f801991011681019081106001600160401b0382111761066857604052565b81601f82011215610195578035906001600160401b0382116106685760405192615262601f8401601f19166020018561520d565b8284526020838301011161019557815f926020809301838601378301015290565b906040600319830112610195576004356001600160a01b038116810361019557916024356001600160401b0381116101955760c08183036003190112610195576040519160c083018381106001600160401b038211176106685760405281600401356001600160401b038111610195578160046153029285010161522e565b835260248201356001600160401b038111610195578160046153269285010161522e565b602084015260448201356001600160401b0381116101955781600461534d9285010161522e565b604084015260648201356001600160401b038111610195578160046153749285010161522e565b606084015260848201356001600160401b0381116101955781600461539b9285010161522e565b608084015260a4820135916001600160401b038311610195576153c1920160040161522e565b60a082015290565b90600182811c921680156153f7575b60208310146153e357565b634e487b7160e01b5f52602260045260245ffd5b91607f16916153d8565b9060405191825f825492615414846153c9565b808452936001811690811561547f575060011461543b575b506154399250038361520d565b565b90505f9291925260205f20905f915b818310615463575050906020615439928201015f61542c565b602091935080600191548385890101520191019091849261544a565b90506020925061543994915060ff191682840152151560051b8201015f61542c565b805180835260209291819084018484015e5f828201840152601f01601f1916010190565b8054821015610235575f5260205f2001905f90565b60206040818301928281528451809452019201905f5b8181106154fd5750505090565b82516001600160a01b03168452602093840193909201916001016154f0565b959261558c946155626155709261555461557e9661554661559a9d9b9760e08e81815201906154a1565b8c810360208e0152906154a1565b908a820360408c01526154a1565b9088820360608a01526154a1565b9086820360808801526154a1565b9084820360a08601526154a1565b9160c08184039101526154a1565b90565b60e0600319820112610195576004356001600160401b03811161019557816155c79160040161522e565b916024356001600160401b03811161019557826155e69160040161522e565b916044356001600160401b03811161019557816156059160040161522e565b916064356001600160401b03811161019557826156249160040161522e565b916084356001600160401b03811161019557816156439160040161522e565b9160a4356001600160401b03811161019557826156629160040161522e565b9160c435906001600160401b0382116101955761559a9160040161522e565b5f19811461568f5760010190565b634e487b7160e01b5f52601160045260245ffd5b156156aa57565b60405162461bcd60e51b815260206004820152600d60248201526c1058d8d95cdcc819195b9a5959609a1b6044820152606490fd5b156156e657565b60405162461bcd60e51b815260206004820152601760248201527f4e6f742061207265676973746572656420646f63746f720000000000000000006044820152606490fdfea264697066735822122088e2834e7697932f3f417dab4260089724fc8fb404d0915402ad7655d11171cd64736f6c634300081c0033","opcodes":"PUSH1 0x80 DUP1 PUSH1 0x40 MSTORE CALLVALUE PUSH1 0x34 JUMPI PUSH0 PUSH1 0xB SSTORE PUSH0 PUSH1 0xC SSTORE PUSH0 PUSH1 0xD SSTORE PUSH0 PUSH1 0xE SSTORE CALLER PUSH1 0x1 DUP1 PUSH1 0xA0 SHL SUB NOT PUSH0 SLOAD AND OR PUSH0 SSTORE PUSH2 0x5761 SWAP1 DUP2 PUSH2 0x39 DUP3 CODECOPY RETURN JUMPDEST PUSH0 DUP1 REVERT INVALID PUSH1 0x80 PUSH1 0x40 MSTORE PUSH1 0x4 CALLDATASIZE LT ISZERO PUSH2 0x11 JUMPI PUSH0 DUP1 REVERT JUMPDEST PUSH0 CALLDATALOAD PUSH1 0xE0 SHR DUP1 PUSH3 0x1FEEEB EQ PUSH2 0x4A2E JUMPI DUP1 PUSH4 0x869CFBC EQ PUSH2 0x484E JUMPI DUP1 PUSH4 0x127CA4B4 EQ PUSH2 0x47EA JUMPI DUP1 PUSH4 0x12AD1C37 EQ PUSH2 0x476D JUMPI DUP1 PUSH4 0x24C24B2B EQ PUSH2 0xA67 JUMPI DUP1 PUSH4 0x29E4AFBB EQ PUSH2 0x178 JUMPI DUP1 PUSH4 0x2A825BA0 EQ PUSH2 0x458F JUMPI DUP1 PUSH4 0x3BC98280 EQ PUSH2 0x4407 JUMPI DUP1 PUSH4 0x3D391F70 EQ PUSH2 0x43AC JUMPI DUP1 PUSH4 0x4C14B38D EQ PUSH2 0x42DD JUMPI DUP1 PUSH4 0x5A579768 EQ PUSH2 0x3239 JUMPI DUP1 PUSH4 0x625961FC EQ PUSH2 0x3166 JUMPI DUP1 PUSH4 0x78522BC4 EQ PUSH2 0x3149 JUMPI DUP1 PUSH4 0x79111C1C EQ PUSH2 0x3149 JUMPI DUP1 PUSH4 0x7E4B80AD EQ PUSH2 0x1F9A JUMPI DUP1 PUSH4 0x8B945C6D EQ PUSH2 0x173F JUMPI DUP1 PUSH4 0x8DA5CB5B EQ PUSH2 0x1718 JUMPI DUP1 PUSH4 0x92041982 EQ PUSH2 0x14EF JUMPI DUP1 PUSH4 0x96B80D08 EQ PUSH2 0x1472 JUMPI DUP1 PUSH4 0xA0303C41 EQ PUSH2 0xA4A JUMPI DUP1 PUSH4 0xA3BF5B9A EQ PUSH2 0x1428 JUMPI DUP1 PUSH4 0xA5ACA8BC EQ PUSH2 0xCB0 JUMPI DUP1 PUSH4 0xB13D5D94 EQ PUSH2 0xC27 JUMPI DUP1 PUSH4 0xBABB1D41 EQ PUSH2 0xBC3 JUMPI DUP1 PUSH4 0xBD6F972B EQ PUSH2 0xA84 JUMPI DUP1 PUSH4 0xC0CB24BA EQ PUSH2 0xA67 JUMPI DUP1 PUSH4 0xC190665B EQ PUSH2 0xA4A JUMPI DUP1 PUSH4 0xC3DFB22F EQ PUSH2 0x35B JUMPI DUP1 PUSH4 0xCAEE6C85 EQ PUSH2 0x249 JUMPI DUP1 PUSH4 0xE6FCE0D2 EQ PUSH2 0x1D1 JUMPI DUP1 PUSH4 0xE93A15B9 EQ PUSH2 0x199 JUMPI PUSH4 0xEEBC3FB2 EQ PUSH2 0x178 JUMPI PUSH0 DUP1 REVERT JUMPDEST CALLVALUE PUSH2 0x195 JUMPI PUSH0 CALLDATASIZE PUSH1 0x3 NOT ADD SLT PUSH2 0x195 JUMPI PUSH1 0x20 PUSH1 0xD SLOAD PUSH1 0x40 MLOAD SWAP1 DUP2 MSTORE RETURN JUMPDEST PUSH0 DUP1 REVERT JUMPDEST CALLVALUE PUSH2 0x195 JUMPI PUSH1 0x20 CALLDATASIZE PUSH1 0x3 NOT ADD SLT PUSH2 0x195 JUMPI PUSH1 0x1 PUSH1 0x1 PUSH1 0xA0 SHL SUB PUSH2 0x1BA PUSH2 0x51BF JUMP JUMPDEST AND PUSH0 MSTORE PUSH1 0xA PUSH1 0x20 MSTORE PUSH1 0x20 PUSH1 0x40 PUSH0 KECCAK256 SLOAD PUSH1 0x40 MLOAD SWAP1 DUP2 MSTORE RETURN JUMPDEST CALLVALUE PUSH2 0x195 JUMPI PUSH1 0x20 CALLDATASIZE PUSH1 0x3 NOT ADD SLT PUSH2 0x195 JUMPI PUSH1 0x4 CALLDATALOAD PUSH1 0x3 SLOAD DUP2 LT ISZERO PUSH2 0x195 JUMPI PUSH1 0x3 SLOAD DUP2 LT ISZERO PUSH2 0x235 JUMPI PUSH1 0x3 PUSH0 MSTORE PUSH32 0xC2575A0E9E593C00F959F8C92F12DB2869C3395A3B0502D05E2516446F71F85B ADD SLOAD PUSH1 0x40 MLOAD PUSH1 0x1 PUSH1 0x1 PUSH1 0xA0 SHL SUB SWAP1 SWAP2 AND DUP2 MSTORE PUSH1 0x20 SWAP1 RETURN JUMPDEST PUSH4 0x4E487B71 PUSH1 0xE0 SHL PUSH0 MSTORE PUSH1 0x32 PUSH1 0x4 MSTORE PUSH1 0x24 PUSH0 REVERT JUMPDEST CALLVALUE PUSH2 0x195 JUMPI PUSH1 0x20 CALLDATASIZE PUSH1 0x3 NOT ADD SLT PUSH2 0x195 JUMPI PUSH1 0x1 PUSH1 0x1 PUSH1 0xA0 SHL SUB PUSH2 0x26A PUSH2 0x51BF JUMP JUMPDEST AND DUP1 PUSH0 MSTORE PUSH1 0x9 PUSH1 0x20 MSTORE PUSH2 0x283 PUSH1 0xFF PUSH1 0x40 PUSH0 KECCAK256 SLOAD AND PUSH2 0x56DF JUMP JUMPDEST PUSH0 MSTORE PUSH1 0x5 PUSH1 0x20 MSTORE PUSH1 0x40 PUSH0 KECCAK256 PUSH1 0x40 MLOAD SWAP1 PUSH2 0x29B DUP3 PUSH2 0x51F1 JUMP JUMPDEST PUSH2 0x2A4 DUP2 PUSH2 0x5401 JUMP JUMPDEST DUP3 MSTORE PUSH2 0x357 PUSH2 0x2B5 PUSH1 0x1 DUP4 ADD PUSH2 0x5401 JUMP JUMPDEST SWAP2 PUSH1 0x20 DUP5 ADD SWAP3 DUP4 MSTORE PUSH2 0x2C9 PUSH1 0x2 DUP3 ADD PUSH2 0x5401 JUMP JUMPDEST SWAP4 PUSH1 0x40 DUP2 ADD SWAP5 DUP6 MSTORE PUSH2 0x2DD PUSH1 0x3 DUP4 ADD PUSH2 0x5401 JUMP JUMPDEST SWAP1 PUSH1 0x60 DUP2 ADD SWAP2 DUP3 MSTORE PUSH2 0x2F1 PUSH1 0x4 DUP5 ADD PUSH2 0x5401 JUMP JUMPDEST PUSH1 0x80 DUP3 ADD SWAP1 DUP2 MSTORE PUSH2 0x304 PUSH1 0x5 DUP6 ADD PUSH2 0x5401 JUMP JUMPDEST SWAP2 PUSH1 0xA0 DUP2 ADD SWAP3 DUP4 MSTORE PUSH1 0x8 PUSH2 0x31A PUSH1 0x6 DUP8 ADD PUSH2 0x5401 JUMP JUMPDEST PUSH1 0xC0 DUP4 ADD DUP2 SWAP1 MSTORE PUSH1 0x7 DUP8 ADD SLOAD PUSH1 0x1 PUSH1 0x1 PUSH1 0xA0 SHL SUB AND PUSH1 0xE0 DUP5 ADD MSTORE SWAP6 ADD SLOAD PUSH2 0x100 DUP3 ADD MSTORE MLOAD SWAP6 MLOAD SWAP7 MLOAD SWAP3 MLOAD SWAP1 MLOAD SWAP2 MLOAD PUSH1 0x40 MLOAD SWAP8 DUP9 SWAP8 SWAP2 SWAP5 SWAP2 DUP9 PUSH2 0x551C JUMP JUMPDEST SUB SWAP1 RETURN JUMPDEST CALLVALUE PUSH2 0x195 JUMPI PUSH2 0x369 CALLDATASIZE PUSH2 0x5283 JUMP JUMPDEST SWAP1 CALLER PUSH0 MSTORE PUSH1 0x9 PUSH1 0x20 MSTORE PUSH1 0xFF PUSH1 0x40 PUSH0 KECCAK256 SLOAD AND ISZERO PUSH2 0x9F9 JUMPI PUSH1 0x1 DUP1 PUSH1 0xA0 SHL SUB AND PUSH0 MSTORE PUSH1 0x6 PUSH1 0x20 MSTORE PUSH1 0x40 PUSH0 KECCAK256 DUP2 MLOAD SWAP2 PUSH1 0x2 DUP3 ADD DUP4 MLOAD PUSH1 0x1 PUSH1 0x1 PUSH1 0x40 SHL SUB DUP2 GT PUSH2 0x668 JUMPI PUSH2 0x3B3 DUP3 SLOAD PUSH2 0x53C9 JUMP JUMPDEST PUSH1 0x1F DUP2 GT PUSH2 0x9B4 JUMPI JUMPDEST POP PUSH1 0x20 SWAP5 PUSH1 0x1F DUP3 GT PUSH1 0x1 EQ PUSH2 0x953 JUMPI SWAP5 DUP2 SWAP3 SWAP4 SWAP5 SWAP6 PUSH0 SWAP3 PUSH2 0x948 JUMPI JUMPDEST POP POP DUP2 PUSH1 0x1 SHL SWAP2 PUSH0 NOT SWAP1 PUSH1 0x3 SHL SHR NOT AND OR SWAP1 SSTORE JUMPDEST PUSH1 0x20 DUP2 ADD MLOAD SWAP2 PUSH1 0x3 DUP2 ADD DUP4 MLOAD PUSH1 0x1 PUSH1 0x1 PUSH1 0x40 SHL SUB DUP2 GT PUSH2 0x668 JUMPI PUSH2 0x410 DUP3 SLOAD PUSH2 0x53C9 JUMP JUMPDEST PUSH1 0x1F DUP2 GT PUSH2 0x903 JUMPI JUMPDEST POP PUSH1 0x20 SWAP5 PUSH1 0x1F DUP3 GT PUSH1 0x1 EQ PUSH2 0x8A2 JUMPI SWAP5 DUP2 SWAP3 SWAP4 SWAP5 SWAP6 PUSH0 SWAP3 PUSH2 0x897 JUMPI JUMPDEST POP POP DUP2 PUSH1 0x1 SHL SWAP2 PUSH0 NOT SWAP1 PUSH1 0x3 SHL SHR NOT AND OR SWAP1 SSTORE JUMPDEST PUSH1 0x80 DUP3 ADD MLOAD SWAP2 PUSH1 0x6 DUP3 ADD DUP4 MLOAD PUSH1 0x1 PUSH1 0x1 PUSH1 0x40 SHL SUB DUP2 GT PUSH2 0x668 JUMPI PUSH2 0x46D DUP3 SLOAD PUSH2 0x53C9 JUMP JUMPDEST PUSH1 0x1F DUP2 GT PUSH2 0x852 JUMPI JUMPDEST POP PUSH1 0x20 SWAP5 PUSH1 0x1F DUP3 GT PUSH1 0x1 EQ PUSH2 0x7F1 JUMPI SWAP5 DUP2 SWAP3 SWAP4 SWAP5 SWAP6 PUSH0 SWAP3 PUSH2 0x7E6 JUMPI JUMPDEST POP POP DUP2 PUSH1 0x1 SHL SWAP2 PUSH0 NOT SWAP1 PUSH1 0x3 SHL SHR NOT AND OR SWAP1 SSTORE JUMPDEST PUSH1 0x40 DUP2 ADD MLOAD SWAP2 PUSH1 0x4 DUP2 ADD DUP4 MLOAD PUSH1 0x1 PUSH1 0x1 PUSH1 0x40 SHL SUB DUP2 GT PUSH2 0x668 JUMPI PUSH2 0x4CA DUP3 SLOAD PUSH2 0x53C9 JUMP JUMPDEST PUSH1 0x1F DUP2 GT PUSH2 0x7A1 JUMPI JUMPDEST POP PUSH1 0x20 SWAP5 PUSH1 0x1F DUP3 GT PUSH1 0x1 EQ PUSH2 0x740 JUMPI SWAP5 DUP2 SWAP3 SWAP4 SWAP5 SWAP6 PUSH0 SWAP3 PUSH2 0x735 JUMPI JUMPDEST POP POP DUP2 PUSH1 0x1 SHL SWAP2 PUSH0 NOT SWAP1 PUSH1 0x3 SHL SHR NOT AND OR SWAP1 SSTORE JUMPDEST PUSH1 0x60 DUP3 ADD MLOAD SWAP2 PUSH1 0x5 DUP3 ADD DUP4 MLOAD PUSH1 0x1 PUSH1 0x1 PUSH1 0x40 SHL SUB DUP2 GT PUSH2 0x668 JUMPI PUSH2 0x527 DUP3 SLOAD PUSH2 0x53C9 JUMP JUMPDEST PUSH1 0x1F DUP2 GT PUSH2 0x6F0 JUMPI JUMPDEST POP PUSH1 0x20 PUSH1 0x1F DUP3 GT PUSH1 0x1 EQ PUSH2 0x687 JUMPI SWAP1 DUP1 PUSH1 0xA0 SWAP5 SWAP4 SWAP3 PUSH1 0x7 SWAP7 SWAP8 PUSH0 SWAP3 PUSH2 0x67C JUMPI JUMPDEST POP POP DUP2 PUSH1 0x1 SHL SWAP2 PUSH0 NOT SWAP1 PUSH1 0x3 SHL SHR NOT AND OR SWAP1 SSTORE JUMPDEST ADD MLOAD SWAP2 ADD DUP2 MLOAD PUSH1 0x1 PUSH1 0x1 PUSH1 0x40 SHL SUB DUP2 GT PUSH2 0x668 JUMPI PUSH2 0x582 DUP3 SLOAD PUSH2 0x53C9 JUMP JUMPDEST PUSH1 0x1F DUP2 GT PUSH2 0x623 JUMPI JUMPDEST POP PUSH1 0x20 SWAP3 PUSH1 0x1F DUP3 GT PUSH1 0x1 EQ PUSH2 0x5C7 JUMPI SWAP3 DUP2 SWAP3 SWAP4 PUSH0 SWAP3 PUSH2 0x5BC JUMPI JUMPDEST POP POP PUSH0 NOT PUSH1 0x3 DUP4 SWAP1 SHL SHR NOT AND PUSH1 0x1 SWAP2 SWAP1 SWAP2 SHL OR SWAP1 SSTORE STOP JUMPDEST ADD MLOAD SWAP1 POP DUP4 DUP1 PUSH2 0x5A5 JUMP JUMPDEST PUSH1 0x1F NOT DUP3 AND SWAP4 DUP4 PUSH0 MSTORE DUP1 PUSH0 KECCAK256 SWAP2 PUSH0 JUMPDEST DUP7 DUP2 LT PUSH2 0x60B JUMPI POP DUP4 PUSH1 0x1 SWAP6 SWAP7 LT PUSH2 0x5F3 JUMPI JUMPDEST POP POP POP DUP2 SHL ADD SWAP1 SSTORE STOP JUMPDEST ADD MLOAD PUSH0 NOT PUSH1 0xF8 DUP5 PUSH1 0x3 SHL AND SHR NOT AND SWAP1 SSTORE DUP4 DUP1 DUP1 PUSH2 0x5E9 JUMP JUMPDEST SWAP2 SWAP3 PUSH1 0x20 PUSH1 0x1 DUP2 SWAP3 DUP7 DUP6 ADD MLOAD DUP2 SSTORE ADD SWAP5 ADD SWAP3 ADD PUSH2 0x5D6 JUMP JUMPDEST DUP3 PUSH0 MSTORE PUSH1 0x20 PUSH0 KECCAK256 PUSH1 0x1F DUP4 ADD PUSH1 0x5 SHR DUP2 ADD SWAP2 PUSH1 0x20 DUP5 LT PUSH2 0x65E JUMPI JUMPDEST PUSH1 0x1F ADD PUSH1 0x5 SHR ADD SWAP1 JUMPDEST DUP2 DUP2 LT PUSH2 0x653 JUMPI POP PUSH2 0x58B JUMP JUMPDEST PUSH0 DUP2 SSTORE PUSH1 0x1 ADD PUSH2 0x646 JUMP JUMPDEST SWAP1 SWAP2 POP DUP2 SWAP1 PUSH2 0x63D JUMP JUMPDEST PUSH4 0x4E487B71 PUSH1 0xE0 SHL PUSH0 MSTORE PUSH1 0x41 PUSH1 0x4 MSTORE PUSH1 0x24 PUSH0 REVERT JUMPDEST ADD MLOAD SWAP1 POP DUP8 DUP1 PUSH2 0x550 JUMP JUMPDEST PUSH1 0x1F NOT DUP3 AND SWAP6 DUP4 PUSH0 MSTORE DUP2 PUSH0 KECCAK256 SWAP7 PUSH0 JUMPDEST DUP2 DUP2 LT PUSH2 0x6D8 JUMPI POP SWAP7 PUSH1 0x1 SWAP3 DUP5 SWAP3 PUSH1 0xA0 SWAP8 SWAP7 SWAP6 PUSH1 0x7 SWAP10 SWAP11 LT PUSH2 0x6C0 JUMPI JUMPDEST POP POP POP DUP2 SHL ADD SWAP1 SSTORE PUSH2 0x564 JUMP JUMPDEST ADD MLOAD PUSH0 NOT PUSH1 0xF8 DUP5 PUSH1 0x3 SHL AND SHR NOT AND SWAP1 SSTORE DUP8 DUP1 DUP1 PUSH2 0x6B3 JUMP JUMPDEST DUP4 DUP4 ADD MLOAD DUP10 SSTORE PUSH1 0x1 SWAP1 SWAP9 ADD SWAP8 PUSH1 0x20 SWAP4 DUP5 ADD SWAP4 ADD PUSH2 0x696 JUMP JUMPDEST DUP3 PUSH0 MSTORE PUSH1 0x20 PUSH0 KECCAK256 PUSH1 0x1F DUP4 ADD PUSH1 0x5 SHR DUP2 ADD SWAP2 PUSH1 0x20 DUP5 LT PUSH2 0x72B JUMPI JUMPDEST PUSH1 0x1F ADD PUSH1 0x5 SHR ADD SWAP1 JUMPDEST DUP2 DUP2 LT PUSH2 0x720 JUMPI POP PUSH2 0x530 JUMP JUMPDEST PUSH0 DUP2 SSTORE PUSH1 0x1 ADD PUSH2 0x713 JUMP JUMPDEST SWAP1 SWAP2 POP DUP2 SWAP1 PUSH2 0x70A JUMP JUMPDEST ADD MLOAD SWAP1 POP DUP6 DUP1 PUSH2 0x4EF JUMP JUMPDEST PUSH1 0x1F NOT DUP3 AND SWAP6 DUP4 PUSH0 MSTORE DUP1 PUSH0 KECCAK256 SWAP2 PUSH0 JUMPDEST DUP9 DUP2 LT PUSH2 0x789 JUMPI POP DUP4 PUSH1 0x1 SWAP6 SWAP7 SWAP8 SWAP9 LT PUSH2 0x771 JUMPI JUMPDEST POP POP POP DUP2 SHL ADD SWAP1 SSTORE PUSH2 0x503 JUMP JUMPDEST ADD MLOAD PUSH0 NOT PUSH1 0xF8 DUP5 PUSH1 0x3 SHL AND SHR NOT AND SWAP1 SSTORE DUP6 DUP1 DUP1 PUSH2 0x764 JUMP JUMPDEST SWAP2 SWAP3 PUSH1 0x20 PUSH1 0x1 DUP2 SWAP3 DUP7 DUP6 ADD MLOAD DUP2 SSTORE ADD SWAP5 ADD SWAP3 ADD PUSH2 0x74F JUMP JUMPDEST DUP3 PUSH0 MSTORE PUSH1 0x20 PUSH0 KECCAK256 PUSH1 0x1F DUP4 ADD PUSH1 0x5 SHR DUP2 ADD SWAP2 PUSH1 0x20 DUP5 LT PUSH2 0x7DC JUMPI JUMPDEST PUSH1 0x1F ADD PUSH1 0x5 SHR ADD SWAP1 JUMPDEST DUP2 DUP2 LT PUSH2 0x7D1 JUMPI POP PUSH2 0x4D3 JUMP JUMPDEST PUSH0 DUP2 SSTORE PUSH1 0x1 ADD PUSH2 0x7C4 JUMP JUMPDEST SWAP1 SWAP2 POP DUP2 SWAP1 PUSH2 0x7BB JUMP JUMPDEST ADD MLOAD SWAP1 POP DUP6 DUP1 PUSH2 0x492 JUMP JUMPDEST PUSH1 0x1F NOT DUP3 AND SWAP6 DUP4 PUSH0 MSTORE DUP1 PUSH0 KECCAK256 SWAP2 PUSH0 JUMPDEST DUP9 DUP2 LT PUSH2 0x83A JUMPI POP DUP4 PUSH1 0x1 SWAP6 SWAP7 SWAP8 SWAP9 LT PUSH2 0x822 JUMPI JUMPDEST POP POP POP DUP2 SHL ADD SWAP1 SSTORE PUSH2 0x4A6 JUMP JUMPDEST ADD MLOAD PUSH0 NOT PUSH1 0xF8 DUP5 PUSH1 0x3 SHL AND SHR NOT AND SWAP1 SSTORE DUP6 DUP1 DUP1 PUSH2 0x815 JUMP JUMPDEST SWAP2 SWAP3 PUSH1 0x20 PUSH1 0x1 DUP2 SWAP3 DUP7 DUP6 ADD MLOAD DUP2 SSTORE ADD SWAP5 ADD SWAP3 ADD PUSH2 0x800 JUMP JUMPDEST DUP3 PUSH0 MSTORE PUSH1 0x20 PUSH0 KECCAK256 PUSH1 0x1F DUP4 ADD PUSH1 0x5 SHR DUP2 ADD SWAP2 PUSH1 0x20 DUP5 LT PUSH2 0x88D JUMPI JUMPDEST PUSH1 0x1F ADD PUSH1 0x5 SHR ADD SWAP1 JUMPDEST DUP2 DUP2 LT PUSH2 0x882 JUMPI POP PUSH2 0x476 JUMP JUMPDEST PUSH0 DUP2 SSTORE PUSH1 0x1 ADD PUSH2 0x875 JUMP JUMPDEST SWAP1 SWAP2 POP DUP2 SWAP1 PUSH2 0x86C JUMP JUMPDEST ADD MLOAD SWAP1 POP DUP6 DUP1 PUSH2 0x435 JUMP JUMPDEST PUSH1 0x1F NOT DUP3 AND SWAP6 DUP4 PUSH0 MSTORE DUP1 PUSH0 KECCAK256 SWAP2 PUSH0 JUMPDEST DUP9 DUP2 LT PUSH2 0x8EB JUMPI POP DUP4 PUSH1 0x1 SWAP6 SWAP7 SWAP8 SWAP9 LT PUSH2 0x8D3 JUMPI JUMPDEST POP POP POP DUP2 SHL ADD SWAP1 SSTORE PUSH2 0x449 JUMP JUMPDEST ADD MLOAD PUSH0 NOT PUSH1 0xF8 DUP5 PUSH1 0x3 SHL AND SHR NOT AND SWAP1 SSTORE DUP6 DUP1 DUP1 PUSH2 0x8C6 JUMP JUMPDEST SWAP2 SWAP3 PUSH1 0x20 PUSH1 0x1 DUP2 SWAP3 DUP7 DUP6 ADD MLOAD DUP2 SSTORE ADD SWAP5 ADD SWAP3 ADD PUSH2 0x8B1 JUMP JUMPDEST DUP3 PUSH0 MSTORE PUSH1 0x20 PUSH0 KECCAK256 PUSH1 0x1F DUP4 ADD PUSH1 0x5 SHR DUP2 ADD SWAP2 PUSH1 0x20 DUP5 LT PUSH2 0x93E JUMPI JUMPDEST PUSH1 0x1F ADD PUSH1 0x5 SHR ADD SWAP1 JUMPDEST DUP2 DUP2 LT PUSH2 0x933 JUMPI POP PUSH2 0x419 JUMP JUMPDEST PUSH0 DUP2 SSTORE PUSH1 0x1 ADD PUSH2 0x926 JUMP JUMPDEST SWAP1 SWAP2 POP DUP2 SWAP1 PUSH2 0x91D JUMP JUMPDEST ADD MLOAD SWAP1 POP DUP6 DUP1 PUSH2 0x3D8 JUMP JUMPDEST PUSH1 0x1F NOT DUP3 AND SWAP6 DUP4 PUSH0 MSTORE DUP1 PUSH0 KECCAK256 SWAP2 PUSH0 JUMPDEST DUP9 DUP2 LT PUSH2 0x99C JUMPI POP DUP4 PUSH1 0x1 SWAP6 SWAP7 SWAP8 SWAP9 LT PUSH2 0x984 JUMPI JUMPDEST POP POP POP DUP2 SHL ADD SWAP1 SSTORE PUSH2 0x3EC JUMP JUMPDEST ADD MLOAD PUSH0 NOT PUSH1 0xF8 DUP5 PUSH1 0x3 SHL AND SHR NOT AND SWAP1 SSTORE DUP6 DUP1 DUP1 PUSH2 0x977 JUMP JUMPDEST SWAP2 SWAP3 PUSH1 0x20 PUSH1 0x1 DUP2 SWAP3 DUP7 DUP6 ADD MLOAD DUP2 SSTORE ADD SWAP5 ADD SWAP3 ADD PUSH2 0x962 JUMP JUMPDEST DUP3 PUSH0 MSTORE PUSH1 0x20 PUSH0 KECCAK256 PUSH1 0x1F DUP4 ADD PUSH1 0x5 SHR DUP2 ADD SWAP2 PUSH1 0x20 DUP5 LT PUSH2 0x9EF JUMPI JUMPDEST PUSH1 0x1F ADD PUSH1 0x5 SHR ADD SWAP1 JUMPDEST DUP2 DUP2 LT PUSH2 0x9E4 JUMPI POP PUSH2 0x3BC JUMP JUMPDEST PUSH0 DUP2 SSTORE PUSH1 0x1 ADD PUSH2 0x9D7 JUMP JUMPDEST SWAP1 SWAP2 POP DUP2 SWAP1 PUSH2 0x9CE JUMP JUMPDEST PUSH1 0x40 MLOAD PUSH3 0x461BCD PUSH1 0xE5 SHL DUP2 MSTORE PUSH1 0x20 PUSH1 0x4 DUP3 ADD MSTORE PUSH1 0x24 DUP1 DUP3 ADD MSTORE PUSH32 0x4F6E6C7920646F63746F72732063616E20757064617465206170706F696E746D PUSH1 0x44 DUP3 ADD MSTORE PUSH4 0x656E7473 PUSH1 0xE0 SHL PUSH1 0x64 DUP3 ADD MSTORE PUSH1 0x84 SWAP1 REVERT JUMPDEST CALLVALUE PUSH2 0x195 JUMPI PUSH0 CALLDATASIZE PUSH1 0x3 NOT ADD SLT PUSH2 0x195 JUMPI PUSH1 0x20 PUSH1 0xB SLOAD PUSH1 0x40 MLOAD SWAP1 DUP2 MSTORE RETURN JUMPDEST CALLVALUE PUSH2 0x195 JUMPI PUSH0 CALLDATASIZE PUSH1 0x3 NOT ADD SLT PUSH2 0x195 JUMPI PUSH1 0x20 PUSH1 0xE SLOAD PUSH1 0x40 MLOAD SWAP1 DUP2 MSTORE RETURN JUMPDEST CALLVALUE PUSH2 0x195 JUMPI PUSH1 0x20 CALLDATASIZE PUSH1 0x3 NOT ADD SLT PUSH2 0x195 JUMPI PUSH1 0x1 PUSH1 0x1 PUSH1 0xA0 SHL SUB PUSH2 0xAA5 PUSH2 0x51BF JUMP JUMPDEST AND PUSH0 MSTORE PUSH1 0x4 PUSH1 0x20 MSTORE PUSH1 0x20 PUSH2 0x1C0 PUSH1 0x40 PUSH0 KECCAK256 PUSH1 0xE PUSH1 0x40 MLOAD SWAP2 PUSH2 0xAC5 DUP4 PUSH2 0x51D5 JUMP JUMPDEST PUSH2 0xACE DUP2 PUSH2 0x5401 JUMP JUMPDEST DUP4 MSTORE PUSH2 0xADC PUSH1 0x1 DUP3 ADD PUSH2 0x5401 JUMP JUMPDEST DUP6 DUP5 ADD MSTORE PUSH2 0xAEC PUSH1 0x2 DUP3 ADD PUSH2 0x5401 JUMP JUMPDEST PUSH1 0x40 DUP5 ADD MSTORE PUSH2 0xAFD PUSH1 0x3 DUP3 ADD PUSH2 0x5401 JUMP JUMPDEST PUSH1 0x60 DUP5 ADD MSTORE PUSH2 0xB0E PUSH1 0x4 DUP3 ADD PUSH2 0x5401 JUMP JUMPDEST PUSH1 0x80 DUP5 ADD MSTORE PUSH2 0xB1F PUSH1 0x5 DUP3 ADD PUSH2 0x5401 JUMP JUMPDEST PUSH1 0xA0 DUP5 ADD MSTORE PUSH2 0xB30 PUSH1 0x6 DUP3 ADD PUSH2 0x5401 JUMP JUMPDEST PUSH1 0xC0 DUP5 ADD MSTORE PUSH2 0xB41 PUSH1 0x7 DUP3 ADD PUSH2 0x5401 JUMP JUMPDEST PUSH1 0xE0 DUP5 ADD MSTORE PUSH2 0xB52 PUSH1 0x8 DUP3 ADD PUSH2 0x5401 JUMP JUMPDEST PUSH2 0x100 DUP5 ADD MSTORE PUSH2 0xB64 PUSH1 0x9 DUP3 ADD PUSH2 0x5401 JUMP JUMPDEST PUSH2 0x120 DUP5 ADD MSTORE PUSH2 0xB76 PUSH1 0xA DUP3 ADD PUSH2 0x5401 JUMP JUMPDEST PUSH2 0x140 DUP5 ADD MSTORE PUSH2 0xB88 PUSH1 0xB DUP3 ADD PUSH2 0x5401 JUMP JUMPDEST PUSH2 0x160 DUP5 ADD MSTORE PUSH2 0xB9A PUSH1 0xC DUP3 ADD PUSH2 0x5401 JUMP JUMPDEST PUSH2 0x180 DUP5 ADD MSTORE PUSH1 0xD DUP2 ADD SLOAD PUSH1 0x1 PUSH1 0x1 PUSH1 0xA0 SHL SUB AND PUSH2 0x1A0 DUP5 ADD MSTORE ADD SLOAD SWAP2 ADD DUP2 SWAP1 MSTORE PUSH1 0x40 MLOAD SWAP1 DUP2 MSTORE RETURN JUMPDEST CALLVALUE PUSH2 0x195 JUMPI PUSH1 0x20 CALLDATASIZE PUSH1 0x3 NOT ADD SLT PUSH2 0x195 JUMPI PUSH1 0x4 CALLDATALOAD PUSH1 0x1 SLOAD DUP2 LT ISZERO PUSH2 0x195 JUMPI PUSH1 0x1 SLOAD DUP2 LT ISZERO PUSH2 0x235 JUMPI PUSH1 0x1 PUSH0 MSTORE PUSH32 0xB10E2D527612073B26EECDFD717E6A320CF44B4AFAC2B0732D9FCBE2B7FA0CF6 ADD SLOAD PUSH1 0x40 MLOAD PUSH1 0x1 PUSH1 0x1 PUSH1 0xA0 SHL SUB SWAP1 SWAP2 AND DUP2 MSTORE PUSH1 0x20 SWAP1 RETURN JUMPDEST CALLVALUE PUSH2 0x195 JUMPI PUSH0 CALLDATASIZE PUSH1 0x3 NOT ADD SLT PUSH2 0x195 JUMPI PUSH1 0x40 MLOAD DUP1 PUSH1 0x20 PUSH1 0x2 SLOAD SWAP2 DUP3 DUP2 MSTORE ADD SWAP1 PUSH1 0x2 PUSH0 MSTORE PUSH32 0x405787FA12A823E0F2B7631CC41B3BA8828B3321CA811111FA75CD3AA3BB5ACE SWAP1 PUSH0 JUMPDEST DUP2 DUP2 LT PUSH2 0xC91 JUMPI PUSH2 0x357 DUP6 PUSH2 0xC85 DUP2 DUP8 SUB DUP3 PUSH2 0x520D JUMP JUMPDEST PUSH1 0x40 MLOAD SWAP2 DUP3 SWAP2 DUP3 PUSH2 0x54DA JUMP JUMPDEST DUP3 SLOAD PUSH1 0x1 PUSH1 0x1 PUSH1 0xA0 SHL SUB AND DUP5 MSTORE PUSH1 0x20 SWAP1 SWAP4 ADD SWAP3 PUSH1 0x1 SWAP3 DUP4 ADD SWAP3 ADD PUSH2 0xC6E JUMP JUMPDEST CALLVALUE PUSH2 0x195 JUMPI PUSH2 0xCBE CALLDATASIZE PUSH2 0x559D JUMP JUMPDEST SWAP5 SWAP6 SWAP4 SWAP1 SWAP6 SWAP3 SWAP2 SWAP3 CALLER PUSH0 MSTORE PUSH1 0x9 PUSH1 0x20 MSTORE PUSH2 0xCDE PUSH1 0xFF PUSH1 0x40 PUSH0 KECCAK256 SLOAD AND PUSH2 0x56DF JUMP JUMPDEST CALLER PUSH0 MSTORE PUSH1 0x5 PUSH1 0x20 MSTORE PUSH1 0x40 PUSH0 KECCAK256 SWAP5 DUP1 MLOAD SWAP1 PUSH1 0x1 PUSH1 0x1 PUSH1 0x40 SHL SUB DUP3 GT PUSH2 0x668 JUMPI DUP2 SWAP1 PUSH2 0xD08 DUP9 SLOAD PUSH2 0x53C9 JUMP JUMPDEST PUSH1 0x1F DUP2 GT PUSH2 0x13D8 JUMPI JUMPDEST POP PUSH1 0x20 SWAP1 PUSH1 0x1F DUP4 GT PUSH1 0x1 EQ PUSH2 0x1375 JUMPI PUSH0 SWAP3 PUSH2 0x136A JUMPI JUMPDEST POP POP DUP2 PUSH1 0x1 SHL SWAP2 PUSH0 NOT SWAP1 PUSH1 0x3 SHL SHR NOT AND OR DUP6 SSTORE JUMPDEST DUP1 MLOAD PUSH1 0x1 DUP7 ADD SWAP2 PUSH1 0x1 PUSH1 0x1 PUSH1 0x40 SHL SUB DUP3 GT PUSH2 0x668 JUMPI DUP2 SWAP1 PUSH2 0xD5C DUP5 SLOAD PUSH2 0x53C9 JUMP JUMPDEST PUSH1 0x1F DUP2 GT PUSH2 0x131A JUMPI JUMPDEST POP PUSH1 0x20 SWAP1 PUSH1 0x1F DUP4 GT PUSH1 0x1 EQ PUSH2 0x12B7 JUMPI PUSH0 SWAP3 PUSH2 0x12AC JUMPI JUMPDEST POP POP DUP2 PUSH1 0x1 SHL SWAP2 PUSH0 NOT SWAP1 PUSH1 0x3 SHL SHR NOT AND OR SWAP1 SSTORE JUMPDEST DUP1 MLOAD PUSH1 0x2 DUP6 ADD SWAP2 PUSH1 0x1 PUSH1 0x1 PUSH1 0x40 SHL SUB DUP3 GT PUSH2 0x668 JUMPI DUP2 SWAP1 PUSH2 0xDB0 DUP5 SLOAD PUSH2 0x53C9 JUMP JUMPDEST PUSH1 0x1F DUP2 GT PUSH2 0x125C JUMPI JUMPDEST POP PUSH1 0x20 SWAP1 PUSH1 0x1F DUP4 GT PUSH1 0x1 EQ PUSH2 0x11F9 JUMPI PUSH0 SWAP3 PUSH2 0x11EE JUMPI JUMPDEST POP POP DUP2 PUSH1 0x1 SHL SWAP2 PUSH0 NOT SWAP1 PUSH1 0x3 SHL SHR NOT AND OR SWAP1 SSTORE JUMPDEST DUP1 MLOAD PUSH1 0x3 DUP5 ADD SWAP2 PUSH1 0x1 PUSH1 0x1 PUSH1 0x40 SHL SUB DUP3 GT PUSH2 0x668 JUMPI DUP2 SWAP1 PUSH2 0xE04 DUP5 SLOAD PUSH2 0x53C9 JUMP JUMPDEST PUSH1 0x1F DUP2 GT PUSH2 0x119E JUMPI JUMPDEST POP PUSH1 0x20 SWAP1 PUSH1 0x1F DUP4 GT PUSH1 0x1 EQ PUSH2 0x113B JUMPI PUSH0 SWAP3 PUSH2 0x1130 JUMPI JUMPDEST POP POP DUP2 PUSH1 0x1 SHL SWAP2 PUSH0 NOT SWAP1 PUSH1 0x3 SHL SHR NOT AND OR SWAP1 SSTORE JUMPDEST DUP1 MLOAD PUSH1 0x4 DUP4 ADD SWAP2 PUSH1 0x1 PUSH1 0x1 PUSH1 0x40 SHL SUB DUP3 GT PUSH2 0x668 JUMPI DUP2 SWAP1 PUSH2 0xE58 DUP5 SLOAD PUSH2 0x53C9 JUMP JUMPDEST PUSH1 0x1F DUP2 GT PUSH2 0x10E0 JUMPI JUMPDEST POP PUSH1 0x20 SWAP1 PUSH1 0x1F DUP4 GT PUSH1 0x1 EQ PUSH2 0x107D JUMPI PUSH0 SWAP3 PUSH2 0x1072 JUMPI JUMPDEST POP POP DUP2 PUSH1 0x1 SHL SWAP2 PUSH0 NOT SWAP1 PUSH1 0x3 SHL SHR NOT AND OR SWAP1 SSTORE JUMPDEST PUSH1 0x5 DUP2 ADD DUP4 MLOAD PUSH1 0x1 PUSH1 0x1 PUSH1 0x40 SHL SUB DUP2 GT PUSH2 0x668 JUMPI PUSH2 0xEA9 DUP3 SLOAD PUSH2 0x53C9 JUMP JUMPDEST PUSH1 0x1F DUP2 GT PUSH2 0x102D JUMPI JUMPDEST POP PUSH1 0x20 PUSH1 0x1F DUP3 GT PUSH1 0x1 EQ PUSH2 0xFC8 JUMPI DUP2 SWAP1 PUSH1 0x6 SWAP6 SWAP7 PUSH0 SWAP3 PUSH2 0xFBD JUMPI JUMPDEST POP POP DUP2 PUSH1 0x1 SHL SWAP2 PUSH0 NOT SWAP1 PUSH1 0x3 SHL SHR NOT AND OR SWAP1 SSTORE JUMPDEST ADD DUP2 MLOAD PUSH1 0x1 PUSH1 0x1 PUSH1 0x40 SHL SUB DUP2 GT PUSH2 0x668 JUMPI PUSH2 0xEFC DUP3 SLOAD PUSH2 0x53C9 JUMP JUMPDEST PUSH1 0x1F DUP2 GT PUSH2 0xF78 JUMPI JUMPDEST POP PUSH1 0x20 SWAP3 PUSH1 0x1F DUP3 GT PUSH1 0x1 EQ PUSH2 0xF35 JUMPI SWAP3 DUP2 SWAP3 SWAP4 PUSH0 SWAP3 PUSH2 0x5BC JUMPI POP POP PUSH0 NOT PUSH1 0x3 DUP4 SWAP1 SHL SHR NOT AND PUSH1 0x1 SWAP2 SWAP1 SWAP2 SHL OR SWAP1 SSTORE STOP JUMPDEST PUSH1 0x1F NOT DUP3 AND SWAP4 DUP4 PUSH0 MSTORE DUP1 PUSH0 KECCAK256 SWAP2 PUSH0 JUMPDEST DUP7 DUP2 LT PUSH2 0xF60 JUMPI POP DUP4 PUSH1 0x1 SWAP6 SWAP7 LT PUSH2 0x5F3 JUMPI POP POP POP DUP2 SHL ADD SWAP1 SSTORE STOP JUMPDEST SWAP2 SWAP3 PUSH1 0x20 PUSH1 0x1 DUP2 SWAP3 DUP7 DUP6 ADD MLOAD DUP2 SSTORE ADD SWAP5 ADD SWAP3 ADD PUSH2 0xF44 JUMP JUMPDEST DUP3 PUSH0 MSTORE PUSH1 0x20 PUSH0 KECCAK256 PUSH1 0x1F DUP4 ADD PUSH1 0x5 SHR DUP2 ADD SWAP2 PUSH1 0x20 DUP5 LT PUSH2 0xFB3 JUMPI JUMPDEST PUSH1 0x1F ADD PUSH1 0x5 SHR ADD SWAP1 JUMPDEST DUP2 DUP2 LT PUSH2 0xFA8 JUMPI POP PUSH2 0xF05 JUMP JUMPDEST PUSH0 DUP2 SSTORE PUSH1 0x1 ADD PUSH2 0xF9B JUMP JUMPDEST SWAP1 SWAP2 POP DUP2 SWAP1 PUSH2 0xF92 JUMP JUMPDEST ADD MLOAD SWAP1 POP DUP7 DUP1 PUSH2 0xECD JUMP JUMPDEST PUSH1 0x1F NOT DUP3 AND SWAP6 DUP4 PUSH0 MSTORE DUP2 PUSH0 KECCAK256 SWAP7 PUSH0 JUMPDEST DUP2 DUP2 LT PUSH2 0x1015 JUMPI POP SWAP2 PUSH1 0x6 SWAP7 SWAP8 SWAP2 DUP5 PUSH1 0x1 SWAP6 SWAP5 LT PUSH2 0xFFD JUMPI JUMPDEST POP POP POP DUP2 SHL ADD SWAP1 SSTORE PUSH2 0xEE1 JUMP JUMPDEST ADD MLOAD PUSH0 NOT PUSH1 0xF8 DUP5 PUSH1 0x3 SHL AND SHR NOT AND SWAP1 SSTORE DUP7 DUP1 DUP1 PUSH2 0xFF0 JUMP JUMPDEST DUP4 DUP4 ADD MLOAD DUP10 SSTORE PUSH1 0x1 SWAP1 SWAP9 ADD SWAP8 PUSH1 0x20 SWAP4 DUP5 ADD SWAP4 ADD PUSH2 0xFD7 JUMP JUMPDEST DUP3 PUSH0 MSTORE PUSH1 0x20 PUSH0 KECCAK256 PUSH1 0x1F DUP4 ADD PUSH1 0x5 SHR DUP2 ADD SWAP2 PUSH1 0x20 DUP5 LT PUSH2 0x1068 JUMPI JUMPDEST PUSH1 0x1F ADD PUSH1 0x5 SHR ADD SWAP1 JUMPDEST DUP2 DUP2 LT PUSH2 0x105D JUMPI POP PUSH2 0xEB2 JUMP JUMPDEST PUSH0 DUP2 SSTORE PUSH1 0x1 ADD PUSH2 0x1050 JUMP JUMPDEST SWAP1 SWAP2 POP DUP2 SWAP1 PUSH2 0x1047 JUMP JUMPDEST ADD MLOAD SWAP1 POP DUP7 DUP1 PUSH2 0xE77 JUMP JUMPDEST PUSH0 DUP6 DUP2 MSTORE DUP3 DUP2 KECCAK256 SWAP4 POP PUSH1 0x1F NOT DUP6 AND SWAP1 JUMPDEST DUP2 DUP2 LT PUSH2 0x10C8 JUMPI POP SWAP1 DUP5 PUSH1 0x1 SWAP6 SWAP5 SWAP4 SWAP3 LT PUSH2 0x10B0 JUMPI JUMPDEST POP POP POP DUP2 SHL ADD SWAP1 SSTORE PUSH2 0xE8B JUMP JUMPDEST ADD MLOAD PUSH0 NOT PUSH1 0xF8 DUP5 PUSH1 0x3 SHL AND SHR NOT AND SWAP1 SSTORE DUP7 DUP1 DUP1 PUSH2 0x10A3 JUMP JUMPDEST SWAP3 SWAP4 PUSH1 0x20 PUSH1 0x1 DUP2 SWAP3 DUP8 DUP7 ADD MLOAD DUP2 SSTORE ADD SWAP6 ADD SWAP4 ADD PUSH2 0x108D JUMP JUMPDEST SWAP1 SWAP2 POP DUP4 PUSH0 MSTORE PUSH1 0x20 PUSH0 KECCAK256 PUSH1 0x1F DUP5 ADD PUSH1 0x5 SHR DUP2 ADD SWAP2 PUSH1 0x20 DUP6 LT PUSH2 0x1126 JUMPI JUMPDEST SWAP1 PUSH1 0x1F DUP6 SWAP5 SWAP4 SWAP3 ADD PUSH1 0x5 SHR ADD SWAP1 JUMPDEST DUP2 DUP2 LT PUSH2 0x1118 JUMPI POP PUSH2 0xE61 JUMP JUMPDEST PUSH0 DUP2 SSTORE DUP5 SWAP4 POP PUSH1 0x1 ADD PUSH2 0x110B JUMP JUMPDEST SWAP1 SWAP2 POP DUP2 SWAP1 PUSH2 0x10FD JUMP JUMPDEST ADD MLOAD SWAP1 POP DUP8 DUP1 PUSH2 0xE23 JUMP JUMPDEST PUSH0 DUP6 DUP2 MSTORE DUP3 DUP2 KECCAK256 SWAP4 POP PUSH1 0x1F NOT DUP6 AND SWAP1 JUMPDEST DUP2 DUP2 LT PUSH2 0x1186 JUMPI POP SWAP1 DUP5 PUSH1 0x1 SWAP6 SWAP5 SWAP4 SWAP3 LT PUSH2 0x116E JUMPI JUMPDEST POP POP POP DUP2 SHL ADD SWAP1 SSTORE PUSH2 0xE37 JUMP JUMPDEST ADD MLOAD PUSH0 NOT PUSH1 0xF8 DUP5 PUSH1 0x3 SHL AND SHR NOT AND SWAP1 SSTORE DUP8 DUP1 DUP1 PUSH2 0x1161 JUMP JUMPDEST SWAP3 SWAP4 PUSH1 0x20 PUSH1 0x1 DUP2 SWAP3 DUP8 DUP7 ADD MLOAD DUP2 SSTORE ADD SWAP6 ADD SWAP4 ADD PUSH2 0x114B JUMP JUMPDEST SWAP1 SWAP2 POP DUP4 PUSH0 MSTORE PUSH1 0x20 PUSH0 KECCAK256 PUSH1 0x1F DUP5 ADD PUSH1 0x5 SHR DUP2 ADD SWAP2 PUSH1 0x20 DUP6 LT PUSH2 0x11E4 JUMPI JUMPDEST SWAP1 PUSH1 0x1F DUP6 SWAP5 SWAP4 SWAP3 ADD PUSH1 0x5 SHR ADD SWAP1 JUMPDEST DUP2 DUP2 LT PUSH2 0x11D6 JUMPI POP PUSH2 0xE0D JUMP JUMPDEST PUSH0 DUP2 SSTORE DUP5 SWAP4 POP PUSH1 0x1 ADD PUSH2 0x11C9 JUMP JUMPDEST SWAP1 SWAP2 POP DUP2 SWAP1 PUSH2 0x11BB JUMP JUMPDEST ADD MLOAD SWAP1 POP DUP9 DUP1 PUSH2 0xDCF JUMP JUMPDEST PUSH0 DUP6 DUP2 MSTORE DUP3 DUP2 KECCAK256 SWAP4 POP PUSH1 0x1F NOT DUP6 AND SWAP1 JUMPDEST DUP2 DUP2 LT PUSH2 0x1244 JUMPI POP SWAP1 DUP5 PUSH1 0x1 SWAP6 SWAP5 SWAP4 SWAP3 LT PUSH2 0x122C JUMPI JUMPDEST POP POP POP DUP2 SHL ADD SWAP1 SSTORE PUSH2 0xDE3 JUMP JUMPDEST ADD MLOAD PUSH0 NOT PUSH1 0xF8 DUP5 PUSH1 0x3 SHL AND SHR NOT AND SWAP1 SSTORE DUP9 DUP1 DUP1 PUSH2 0x121F JUMP JUMPDEST SWAP3 SWAP4 PUSH1 0x20 PUSH1 0x1 DUP2 SWAP3 DUP8 DUP7 ADD MLOAD DUP2 SSTORE ADD SWAP6 ADD SWAP4 ADD PUSH2 0x1209 JUMP JUMPDEST SWAP1 SWAP2 POP DUP4 PUSH0 MSTORE PUSH1 0x20 PUSH0 KECCAK256 PUSH1 0x1F DUP5 ADD PUSH1 0x5 SHR DUP2 ADD SWAP2 PUSH1 0x20 DUP6 LT PUSH2 0x12A2 JUMPI JUMPDEST SWAP1 PUSH1 0x1F DUP6 SWAP5 SWAP4 SWAP3 ADD PUSH1 0x5 SHR ADD SWAP1 JUMPDEST DUP2 DUP2 LT PUSH2 0x1294 JUMPI POP PUSH2 0xDB9 JUMP JUMPDEST PUSH0 DUP2 SSTORE DUP5 SWAP4 POP PUSH1 0x1 ADD PUSH2 0x1287 JUMP JUMPDEST SWAP1 SWAP2 POP DUP2 SWAP1 PUSH2 0x1279 JUMP JUMPDEST ADD MLOAD SWAP1 POP DUP10 DUP1 PUSH2 0xD7B JUMP JUMPDEST PUSH0 DUP6 DUP2 MSTORE DUP3 DUP2 KECCAK256 SWAP4 POP PUSH1 0x1F NOT DUP6 AND SWAP1 JUMPDEST DUP2 DUP2 LT PUSH2 0x1302 JUMPI POP SWAP1 DUP5 PUSH1 0x1 SWAP6 SWAP5 SWAP4 SWAP3 LT PUSH2 0x12EA JUMPI JUMPDEST POP POP POP DUP2 SHL ADD SWAP1 SSTORE PUSH2 0xD8F JUMP JUMPDEST ADD MLOAD PUSH0 NOT PUSH1 0xF8 DUP5 PUSH1 0x3 SHL AND SHR NOT AND SWAP1 SSTORE DUP10 DUP1 DUP1 PUSH2 0x12DD JUMP JUMPDEST SWAP3 SWAP4 PUSH1 0x20 PUSH1 0x1 DUP2 SWAP3 DUP8 DUP7 ADD MLOAD DUP2 SSTORE ADD SWAP6 ADD SWAP4 ADD PUSH2 0x12C7 JUMP JUMPDEST SWAP1 SWAP2 POP DUP4 PUSH0 MSTORE PUSH1 0x20 PUSH0 KECCAK256 PUSH1 0x1F DUP5 ADD PUSH1 0x5 SHR DUP2 ADD SWAP2 PUSH1 0x20 DUP6 LT PUSH2 0x1360 JUMPI JUMPDEST SWAP1 PUSH1 0x1F DUP6 SWAP5 SWAP4 SWAP3 ADD PUSH1 0x5 SHR ADD SWAP1 JUMPDEST DUP2 DUP2 LT PUSH2 0x1352 JUMPI POP PUSH2 0xD65 JUMP JUMPDEST PUSH0 DUP2 SSTORE DUP5 SWAP4 POP PUSH1 0x1 ADD PUSH2 0x1345 JUMP JUMPDEST SWAP1 SWAP2 POP DUP2 SWAP1 PUSH2 0x1337 JUMP JUMPDEST ADD MLOAD SWAP1 POP DUP10 DUP1 PUSH2 0xD27 JUMP JUMPDEST PUSH0 DUP10 DUP2 MSTORE DUP3 DUP2 KECCAK256 SWAP4 POP PUSH1 0x1F NOT DUP6 AND SWAP1 JUMPDEST DUP2 DUP2 LT PUSH2 0x13C0 JUMPI POP SWAP1 DUP5 PUSH1 0x1 SWAP6 SWAP5 SWAP4 SWAP3 LT PUSH2 0x13A8 JUMPI JUMPDEST POP POP POP DUP2 SHL ADD DUP6 SSTORE PUSH2 0xD3B JUMP JUMPDEST ADD MLOAD PUSH0 NOT PUSH1 0xF8 DUP5 PUSH1 0x3 SHL AND SHR NOT AND SWAP1 SSTORE DUP10 DUP1 DUP1 PUSH2 0x139B JUMP JUMPDEST SWAP3 SWAP4 PUSH1 0x20 PUSH1 0x1 DUP2 SWAP3 DUP8 DUP7 ADD MLOAD DUP2 SSTORE ADD SWAP6 ADD SWAP4 ADD PUSH2 0x1385 JUMP JUMPDEST SWAP1 SWAP2 POP DUP8 PUSH0 MSTORE PUSH1 0x20 PUSH0 KECCAK256 PUSH1 0x1F DUP5 ADD PUSH1 0x5 SHR DUP2 ADD SWAP2 PUSH1 0x20 DUP6 LT PUSH2 0x141E JUMPI JUMPDEST SWAP1 PUSH1 0x1F DUP6 SWAP5 SWAP4 SWAP3 ADD PUSH1 0x5 SHR ADD SWAP1 JUMPDEST DUP2 DUP2 LT PUSH2 0x1410 JUMPI POP PUSH2 0xD11 JUMP JUMPDEST PUSH0 DUP2 SSTORE DUP5 SWAP4 POP PUSH1 0x1 ADD PUSH2 0x1403 JUMP JUMPDEST SWAP1 SWAP2 POP DUP2 SWAP1 PUSH2 0x13F5 JUMP JUMPDEST CALLVALUE PUSH2 0x195 JUMPI PUSH1 0x20 CALLDATASIZE PUSH1 0x3 NOT ADD SLT PUSH2 0x195 JUMPI PUSH2 0x1441 PUSH2 0x51BF JUMP JUMPDEST CALLER PUSH0 MSTORE PUSH1 0x7 PUSH1 0x20 MSTORE PUSH1 0x40 PUSH0 KECCAK256 SWAP1 PUSH1 0x1 DUP1 PUSH1 0xA0 SHL SUB AND PUSH0 MSTORE PUSH1 0x20 MSTORE PUSH1 0x40 PUSH0 KECCAK256 PUSH1 0xFF NOT DUP2 SLOAD AND SWAP1 SSTORE PUSH1 0x20 PUSH1 0x40 MLOAD PUSH1 0x1 DUP2 MSTORE RETURN JUMPDEST CALLVALUE PUSH2 0x195 JUMPI PUSH0 CALLDATASIZE PUSH1 0x3 NOT ADD SLT PUSH2 0x195 JUMPI PUSH1 0x40 MLOAD DUP1 PUSH1 0x20 PUSH1 0x3 SLOAD SWAP2 DUP3 DUP2 MSTORE ADD SWAP1 PUSH1 0x3 PUSH0 MSTORE PUSH32 0xC2575A0E9E593C00F959F8C92F12DB2869C3395A3B0502D05E2516446F71F85B SWAP1 PUSH0 JUMPDEST DUP2 DUP2 LT PUSH2 0x14D0 JUMPI PUSH2 0x357 DUP6 PUSH2 0xC85 DUP2 DUP8 SUB DUP3 PUSH2 0x520D JUMP JUMPDEST DUP3 SLOAD PUSH1 0x1 PUSH1 0x1 PUSH1 0xA0 SHL SUB AND DUP5 MSTORE PUSH1 0x20 SWAP1 SWAP4 ADD SWAP3 PUSH1 0x1 SWAP3 DUP4 ADD SWAP3 ADD PUSH2 0x14B9 JUMP JUMPDEST CALLVALUE PUSH2 0x195 JUMPI PUSH1 0x20 CALLDATASIZE PUSH1 0x3 NOT ADD SLT PUSH2 0x195 JUMPI PUSH1 0x1 PUSH1 0x1 PUSH1 0xA0 SHL SUB PUSH2 0x1510 PUSH2 0x51BF JUMP JUMPDEST AND PUSH0 MSTORE PUSH1 0x6 PUSH1 0x20 MSTORE PUSH1 0x40 PUSH0 KECCAK256 PUSH1 0x40 MLOAD PUSH2 0x1528 DUP2 PUSH2 0x51F1 JUMP JUMPDEST DUP2 SLOAD PUSH1 0x1 PUSH1 0x1 PUSH1 0xA0 SHL SUB SWAP1 DUP2 AND DUP3 MSTORE PUSH1 0x1 DUP4 ADD SLOAD AND PUSH1 0x20 DUP3 ADD MSTORE PUSH2 0x154E PUSH1 0x2 DUP4 ADD PUSH2 0x5401 JUMP JUMPDEST PUSH1 0x40 DUP3 ADD SWAP1 DUP2 MSTORE SWAP2 PUSH2 0x1562 PUSH1 0x3 DUP3 ADD PUSH2 0x5401 JUMP JUMPDEST PUSH1 0x60 DUP4 ADD SWAP1 DUP2 MSTORE SWAP1 PUSH2 0x1576 PUSH1 0x4 DUP3 ADD PUSH2 0x5401 JUMP JUMPDEST PUSH1 0x80 DUP5 ADD SWAP1 DUP2 MSTORE PUSH2 0x1589 PUSH1 0x5 DUP4 ADD PUSH2 0x5401 JUMP JUMPDEST PUSH1 0xA0 DUP6 ADD SWAP1 DUP2 MSTORE SWAP1 PUSH2 0x159D PUSH1 0x6 DUP5 ADD PUSH2 0x5401 JUMP JUMPDEST PUSH1 0xC0 DUP7 ADD SWAP1 DUP2 MSTORE PUSH2 0x15B0 PUSH1 0x7 DUP6 ADD PUSH2 0x5401 JUMP JUMPDEST SWAP4 PUSH1 0xE0 DUP8 ADD SWAP5 DUP6 MSTORE PUSH1 0x8 ADD SLOAD PUSH2 0x100 DUP8 ADD MSTORE PUSH1 0x1 PUSH1 0xA0 SHL PUSH1 0x1 SWAP1 SUB DUP7 MLOAD AND PUSH0 MSTORE PUSH1 0x5 PUSH1 0x20 MSTORE PUSH1 0x40 PUSH0 KECCAK256 SWAP6 PUSH1 0x40 MLOAD PUSH2 0x15E6 DUP2 PUSH2 0x51F1 JUMP JUMPDEST PUSH2 0x15EF DUP9 PUSH2 0x5401 JUMP JUMPDEST DUP2 MSTORE PUSH2 0x15FD PUSH1 0x1 DUP10 ADD PUSH2 0x5401 JUMP JUMPDEST PUSH1 0x20 DUP3 ADD SWAP1 DUP2 MSTORE SWAP8 PUSH2 0x1611 PUSH1 0x2 DUP3 ADD PUSH2 0x5401 JUMP JUMPDEST PUSH1 0x40 DUP4 ADD MSTORE PUSH2 0x1622 PUSH1 0x3 DUP3 ADD PUSH2 0x5401 JUMP JUMPDEST PUSH1 0x60 DUP4 ADD MSTORE PUSH2 0x1633 PUSH1 0x4 DUP3 ADD PUSH2 0x5401 JUMP JUMPDEST PUSH1 0x80 DUP4 ADD MSTORE PUSH2 0x1644 PUSH1 0x5 DUP3 ADD PUSH2 0x5401 JUMP JUMPDEST PUSH1 0xA0 DUP4 ADD MSTORE PUSH2 0x1655 PUSH1 0x6 DUP3 ADD PUSH2 0x5401 JUMP JUMPDEST PUSH1 0xC0 DUP4 ADD MSTORE PUSH1 0x1 PUSH1 0xA0 SHL PUSH1 0x1 SWAP1 SUB PUSH1 0x7 DUP3 ADD SLOAD AND PUSH1 0xE0 DUP4 ADD MSTORE PUSH1 0x8 ADD SLOAD SWAP1 PUSH2 0x100 ADD MSTORE PUSH1 0x1 PUSH1 0xA0 SHL PUSH1 0x1 SWAP1 SUB SWAP1 MLOAD AND SWAP6 MLOAD SWAP7 MLOAD SWAP5 MLOAD SWAP1 MLOAD SWAP2 MLOAD SWAP3 MLOAD SWAP4 MLOAD SWAP5 PUSH1 0x40 MLOAD SWAP8 DUP9 SWAP8 DUP9 MSTORE PUSH1 0x20 DUP9 ADD PUSH2 0x100 SWAP1 MSTORE PUSH2 0x100 DUP9 ADD PUSH2 0x16B2 SWAP2 PUSH2 0x54A1 JUMP JUMPDEST DUP8 DUP2 SUB PUSH1 0x40 DUP10 ADD MSTORE PUSH2 0x16C3 SWAP2 PUSH2 0x54A1 JUMP JUMPDEST DUP7 DUP2 SUB PUSH1 0x60 DUP9 ADD MSTORE PUSH2 0x16D4 SWAP2 PUSH2 0x54A1 JUMP JUMPDEST DUP6 DUP2 SUB PUSH1 0x80 DUP8 ADD MSTORE PUSH2 0x16E5 SWAP2 PUSH2 0x54A1 JUMP JUMPDEST DUP5 DUP2 SUB PUSH1 0xA0 DUP7 ADD MSTORE PUSH2 0x16F6 SWAP2 PUSH2 0x54A1 JUMP JUMPDEST DUP4 DUP2 SUB PUSH1 0xC0 DUP6 ADD MSTORE PUSH2 0x1707 SWAP2 PUSH2 0x54A1 JUMP JUMPDEST DUP3 DUP2 SUB PUSH1 0xE0 DUP5 ADD MSTORE PUSH2 0x357 SWAP2 PUSH2 0x54A1 JUMP JUMPDEST CALLVALUE PUSH2 0x195 JUMPI PUSH0 CALLDATASIZE PUSH1 0x3 NOT ADD SLT PUSH2 0x195 JUMPI PUSH0 SLOAD PUSH1 0x40 MLOAD PUSH1 0x1 PUSH1 0x1 PUSH1 0xA0 SHL SUB SWAP1 SWAP2 AND DUP2 MSTORE PUSH1 0x20 SWAP1 RETURN JUMPDEST CALLVALUE PUSH2 0x195 JUMPI PUSH2 0x174D CALLDATASIZE PUSH2 0x559D JUMP JUMPDEST SWAP5 SWAP6 SWAP4 SWAP1 SWAP6 SWAP3 SWAP2 SWAP3 CALLER PUSH0 MSTORE PUSH1 0x9 PUSH1 0x20 MSTORE PUSH1 0xFF PUSH1 0x40 PUSH0 KECCAK256 SLOAD AND PUSH2 0x1F55 JUMPI CALLER PUSH0 MSTORE PUSH1 0x5 PUSH1 0x20 MSTORE PUSH1 0x40 PUSH0 KECCAK256 SWAP5 DUP1 MLOAD SWAP1 PUSH1 0x1 PUSH1 0x1 PUSH1 0x40 SHL SUB DUP3 GT PUSH2 0x668 JUMPI DUP2 SWAP1 PUSH2 0x1793 DUP9 SLOAD PUSH2 0x53C9 JUMP JUMPDEST PUSH1 0x1F DUP2 GT PUSH2 0x1F05 JUMPI JUMPDEST POP PUSH1 0x20 SWAP1 PUSH1 0x1F DUP4 GT PUSH1 0x1 EQ PUSH2 0x1EA2 JUMPI PUSH0 SWAP3 PUSH2 0x1E97 JUMPI JUMPDEST POP POP DUP2 PUSH1 0x1 SHL SWAP2 PUSH0 NOT SWAP1 PUSH1 0x3 SHL SHR NOT AND OR DUP6 SSTORE JUMPDEST DUP1 MLOAD PUSH1 0x1 DUP7 ADD SWAP2 PUSH1 0x1 PUSH1 0x1 PUSH1 0x40 SHL SUB DUP3 GT PUSH2 0x668 JUMPI DUP2 SWAP1 PUSH2 0x17E7 DUP5 SLOAD PUSH2 0x53C9 JUMP JUMPDEST PUSH1 0x1F DUP2 GT PUSH2 0x1E47 JUMPI JUMPDEST POP PUSH1 0x20 SWAP1 PUSH1 0x1F DUP4 GT PUSH1 0x1 EQ PUSH2 0x1DE4 JUMPI PUSH0 SWAP3 PUSH2 0x1DD9 JUMPI JUMPDEST POP POP DUP2 PUSH1 0x1 SHL SWAP2 PUSH0 NOT SWAP1 PUSH1 0x3 SHL SHR NOT AND OR SWAP1 SSTORE JUMPDEST DUP1 MLOAD PUSH1 0x2 DUP6 ADD SWAP2 PUSH1 0x1 PUSH1 0x1 PUSH1 0x40 SHL SUB DUP3 GT PUSH2 0x668 JUMPI DUP2 SWAP1 PUSH2 0x183B DUP5 SLOAD PUSH2 0x53C9 JUMP JUMPDEST PUSH1 0x1F DUP2 GT PUSH2 0x1D89 JUMPI JUMPDEST POP PUSH1 0x20 SWAP1 PUSH1 0x1F DUP4 GT PUSH1 0x1 EQ PUSH2 0x1D26 JUMPI PUSH0 SWAP3 PUSH2 0x1D1B JUMPI JUMPDEST POP POP DUP2 PUSH1 0x1 SHL SWAP2 PUSH0 NOT SWAP1 PUSH1 0x3 SHL SHR NOT AND OR SWAP1 SSTORE JUMPDEST DUP1 MLOAD PUSH1 0x3 DUP5 ADD SWAP2 PUSH1 0x1 PUSH1 0x1 PUSH1 0x40 SHL SUB DUP3 GT PUSH2 0x668 JUMPI DUP2 SWAP1 PUSH2 0x188F DUP5 SLOAD PUSH2 0x53C9 JUMP JUMPDEST PUSH1 0x1F DUP2 GT PUSH2 0x1CCB JUMPI JUMPDEST POP PUSH1 0x20 SWAP1 PUSH1 0x1F DUP4 GT PUSH1 0x1 EQ PUSH2 0x1C68 JUMPI PUSH0 SWAP3 PUSH2 0x1C5D JUMPI JUMPDEST POP POP DUP2 PUSH1 0x1 SHL SWAP2 PUSH0 NOT SWAP1 PUSH1 0x3 SHL SHR NOT AND OR SWAP1 SSTORE JUMPDEST DUP1 MLOAD PUSH1 0x4 DUP4 ADD SWAP2 PUSH1 0x1 PUSH1 0x1 PUSH1 0x40 SHL SUB DUP3 GT PUSH2 0x668 JUMPI DUP2 SWAP1 PUSH2 0x18E3 DUP5 SLOAD PUSH2 0x53C9 JUMP JUMPDEST PUSH1 0x1F DUP2 GT PUSH2 0x1C0D JUMPI JUMPDEST POP PUSH1 0x20 SWAP1 PUSH1 0x1F DUP4 GT PUSH1 0x1 EQ PUSH2 0x1BAA JUMPI PUSH0 SWAP3 PUSH2 0x1B9F JUMPI JUMPDEST POP POP DUP2 PUSH1 0x1 SHL SWAP2 PUSH0 NOT SWAP1 PUSH1 0x3 SHL SHR NOT AND OR SWAP1 SSTORE JUMPDEST PUSH1 0x5 DUP2 ADD DUP4 MLOAD PUSH1 0x1 PUSH1 0x1 PUSH1 0x40 SHL SUB DUP2 GT PUSH2 0x668 JUMPI PUSH2 0x1934 DUP3 SLOAD PUSH2 0x53C9 JUMP JUMPDEST PUSH1 0x1F DUP2 GT PUSH2 0x1B5A JUMPI JUMPDEST POP PUSH1 0x20 SWAP5 PUSH1 0x1F DUP3 GT PUSH1 0x1 EQ PUSH2 0x1AF9 JUMPI SWAP5 DUP2 SWAP3 SWAP4 SWAP5 SWAP6 PUSH0 SWAP3 PUSH2 0x1AEE JUMPI JUMPDEST POP POP DUP2 PUSH1 0x1 SHL SWAP2 PUSH0 NOT SWAP1 PUSH1 0x3 SHL SHR NOT AND OR SWAP1 SSTORE JUMPDEST PUSH1 0x6 DUP2 ADD DUP3 MLOAD PUSH1 0x1 PUSH1 0x1 PUSH1 0x40 SHL SUB DUP2 GT PUSH2 0x668 JUMPI PUSH2 0x198B DUP3 SLOAD PUSH2 0x53C9 JUMP JUMPDEST PUSH1 0x1F DUP2 GT PUSH2 0x1AA9 JUMPI JUMPDEST POP PUSH1 0x20 PUSH1 0x1F DUP3 GT PUSH1 0x1 EQ PUSH2 0x1A48 JUMPI DUP2 SWAP3 SWAP4 SWAP5 PUSH0 SWAP3 PUSH2 0x1A3D JUMPI JUMPDEST POP POP DUP2 PUSH1 0x1 SHL SWAP2 PUSH0 NOT SWAP1 PUSH1 0x3 SHL SHR NOT AND OR SWAP1 SSTORE JUMPDEST PUSH1 0x7 DUP2 ADD DUP1 SLOAD PUSH1 0x1 PUSH1 0x1 PUSH1 0xA0 SHL SUB NOT AND CALLER OR SWAP1 SSTORE TIMESTAMP PUSH1 0x8 SWAP1 SWAP2 ADD SSTORE PUSH1 0x2 SLOAD PUSH1 0x1 PUSH1 0x40 SHL DUP2 LT ISZERO PUSH2 0x668 JUMPI DUP1 PUSH1 0x1 PUSH2 0x19FD SWAP3 ADD PUSH1 0x2 SSTORE PUSH1 0x2 PUSH2 0x54C5 JUMP JUMPDEST DUP2 SLOAD SWAP1 PUSH1 0x3 SHL SWAP1 CALLER DUP3 SHL SWAP2 PUSH1 0x1 DUP1 PUSH1 0xA0 SHL SUB SWAP1 SHL NOT AND OR SWAP1 SSTORE CALLER PUSH0 MSTORE PUSH1 0x9 PUSH1 0x20 MSTORE PUSH1 0x40 PUSH0 KECCAK256 PUSH1 0x1 PUSH1 0xFF NOT DUP3 SLOAD AND OR SWAP1 SSTORE PUSH2 0x1A38 PUSH1 0xC SLOAD PUSH2 0x5681 JUMP JUMPDEST PUSH1 0xC SSTORE STOP JUMPDEST ADD MLOAD SWAP1 POP DUP5 DUP1 PUSH2 0x19AD JUMP JUMPDEST PUSH1 0x1F NOT DUP3 AND SWAP1 DUP4 PUSH0 MSTORE DUP1 PUSH0 KECCAK256 SWAP2 PUSH0 JUMPDEST DUP2 DUP2 LT PUSH2 0x1A91 JUMPI POP SWAP6 DUP4 PUSH1 0x1 SWAP6 SWAP7 SWAP8 LT PUSH2 0x1A79 JUMPI JUMPDEST POP POP POP DUP2 SHL ADD SWAP1 SSTORE PUSH2 0x19C1 JUMP JUMPDEST ADD MLOAD PUSH0 NOT PUSH1 0xF8 DUP5 PUSH1 0x3 SHL AND SHR NOT AND SWAP1 SSTORE DUP5 DUP1 DUP1 PUSH2 0x1A6C JUMP JUMPDEST SWAP2 SWAP3 PUSH1 0x20 PUSH1 0x1 DUP2 SWAP3 DUP7 DUP12 ADD MLOAD DUP2 SSTORE ADD SWAP5 ADD SWAP3 ADD PUSH2 0x1A57 JUMP JUMPDEST DUP3 PUSH0 MSTORE PUSH1 0x20 PUSH0 KECCAK256 PUSH1 0x1F DUP4 ADD PUSH1 0x5 SHR DUP2 ADD SWAP2 PUSH1 0x20 DUP5 LT PUSH2 0x1AE4 JUMPI JUMPDEST PUSH1 0x1F ADD PUSH1 0x5 SHR ADD SWAP1 JUMPDEST DUP2 DUP2 LT PUSH2 0x1AD9 JUMPI POP PUSH2 0x1994 JUMP JUMPDEST PUSH0 DUP2 SSTORE PUSH1 0x1 ADD PUSH2 0x1ACC JUMP JUMPDEST SWAP1 SWAP2 POP DUP2 SWAP1 PUSH2 0x1AC3 JUMP JUMPDEST ADD MLOAD SWAP1 POP DUP6 DUP1 PUSH2 0x1959 JUMP JUMPDEST PUSH1 0x1F NOT DUP3 AND SWAP6 DUP4 PUSH0 MSTORE DUP1 PUSH0 KECCAK256 SWAP2 PUSH0 JUMPDEST DUP9 DUP2 LT PUSH2 0x1B42 JUMPI POP DUP4 PUSH1 0x1 SWAP6 SWAP7 SWAP8 SWAP9 LT PUSH2 0x1B2A JUMPI JUMPDEST POP POP POP DUP2 SHL ADD SWAP1 SSTORE PUSH2 0x196D JUMP JUMPDEST ADD MLOAD PUSH0 NOT PUSH1 0xF8 DUP5 PUSH1 0x3 SHL AND SHR NOT AND SWAP1 SSTORE DUP6 DUP1 DUP1 PUSH2 0x1B1D JUMP JUMPDEST SWAP2 SWAP3 PUSH1 0x20 PUSH1 0x1 DUP2 SWAP3 DUP7 DUP6 ADD MLOAD DUP2 SSTORE ADD SWAP5 ADD SWAP3 ADD PUSH2 0x1B08 JUMP JUMPDEST DUP3 PUSH0 MSTORE PUSH1 0x20 PUSH0 KECCAK256 PUSH1 0x1F DUP4 ADD PUSH1 0x5 SHR DUP2 ADD SWAP2 PUSH1 0x20 DUP5 LT PUSH2 0x1B95 JUMPI JUMPDEST PUSH1 0x1F ADD PUSH1 0x5 SHR ADD SWAP1 JUMPDEST DUP2 DUP2 LT PUSH2 0x1B8A JUMPI POP PUSH2 0x193D JUMP JUMPDEST PUSH0 DUP2 SSTORE PUSH1 0x1 ADD PUSH2 0x1B7D JUMP JUMPDEST SWAP1 SWAP2 POP DUP2 SWAP1 PUSH2 0x1B74 JUMP JUMPDEST ADD MLOAD SWAP1 POP DUP7 DUP1 PUSH2 0x1902 JUMP JUMPDEST PUSH0 DUP6 DUP2 MSTORE DUP3 DUP2 KECCAK256 SWAP4 POP PUSH1 0x1F NOT DUP6 AND SWAP1 JUMPDEST DUP2 DUP2 LT PUSH2 0x1BF5 JUMPI POP SWAP1 DUP5 PUSH1 0x1 SWAP6 SWAP5 SWAP4 SWAP3 LT PUSH2 0x1BDD JUMPI JUMPDEST POP POP POP DUP2 SHL ADD SWAP1 SSTORE PUSH2 0x1916 JUMP JUMPDEST ADD MLOAD PUSH0 NOT PUSH1 0xF8 DUP5 PUSH1 0x3 SHL AND SHR NOT AND SWAP1 SSTORE DUP7 DUP1 DUP1 PUSH2 0x1BD0 JUMP JUMPDEST SWAP3 SWAP4 PUSH1 0x20 PUSH1 0x1 DUP2 SWAP3 DUP8 DUP7 ADD MLOAD DUP2 SSTORE ADD SWAP6 ADD SWAP4 ADD PUSH2 0x1BBA JUMP JUMPDEST SWAP1 SWAP2 POP DUP4 PUSH0 MSTORE PUSH1 0x20 PUSH0 KECCAK256 PUSH1 0x1F DUP5 ADD PUSH1 0x5 SHR DUP2 ADD SWAP2 PUSH1 0x20 DUP6 LT PUSH2 0x1C53 JUMPI JUMPDEST SWAP1 PUSH1 0x1F DUP6 SWAP5 SWAP4 SWAP3 ADD PUSH1 0x5 SHR ADD SWAP1 JUMPDEST DUP2 DUP2 LT PUSH2 0x1C45 JUMPI POP PUSH2 0x18EC JUMP JUMPDEST PUSH0 DUP2 SSTORE DUP5 SWAP4 POP PUSH1 0x1 ADD PUSH2 0x1C38 JUMP JUMPDEST SWAP1 SWAP2 POP DUP2 SWAP1 PUSH2 0x1C2A JUMP JUMPDEST ADD MLOAD SWAP1 POP DUP8 DUP1 PUSH2 0x18AE JUMP JUMPDEST PUSH0 DUP6 DUP2 MSTORE DUP3 DUP2 KECCAK256 SWAP4 POP PUSH1 0x1F NOT DUP6 AND SWAP1 JUMPDEST DUP2 DUP2 LT PUSH2 0x1CB3 JUMPI POP SWAP1 DUP5 PUSH1 0x1 SWAP6 SWAP5 SWAP4 SWAP3 LT PUSH2 0x1C9B JUMPI JUMPDEST POP POP POP DUP2 SHL ADD SWAP1 SSTORE PUSH2 0x18C2 JUMP JUMPDEST ADD MLOAD PUSH0 NOT PUSH1 0xF8 DUP5 PUSH1 0x3 SHL AND SHR NOT AND SWAP1 SSTORE DUP8 DUP1 DUP1 PUSH2 0x1C8E JUMP JUMPDEST SWAP3 SWAP4 PUSH1 0x20 PUSH1 0x1 DUP2 SWAP3 DUP8 DUP7 ADD MLOAD DUP2 SSTORE ADD SWAP6 ADD SWAP4 ADD PUSH2 0x1C78 JUMP JUMPDEST SWAP1 SWAP2 POP DUP4 PUSH0 MSTORE PUSH1 0x20 PUSH0 KECCAK256 PUSH1 0x1F DUP5 ADD PUSH1 0x5 SHR DUP2 ADD SWAP2 PUSH1 0x20 DUP6 LT PUSH2 0x1D11 JUMPI JUMPDEST SWAP1 PUSH1 0x1F DUP6 SWAP5 SWAP4 SWAP3 ADD PUSH1 0x5 SHR ADD SWAP1 JUMPDEST DUP2 DUP2 LT PUSH2 0x1D03 JUMPI POP PUSH2 0x1898 JUMP JUMPDEST PUSH0 DUP2 SSTORE DUP5 SWAP4 POP PUSH1 0x1 ADD PUSH2 0x1CF6 JUMP JUMPDEST SWAP1 SWAP2 POP DUP2 SWAP1 PUSH2 0x1CE8 JUMP JUMPDEST ADD MLOAD SWAP1 POP DUP9 DUP1 PUSH2 0x185A JUMP JUMPDEST PUSH0 DUP6 DUP2 MSTORE DUP3 DUP2 KECCAK256 SWAP4 POP PUSH1 0x1F NOT DUP6 AND SWAP1 JUMPDEST DUP2 DUP2 LT PUSH2 0x1D71 JUMPI POP SWAP1 DUP5 PUSH1 0x1 SWAP6 SWAP5 SWAP4 SWAP3 LT PUSH2 0x1D59 JUMPI JUMPDEST POP POP POP DUP2 SHL ADD SWAP1 SSTORE PUSH2 0x186E JUMP JUMPDEST ADD MLOAD PUSH0 NOT PUSH1 0xF8 DUP5 PUSH1 0x3 SHL AND SHR NOT AND SWAP1 SSTORE DUP9 DUP1 DUP1 PUSH2 0x1D4C JUMP JUMPDEST SWAP3 SWAP4 PUSH1 0x20 PUSH1 0x1 DUP2 SWAP3 DUP8 DUP7 ADD MLOAD DUP2 SSTORE ADD SWAP6 ADD SWAP4 ADD PUSH2 0x1D36 JUMP JUMPDEST SWAP1 SWAP2 POP DUP4 PUSH0 MSTORE PUSH1 0x20 PUSH0 KECCAK256 PUSH1 0x1F DUP5 ADD PUSH1 0x5 SHR DUP2 ADD SWAP2 PUSH1 0x20 DUP6 LT PUSH2 0x1DCF JUMPI JUMPDEST SWAP1 PUSH1 0x1F DUP6 SWAP5 SWAP4 SWAP3 ADD PUSH1 0x5 SHR ADD SWAP1 JUMPDEST DUP2 DUP2 LT PUSH2 0x1DC1 JUMPI POP PUSH2 0x1844 JUMP JUMPDEST PUSH0 DUP2 SSTORE DUP5 SWAP4 POP PUSH1 0x1 ADD PUSH2 0x1DB4 JUMP JUMPDEST SWAP1 SWAP2 POP DUP2 SWAP1 PUSH2 0x1DA6 JUMP JUMPDEST ADD MLOAD SWAP1 POP DUP10 DUP1 PUSH2 0x1806 JUMP JUMPDEST PUSH0 DUP6 DUP2 MSTORE DUP3 DUP2 KECCAK256 SWAP4 POP PUSH1 0x1F NOT DUP6 AND SWAP1 JUMPDEST DUP2 DUP2 LT PUSH2 0x1E2F JUMPI POP SWAP1 DUP5 PUSH1 0x1 SWAP6 SWAP5 SWAP4 SWAP3 LT PUSH2 0x1E17 JUMPI JUMPDEST POP POP POP DUP2 SHL ADD SWAP1 SSTORE PUSH2 0x181A JUMP JUMPDEST ADD MLOAD PUSH0 NOT PUSH1 0xF8 DUP5 PUSH1 0x3 SHL AND SHR NOT AND SWAP1 SSTORE DUP10 DUP1 DUP1 PUSH2 0x1E0A JUMP JUMPDEST SWAP3 SWAP4 PUSH1 0x20 PUSH1 0x1 DUP2 SWAP3 DUP8 DUP7 ADD MLOAD DUP2 SSTORE ADD SWAP6 ADD SWAP4 ADD PUSH2 0x1DF4 JUMP JUMPDEST SWAP1 SWAP2 POP DUP4 PUSH0 MSTORE PUSH1 0x20 PUSH0 KECCAK256 PUSH1 0x1F DUP5 ADD PUSH1 0x5 SHR DUP2 ADD SWAP2 PUSH1 0x20 DUP6 LT PUSH2 0x1E8D JUMPI JUMPDEST SWAP1 PUSH1 0x1F DUP6 SWAP5 SWAP4 SWAP3 ADD PUSH1 0x5 SHR ADD SWAP1 JUMPDEST DUP2 DUP2 LT PUSH2 0x1E7F JUMPI POP PUSH2 0x17F0 JUMP JUMPDEST PUSH0 DUP2 SSTORE DUP5 SWAP4 POP PUSH1 0x1 ADD PUSH2 0x1E72 JUMP JUMPDEST SWAP1 SWAP2 POP DUP2 SWAP1 PUSH2 0x1E64 JUMP JUMPDEST ADD MLOAD SWAP1 POP DUP10 DUP1 PUSH2 0x17B2 JUMP JUMPDEST PUSH0 DUP10 DUP2 MSTORE DUP3 DUP2 KECCAK256 SWAP4 POP PUSH1 0x1F NOT DUP6 AND SWAP1 JUMPDEST DUP2 DUP2 LT PUSH2 0x1EED JUMPI POP SWAP1 DUP5 PUSH1 0x1 SWAP6 SWAP5 SWAP4 SWAP3 LT PUSH2 0x1ED5 JUMPI JUMPDEST POP POP POP DUP2 SHL ADD DUP6 SSTORE PUSH2 0x17C6 JUMP JUMPDEST ADD MLOAD PUSH0 NOT PUSH1 0xF8 DUP5 PUSH1 0x3 SHL AND SHR NOT AND SWAP1 SSTORE DUP10 DUP1 DUP1 PUSH2 0x1EC8 JUMP JUMPDEST SWAP3 SWAP4 PUSH1 0x20 PUSH1 0x1 DUP2 SWAP3 DUP8 DUP7 ADD MLOAD DUP2 SSTORE ADD SWAP6 ADD SWAP4 ADD PUSH2 0x1EB2 JUMP JUMPDEST SWAP1 SWAP2 POP DUP8 PUSH0 MSTORE PUSH1 0x20 PUSH0 KECCAK256 PUSH1 0x1F DUP5 ADD PUSH1 0x5 SHR DUP2 ADD SWAP2 PUSH1 0x20 DUP6 LT PUSH2 0x1F4B JUMPI JUMPDEST SWAP1 PUSH1 0x1F DUP6 SWAP5 SWAP4 SWAP3 ADD PUSH1 0x5 SHR ADD SWAP1 JUMPDEST DUP2 DUP2 LT PUSH2 0x1F3D JUMPI POP PUSH2 0x179C JUMP JUMPDEST PUSH0 DUP2 SSTORE DUP5 SWAP4 POP PUSH1 0x1 ADD PUSH2 0x1F30 JUMP JUMPDEST SWAP1 SWAP2 POP DUP2 SWAP1 PUSH2 0x1F22 JUMP JUMPDEST PUSH1 0x40 MLOAD PUSH3 0x461BCD PUSH1 0xE5 SHL DUP2 MSTORE PUSH1 0x20 PUSH1 0x4 DUP3 ADD MSTORE PUSH1 0x1B PUSH1 0x24 DUP3 ADD MSTORE PUSH32 0x416C72656164792061207265676973746572656420646F63746F720000000000 PUSH1 0x44 DUP3 ADD MSTORE PUSH1 0x64 SWAP1 REVERT JUMPDEST CALLVALUE PUSH2 0x195 JUMPI PUSH1 0x20 CALLDATASIZE PUSH1 0x3 NOT ADD SLT PUSH2 0x195 JUMPI PUSH1 0x4 CALLDATALOAD PUSH1 0x1 PUSH1 0x1 PUSH1 0x40 SHL SUB DUP2 GT PUSH2 0x195 JUMPI PUSH2 0x1E0 PUSH1 0x3 NOT DUP3 CALLDATASIZE SUB ADD SLT PUSH2 0x195 JUMPI PUSH1 0x40 MLOAD SWAP1 PUSH2 0x1FD8 DUP3 PUSH2 0x51D5 JUMP JUMPDEST DUP1 PUSH1 0x4 ADD CALLDATALOAD PUSH1 0x1 PUSH1 0x1 PUSH1 0x40 SHL SUB DUP2 GT PUSH2 0x195 JUMPI PUSH2 0x1FFB SWAP1 PUSH1 0x4 CALLDATASIZE SWAP2 DUP5 ADD ADD PUSH2 0x522E JUMP JUMPDEST DUP3 MSTORE PUSH1 0x24 DUP2 ADD CALLDATALOAD PUSH1 0x1 PUSH1 0x1 PUSH1 0x40 SHL SUB DUP2 GT PUSH2 0x195 JUMPI PUSH2 0x2020 SWAP1 PUSH1 0x4 CALLDATASIZE SWAP2 DUP5 ADD ADD PUSH2 0x522E JUMP JUMPDEST PUSH1 0x20 DUP4 ADD MSTORE PUSH1 0x44 DUP2 ADD CALLDATALOAD PUSH1 0x1 PUSH1 0x1 PUSH1 0x40 SHL SUB DUP2 GT PUSH2 0x195 JUMPI PUSH2 0x2048 SWAP1 PUSH1 0x4 CALLDATASIZE SWAP2 DUP5 ADD ADD PUSH2 0x522E JUMP JUMPDEST PUSH1 0x40 DUP4 ADD MSTORE PUSH1 0x64 DUP2 ADD CALLDATALOAD PUSH1 0x1 PUSH1 0x1 PUSH1 0x40 SHL SUB DUP2 GT PUSH2 0x195 JUMPI PUSH2 0x2070 SWAP1 PUSH1 0x4 CALLDATASIZE SWAP2 DUP5 ADD ADD PUSH2 0x522E JUMP JUMPDEST PUSH1 0x60 DUP4 ADD MSTORE PUSH1 0x84 DUP2 ADD CALLDATALOAD PUSH1 0x1 PUSH1 0x1 PUSH1 0x40 SHL SUB DUP2 GT PUSH2 0x195 JUMPI PUSH2 0x2098 SWAP1 PUSH1 0x4 CALLDATASIZE SWAP2 DUP5 ADD ADD PUSH2 0x522E JUMP JUMPDEST PUSH1 0x80 DUP4 ADD MSTORE PUSH1 0xA4 DUP2 ADD CALLDATALOAD PUSH1 0x1 PUSH1 0x1 PUSH1 0x40 SHL SUB DUP2 GT PUSH2 0x195 JUMPI PUSH2 0x20C0 SWAP1 PUSH1 0x4 CALLDATASIZE SWAP2 DUP5 ADD ADD PUSH2 0x522E JUMP JUMPDEST PUSH1 0xA0 DUP4 ADD MSTORE PUSH1 0xC4 DUP2 ADD CALLDATALOAD PUSH1 0x1 PUSH1 0x1 PUSH1 0x40 SHL SUB DUP2 GT PUSH2 0x195 JUMPI PUSH2 0x20E8 SWAP1 PUSH1 0x4 CALLDATASIZE SWAP2 DUP5 ADD ADD PUSH2 0x522E JUMP JUMPDEST PUSH1 0xC0 DUP4 ADD MSTORE PUSH1 0xE4 DUP2 ADD CALLDATALOAD PUSH1 0x1 PUSH1 0x1 PUSH1 0x40 SHL SUB DUP2 GT PUSH2 0x195 JUMPI PUSH2 0x2110 SWAP1 PUSH1 0x4 CALLDATASIZE SWAP2 DUP5 ADD ADD PUSH2 0x522E JUMP JUMPDEST PUSH1 0xE0 DUP4 ADD MSTORE PUSH2 0x104 DUP2 ADD CALLDATALOAD PUSH1 0x1 PUSH1 0x1 PUSH1 0x40 SHL SUB DUP2 GT PUSH2 0x195 JUMPI PUSH2 0x2139 SWAP1 PUSH1 0x4 CALLDATASIZE SWAP2 DUP5 ADD ADD PUSH2 0x522E JUMP JUMPDEST PUSH2 0x100 DUP4 ADD MSTORE PUSH2 0x124 DUP2 ADD CALLDATALOAD PUSH1 0x1 PUSH1 0x1 PUSH1 0x40 SHL SUB DUP2 GT PUSH2 0x195 JUMPI PUSH2 0x2163 SWAP1 PUSH1 0x4 CALLDATASIZE SWAP2 DUP5 ADD ADD PUSH2 0x522E JUMP JUMPDEST PUSH2 0x120 DUP4 ADD MSTORE PUSH2 0x144 DUP2 ADD CALLDATALOAD PUSH1 0x1 PUSH1 0x1 PUSH1 0x40 SHL SUB DUP2 GT PUSH2 0x195 JUMPI PUSH2 0x218D SWAP1 PUSH1 0x4 CALLDATASIZE SWAP2 DUP5 ADD ADD PUSH2 0x522E JUMP JUMPDEST PUSH2 0x140 DUP4 ADD MSTORE PUSH2 0x164 DUP2 ADD CALLDATALOAD PUSH1 0x1 PUSH1 0x1 PUSH1 0x40 SHL SUB DUP2 GT PUSH2 0x195 JUMPI PUSH2 0x21B7 SWAP1 PUSH1 0x4 CALLDATASIZE SWAP2 DUP5 ADD ADD PUSH2 0x522E JUMP JUMPDEST PUSH2 0x160 DUP4 ADD MSTORE PUSH2 0x184 DUP2 ADD CALLDATALOAD PUSH1 0x1 PUSH1 0x1 PUSH1 0x40 SHL SUB DUP2 GT PUSH2 0x195 JUMPI PUSH2 0x21E1 SWAP1 PUSH1 0x4 CALLDATASIZE SWAP2 DUP5 ADD ADD PUSH2 0x522E JUMP JUMPDEST PUSH2 0x180 DUP4 ADD SWAP1 DUP2 MSTORE SWAP1 PUSH2 0x1A4 DUP2 ADD CALLDATALOAD SWAP1 PUSH1 0x1 PUSH1 0x1 PUSH1 0xA0 SHL SUB DUP3 AND DUP3 SUB PUSH2 0x195 JUMPI PUSH2 0x1C4 SWAP2 PUSH2 0x1A0 DUP6 ADD MSTORE ADD CALLDATALOAD PUSH2 0x1C0 DUP4 ADD MSTORE CALLER PUSH0 MSTORE PUSH1 0x8 PUSH1 0x20 MSTORE PUSH1 0xFF PUSH1 0x40 PUSH0 KECCAK256 SLOAD AND PUSH2 0x3104 JUMPI CALLER PUSH0 MSTORE PUSH1 0x4 PUSH1 0x20 MSTORE PUSH1 0x40 PUSH0 KECCAK256 DUP3 MLOAD SWAP3 DUP4 MLOAD PUSH1 0x1 PUSH1 0x1 PUSH1 0x40 SHL SUB DUP2 GT PUSH2 0x668 JUMPI PUSH2 0x2250 DUP4 SLOAD PUSH2 0x53C9 JUMP JUMPDEST PUSH1 0x1F DUP2 GT PUSH2 0x30C3 JUMPI JUMPDEST POP PUSH1 0x20 PUSH1 0x1F DUP3 GT PUSH1 0x1 EQ PUSH2 0x305F JUMPI DUP2 SWAP3 SWAP4 SWAP5 SWAP6 PUSH0 SWAP3 PUSH2 0x3054 JUMPI JUMPDEST POP POP DUP2 PUSH1 0x1 SHL SWAP2 PUSH0 NOT SWAP1 PUSH1 0x3 SHL SHR NOT AND OR DUP3 SSTORE JUMPDEST PUSH1 0x1 DUP3 ADD PUSH1 0x20 DUP3 ADD MLOAD DUP1 MLOAD SWAP1 PUSH1 0x1 PUSH1 0x1 PUSH1 0x40 SHL SUB DUP3 GT PUSH2 0x668 JUMPI DUP2 SWAP1 PUSH2 0x22AD DUP5 SLOAD PUSH2 0x53C9 JUMP JUMPDEST PUSH1 0x1F DUP2 GT PUSH2 0x3004 JUMPI JUMPDEST POP PUSH1 0x20 SWAP1 PUSH1 0x1F DUP4 GT PUSH1 0x1 EQ PUSH2 0x2FA1 JUMPI PUSH0 SWAP3 PUSH2 0x2F96 JUMPI JUMPDEST POP POP DUP2 PUSH1 0x1 SHL SWAP2 PUSH0 NOT SWAP1 PUSH1 0x3 SHL SHR NOT AND OR SWAP1 SSTORE JUMPDEST PUSH1 0x2 DUP3 ADD PUSH1 0x40 DUP3 ADD MLOAD DUP1 MLOAD SWAP1 PUSH1 0x1 PUSH1 0x1 PUSH1 0x40 SHL SUB DUP3 GT PUSH2 0x668 JUMPI DUP2 SWAP1 PUSH2 0x2306 DUP5 SLOAD PUSH2 0x53C9 JUMP JUMPDEST PUSH1 0x1F DUP2 GT PUSH2 0x2F46 JUMPI JUMPDEST POP PUSH1 0x20 SWAP1 PUSH1 0x1F DUP4 GT PUSH1 0x1 EQ PUSH2 0x2EE3 JUMPI PUSH0 SWAP3 PUSH2 0x2ED8 JUMPI JUMPDEST POP POP DUP2 PUSH1 0x1 SHL SWAP2 PUSH0 NOT SWAP1 PUSH1 0x3 SHL SHR NOT AND OR SWAP1 SSTORE JUMPDEST PUSH1 0x3 DUP3 ADD PUSH1 0x60 DUP3 ADD MLOAD DUP1 MLOAD SWAP1 PUSH1 0x1 PUSH1 0x1 PUSH1 0x40 SHL SUB DUP3 GT PUSH2 0x668 JUMPI DUP2 SWAP1 PUSH2 0x235F DUP5 SLOAD PUSH2 0x53C9 JUMP JUMPDEST PUSH1 0x1F DUP2 GT PUSH2 0x2E88 JUMPI JUMPDEST POP PUSH1 0x20 SWAP1 PUSH1 0x1F DUP4 GT PUSH1 0x1 EQ PUSH2 0x2E25 JUMPI PUSH0 SWAP3 PUSH2 0x2E1A JUMPI JUMPDEST POP POP DUP2 PUSH1 0x1 SHL SWAP2 PUSH0 NOT SWAP1 PUSH1 0x3 SHL SHR NOT AND OR SWAP1 SSTORE JUMPDEST PUSH1 0x4 DUP3 ADD PUSH1 0x80 DUP3 ADD MLOAD DUP1 MLOAD SWAP1 PUSH1 0x1 PUSH1 0x1 PUSH1 0x40 SHL SUB DUP3 GT PUSH2 0x668 JUMPI DUP2 SWAP1 PUSH2 0x23B8 DUP5 SLOAD PUSH2 0x53C9 JUMP JUMPDEST PUSH1 0x1F DUP2 GT PUSH2 0x2DCA JUMPI JUMPDEST POP PUSH1 0x20 SWAP1 PUSH1 0x1F DUP4 GT PUSH1 0x1 EQ PUSH2 0x2D67 JUMPI PUSH0 SWAP3 PUSH2 0x2D5C JUMPI JUMPDEST POP POP DUP2 PUSH1 0x1 SHL SWAP2 PUSH0 NOT SWAP1 PUSH1 0x3 SHL SHR NOT AND OR SWAP1 SSTORE JUMPDEST PUSH1 0x5 DUP3 ADD PUSH1 0xA0 DUP3 ADD MLOAD DUP1 MLOAD SWAP1 PUSH1 0x1 PUSH1 0x1 PUSH1 0x40 SHL SUB DUP3 GT PUSH2 0x668 JUMPI DUP2 SWAP1 PUSH2 0x2411 DUP5 SLOAD PUSH2 0x53C9 JUMP JUMPDEST PUSH1 0x1F DUP2 GT PUSH2 0x2D0C JUMPI JUMPDEST POP PUSH1 0x20 SWAP1 PUSH1 0x1F DUP4 GT PUSH1 0x1 EQ PUSH2 0x2CA9 JUMPI PUSH0 SWAP3 PUSH2 0x2C9E JUMPI JUMPDEST POP POP DUP2 PUSH1 0x1 SHL SWAP2 PUSH0 NOT SWAP1 PUSH1 0x3 SHL SHR NOT AND OR SWAP1 SSTORE JUMPDEST PUSH1 0x6 DUP3 ADD PUSH1 0xC0 DUP3 ADD MLOAD DUP1 MLOAD SWAP1 PUSH1 0x1 PUSH1 0x1 PUSH1 0x40 SHL SUB DUP3 GT PUSH2 0x668 JUMPI DUP2 SWAP1 PUSH2 0x246A DUP5 SLOAD PUSH2 0x53C9 JUMP JUMPDEST PUSH1 0x1F DUP2 GT PUSH2 0x2C4E JUMPI JUMPDEST POP PUSH1 0x20 SWAP1 PUSH1 0x1F DUP4 GT PUSH1 0x1 EQ PUSH2 0x2BEB JUMPI PUSH0 SWAP3 PUSH2 0x2BE0 JUMPI JUMPDEST POP POP DUP2 PUSH1 0x1 SHL SWAP2 PUSH0 NOT SWAP1 PUSH1 0x3 SHL SHR NOT AND OR SWAP1 SSTORE JUMPDEST PUSH1 0x7 DUP3 ADD PUSH1 0xE0 DUP3 ADD MLOAD DUP1 MLOAD SWAP1 PUSH1 0x1 PUSH1 0x1 PUSH1 0x40 SHL SUB DUP3 GT PUSH2 0x668 JUMPI DUP2 SWAP1 PUSH2 0x24C3 DUP5 SLOAD PUSH2 0x53C9 JUMP JUMPDEST PUSH1 0x1F DUP2 GT PUSH2 0x2B90 JUMPI JUMPDEST POP PUSH1 0x20 SWAP1 PUSH1 0x1F DUP4 GT PUSH1 0x1 EQ PUSH2 0x2B2D JUMPI PUSH0 SWAP3 PUSH2 0x2B22 JUMPI JUMPDEST POP POP DUP2 PUSH1 0x1 SHL SWAP2 PUSH0 NOT SWAP1 PUSH1 0x3 SHL SHR NOT AND OR SWAP1 SSTORE JUMPDEST PUSH1 0x8 DUP3 ADD PUSH2 0x100 DUP3 ADD MLOAD DUP1 MLOAD SWAP1 PUSH1 0x1 PUSH1 0x1 PUSH1 0x40 SHL SUB DUP3 GT PUSH2 0x668 JUMPI DUP2 SWAP1 PUSH2 0x251D DUP5 SLOAD PUSH2 0x53C9 JUMP JUMPDEST PUSH1 0x1F DUP2 GT PUSH2 0x2AD2 JUMPI JUMPDEST POP PUSH1 0x20 SWAP1 PUSH1 0x1F DUP4 GT PUSH1 0x1 EQ PUSH2 0x2A6F JUMPI PUSH0 SWAP3 PUSH2 0x2A64 JUMPI JUMPDEST POP POP DUP2 PUSH1 0x1 SHL SWAP2 PUSH0 NOT SWAP1 PUSH1 0x3 SHL SHR NOT AND OR SWAP1 SSTORE JUMPDEST PUSH1 0x9 DUP3 ADD PUSH2 0x120 DUP3 ADD MLOAD DUP1 MLOAD SWAP1 PUSH1 0x1 PUSH1 0x1 PUSH1 0x40 SHL SUB DUP3 GT PUSH2 0x668 JUMPI DUP2 SWAP1 PUSH2 0x2577 DUP5 SLOAD PUSH2 0x53C9 JUMP JUMPDEST PUSH1 0x1F DUP2 GT PUSH2 0x2A14 JUMPI JUMPDEST POP PUSH1 0x20 SWAP1 PUSH1 0x1F DUP4 GT PUSH1 0x1 EQ PUSH2 0x29B1 JUMPI PUSH0 SWAP3 PUSH2 0x29A6 JUMPI JUMPDEST POP POP DUP2 PUSH1 0x1 SHL SWAP2 PUSH0 NOT SWAP1 PUSH1 0x3 SHL SHR NOT AND OR SWAP1 SSTORE JUMPDEST PUSH1 0xA DUP3 ADD PUSH2 0x140 DUP3 ADD MLOAD DUP1 MLOAD SWAP1 PUSH1 0x1 PUSH1 0x1 PUSH1 0x40 SHL SUB DUP3 GT PUSH2 0x668 JUMPI DUP2 SWAP1 PUSH2 0x25D1 DUP5 SLOAD PUSH2 0x53C9 JUMP JUMPDEST PUSH1 0x1F DUP2 GT PUSH2 0x2956 JUMPI JUMPDEST POP PUSH1 0x20 SWAP1 PUSH1 0x1F DUP4 GT PUSH1 0x1 EQ PUSH2 0x28F3 JUMPI PUSH0 SWAP3 PUSH2 0x28E8 JUMPI JUMPDEST POP POP DUP2 PUSH1 0x1 SHL SWAP2 PUSH0 NOT SWAP1 PUSH1 0x3 SHL SHR NOT AND OR SWAP1 SSTORE JUMPDEST PUSH1 0xB DUP3 ADD PUSH2 0x160 DUP3 ADD MLOAD DUP1 MLOAD SWAP1 PUSH1 0x1 PUSH1 0x1 PUSH1 0x40 SHL SUB DUP3 GT PUSH2 0x668 JUMPI DUP2 SWAP1 PUSH2 0x262B DUP5 SLOAD PUSH2 0x53C9 JUMP JUMPDEST PUSH1 0x1F DUP2 GT PUSH2 0x2898 JUMPI JUMPDEST POP PUSH1 0x20 SWAP1 PUSH1 0x1F DUP4 GT PUSH1 0x1 EQ PUSH2 0x2835 JUMPI PUSH0 SWAP3 PUSH2 0x282A JUMPI JUMPDEST POP POP DUP2 PUSH1 0x1 SHL SWAP2 PUSH0 NOT SWAP1 PUSH1 0x3 SHL SHR NOT AND OR SWAP1 SSTORE JUMPDEST PUSH1 0xC DUP3 ADD SWAP3 MLOAD SWAP3 DUP4 MLOAD PUSH1 0x1 PUSH1 0x1 PUSH1 0x40 SHL SUB DUP2 GT PUSH2 0x668 JUMPI PUSH2 0x267F DUP3 SLOAD PUSH2 0x53C9 JUMP JUMPDEST PUSH1 0x1F DUP2 GT PUSH2 0x27E5 JUMPI JUMPDEST POP PUSH1 0x20 PUSH1 0x1F DUP3 GT PUSH1 0x1 EQ PUSH2 0x277B JUMPI SWAP1 DUP1 PUSH2 0x1C0 SWAP5 SWAP4 SWAP3 PUSH1 0xE SWAP7 SWAP8 PUSH0 SWAP3 PUSH2 0x2770 JUMPI JUMPDEST POP POP DUP2 PUSH1 0x1 SHL SWAP2 PUSH0 NOT SWAP1 PUSH1 0x3 SHL SHR NOT AND OR SWAP1 SSTORE JUMPDEST PUSH2 0x1A0 DUP2 ADD MLOAD PUSH1 0xD DUP6 ADD DUP1 SLOAD PUSH1 0x1 PUSH1 0x1 PUSH1 0xA0 SHL SUB NOT AND PUSH1 0x1 PUSH1 0x1 PUSH1 0xA0 SHL SUB SWAP3 SWAP1 SWAP3 AND SWAP2 SWAP1 SWAP2 OR SWAP1 SSTORE ADD MLOAD SWAP2 ADD SSTORE PUSH1 0x1 SLOAD PUSH1 0x1 PUSH1 0x40 SHL DUP2 LT ISZERO PUSH2 0x668 JUMPI DUP1 PUSH1 0x1 PUSH2 0x270B SWAP3 ADD PUSH1 0x1 SSTORE PUSH1 0x1 PUSH2 0x54C5 JUMP JUMPDEST DUP2 SLOAD PUSH1 0x1 PUSH1 0x1 PUSH1 0xA0 SHL SUB PUSH1 0x3 SWAP3 SWAP1 SWAP3 SHL SWAP2 DUP3 SHL NOT AND CALLER SWAP2 DUP3 SWAP1 SHL OR SWAP1 SWAP2 SSTORE PUSH0 SWAP1 DUP2 MSTORE PUSH1 0x8 PUSH1 0x20 SWAP1 DUP2 MSTORE PUSH1 0x40 DUP1 DUP4 KECCAK256 DUP1 SLOAD PUSH1 0xFF NOT SWAP1 DUP2 AND PUSH1 0x1 SWAP1 DUP2 OR SWAP1 SWAP3 SSTORE PUSH1 0x7 DUP5 MSTORE DUP3 DUP6 KECCAK256 SWAP1 SWAP4 MSTORE SWAP3 KECCAK256 DUP1 SLOAD SWAP1 SWAP2 AND SWAP1 SWAP2 OR SWAP1 SSTORE PUSH1 0xB SLOAD PUSH2 0x276B SWAP1 PUSH2 0x5681 JUMP JUMPDEST PUSH1 0xB SSTORE STOP JUMPDEST ADD MLOAD SWAP1 POP DUP8 DUP1 PUSH2 0x26A9 JUMP JUMPDEST PUSH1 0x1F NOT DUP3 AND SWAP6 DUP4 PUSH0 MSTORE DUP2 PUSH0 KECCAK256 SWAP7 PUSH0 JUMPDEST DUP2 DUP2 LT PUSH2 0x27CD JUMPI POP SWAP7 PUSH1 0x1 SWAP3 DUP5 SWAP3 PUSH2 0x1C0 SWAP8 SWAP7 SWAP6 PUSH1 0xE SWAP10 SWAP11 LT PUSH2 0x27B5 JUMPI JUMPDEST POP POP POP DUP2 SHL ADD SWAP1 SSTORE PUSH2 0x26BD JUMP JUMPDEST ADD MLOAD PUSH0 NOT PUSH1 0xF8 DUP5 PUSH1 0x3 SHL AND SHR NOT AND SWAP1 SSTORE DUP8 DUP1 DUP1 PUSH2 0x27A8 JUMP JUMPDEST DUP4 DUP4 ADD MLOAD DUP10 SSTORE PUSH1 0x1 SWAP1 SWAP9 ADD SWAP8 PUSH1 0x20 SWAP4 DUP5 ADD SWAP4 ADD PUSH2 0x278A JUMP JUMPDEST DUP3 PUSH0 MSTORE PUSH1 0x20 PUSH0 KECCAK256 PUSH1 0x1F DUP4 ADD PUSH1 0x5 SHR DUP2 ADD SWAP2 PUSH1 0x20 DUP5 LT PUSH2 0x2820 JUMPI JUMPDEST PUSH1 0x1F ADD PUSH1 0x5 SHR ADD SWAP1 JUMPDEST DUP2 DUP2 LT PUSH2 0x2815 JUMPI POP PUSH2 0x2688 JUMP JUMPDEST PUSH0 DUP2 SSTORE PUSH1 0x1 ADD PUSH2 0x2808 JUMP JUMPDEST SWAP1 SWAP2 POP DUP2 SWAP1 PUSH2 0x27FF JUMP JUMPDEST ADD MLOAD SWAP1 POP DUP7 DUP1 PUSH2 0x264A JUMP JUMPDEST PUSH0 DUP6 DUP2 MSTORE DUP3 DUP2 KECCAK256 SWAP4 POP PUSH1 0x1F NOT DUP6 AND SWAP1 JUMPDEST DUP2 DUP2 LT PUSH2 0x2880 JUMPI POP SWAP1 DUP5 PUSH1 0x1 SWAP6 SWAP5 SWAP4 SWAP3 LT PUSH2 0x2868 JUMPI JUMPDEST POP POP POP DUP2 SHL ADD SWAP1 SSTORE PUSH2 0x265E JUMP JUMPDEST ADD MLOAD PUSH0 NOT PUSH1 0xF8 DUP5 PUSH1 0x3 SHL AND SHR NOT AND SWAP1 SSTORE DUP7 DUP1 DUP1 PUSH2 0x285B JUMP JUMPDEST SWAP3 SWAP4 PUSH1 0x20 PUSH1 0x1 DUP2 SWAP3 DUP8 DUP7 ADD MLOAD DUP2 SSTORE ADD SWAP6 ADD SWAP4 ADD PUSH2 0x2845 JUMP JUMPDEST SWAP1 SWAP2 POP DUP4 PUSH0 MSTORE PUSH1 0x20 PUSH0 KECCAK256 PUSH1 0x1F DUP5 ADD PUSH1 0x5 SHR DUP2 ADD SWAP2 PUSH1 0x20 DUP6 LT PUSH2 0x28DE JUMPI JUMPDEST SWAP1 PUSH1 0x1F DUP6 SWAP5 SWAP4 SWAP3 ADD PUSH1 0x5 SHR ADD SWAP1 JUMPDEST DUP2 DUP2 LT PUSH2 0x28D0 JUMPI POP PUSH2 0x2634 JUMP JUMPDEST PUSH0 DUP2 SSTORE DUP5 SWAP4 POP PUSH1 0x1 ADD PUSH2 0x28C3 JUMP JUMPDEST SWAP1 SWAP2 POP DUP2 SWAP1 PUSH2 0x28B5 JUMP JUMPDEST ADD MLOAD SWAP1 POP DUP7 DUP1 PUSH2 0x25F0 JUMP JUMPDEST PUSH0 DUP6 DUP2 MSTORE DUP3 DUP2 KECCAK256 SWAP4 POP PUSH1 0x1F NOT DUP6 AND SWAP1 JUMPDEST DUP2 DUP2 LT PUSH2 0x293E JUMPI POP SWAP1 DUP5 PUSH1 0x1 SWAP6 SWAP5 SWAP4 SWAP3 LT PUSH2 0x2926 JUMPI JUMPDEST POP POP POP DUP2 SHL ADD SWAP1 SSTORE PUSH2 0x2604 JUMP JUMPDEST ADD MLOAD PUSH0 NOT PUSH1 0xF8 DUP5 PUSH1 0x3 SHL AND SHR NOT AND SWAP1 SSTORE DUP7 DUP1 DUP1 PUSH2 0x2919 JUMP JUMPDEST SWAP3 SWAP4 PUSH1 0x20 PUSH1 0x1 DUP2 SWAP3 DUP8 DUP7 ADD MLOAD DUP2 SSTORE ADD SWAP6 ADD SWAP4 ADD PUSH2 0x2903 JUMP JUMPDEST SWAP1 SWAP2 POP DUP4 PUSH0 MSTORE PUSH1 0x20 PUSH0 KECCAK256 PUSH1 0x1F DUP5 ADD PUSH1 0x5 SHR DUP2 ADD SWAP2 PUSH1 0x20 DUP6 LT PUSH2 0x299C JUMPI JUMPDEST SWAP1 PUSH1 0x1F DUP6 SWAP5 SWAP4 SWAP3 ADD PUSH1 0x5 SHR ADD SWAP1 JUMPDEST DUP2 DUP2 LT PUSH2 0x298E JUMPI POP PUSH2 0x25DA JUMP JUMPDEST PUSH0 DUP2 SSTORE DUP5 SWAP4 POP PUSH1 0x1 ADD PUSH2 0x2981 JUMP JUMPDEST SWAP1 SWAP2 POP DUP2 SWAP1 PUSH2 0x2973 JUMP JUMPDEST ADD MLOAD SWAP1 POP DUP7 DUP1 PUSH2 0x2596 JUMP JUMPDEST PUSH0 DUP6 DUP2 MSTORE DUP3 DUP2 KECCAK256 SWAP4 POP PUSH1 0x1F NOT DUP6 AND SWAP1 JUMPDEST DUP2 DUP2 LT PUSH2 0x29FC JUMPI POP SWAP1 DUP5 PUSH1 0x1 SWAP6 SWAP5 SWAP4 SWAP3 LT PUSH2 0x29E4 JUMPI JUMPDEST POP POP POP DUP2 SHL ADD SWAP1 SSTORE PUSH2 0x25AA JUMP JUMPDEST ADD MLOAD PUSH0 NOT PUSH1 0xF8 DUP5 PUSH1 0x3 SHL AND SHR NOT AND SWAP1 SSTORE DUP7 DUP1 DUP1 PUSH2 0x29D7 JUMP JUMPDEST SWAP3 SWAP4 PUSH1 0x20 PUSH1 0x1 DUP2 SWAP3 DUP8 DUP7 ADD MLOAD DUP2 SSTORE ADD SWAP6 ADD SWAP4 ADD PUSH2 0x29C1 JUMP JUMPDEST SWAP1 SWAP2 POP DUP4 PUSH0 MSTORE PUSH1 0x20 PUSH0 KECCAK256 PUSH1 0x1F DUP5 ADD PUSH1 0x5 SHR DUP2 ADD SWAP2 PUSH1 0x20 DUP6 LT PUSH2 0x2A5A JUMPI JUMPDEST SWAP1 PUSH1 0x1F DUP6 SWAP5 SWAP4 SWAP3 ADD PUSH1 0x5 SHR ADD SWAP1 JUMPDEST DUP2 DUP2 LT PUSH2 0x2A4C JUMPI POP PUSH2 0x2580 JUMP JUMPDEST PUSH0 DUP2 SSTORE DUP5 SWAP4 POP PUSH1 0x1 ADD PUSH2 0x2A3F JUMP JUMPDEST SWAP1 SWAP2 POP DUP2 SWAP1 PUSH2 0x2A31 JUMP JUMPDEST ADD MLOAD SWAP1 POP DUP7 DUP1 PUSH2 0x253C JUMP JUMPDEST PUSH0 DUP6 DUP2 MSTORE DUP3 DUP2 KECCAK256 SWAP4 POP PUSH1 0x1F NOT DUP6 AND SWAP1 JUMPDEST DUP2 DUP2 LT PUSH2 0x2ABA JUMPI POP SWAP1 DUP5 PUSH1 0x1 SWAP6 SWAP5 SWAP4 SWAP3 LT PUSH2 0x2AA2 JUMPI JUMPDEST POP POP POP DUP2 SHL ADD SWAP1 SSTORE PUSH2 0x2550 JUMP JUMPDEST ADD MLOAD PUSH0 NOT PUSH1 0xF8 DUP5 PUSH1 0x3 SHL AND SHR NOT AND SWAP1 SSTORE DUP7 DUP1 DUP1 PUSH2 0x2A95 JUMP JUMPDEST SWAP3 SWAP4 PUSH1 0x20 PUSH1 0x1 DUP2 SWAP3 DUP8 DUP7 ADD MLOAD DUP2 SSTORE ADD SWAP6 ADD SWAP4 ADD PUSH2 0x2A7F JUMP JUMPDEST SWAP1 SWAP2 POP DUP4 PUSH0 MSTORE PUSH1 0x20 PUSH0 KECCAK256 PUSH1 0x1F DUP5 ADD PUSH1 0x5 SHR DUP2 ADD SWAP2 PUSH1 0x20 DUP6 LT PUSH2 0x2B18 JUMPI JUMPDEST SWAP1 PUSH1 0x1F DUP6 SWAP5 SWAP4 SWAP3 ADD PUSH1 0x5 SHR ADD SWAP1 JUMPDEST DUP2 DUP2 LT PUSH2 0x2B0A JUMPI POP PUSH2 0x2526 JUMP JUMPDEST PUSH0 DUP2 SSTORE DUP5 SWAP4 POP PUSH1 0x1 ADD PUSH2 0x2AFD JUMP JUMPDEST SWAP1 SWAP2 POP DUP2 SWAP1 PUSH2 0x2AEF JUMP JUMPDEST ADD MLOAD SWAP1 POP DUP7 DUP1 PUSH2 0x24E2 JUMP JUMPDEST PUSH0 DUP6 DUP2 MSTORE DUP3 DUP2 KECCAK256 SWAP4 POP PUSH1 0x1F NOT DUP6 AND SWAP1 JUMPDEST DUP2 DUP2 LT PUSH2 0x2B78 JUMPI POP SWAP1 DUP5 PUSH1 0x1 SWAP6 SWAP5 SWAP4 SWAP3 LT PUSH2 0x2B60 JUMPI JUMPDEST POP POP POP DUP2 SHL ADD SWAP1 SSTORE PUSH2 0x24F6 JUMP JUMPDEST ADD MLOAD PUSH0 NOT PUSH1 0xF8 DUP5 PUSH1 0x3 SHL AND SHR NOT AND SWAP1 SSTORE DUP7 DUP1 DUP1 PUSH2 0x2B53 JUMP JUMPDEST SWAP3 SWAP4 PUSH1 0x20 PUSH1 0x1 DUP2 SWAP3 DUP8 DUP7 ADD MLOAD DUP2 SSTORE ADD SWAP6 ADD SWAP4 ADD PUSH2 0x2B3D JUMP JUMPDEST SWAP1 SWAP2 POP DUP4 PUSH0 MSTORE PUSH1 0x20 PUSH0 KECCAK256 PUSH1 0x1F DUP5 ADD PUSH1 0x5 SHR DUP2 ADD SWAP2 PUSH1 0x20 DUP6 LT PUSH2 0x2BD6 JUMPI JUMPDEST SWAP1 PUSH1 0x1F DUP6 SWAP5 SWAP4 SWAP3 ADD PUSH1 0x5 SHR ADD SWAP1 JUMPDEST DUP2 DUP2 LT PUSH2 0x2BC8 JUMPI POP PUSH2 0x24CC JUMP JUMPDEST PUSH0 DUP2 SSTORE DUP5 SWAP4 POP PUSH1 0x1 ADD PUSH2 0x2BBB JUMP JUMPDEST SWAP1 SWAP2 POP DUP2 SWAP1 PUSH2 0x2BAD JUMP JUMPDEST ADD MLOAD SWAP1 POP DUP7 DUP1 PUSH2 0x2489 JUMP JUMPDEST PUSH0 DUP6 DUP2 MSTORE DUP3 DUP2 KECCAK256 SWAP4 POP PUSH1 0x1F NOT DUP6 AND SWAP1 JUMPDEST DUP2 DUP2 LT PUSH2 0x2C36 JUMPI POP SWAP1 DUP5 PUSH1 0x1 SWAP6 SWAP5 SWAP4 SWAP3 LT PUSH2 0x2C1E JUMPI JUMPDEST POP POP POP DUP2 SHL ADD SWAP1 SSTORE PUSH2 0x249D JUMP JUMPDEST ADD MLOAD PUSH0 NOT PUSH1 0xF8 DUP5 PUSH1 0x3 SHL AND SHR NOT AND SWAP1 SSTORE DUP7 DUP1 DUP1 PUSH2 0x2C11 JUMP JUMPDEST SWAP3 SWAP4 PUSH1 0x20 PUSH1 0x1 DUP2 SWAP3 DUP8 DUP7 ADD MLOAD DUP2 SSTORE ADD SWAP6 ADD SWAP4 ADD PUSH2 0x2BFB JUMP JUMPDEST SWAP1 SWAP2 POP DUP4 PUSH0 MSTORE PUSH1 0x20 PUSH0 KECCAK256 PUSH1 0x1F DUP5 ADD PUSH1 0x5 SHR DUP2 ADD SWAP2 PUSH1 0x20 DUP6 LT PUSH2 0x2C94 JUMPI JUMPDEST SWAP1 PUSH1 0x1F DUP6 SWAP5 SWAP4 SWAP3 ADD PUSH1 0x5 SHR ADD SWAP1 JUMPDEST DUP2 DUP2 LT PUSH2 0x2C86 JUMPI POP PUSH2 0x2473 JUMP JUMPDEST PUSH0 DUP2 SSTORE DUP5 SWAP4 POP PUSH1 0x1 ADD PUSH2 0x2C79 JUMP JUMPDEST SWAP1 SWAP2 POP DUP2 SWAP1 PUSH2 0x2C6B JUMP JUMPDEST ADD MLOAD SWAP1 POP DUP7 DUP1 PUSH2 0x2430 JUMP JUMPDEST PUSH0 DUP6 DUP2 MSTORE DUP3 DUP2 KECCAK256 SWAP4 POP PUSH1 0x1F NOT DUP6 AND SWAP1 JUMPDEST DUP2 DUP2 LT PUSH2 0x2CF4 JUMPI POP SWAP1 DUP5 PUSH1 0x1 SWAP6 SWAP5 SWAP4 SWAP3 LT PUSH2 0x2CDC JUMPI JUMPDEST POP POP POP DUP2 SHL ADD SWAP1 SSTORE PUSH2 0x2444 JUMP JUMPDEST ADD MLOAD PUSH0 NOT PUSH1 0xF8 DUP5 PUSH1 0x3 SHL AND SHR NOT AND SWAP1 SSTORE DUP7 DUP1 DUP1 PUSH2 0x2CCF JUMP JUMPDEST SWAP3 SWAP4 PUSH1 0x20 PUSH1 0x1 DUP2 SWAP3 DUP8 DUP7 ADD MLOAD DUP2 SSTORE ADD SWAP6 ADD SWAP4 ADD PUSH2 0x2CB9 JUMP JUMPDEST SWAP1 SWAP2 POP DUP4 PUSH0 MSTORE PUSH1 0x20 PUSH0 KECCAK256 PUSH1 0x1F DUP5 ADD PUSH1 0x5 SHR DUP2 ADD SWAP2 PUSH1 0x20 DUP6 LT PUSH2 0x2D52 JUMPI JUMPDEST SWAP1 PUSH1 0x1F DUP6 SWAP5 SWAP4 SWAP3 ADD PUSH1 0x5 SHR ADD SWAP1 JUMPDEST DUP2 DUP2 LT PUSH2 0x2D44 JUMPI POP PUSH2 0x241A JUMP JUMPDEST PUSH0 DUP2 SSTORE DUP5 SWAP4 POP PUSH1 0x1 ADD PUSH2 0x2D37 JUMP JUMPDEST SWAP1 SWAP2 POP DUP2 SWAP1 PUSH2 0x2D29 JUMP JUMPDEST ADD MLOAD SWAP1 POP DUP7 DUP1 PUSH2 0x23D7 JUMP JUMPDEST PUSH0 DUP6 DUP2 MSTORE DUP3 DUP2 KECCAK256 SWAP4 POP PUSH1 0x1F NOT DUP6 AND SWAP1 JUMPDEST DUP2 DUP2 LT PUSH2 0x2DB2 JUMPI POP SWAP1 DUP5 PUSH1 0x1 SWAP6 SWAP5 SWAP4 SWAP3 LT PUSH2 0x2D9A JUMPI JUMPDEST POP POP POP DUP2 SHL ADD SWAP1 SSTORE PUSH2 0x23EB JUMP JUMPDEST ADD MLOAD PUSH0 NOT PUSH1 0xF8 DUP5 PUSH1 0x3 SHL AND SHR NOT AND SWAP1 SSTORE DUP7 DUP1 DUP1 PUSH2 0x2D8D JUMP JUMPDEST SWAP3 SWAP4 PUSH1 0x20 PUSH1 0x1 DUP2 SWAP3 DUP8 DUP7 ADD MLOAD DUP2 SSTORE ADD SWAP6 ADD SWAP4 ADD PUSH2 0x2D77 JUMP JUMPDEST SWAP1 SWAP2 POP DUP4 PUSH0 MSTORE PUSH1 0x20 PUSH0 KECCAK256 PUSH1 0x1F DUP5 ADD PUSH1 0x5 SHR DUP2 ADD SWAP2 PUSH1 0x20 DUP6 LT PUSH2 0x2E10 JUMPI JUMPDEST SWAP1 PUSH1 0x1F DUP6 SWAP5 SWAP4 SWAP3 ADD PUSH1 0x5 SHR ADD SWAP1 JUMPDEST DUP2 DUP2 LT PUSH2 0x2E02 JUMPI POP PUSH2 0x23C1 JUMP JUMPDEST PUSH0 DUP2 SSTORE DUP5 SWAP4 POP PUSH1 0x1 ADD PUSH2 0x2DF5 JUMP JUMPDEST SWAP1 SWAP2 POP DUP2 SWAP1 PUSH2 0x2DE7 JUMP JUMPDEST ADD MLOAD SWAP1 POP DUP7 DUP1 PUSH2 0x237E JUMP JUMPDEST PUSH0 DUP6 DUP2 MSTORE DUP3 DUP2 KECCAK256 SWAP4 POP PUSH1 0x1F NOT DUP6 AND SWAP1 JUMPDEST DUP2 DUP2 LT PUSH2 0x2E70 JUMPI POP SWAP1 DUP5 PUSH1 0x1 SWAP6 SWAP5 SWAP4 SWAP3 LT PUSH2 0x2E58 JUMPI JUMPDEST POP POP POP DUP2 SHL ADD SWAP1 SSTORE PUSH2 0x2392 JUMP JUMPDEST ADD MLOAD PUSH0 NOT PUSH1 0xF8 DUP5 PUSH1 0x3 SHL AND SHR NOT AND SWAP1 SSTORE DUP7 DUP1 DUP1 PUSH2 0x2E4B JUMP JUMPDEST SWAP3 SWAP4 PUSH1 0x20 PUSH1 0x1 DUP2 SWAP3 DUP8 DUP7 ADD MLOAD DUP2 SSTORE ADD SWAP6 ADD SWAP4 ADD PUSH2 0x2E35 JUMP JUMPDEST SWAP1 SWAP2 POP DUP4 PUSH0 MSTORE PUSH1 0x20 PUSH0 KECCAK256 PUSH1 0x1F DUP5 ADD PUSH1 0x5 SHR DUP2 ADD SWAP2 PUSH1 0x20 DUP6 LT PUSH2 0x2ECE JUMPI JUMPDEST SWAP1 PUSH1 0x1F DUP6 SWAP5 SWAP4 SWAP3 ADD PUSH1 0x5 SHR ADD SWAP1 JUMPDEST DUP2 DUP2 LT PUSH2 0x2EC0 JUMPI POP PUSH2 0x2368 JUMP JUMPDEST PUSH0 DUP2 SSTORE DUP5 SWAP4 POP PUSH1 0x1 ADD PUSH2 0x2EB3 JUMP JUMPDEST SWAP1 SWAP2 POP DUP2 SWAP1 PUSH2 0x2EA5 JUMP JUMPDEST ADD MLOAD SWAP1 POP DUP7 DUP1 PUSH2 0x2325 JUMP JUMPDEST PUSH0 DUP6 DUP2 MSTORE DUP3 DUP2 KECCAK256 SWAP4 POP PUSH1 0x1F NOT DUP6 AND SWAP1 JUMPDEST DUP2 DUP2 LT PUSH2 0x2F2E JUMPI POP SWAP1 DUP5 PUSH1 0x1 SWAP6 SWAP5 SWAP4 SWAP3 LT PUSH2 0x2F16 JUMPI JUMPDEST POP POP POP DUP2 SHL ADD SWAP1 SSTORE PUSH2 0x2339 JUMP JUMPDEST ADD MLOAD PUSH0 NOT PUSH1 0xF8 DUP5 PUSH1 0x3 SHL AND SHR NOT AND SWAP1 SSTORE DUP7 DUP1 DUP1 PUSH2 0x2F09 JUMP JUMPDEST SWAP3 SWAP4 PUSH1 0x20 PUSH1 0x1 DUP2 SWAP3 DUP8 DUP7 ADD MLOAD DUP2 SSTORE ADD SWAP6 ADD SWAP4 ADD PUSH2 0x2EF3 JUMP JUMPDEST SWAP1 SWAP2 POP DUP4 PUSH0 MSTORE PUSH1 0x20 PUSH0 KECCAK256 PUSH1 0x1F DUP5 ADD PUSH1 0x5 SHR DUP2 ADD SWAP2 PUSH1 0x20 DUP6 LT PUSH2 0x2F8C JUMPI JUMPDEST SWAP1 PUSH1 0x1F DUP6 SWAP5 SWAP4 SWAP3 ADD PUSH1 0x5 SHR ADD SWAP1 JUMPDEST DUP2 DUP2 LT PUSH2 0x2F7E JUMPI POP PUSH2 0x230F JUMP JUMPDEST PUSH0 DUP2 SSTORE DUP5 SWAP4 POP PUSH1 0x1 ADD PUSH2 0x2F71 JUMP JUMPDEST SWAP1 SWAP2 POP DUP2 SWAP1 PUSH2 0x2F63 JUMP JUMPDEST ADD MLOAD SWAP1 POP DUP7 DUP1 PUSH2 0x22CC JUMP JUMPDEST PUSH0 DUP6 DUP2 MSTORE DUP3 DUP2 KECCAK256 SWAP4 POP PUSH1 0x1F NOT DUP6 AND SWAP1 JUMPDEST DUP2 DUP2 LT PUSH2 0x2FEC JUMPI POP SWAP1 DUP5 PUSH1 0x1 SWAP6 SWAP5 SWAP4 SWAP3 LT PUSH2 0x2FD4 JUMPI JUMPDEST POP POP POP DUP2 SHL ADD SWAP1 SSTORE PUSH2 0x22E0 JUMP JUMPDEST ADD MLOAD PUSH0 NOT PUSH1 0xF8 DUP5 PUSH1 0x3 SHL AND SHR NOT AND SWAP1 SSTORE DUP7 DUP1 DUP1 PUSH2 0x2FC7 JUMP JUMPDEST SWAP3 SWAP4 PUSH1 0x20 PUSH1 0x1 DUP2 SWAP3 DUP8 DUP7 ADD MLOAD DUP2 SSTORE ADD SWAP6 ADD SWAP4 ADD PUSH2 0x2FB1 JUMP JUMPDEST SWAP1 SWAP2 POP DUP4 PUSH0 MSTORE PUSH1 0x20 PUSH0 KECCAK256 PUSH1 0x1F DUP5 ADD PUSH1 0x5 SHR DUP2 ADD SWAP2 PUSH1 0x20 DUP6 LT PUSH2 0x304A JUMPI JUMPDEST SWAP1 PUSH1 0x1F DUP6 SWAP5 SWAP4 SWAP3 ADD PUSH1 0x5 SHR ADD SWAP1 JUMPDEST DUP2 DUP2 LT PUSH2 0x303C JUMPI POP PUSH2 0x22B6 JUMP JUMPDEST PUSH0 DUP2 SSTORE DUP5 SWAP4 POP PUSH1 0x1 ADD PUSH2 0x302F JUMP JUMPDEST SWAP1 SWAP2 POP DUP2 SWAP1 PUSH2 0x3021 JUMP JUMPDEST ADD MLOAD SWAP1 POP DUP6 DUP1 PUSH2 0x2273 JUMP JUMPDEST DUP4 PUSH0 MSTORE DUP1 PUSH0 KECCAK256 SWAP1 PUSH0 JUMPDEST PUSH1 0x1F NOT DUP5 AND DUP2 LT PUSH2 0x30AB JUMPI POP PUSH1 0x1 SWAP4 SWAP5 SWAP6 SWAP7 DUP4 PUSH1 0x1F NOT DUP2 AND LT PUSH2 0x3093 JUMPI JUMPDEST POP POP POP DUP2 SHL ADD DUP3 SSTORE PUSH2 0x2287 JUMP JUMPDEST ADD MLOAD PUSH0 NOT PUSH1 0xF8 DUP5 PUSH1 0x3 SHL AND SHR NOT AND SWAP1 SSTORE DUP6 DUP1 DUP1 PUSH2 0x3086 JUMP JUMPDEST SWAP1 SWAP2 PUSH1 0x20 PUSH1 0x1 DUP2 SWAP3 DUP6 DUP12 ADD MLOAD DUP2 SSTORE ADD SWAP4 ADD SWAP2 ADD PUSH2 0x3068 JUMP JUMPDEST DUP4 PUSH0 MSTORE PUSH1 0x20 PUSH0 KECCAK256 PUSH1 0x1F DUP4 ADD PUSH1 0x5 SHR DUP2 ADD PUSH1 0x20 DUP5 LT PUSH2 0x30FD JUMPI JUMPDEST PUSH1 0x1F DUP4 ADD PUSH1 0x5 SHR DUP3 ADD DUP2 LT PUSH2 0x30F2 JUMPI POP POP PUSH2 0x2259 JUMP JUMPDEST PUSH0 DUP2 SSTORE PUSH1 0x1 ADD PUSH2 0x30DC JUMP JUMPDEST POP DUP1 PUSH2 0x30DC JUMP JUMPDEST PUSH1 0x40 MLOAD PUSH3 0x461BCD PUSH1 0xE5 SHL DUP2 MSTORE PUSH1 0x20 PUSH1 0x4 DUP3 ADD MSTORE PUSH1 0x1C PUSH1 0x24 DUP3 ADD MSTORE PUSH32 0x416C7265616479206120726567697374657265642070617469656E7400000000 PUSH1 0x44 DUP3 ADD MSTORE PUSH1 0x64 SWAP1 REVERT JUMPDEST CALLVALUE PUSH2 0x195 JUMPI PUSH0 CALLDATASIZE PUSH1 0x3 NOT ADD SLT PUSH2 0x195 JUMPI PUSH1 0x20 PUSH1 0xC SLOAD PUSH1 0x40 MLOAD SWAP1 DUP2 MSTORE RETURN JUMPDEST CALLVALUE PUSH2 0x195 JUMPI PUSH1 0x20 CALLDATASIZE PUSH1 0x3 NOT ADD SLT PUSH2 0x195 JUMPI PUSH1 0x1 PUSH1 0x1 PUSH1 0xA0 SHL SUB PUSH2 0x3187 PUSH2 0x51BF JUMP JUMPDEST AND PUSH0 MSTORE PUSH1 0x5 PUSH1 0x20 MSTORE PUSH1 0x20 PUSH2 0x100 PUSH1 0x40 PUSH0 KECCAK256 PUSH1 0x8 PUSH1 0x40 MLOAD SWAP2 PUSH2 0x31A7 DUP4 PUSH2 0x51F1 JUMP JUMPDEST PUSH2 0x31B0 DUP2 PUSH2 0x5401 JUMP JUMPDEST DUP4 MSTORE PUSH2 0x31BE PUSH1 0x1 DUP3 ADD PUSH2 0x5401 JUMP JUMPDEST DUP6 DUP5 ADD MSTORE PUSH2 0x31CE PUSH1 0x2 DUP3 ADD PUSH2 0x5401 JUMP JUMPDEST PUSH1 0x40 DUP5 ADD MSTORE PUSH2 0x31DF PUSH1 0x3 DUP3 ADD PUSH2 0x5401 JUMP JUMPDEST PUSH1 0x60 DUP5 ADD MSTORE PUSH2 0x31F0 PUSH1 0x4 DUP3 ADD PUSH2 0x5401 JUMP JUMPDEST PUSH1 0x80 DUP5 ADD MSTORE PUSH2 0x3201 PUSH1 0x5 DUP3 ADD PUSH2 0x5401 JUMP JUMPDEST PUSH1 0xA0 DUP5 ADD MSTORE PUSH2 0x3212 PUSH1 0x6 DUP3 ADD PUSH2 0x5401 JUMP JUMPDEST PUSH1 0xC0 DUP5 ADD MSTORE PUSH1 0x7 DUP2 ADD SLOAD PUSH1 0x1 PUSH1 0x1 PUSH1 0xA0 SHL SUB AND PUSH1 0xE0 DUP5 ADD MSTORE ADD SLOAD SWAP2 ADD DUP2 SWAP1 MSTORE PUSH1 0x40 MLOAD SWAP1 DUP2 MSTORE RETURN JUMPDEST CALLVALUE PUSH2 0x195 JUMPI PUSH1 0x20 CALLDATASIZE PUSH1 0x3 NOT ADD SLT PUSH2 0x195 JUMPI PUSH1 0x4 CALLDATALOAD PUSH1 0x1 PUSH1 0x1 PUSH1 0x40 SHL SUB DUP2 GT PUSH2 0x195 JUMPI PUSH2 0x1A0 PUSH1 0x3 NOT DUP3 CALLDATASIZE SUB ADD SLT PUSH2 0x195 JUMPI PUSH1 0x40 MLOAD PUSH2 0x1A0 DUP2 ADD DUP2 DUP2 LT PUSH1 0x1 PUSH1 0x1 PUSH1 0x40 SHL SUB DUP3 GT OR PUSH2 0x668 JUMPI PUSH1 0x40 MSTORE DUP2 PUSH1 0x4 ADD CALLDATALOAD PUSH1 0x1 PUSH1 0x1 PUSH1 0x40 SHL SUB DUP2 GT PUSH2 0x195 JUMPI PUSH2 0x32AA SWAP1 PUSH1 0x4 CALLDATASIZE SWAP2 DUP6 ADD ADD PUSH2 0x522E JUMP JUMPDEST DUP2 MSTORE PUSH1 0x24 DUP3 ADD CALLDATALOAD PUSH1 0x1 PUSH1 0x1 PUSH1 0x40 SHL SUB DUP2 GT PUSH2 0x195 JUMPI PUSH2 0x32CF SWAP1 PUSH1 0x4 CALLDATASIZE SWAP2 DUP6 ADD ADD PUSH2 0x522E JUMP JUMPDEST SWAP1 PUSH1 0x20 DUP2 ADD SWAP2 DUP3 MSTORE PUSH1 0x44 DUP4 ADD CALLDATALOAD PUSH1 0x1 PUSH1 0x1 PUSH1 0x40 SHL SUB DUP2 GT PUSH2 0x195 JUMPI PUSH2 0x32FA SWAP1 PUSH1 0x4 CALLDATASIZE SWAP2 DUP7 ADD ADD PUSH2 0x522E JUMP JUMPDEST SWAP3 PUSH1 0x40 DUP3 ADD SWAP4 DUP5 MSTORE PUSH1 0x64 DUP2 ADD CALLDATALOAD PUSH1 0x1 PUSH1 0x1 PUSH1 0x40 SHL SUB DUP2 GT PUSH2 0x195 JUMPI PUSH2 0x3325 SWAP1 PUSH1 0x4 CALLDATASIZE SWAP2 DUP5 ADD ADD PUSH2 0x522E JUMP JUMPDEST PUSH1 0x60 DUP4 ADD SWAP1 DUP2 MSTORE PUSH1 0x84 DUP3 ADD CALLDATALOAD PUSH1 0x1 PUSH1 0x1 PUSH1 0x40 SHL SUB DUP2 GT PUSH2 0x195 JUMPI PUSH2 0x334F SWAP1 PUSH1 0x4 CALLDATASIZE SWAP2 DUP6 ADD ADD PUSH2 0x522E JUMP JUMPDEST PUSH1 0x80 DUP5 ADD SWAP1 DUP2 MSTORE PUSH1 0xA4 DUP4 ADD CALLDATALOAD PUSH1 0x1 PUSH1 0x1 PUSH1 0x40 SHL SUB DUP2 GT PUSH2 0x195 JUMPI PUSH2 0x3379 SWAP1 PUSH1 0x4 CALLDATASIZE SWAP2 DUP7 ADD ADD PUSH2 0x522E JUMP JUMPDEST SWAP2 PUSH1 0xA0 DUP6 ADD SWAP3 DUP4 MSTORE PUSH1 0xC4 DUP5 ADD CALLDATALOAD PUSH1 0x1 PUSH1 0x1 PUSH1 0x40 SHL SUB DUP2 GT PUSH2 0x195 JUMPI PUSH2 0x33A4 SWAP1 PUSH1 0x4 CALLDATASIZE SWAP2 DUP8 ADD ADD PUSH2 0x522E JUMP JUMPDEST SWAP4 PUSH1 0xC0 DUP7 ADD SWAP5 DUP6 MSTORE PUSH1 0xE4 DUP2 ADD CALLDATALOAD PUSH1 0x1 PUSH1 0x1 PUSH1 0x40 SHL SUB DUP2 GT PUSH2 0x195 JUMPI PUSH2 0x33CF SWAP1 PUSH1 0x4 CALLDATASIZE SWAP2 DUP5 ADD ADD PUSH2 0x522E JUMP JUMPDEST PUSH1 0xE0 DUP8 ADD MSTORE PUSH2 0x104 DUP2 ADD CALLDATALOAD PUSH1 0x1 PUSH1 0x1 PUSH1 0x40 SHL SUB DUP2 GT PUSH2 0x195 JUMPI PUSH2 0x33F8 SWAP1 PUSH1 0x4 CALLDATASIZE SWAP2 DUP5 ADD ADD PUSH2 0x522E JUMP JUMPDEST PUSH2 0x100 DUP8 ADD MSTORE PUSH2 0x124 DUP2 ADD CALLDATALOAD PUSH1 0x1 PUSH1 0x1 PUSH1 0x40 SHL SUB DUP2 GT PUSH2 0x195 JUMPI PUSH2 0x3422 SWAP1 PUSH1 0x4 CALLDATASIZE SWAP2 DUP5 ADD ADD PUSH2 0x522E JUMP JUMPDEST PUSH2 0x120 DUP8 ADD MSTORE PUSH2 0x144 DUP2 ADD CALLDATALOAD PUSH1 0x1 PUSH1 0x1 PUSH1 0x40 SHL SUB DUP2 GT PUSH2 0x195 JUMPI PUSH2 0x344C SWAP1 PUSH1 0x4 CALLDATASIZE SWAP2 DUP5 ADD ADD PUSH2 0x522E JUMP JUMPDEST PUSH2 0x140 DUP8 ADD MSTORE PUSH2 0x164 DUP2 ADD CALLDATALOAD PUSH1 0x1 PUSH1 0x1 PUSH1 0x40 SHL SUB DUP2 GT PUSH2 0x195 JUMPI PUSH2 0x3476 SWAP1 PUSH1 0x4 CALLDATASIZE SWAP2 DUP5 ADD ADD PUSH2 0x522E JUMP JUMPDEST PUSH2 0x160 DUP8 ADD MSTORE PUSH2 0x184 DUP2 ADD CALLDATALOAD SWAP1 PUSH1 0x1 PUSH1 0x1 PUSH1 0x40 SHL SUB DUP3 GT PUSH2 0x195 JUMPI PUSH1 0x4 PUSH2 0x34A0 SWAP3 CALLDATASIZE SWAP3 ADD ADD PUSH2 0x522E JUMP JUMPDEST SWAP7 PUSH2 0x180 DUP7 ADD SWAP8 DUP9 MSTORE CALLER PUSH0 MSTORE PUSH1 0x8 PUSH1 0x20 MSTORE PUSH1 0xFF PUSH1 0x40 PUSH0 KECCAK256 SLOAD AND ISZERO PUSH2 0x4298 JUMPI CALLER PUSH0 MSTORE PUSH1 0x4 PUSH1 0x20 MSTORE PUSH1 0x40 PUSH0 KECCAK256 SWAP7 DUP7 MLOAD DUP1 MLOAD SWAP1 PUSH1 0x1 PUSH1 0x1 PUSH1 0x40 SHL SUB DUP3 GT PUSH2 0x668 JUMPI DUP2 SWAP1 PUSH2 0x34EA DUP12 SLOAD PUSH2 0x53C9 JUMP JUMPDEST PUSH1 0x1F DUP2 GT PUSH2 0x4248 JUMPI JUMPDEST POP PUSH1 0x20 SWAP1 PUSH1 0x1F DUP4 GT PUSH1 0x1 EQ PUSH2 0x41E5 JUMPI PUSH0 SWAP3 PUSH2 0x41DA JUMPI JUMPDEST POP POP DUP2 PUSH1 0x1 SHL SWAP2 PUSH0 NOT SWAP1 PUSH1 0x3 SHL SHR NOT AND OR DUP9 SSTORE JUMPDEST MLOAD DUP1 MLOAD PUSH1 0x1 DUP10 ADD SWAP2 PUSH1 0x1 PUSH1 0x1 PUSH1 0x40 SHL SUB DUP3 GT PUSH2 0x668 JUMPI DUP2 SWAP1 PUSH2 0x353F DUP5 SLOAD PUSH2 0x53C9 JUMP JUMPDEST PUSH1 0x1F DUP2 GT PUSH2 0x418A JUMPI JUMPDEST POP PUSH1 0x20 SWAP1 PUSH1 0x1F DUP4 GT PUSH1 0x1 EQ PUSH2 0x4127 JUMPI PUSH0 SWAP3 PUSH2 0x411C JUMPI JUMPDEST POP POP DUP2 PUSH1 0x1 SHL SWAP2 PUSH0 NOT SWAP1 PUSH1 0x3 SHL SHR NOT AND OR SWAP1 SSTORE JUMPDEST MLOAD DUP1 MLOAD PUSH1 0x2 DUP9 ADD SWAP2 PUSH1 0x1 PUSH1 0x1 PUSH1 0x40 SHL SUB DUP3 GT PUSH2 0x668 JUMPI DUP2 SWAP1 PUSH2 0x3594 DUP5 SLOAD PUSH2 0x53C9 JUMP JUMPDEST PUSH1 0x1F DUP2 GT PUSH2 0x40CC JUMPI JUMPDEST POP PUSH1 0x20 SWAP1 PUSH1 0x1F DUP4 GT PUSH1 0x1 EQ PUSH2 0x4069 JUMPI PUSH0 SWAP3 PUSH2 0x405E JUMPI JUMPDEST POP POP DUP2 PUSH1 0x1 SHL SWAP2 PUSH0 NOT SWAP1 PUSH1 0x3 SHL SHR NOT AND OR SWAP1 SSTORE JUMPDEST MLOAD DUP1 MLOAD PUSH1 0x3 DUP8 ADD SWAP2 PUSH1 0x1 PUSH1 0x1 PUSH1 0x40 SHL SUB DUP3 GT PUSH2 0x668 JUMPI DUP2 SWAP1 PUSH2 0x35E9 DUP5 SLOAD PUSH2 0x53C9 JUMP JUMPDEST PUSH1 0x1F DUP2 GT PUSH2 0x400E JUMPI JUMPDEST POP PUSH1 0x20 SWAP1 PUSH1 0x1F DUP4 GT PUSH1 0x1 EQ PUSH2 0x3FAB JUMPI PUSH0 SWAP3 PUSH2 0x3FA0 JUMPI JUMPDEST POP POP DUP2 PUSH1 0x1 SHL SWAP2 PUSH0 NOT SWAP1 PUSH1 0x3 SHL SHR NOT AND OR SWAP1 SSTORE JUMPDEST MLOAD DUP1 MLOAD PUSH1 0x4 DUP7 ADD SWAP2 PUSH1 0x1 PUSH1 0x1 PUSH1 0x40 SHL SUB DUP3 GT PUSH2 0x668 JUMPI DUP2 SWAP1 PUSH2 0x363E DUP5 SLOAD PUSH2 0x53C9 JUMP JUMPDEST PUSH1 0x1F DUP2 GT PUSH2 0x3F50 JUMPI JUMPDEST POP PUSH1 0x20 SWAP1 PUSH1 0x1F DUP4 GT PUSH1 0x1 EQ PUSH2 0x3EED JUMPI PUSH0 SWAP3 PUSH2 0x3EE2 JUMPI JUMPDEST POP POP DUP2 PUSH1 0x1 SHL SWAP2 PUSH0 NOT SWAP1 PUSH1 0x3 SHL SHR NOT AND OR SWAP1 SSTORE JUMPDEST MLOAD DUP1 MLOAD PUSH1 0x5 DUP6 ADD SWAP2 PUSH1 0x1 PUSH1 0x1 PUSH1 0x40 SHL SUB DUP3 GT PUSH2 0x668 JUMPI DUP2 SWAP1 PUSH2 0x3693 DUP5 SLOAD PUSH2 0x53C9 JUMP JUMPDEST PUSH1 0x1F DUP2 GT PUSH2 0x3E92 JUMPI JUMPDEST POP PUSH1 0x20 SWAP1 PUSH1 0x1F DUP4 GT PUSH1 0x1 EQ PUSH2 0x3E2F JUMPI PUSH0 SWAP3 PUSH2 0x3E24 JUMPI JUMPDEST POP POP DUP2 PUSH1 0x1 SHL SWAP2 PUSH0 NOT SWAP1 PUSH1 0x3 SHL SHR NOT AND OR SWAP1 SSTORE JUMPDEST MLOAD DUP1 MLOAD PUSH1 0x6 DUP5 ADD SWAP2 PUSH1 0x1 PUSH1 0x1 PUSH1 0x40 SHL SUB DUP3 GT PUSH2 0x668 JUMPI DUP2 SWAP1 PUSH2 0x36E8 DUP5 SLOAD PUSH2 0x53C9 JUMP JUMPDEST PUSH1 0x1F DUP2 GT PUSH2 0x3DD4 JUMPI JUMPDEST POP PUSH1 0x20 SWAP1 PUSH1 0x1F DUP4 GT PUSH1 0x1 EQ PUSH2 0x3D71 JUMPI PUSH0 SWAP3 PUSH2 0x3D66 JUMPI JUMPDEST POP POP DUP2 PUSH1 0x1 SHL SWAP2 PUSH0 NOT SWAP1 PUSH1 0x3 SHL SHR NOT AND OR SWAP1 SSTORE JUMPDEST PUSH1 0xE0 DUP2 ADD MLOAD DUP1 MLOAD PUSH1 0x7 DUP5 ADD SWAP2 PUSH1 0x1 PUSH1 0x1 PUSH1 0x40 SHL SUB DUP3 GT PUSH2 0x668 JUMPI DUP2 SWAP1 PUSH2 0x3741 DUP5 SLOAD PUSH2 0x53C9 JUMP JUMPDEST PUSH1 0x1F DUP2 GT PUSH2 0x3D16 JUMPI JUMPDEST POP PUSH1 0x20 SWAP1 PUSH1 0x1F DUP4 GT PUSH1 0x1 EQ PUSH2 0x3CB3 JUMPI PUSH0 SWAP3 PUSH2 0x3CA8 JUMPI JUMPDEST POP POP DUP2 PUSH1 0x1 SHL SWAP2 PUSH0 NOT SWAP1 PUSH1 0x3 SHL SHR NOT AND OR SWAP1 SSTORE JUMPDEST PUSH2 0x100 DUP2 ADD MLOAD DUP1 MLOAD PUSH1 0x8 DUP5 ADD SWAP2 PUSH1 0x1 PUSH1 0x1 PUSH1 0x40 SHL SUB DUP3 GT PUSH2 0x668 JUMPI DUP2 SWAP1 PUSH2 0x379B DUP5 SLOAD PUSH2 0x53C9 JUMP JUMPDEST PUSH1 0x1F DUP2 GT PUSH2 0x3C58 JUMPI JUMPDEST POP PUSH1 0x20 SWAP1 PUSH1 0x1F DUP4 GT PUSH1 0x1 EQ PUSH2 0x3BF5 JUMPI PUSH0 SWAP3 PUSH2 0x3BEA JUMPI JUMPDEST POP POP DUP2 PUSH1 0x1 SHL SWAP2 PUSH0 NOT SWAP1 PUSH1 0x3 SHL SHR NOT AND OR SWAP1 SSTORE JUMPDEST PUSH2 0x120 DUP2 ADD MLOAD DUP1 MLOAD PUSH1 0x9 DUP5 ADD SWAP2 PUSH1 0x1 PUSH1 0x1 PUSH1 0x40 SHL SUB DUP3 GT PUSH2 0x668 JUMPI DUP2 SWAP1 PUSH2 0x37F5 DUP5 SLOAD PUSH2 0x53C9 JUMP JUMPDEST PUSH1 0x1F DUP2 GT PUSH2 0x3B9A JUMPI JUMPDEST POP PUSH1 0x20 SWAP1 PUSH1 0x1F DUP4 GT PUSH1 0x1 EQ PUSH2 0x3B37 JUMPI PUSH0 SWAP3 PUSH2 0x3B2C JUMPI JUMPDEST POP POP DUP2 PUSH1 0x1 SHL SWAP2 PUSH0 NOT SWAP1 PUSH1 0x3 SHL SHR NOT AND OR SWAP1 SSTORE JUMPDEST PUSH2 0x140 DUP2 ADD MLOAD DUP1 MLOAD PUSH1 0xA DUP5 ADD SWAP2 PUSH1 0x1 PUSH1 0x1 PUSH1 0x40 SHL SUB DUP3 GT PUSH2 0x668 JUMPI PUSH2 0x384D DUP4 SLOAD PUSH2 0x53C9 JUMP JUMPDEST PUSH1 0x1F DUP2 GT PUSH2 0x3AE7 JUMPI JUMPDEST POP PUSH1 0x20 SWAP1 PUSH1 0x1F DUP4 GT PUSH1 0x1 EQ PUSH2 0x3A7F JUMPI PUSH2 0x160 SWAP5 SWAP4 SWAP3 SWAP2 PUSH0 SWAP2 DUP4 PUSH2 0x3A74 JUMPI JUMPDEST POP POP DUP2 PUSH1 0x1 SHL SWAP2 PUSH0 NOT SWAP1 PUSH1 0x3 SHL SHR NOT AND OR SWAP1 SSTORE JUMPDEST ADD MLOAD SWAP2 PUSH1 0xB DUP3 ADD DUP4 MLOAD PUSH1 0x1 PUSH1 0x1 PUSH1 0x40 SHL SUB DUP2 GT PUSH2 0x668 JUMPI PUSH2 0x38A9 DUP3 SLOAD PUSH2 0x53C9 JUMP JUMPDEST PUSH1 0x1F DUP2 GT PUSH2 0x3A2F JUMPI JUMPDEST POP PUSH1 0x20 PUSH1 0x1F DUP3 GT PUSH1 0x1 EQ PUSH2 0x39CA JUMPI DUP2 SWAP1 PUSH1 0xC SWAP6 SWAP7 PUSH0 SWAP3 PUSH2 0x39BF JUMPI JUMPDEST POP POP DUP2 PUSH1 0x1 SHL SWAP2 PUSH0 NOT SWAP1 PUSH1 0x3 SHL SHR NOT AND OR SWAP1 SSTORE JUMPDEST MLOAD SWAP2 ADD DUP2 MLOAD PUSH1 0x1 PUSH1 0x1 PUSH1 0x40 SHL SUB DUP2 GT PUSH2 0x668 JUMPI PUSH2 0x38FE DUP3 SLOAD PUSH2 0x53C9 JUMP JUMPDEST PUSH1 0x1F DUP2 GT PUSH2 0x397A JUMPI JUMPDEST POP PUSH1 0x20 SWAP3 PUSH1 0x1F DUP3 GT PUSH1 0x1 EQ PUSH2 0x3937 JUMPI SWAP3 DUP2 SWAP3 SWAP4 PUSH0 SWAP3 PUSH2 0x5BC JUMPI POP POP PUSH0 NOT PUSH1 0x3 DUP4 SWAP1 SHL SHR NOT AND PUSH1 0x1 SWAP2 SWAP1 SWAP2 SHL OR SWAP1 SSTORE STOP JUMPDEST PUSH1 0x1F NOT DUP3 AND SWAP4 DUP4 PUSH0 MSTORE DUP1 PUSH0 KECCAK256 SWAP2 PUSH0 JUMPDEST DUP7 DUP2 LT PUSH2 0x3962 JUMPI POP DUP4 PUSH1 0x1 SWAP6 SWAP7 LT PUSH2 0x5F3 JUMPI POP POP POP DUP2 SHL ADD SWAP1 SSTORE STOP JUMPDEST SWAP2 SWAP3 PUSH1 0x20 PUSH1 0x1 DUP2 SWAP3 DUP7 DUP6 ADD MLOAD DUP2 SSTORE ADD SWAP5 ADD SWAP3 ADD PUSH2 0x3946 JUMP JUMPDEST DUP3 PUSH0 MSTORE PUSH1 0x20 PUSH0 KECCAK256 PUSH1 0x1F DUP4 ADD PUSH1 0x5 SHR DUP2 ADD SWAP2 PUSH1 0x20 DUP5 LT PUSH2 0x39B5 JUMPI JUMPDEST PUSH1 0x1F ADD PUSH1 0x5 SHR ADD SWAP1 JUMPDEST DUP2 DUP2 LT PUSH2 0x39AA JUMPI POP PUSH2 0x3907 JUMP JUMPDEST PUSH0 DUP2 SSTORE PUSH1 0x1 ADD PUSH2 0x399D JUMP JUMPDEST SWAP1 SWAP2 POP DUP2 SWAP1 PUSH2 0x3994 JUMP JUMPDEST ADD MLOAD SWAP1 POP DUP7 DUP1 PUSH2 0x38CD JUMP JUMPDEST PUSH1 0x1F NOT DUP3 AND SWAP6 DUP4 PUSH0 MSTORE DUP2 PUSH0 KECCAK256 SWAP7 PUSH0 JUMPDEST DUP2 DUP2 LT PUSH2 0x3A17 JUMPI POP SWAP2 PUSH1 0xC SWAP7 SWAP8 SWAP2 DUP5 PUSH1 0x1 SWAP6 SWAP5 LT PUSH2 0x39FF JUMPI JUMPDEST POP POP POP DUP2 SHL ADD SWAP1 SSTORE PUSH2 0x38E1 JUMP JUMPDEST ADD MLOAD PUSH0 NOT PUSH1 0xF8 DUP5 PUSH1 0x3 SHL AND SHR NOT AND SWAP1 SSTORE DUP7 DUP1 DUP1 PUSH2 0x39F2 JUMP JUMPDEST DUP4 DUP4 ADD MLOAD DUP10 SSTORE PUSH1 0x1 SWAP1 SWAP9 ADD SWAP8 PUSH1 0x20 SWAP4 DUP5 ADD SWAP4 ADD PUSH2 0x39D9 JUMP JUMPDEST DUP3 PUSH0 MSTORE PUSH1 0x20 PUSH0 KECCAK256 PUSH1 0x1F DUP4 ADD PUSH1 0x5 SHR DUP2 ADD SWAP2 PUSH1 0x20 DUP5 LT PUSH2 0x3A6A JUMPI JUMPDEST PUSH1 0x1F ADD PUSH1 0x5 SHR ADD SWAP1 JUMPDEST DUP2 DUP2 LT PUSH2 0x3A5F JUMPI POP PUSH2 0x38B2 JUMP JUMPDEST PUSH0 DUP2 SSTORE PUSH1 0x1 ADD PUSH2 0x3A52 JUMP JUMPDEST SWAP1 SWAP2 POP DUP2 SWAP1 PUSH2 0x3A49 JUMP JUMPDEST ADD MLOAD SWAP1 POP DUP8 DUP1 PUSH2 0x3874 JUMP JUMPDEST SWAP1 PUSH1 0x1F NOT DUP4 AND SWAP2 DUP5 PUSH0 MSTORE DUP2 PUSH0 KECCAK256 SWAP3 PUSH0 JUMPDEST DUP2 DUP2 LT PUSH2 0x3ACF JUMPI POP SWAP2 PUSH1 0x1 SWAP4 SWAP2 DUP6 PUSH2 0x160 SWAP9 SWAP8 SWAP7 SWAP5 LT PUSH2 0x3AB7 JUMPI JUMPDEST POP POP POP DUP2 SHL ADD SWAP1 SSTORE PUSH2 0x3888 JUMP JUMPDEST ADD MLOAD PUSH0 NOT PUSH1 0xF8 DUP5 PUSH1 0x3 SHL AND SHR NOT AND SWAP1 SSTORE DUP8 DUP1 DUP1 PUSH2 0x3AAA JUMP JUMPDEST SWAP3 SWAP4 PUSH1 0x20 PUSH1 0x1 DUP2 SWAP3 DUP8 DUP7 ADD MLOAD DUP2 SSTORE ADD SWAP6 ADD SWAP4 ADD PUSH2 0x3A8F JUMP JUMPDEST DUP4 PUSH0 MSTORE PUSH1 0x20 PUSH0 KECCAK256 PUSH1 0x1F DUP5 ADD PUSH1 0x5 SHR DUP2 ADD SWAP2 PUSH1 0x20 DUP6 LT PUSH2 0x3B22 JUMPI JUMPDEST PUSH1 0x1F ADD PUSH1 0x5 SHR ADD SWAP1 JUMPDEST DUP2 DUP2 LT PUSH2 0x3B17 JUMPI POP PUSH2 0x3856 JUMP JUMPDEST PUSH0 DUP2 SSTORE PUSH1 0x1 ADD PUSH2 0x3B0A JUMP JUMPDEST SWAP1 SWAP2 POP DUP2 SWAP1 PUSH2 0x3B01 JUMP JUMPDEST ADD MLOAD SWAP1 POP DUP7 DUP1 PUSH2 0x3814 JUMP JUMPDEST PUSH0 DUP6 DUP2 MSTORE DUP3 DUP2 KECCAK256 SWAP4 POP PUSH1 0x1F NOT DUP6 AND SWAP1 JUMPDEST DUP2 DUP2 LT PUSH2 0x3B82 JUMPI POP SWAP1 DUP5 PUSH1 0x1 SWAP6 SWAP5 SWAP4 SWAP3 LT PUSH2 0x3B6A JUMPI JUMPDEST POP POP POP DUP2 SHL ADD SWAP1 SSTORE PUSH2 0x3828 JUMP JUMPDEST ADD MLOAD PUSH0 NOT PUSH1 0xF8 DUP5 PUSH1 0x3 SHL AND SHR NOT AND SWAP1 SSTORE DUP7 DUP1 DUP1 PUSH2 0x3B5D JUMP JUMPDEST SWAP3 SWAP4 PUSH1 0x20 PUSH1 0x1 DUP2 SWAP3 DUP8 DUP7 ADD MLOAD DUP2 SSTORE ADD SWAP6 ADD SWAP4 ADD PUSH2 0x3B47 JUMP JUMPDEST SWAP1 SWAP2 POP DUP4 PUSH0 MSTORE PUSH1 0x20 PUSH0 KECCAK256 PUSH1 0x1F DUP5 ADD PUSH1 0x5 SHR DUP2 ADD SWAP2 PUSH1 0x20 DUP6 LT PUSH2 0x3BE0 JUMPI JUMPDEST SWAP1 PUSH1 0x1F DUP6 SWAP5 SWAP4 SWAP3 ADD PUSH1 0x5 SHR ADD SWAP1 JUMPDEST DUP2 DUP2 LT PUSH2 0x3BD2 JUMPI POP PUSH2 0x37FE JUMP JUMPDEST PUSH0 DUP2 SSTORE DUP5 SWAP4 POP PUSH1 0x1 ADD PUSH2 0x3BC5 JUMP JUMPDEST SWAP1 SWAP2 POP DUP2 SWAP1 PUSH2 0x3BB7 JUMP JUMPDEST ADD MLOAD SWAP1 POP DUP7 DUP1 PUSH2 0x37BA JUMP JUMPDEST PUSH0 DUP6 DUP2 MSTORE DUP3 DUP2 KECCAK256 SWAP4 POP PUSH1 0x1F NOT DUP6 AND SWAP1 JUMPDEST DUP2 DUP2 LT PUSH2 0x3C40 JUMPI POP SWAP1 DUP5 PUSH1 0x1 SWAP6 SWAP5 SWAP4 SWAP3 LT PUSH2 0x3C28 JUMPI JUMPDEST POP POP POP DUP2 SHL ADD SWAP1 SSTORE PUSH2 0x37CE JUMP JUMPDEST ADD MLOAD PUSH0 NOT PUSH1 0xF8 DUP5 PUSH1 0x3 SHL AND SHR NOT AND SWAP1 SSTORE DUP7 DUP1 DUP1 PUSH2 0x3C1B JUMP JUMPDEST SWAP3 SWAP4 PUSH1 0x20 PUSH1 0x1 DUP2 SWAP3 DUP8 DUP7 ADD MLOAD DUP2 SSTORE ADD SWAP6 ADD SWAP4 ADD PUSH2 0x3C05 JUMP JUMPDEST SWAP1 SWAP2 POP DUP4 PUSH0 MSTORE PUSH1 0x20 PUSH0 KECCAK256 PUSH1 0x1F DUP5 ADD PUSH1 0x5 SHR DUP2 ADD SWAP2 PUSH1 0x20 DUP6 LT PUSH2 0x3C9E JUMPI JUMPDEST SWAP1 PUSH1 0x1F DUP6 SWAP5 SWAP4 SWAP3 ADD PUSH1 0x5 SHR ADD SWAP1 JUMPDEST DUP2 DUP2 LT PUSH2 0x3C90 JUMPI POP PUSH2 0x37A4 JUMP JUMPDEST PUSH0 DUP2 SSTORE DUP5 SWAP4 POP PUSH1 0x1 ADD PUSH2 0x3C83 JUMP JUMPDEST SWAP1 SWAP2 POP DUP2 SWAP1 PUSH2 0x3C75 JUMP JUMPDEST ADD MLOAD SWAP1 POP DUP7 DUP1 PUSH2 0x3760 JUMP JUMPDEST PUSH0 DUP6 DUP2 MSTORE DUP3 DUP2 KECCAK256 SWAP4 POP PUSH1 0x1F NOT DUP6 AND SWAP1 JUMPDEST DUP2 DUP2 LT PUSH2 0x3CFE JUMPI POP SWAP1 DUP5 PUSH1 0x1 SWAP6 SWAP5 SWAP4 SWAP3 LT PUSH2 0x3CE6 JUMPI JUMPDEST POP POP POP DUP2 SHL ADD SWAP1 SSTORE PUSH2 0x3774 JUMP JUMPDEST ADD MLOAD PUSH0 NOT PUSH1 0xF8 DUP5 PUSH1 0x3 SHL AND SHR NOT AND SWAP1 SSTORE DUP7 DUP1 DUP1 PUSH2 0x3CD9 JUMP JUMPDEST SWAP3 SWAP4 PUSH1 0x20 PUSH1 0x1 DUP2 SWAP3 DUP8 DUP7 ADD MLOAD DUP2 SSTORE ADD SWAP6 ADD SWAP4 ADD PUSH2 0x3CC3 JUMP JUMPDEST SWAP1 SWAP2 POP DUP4 PUSH0 MSTORE PUSH1 0x20 PUSH0 KECCAK256 PUSH1 0x1F DUP5 ADD PUSH1 0x5 SHR DUP2 ADD SWAP2 PUSH1 0x20 DUP6 LT PUSH2 0x3D5C JUMPI JUMPDEST SWAP1 PUSH1 0x1F DUP6 SWAP5 SWAP4 SWAP3 ADD PUSH1 0x5 SHR ADD SWAP1 JUMPDEST DUP2 DUP2 LT PUSH2 0x3D4E JUMPI POP PUSH2 0x374A JUMP JUMPDEST PUSH0 DUP2 SSTORE DUP5 SWAP4 POP PUSH1 0x1 ADD PUSH2 0x3D41 JUMP JUMPDEST SWAP1 SWAP2 POP DUP2 SWAP1 PUSH2 0x3D33 JUMP JUMPDEST ADD MLOAD SWAP1 POP DUP7 DUP1 PUSH2 0x3707 JUMP JUMPDEST PUSH0 DUP6 DUP2 MSTORE DUP3 DUP2 KECCAK256 SWAP4 POP PUSH1 0x1F NOT DUP6 AND SWAP1 JUMPDEST DUP2 DUP2 LT PUSH2 0x3DBC JUMPI POP SWAP1 DUP5 PUSH1 0x1 SWAP6 SWAP5 SWAP4 SWAP3 LT PUSH2 0x3DA4 JUMPI JUMPDEST POP POP POP DUP2 SHL ADD SWAP1 SSTORE PUSH2 0x371B JUMP JUMPDEST ADD MLOAD PUSH0 NOT PUSH1 0xF8 DUP5 PUSH1 0x3 SHL AND SHR NOT AND SWAP1 SSTORE DUP7 DUP1 DUP1 PUSH2 0x3D97 JUMP JUMPDEST SWAP3 SWAP4 PUSH1 0x20 PUSH1 0x1 DUP2 SWAP3 DUP8 DUP7 ADD MLOAD DUP2 SSTORE ADD SWAP6 ADD SWAP4 ADD PUSH2 0x3D81 JUMP JUMPDEST SWAP1 SWAP2 POP DUP4 PUSH0 MSTORE PUSH1 0x20 PUSH0 KECCAK256 PUSH1 0x1F DUP5 ADD PUSH1 0x5 SHR DUP2 ADD SWAP2 PUSH1 0x20 DUP6 LT PUSH2 0x3E1A JUMPI JUMPDEST SWAP1 PUSH1 0x1F DUP6 SWAP5 SWAP4 SWAP3 ADD PUSH1 0x5 SHR ADD SWAP1 JUMPDEST DUP2 DUP2 LT PUSH2 0x3E0C JUMPI POP PUSH2 0x36F1 JUMP JUMPDEST PUSH0 DUP2 SSTORE DUP5 SWAP4 POP PUSH1 0x1 ADD PUSH2 0x3DFF JUMP JUMPDEST SWAP1 SWAP2 POP DUP2 SWAP1 PUSH2 0x3DF1 JUMP JUMPDEST ADD MLOAD SWAP1 POP DUP8 DUP1 PUSH2 0x36B2 JUMP JUMPDEST PUSH0 DUP6 DUP2 MSTORE DUP3 DUP2 KECCAK256 SWAP4 POP PUSH1 0x1F NOT DUP6 AND SWAP1 JUMPDEST DUP2 DUP2 LT PUSH2 0x3E7A JUMPI POP SWAP1 DUP5 PUSH1 0x1 SWAP6 SWAP5 SWAP4 SWAP3 LT PUSH2 0x3E62 JUMPI JUMPDEST POP POP POP DUP2 SHL ADD SWAP1 SSTORE PUSH2 0x36C6 JUMP JUMPDEST ADD MLOAD PUSH0 NOT PUSH1 0xF8 DUP5 PUSH1 0x3 SHL AND SHR NOT AND SWAP1 SSTORE DUP8 DUP1 DUP1 PUSH2 0x3E55 JUMP JUMPDEST SWAP3 SWAP4 PUSH1 0x20 PUSH1 0x1 DUP2 SWAP3 DUP8 DUP7 ADD MLOAD DUP2 SSTORE ADD SWAP6 ADD SWAP4 ADD PUSH2 0x3E3F JUMP JUMPDEST SWAP1 SWAP2 POP DUP4 PUSH0 MSTORE PUSH1 0x20 PUSH0 KECCAK256 PUSH1 0x1F DUP5 ADD PUSH1 0x5 SHR DUP2 ADD SWAP2 PUSH1 0x20 DUP6 LT PUSH2 0x3ED8 JUMPI JUMPDEST SWAP1 PUSH1 0x1F DUP6 SWAP5 SWAP4 SWAP3 ADD PUSH1 0x5 SHR ADD SWAP1 JUMPDEST DUP2 DUP2 LT PUSH2 0x3ECA JUMPI POP PUSH2 0x369C JUMP JUMPDEST PUSH0 DUP2 SSTORE DUP5 SWAP4 POP PUSH1 0x1 ADD PUSH2 0x3EBD JUMP JUMPDEST SWAP1 SWAP2 POP DUP2 SWAP1 PUSH2 0x3EAF JUMP JUMPDEST ADD MLOAD SWAP1 POP DUP9 DUP1 PUSH2 0x365D JUMP JUMPDEST PUSH0 DUP6 DUP2 MSTORE DUP3 DUP2 KECCAK256 SWAP4 POP PUSH1 0x1F NOT DUP6 AND SWAP1 JUMPDEST DUP2 DUP2 LT PUSH2 0x3F38 JUMPI POP SWAP1 DUP5 PUSH1 0x1 SWAP6 SWAP5 SWAP4 SWAP3 LT PUSH2 0x3F20 JUMPI JUMPDEST POP POP POP DUP2 SHL ADD SWAP1 SSTORE PUSH2 0x3671 JUMP JUMPDEST ADD MLOAD PUSH0 NOT PUSH1 0xF8 DUP5 PUSH1 0x3 SHL AND SHR NOT AND SWAP1 SSTORE DUP9 DUP1 DUP1 PUSH2 0x3F13 JUMP JUMPDEST SWAP3 SWAP4 PUSH1 0x20 PUSH1 0x1 DUP2 SWAP3 DUP8 DUP7 ADD MLOAD DUP2 SSTORE ADD SWAP6 ADD SWAP4 ADD PUSH2 0x3EFD JUMP JUMPDEST SWAP1 SWAP2 POP DUP4 PUSH0 MSTORE PUSH1 0x20 PUSH0 KECCAK256 PUSH1 0x1F DUP5 ADD PUSH1 0x5 SHR DUP2 ADD SWAP2 PUSH1 0x20 DUP6 LT PUSH2 0x3F96 JUMPI JUMPDEST SWAP1 PUSH1 0x1F DUP6 SWAP5 SWAP4 SWAP3 ADD PUSH1 0x5 SHR ADD SWAP1 JUMPDEST DUP2 DUP2 LT PUSH2 0x3F88 JUMPI POP PUSH2 0x3647 JUMP JUMPDEST PUSH0 DUP2 SSTORE DUP5 SWAP4 POP PUSH1 0x1 ADD PUSH2 0x3F7B JUMP JUMPDEST SWAP1 SWAP2 POP DUP2 SWAP1 PUSH2 0x3F6D JUMP JUMPDEST ADD MLOAD SWAP1 POP DUP10 DUP1 PUSH2 0x3608 JUMP JUMPDEST PUSH0 DUP6 DUP2 MSTORE DUP3 DUP2 KECCAK256 SWAP4 POP PUSH1 0x1F NOT DUP6 AND SWAP1 JUMPDEST DUP2 DUP2 LT PUSH2 0x3FF6 JUMPI POP SWAP1 DUP5 PUSH1 0x1 SWAP6 SWAP5 SWAP4 SWAP3 LT PUSH2 0x3FDE JUMPI JUMPDEST POP POP POP DUP2 SHL ADD SWAP1 SSTORE PUSH2 0x361C JUMP JUMPDEST ADD MLOAD PUSH0 NOT PUSH1 0xF8 DUP5 PUSH1 0x3 SHL AND SHR NOT AND SWAP1 SSTORE DUP10 DUP1 DUP1 PUSH2 0x3FD1 JUMP JUMPDEST SWAP3 SWAP4 PUSH1 0x20 PUSH1 0x1 DUP2 SWAP3 DUP8 DUP7 ADD MLOAD DUP2 SSTORE ADD SWAP6 ADD SWAP4 ADD PUSH2 0x3FBB JUMP JUMPDEST SWAP1 SWAP2 POP DUP4 PUSH0 MSTORE PUSH1 0x20 PUSH0 KECCAK256 PUSH1 0x1F DUP5 ADD PUSH1 0x5 SHR DUP2 ADD SWAP2 PUSH1 0x20 DUP6 LT PUSH2 0x4054 JUMPI JUMPDEST SWAP1 PUSH1 0x1F DUP6 SWAP5 SWAP4 SWAP3 ADD PUSH1 0x5 SHR ADD SWAP1 JUMPDEST DUP2 DUP2 LT PUSH2 0x4046 JUMPI POP PUSH2 0x35F2 JUMP JUMPDEST PUSH0 DUP2 SSTORE DUP5 SWAP4 POP PUSH1 0x1 ADD PUSH2 0x4039 JUMP JUMPDEST SWAP1 SWAP2 POP DUP2 SWAP1 PUSH2 0x402B JUMP JUMPDEST ADD MLOAD SWAP1 POP DUP11 DUP1 PUSH2 0x35B3 JUMP JUMPDEST PUSH0 DUP6 DUP2 MSTORE DUP3 DUP2 KECCAK256 SWAP4 POP PUSH1 0x1F NOT DUP6 AND SWAP1 JUMPDEST DUP2 DUP2 LT PUSH2 0x40B4 JUMPI POP SWAP1 DUP5 PUSH1 0x1 SWAP6 SWAP5 SWAP4 SWAP3 LT PUSH2 0x409C JUMPI JUMPDEST POP POP POP DUP2 SHL ADD SWAP1 SSTORE PUSH2 0x35C7 JUMP JUMPDEST ADD MLOAD PUSH0 NOT PUSH1 0xF8 DUP5 PUSH1 0x3 SHL AND SHR NOT AND SWAP1 SSTORE DUP11 DUP1 DUP1 PUSH2 0x408F JUMP JUMPDEST SWAP3 SWAP4 PUSH1 0x20 PUSH1 0x1 DUP2 SWAP3 DUP8 DUP7 ADD MLOAD DUP2 SSTORE ADD SWAP6 ADD SWAP4 ADD PUSH2 0x4079 JUMP JUMPDEST SWAP1 SWAP2 POP DUP4 PUSH0 MSTORE PUSH1 0x20 PUSH0 KECCAK256 PUSH1 0x1F DUP5 ADD PUSH1 0x5 SHR DUP2 ADD SWAP2 PUSH1 0x20 DUP6 LT PUSH2 0x4112 JUMPI JUMPDEST SWAP1 PUSH1 0x1F DUP6 SWAP5 SWAP4 SWAP3 ADD PUSH1 0x5 SHR ADD SWAP1 JUMPDEST DUP2 DUP2 LT PUSH2 0x4104 JUMPI POP PUSH2 0x359D JUMP JUMPDEST PUSH0 DUP2 SSTORE DUP5 SWAP4 POP PUSH1 0x1 ADD PUSH2 0x40F7 JUMP JUMPDEST SWAP1 SWAP2 POP DUP2 SWAP1 PUSH2 0x40E9 JUMP JUMPDEST ADD MLOAD SWAP1 POP DUP12 DUP1 PUSH2 0x355E JUMP JUMPDEST PUSH0 DUP6 DUP2 MSTORE DUP3 DUP2 KECCAK256 SWAP4 POP PUSH1 0x1F NOT DUP6 AND SWAP1 JUMPDEST DUP2 DUP2 LT PUSH2 0x4172 JUMPI POP SWAP1 DUP5 PUSH1 0x1 SWAP6 SWAP5 SWAP4 SWAP3 LT PUSH2 0x415A JUMPI JUMPDEST POP POP POP DUP2 SHL ADD SWAP1 SSTORE PUSH2 0x3572 JUMP JUMPDEST ADD MLOAD PUSH0 NOT PUSH1 0xF8 DUP5 PUSH1 0x3 SHL AND SHR NOT AND SWAP1 SSTORE DUP12 DUP1 DUP1 PUSH2 0x414D JUMP JUMPDEST SWAP3 SWAP4 PUSH1 0x20 PUSH1 0x1 DUP2 SWAP3 DUP8 DUP7 ADD MLOAD DUP2 SSTORE ADD SWAP6 ADD SWAP4 ADD PUSH2 0x4137 JUMP JUMPDEST SWAP1 SWAP2 POP DUP4 PUSH0 MSTORE PUSH1 0x20 PUSH0 KECCAK256 PUSH1 0x1F DUP5 ADD PUSH1 0x5 SHR DUP2 ADD SWAP2 PUSH1 0x20 DUP6 LT PUSH2 0x41D0 JUMPI JUMPDEST SWAP1 PUSH1 0x1F DUP6 SWAP5 SWAP4 SWAP3 ADD PUSH1 0x5 SHR ADD SWAP1 JUMPDEST DUP2 DUP2 LT PUSH2 0x41C2 JUMPI POP PUSH2 0x3548 JUMP JUMPDEST PUSH0 DUP2 SSTORE DUP5 SWAP4 POP PUSH1 0x1 ADD PUSH2 0x41B5 JUMP JUMPDEST SWAP1 SWAP2 POP DUP2 SWAP1 PUSH2 0x41A7 JUMP JUMPDEST ADD MLOAD SWAP1 POP DUP12 DUP1 PUSH2 0x3509 JUMP JUMPDEST PUSH0 DUP13 DUP2 MSTORE DUP3 DUP2 KECCAK256 SWAP4 POP PUSH1 0x1F NOT DUP6 AND SWAP1 JUMPDEST DUP2 DUP2 LT PUSH2 0x4230 JUMPI POP SWAP1 DUP5 PUSH1 0x1 SWAP6 SWAP5 SWAP4 SWAP3 LT PUSH2 0x4218 JUMPI JUMPDEST POP POP POP DUP2 SHL ADD DUP9 SSTORE PUSH2 0x351D JUMP JUMPDEST ADD MLOAD PUSH0 NOT PUSH1 0xF8 DUP5 PUSH1 0x3 SHL AND SHR NOT AND SWAP1 SSTORE DUP12 DUP1 DUP1 PUSH2 0x420B JUMP JUMPDEST SWAP3 SWAP4 PUSH1 0x20 PUSH1 0x1 DUP2 SWAP3 DUP8 DUP7 ADD MLOAD DUP2 SSTORE ADD SWAP6 ADD SWAP4 ADD PUSH2 0x41F5 JUMP JUMPDEST SWAP1 SWAP2 POP DUP11 PUSH0 MSTORE PUSH1 0x20 PUSH0 KECCAK256 PUSH1 0x1F DUP5 ADD PUSH1 0x5 SHR DUP2 ADD SWAP2 PUSH1 0x20 DUP6 LT PUSH2 0x428E JUMPI JUMPDEST SWAP1 PUSH1 0x1F DUP6 SWAP5 SWAP4 SWAP3 ADD PUSH1 0x5 SHR ADD SWAP1 JUMPDEST DUP2 DUP2 LT PUSH2 0x4280 JUMPI POP PUSH2 0x34F3 JUMP JUMPDEST PUSH0 DUP2 SSTORE DUP5 SWAP4 POP PUSH1 0x1 ADD PUSH2 0x4273 JUMP JUMPDEST SWAP1 SWAP2 POP DUP2 SWAP1 PUSH2 0x4265 JUMP JUMPDEST PUSH1 0x40 MLOAD PUSH3 0x461BCD PUSH1 0xE5 SHL DUP2 MSTORE PUSH1 0x20 PUSH1 0x4 DUP3 ADD MSTORE PUSH1 0x18 PUSH1 0x24 DUP3 ADD MSTORE PUSH32 0x4E6F74206120726567697374657265642070617469656E740000000000000000 PUSH1 0x44 DUP3 ADD MSTORE PUSH1 0x64 SWAP1 REVERT JUMPDEST CALLVALUE PUSH2 0x195 JUMPI PUSH1 0x20 CALLDATASIZE PUSH1 0x3 NOT ADD SLT PUSH2 0x195 JUMPI PUSH1 0x1 PUSH1 0x1 PUSH1 0xA0 SHL SUB PUSH2 0x42FE PUSH2 0x51BF JUMP JUMPDEST AND PUSH0 MSTORE PUSH1 0x6 PUSH1 0x20 MSTORE PUSH1 0x20 PUSH2 0x100 PUSH1 0x40 PUSH0 KECCAK256 PUSH1 0x8 PUSH1 0x40 MLOAD SWAP2 PUSH2 0x431E DUP4 PUSH2 0x51F1 JUMP JUMPDEST DUP1 SLOAD PUSH1 0x1 PUSH1 0x1 PUSH1 0xA0 SHL SUB SWAP1 DUP2 AND DUP5 MSTORE PUSH1 0x1 DUP3 ADD SLOAD AND DUP6 DUP5 ADD MSTORE PUSH2 0x4343 PUSH1 0x2 DUP3 ADD PUSH2 0x5401 JUMP JUMPDEST PUSH1 0x40 DUP5 ADD MSTORE PUSH2 0x4354 PUSH1 0x3 DUP3 ADD PUSH2 0x5401 JUMP JUMPDEST PUSH1 0x60 DUP5 ADD MSTORE PUSH2 0x4365 PUSH1 0x4 DUP3 ADD PUSH2 0x5401 JUMP JUMPDEST PUSH1 0x80 DUP5 ADD MSTORE PUSH2 0x4376 PUSH1 0x5 DUP3 ADD PUSH2 0x5401 JUMP JUMPDEST PUSH1 0xA0 DUP5 ADD MSTORE PUSH2 0x4387 PUSH1 0x6 DUP3 ADD PUSH2 0x5401 JUMP JUMPDEST PUSH1 0xC0 DUP5 ADD MSTORE PUSH2 0x4398 PUSH1 0x7 DUP3 ADD PUSH2 0x5401 JUMP JUMPDEST PUSH1 0xE0 DUP5 ADD MSTORE ADD SLOAD SWAP2 DUP3 SWAP2 ADD MSTORE PUSH1 0x40 MLOAD SWAP1 DUP2 MSTORE RETURN JUMPDEST CALLVALUE PUSH2 0x195 JUMPI PUSH1 0x20 CALLDATASIZE PUSH1 0x3 NOT ADD SLT PUSH2 0x195 JUMPI PUSH2 0x43C5 PUSH2 0x51BF JUMP JUMPDEST CALLER PUSH0 MSTORE PUSH1 0x7 PUSH1 0x20 MSTORE PUSH1 0x40 PUSH0 KECCAK256 SWAP1 PUSH1 0x1 DUP1 PUSH1 0xA0 SHL SUB AND PUSH0 MSTORE PUSH1 0x20 MSTORE PUSH1 0x40 PUSH0 KECCAK256 PUSH1 0x1 PUSH1 0xFF NOT DUP3 SLOAD AND OR SWAP1 SSTORE PUSH2 0x43F9 PUSH1 0xE SLOAD PUSH2 0x5681 JUMP JUMPDEST PUSH1 0xE SSTORE PUSH1 0x20 PUSH1 0x40 MLOAD PUSH1 0x1 DUP2 MSTORE RETURN JUMPDEST CALLVALUE PUSH2 0x195 JUMPI PUSH1 0x20 CALLDATASIZE PUSH1 0x3 NOT ADD SLT PUSH2 0x195 JUMPI PUSH1 0x1 PUSH1 0x1 PUSH1 0xA0 SHL SUB PUSH2 0x4428 PUSH2 0x51BF JUMP JUMPDEST AND PUSH0 DUP2 DUP2 MSTORE PUSH1 0x7 PUSH1 0x20 SWAP1 DUP2 MSTORE PUSH1 0x40 DUP1 DUP4 KECCAK256 CALLER DUP5 MSTORE SWAP1 SWAP2 MSTORE SWAP1 KECCAK256 SLOAD PUSH2 0x444E SWAP1 PUSH1 0xFF AND PUSH2 0x56A3 JUMP JUMPDEST PUSH0 MSTORE PUSH1 0x4 PUSH1 0x20 MSTORE PUSH1 0x40 PUSH0 KECCAK256 PUSH1 0x40 MLOAD PUSH2 0x4465 DUP2 PUSH2 0x51D5 JUMP JUMPDEST PUSH2 0x446E DUP3 PUSH2 0x5401 JUMP JUMPDEST DUP2 MSTORE PUSH2 0x357 PUSH2 0x447F PUSH1 0x1 DUP5 ADD PUSH2 0x5401 JUMP JUMPDEST SWAP2 PUSH1 0x20 DUP2 ADD SWAP3 DUP4 MSTORE PUSH2 0x4493 PUSH1 0x2 DUP6 ADD PUSH2 0x5401 JUMP JUMPDEST SWAP4 PUSH1 0x40 DUP3 ADD SWAP5 DUP6 MSTORE PUSH2 0x44A7 PUSH1 0x3 DUP3 ADD PUSH2 0x5401 JUMP JUMPDEST SWAP2 PUSH1 0x60 DUP2 ADD SWAP3 DUP4 MSTORE PUSH2 0x44BB PUSH1 0x4 DUP4 ADD PUSH2 0x5401 JUMP JUMPDEST PUSH1 0x80 DUP3 ADD SWAP1 DUP2 MSTORE PUSH2 0x44CE PUSH1 0x5 DUP5 ADD PUSH2 0x5401 JUMP JUMPDEST SWAP2 PUSH1 0xA0 DUP2 ADD SWAP3 DUP4 MSTORE PUSH1 0xE PUSH2 0x44E4 PUSH1 0x6 DUP7 ADD PUSH2 0x5401 JUMP JUMPDEST SWAP5 PUSH1 0xC0 DUP4 ADD SWAP6 DUP7 MSTORE PUSH2 0x44F8 PUSH1 0x7 DUP3 ADD PUSH2 0x5401 JUMP JUMPDEST PUSH1 0xE0 DUP5 ADD MSTORE PUSH2 0x4509 PUSH1 0x8 DUP3 ADD PUSH2 0x5401 JUMP JUMPDEST PUSH2 0x100 DUP5 ADD MSTORE PUSH2 0x451B PUSH1 0x9 DUP3 ADD PUSH2 0x5401 JUMP JUMPDEST PUSH2 0x120 DUP5 ADD MSTORE PUSH2 0x452D PUSH1 0xA DUP3 ADD PUSH2 0x5401 JUMP JUMPDEST PUSH2 0x140 DUP5 ADD MSTORE PUSH2 0x453F PUSH1 0xB DUP3 ADD PUSH2 0x5401 JUMP JUMPDEST PUSH2 0x160 DUP5 ADD MSTORE PUSH2 0x4551 PUSH1 0xC DUP3 ADD PUSH2 0x5401 JUMP JUMPDEST PUSH2 0x180 DUP5 ADD MSTORE PUSH1 0xD DUP2 ADD SLOAD PUSH1 0x1 PUSH1 0x1 PUSH1 0xA0 SHL SUB AND PUSH2 0x1A0 DUP5 ADD MSTORE ADD SLOAD PUSH2 0x1C0 DUP3 ADD MSTORE MLOAD SWAP6 MLOAD SWAP7 MLOAD SWAP4 MLOAD SWAP1 MLOAD SWAP2 MLOAD SWAP3 MLOAD PUSH1 0x40 MLOAD SWAP8 DUP9 SWAP8 SWAP2 SWAP6 SWAP2 DUP9 PUSH2 0x551C JUMP JUMPDEST CALLVALUE PUSH2 0x195 JUMPI PUSH1 0x20 CALLDATASIZE PUSH1 0x3 NOT ADD SLT PUSH2 0x195 JUMPI PUSH1 0x1 PUSH1 0x1 PUSH1 0xA0 SHL SUB PUSH2 0x45B0 PUSH2 0x51BF JUMP JUMPDEST AND PUSH0 DUP2 DUP2 MSTORE PUSH1 0x7 PUSH1 0x20 SWAP1 DUP2 MSTORE PUSH1 0x40 DUP1 DUP4 KECCAK256 CALLER DUP5 MSTORE SWAP1 SWAP2 MSTORE SWAP1 KECCAK256 SLOAD PUSH2 0x45D6 SWAP1 PUSH1 0xFF AND PUSH2 0x56A3 JUMP JUMPDEST PUSH0 MSTORE PUSH1 0x4 PUSH1 0x20 MSTORE PUSH2 0x4727 PUSH1 0x40 PUSH0 KECCAK256 PUSH2 0x357 PUSH1 0x40 MLOAD SWAP2 PUSH2 0x45F4 DUP4 PUSH2 0x51D5 JUMP JUMPDEST PUSH2 0x45FD DUP2 PUSH2 0x5401 JUMP JUMPDEST DUP4 MSTORE PUSH2 0x460B PUSH1 0x1 DUP3 ADD PUSH2 0x5401 JUMP JUMPDEST PUSH1 0x20 DUP5 ADD MSTORE PUSH2 0x461C PUSH1 0x2 DUP3 ADD PUSH2 0x5401 JUMP JUMPDEST PUSH1 0x40 DUP5 ADD MSTORE PUSH2 0x462D PUSH1 0x3 DUP3 ADD PUSH2 0x5401 JUMP JUMPDEST PUSH1 0x60 DUP5 ADD MSTORE PUSH2 0x463E PUSH1 0x4 DUP3 ADD PUSH2 0x5401 JUMP JUMPDEST PUSH1 0x80 DUP5 ADD MSTORE PUSH2 0x464F PUSH1 0x5 DUP3 ADD PUSH2 0x5401 JUMP JUMPDEST PUSH1 0xA0 DUP5 ADD MSTORE PUSH2 0x4660 PUSH1 0x6 DUP3 ADD PUSH2 0x5401 JUMP JUMPDEST PUSH1 0xC0 DUP5 ADD MSTORE PUSH2 0x475F PUSH2 0x4674 PUSH1 0x7 DUP4 ADD PUSH2 0x5401 JUMP JUMPDEST PUSH1 0xE0 DUP6 ADD SWAP1 DUP2 MSTORE PUSH2 0x4751 PUSH2 0x468A PUSH1 0x8 DUP6 ADD PUSH2 0x5401 JUMP JUMPDEST SWAP6 PUSH2 0x100 DUP2 ADD SWAP7 DUP8 MSTORE PUSH2 0x4743 PUSH2 0x46A2 PUSH1 0x9 DUP8 ADD PUSH2 0x5401 JUMP JUMPDEST SWAP4 PUSH2 0x120 DUP4 ADD SWAP5 DUP6 MSTORE PUSH2 0x4735 PUSH2 0x46BA PUSH1 0xA DUP10 ADD PUSH2 0x5401 JUMP JUMPDEST SWAP2 PUSH2 0x140 DUP6 ADD SWAP3 DUP4 MSTORE PUSH2 0x46CF PUSH1 0xB DUP11 ADD PUSH2 0x5401 JUMP JUMPDEST SWAP5 PUSH2 0x160 DUP2 ADD SWAP6 DUP7 MSTORE PUSH2 0x1C0 PUSH1 0xE PUSH2 0x46E9 PUSH1 0xC DUP14 ADD PUSH2 0x5401 JUMP JUMPDEST SWAP12 DUP13 PUSH2 0x180 DUP6 ADD MSTORE PUSH1 0x1 DUP1 PUSH1 0xA0 SHL SUB PUSH1 0xD DUP3 ADD SLOAD AND PUSH2 0x1A0 DUP6 ADD MSTORE ADD SLOAD SWAP2 ADD MSTORE MLOAD SWAP10 MLOAD SWAP6 MLOAD SWAP2 MLOAD SWAP4 MLOAD SWAP6 PUSH1 0x40 MLOAD SWAP12 DUP13 SWAP12 PUSH1 0xC0 DUP14 MSTORE PUSH1 0xC0 DUP14 ADD SWAP1 PUSH2 0x54A1 JUMP JUMPDEST SWAP1 DUP12 DUP3 SUB PUSH1 0x20 DUP14 ADD MSTORE PUSH2 0x54A1 JUMP JUMPDEST SWAP1 DUP10 DUP3 SUB PUSH1 0x40 DUP12 ADD MSTORE PUSH2 0x54A1 JUMP JUMPDEST SWAP1 DUP8 DUP3 SUB PUSH1 0x60 DUP10 ADD MSTORE PUSH2 0x54A1 JUMP JUMPDEST SWAP1 DUP6 DUP3 SUB PUSH1 0x80 DUP8 ADD MSTORE PUSH2 0x54A1 JUMP JUMPDEST SWAP1 DUP4 DUP3 SUB PUSH1 0xA0 DUP6 ADD MSTORE PUSH2 0x54A1 JUMP JUMPDEST CALLVALUE PUSH2 0x195 JUMPI PUSH0 CALLDATASIZE PUSH1 0x3 NOT ADD SLT PUSH2 0x195 JUMPI PUSH1 0x40 MLOAD DUP1 PUSH1 0x20 PUSH1 0x1 SLOAD SWAP2 DUP3 DUP2 MSTORE ADD SWAP1 PUSH1 0x1 PUSH0 MSTORE PUSH32 0xB10E2D527612073B26EECDFD717E6A320CF44B4AFAC2B0732D9FCBE2B7FA0CF6 SWAP1 PUSH0 JUMPDEST DUP2 DUP2 LT PUSH2 0x47CB JUMPI PUSH2 0x357 DUP6 PUSH2 0xC85 DUP2 DUP8 SUB DUP3 PUSH2 0x520D JUMP JUMPDEST DUP3 SLOAD PUSH1 0x1 PUSH1 0x1 PUSH1 0xA0 SHL SUB AND DUP5 MSTORE PUSH1 0x20 SWAP1 SWAP4 ADD SWAP3 PUSH1 0x1 SWAP3 DUP4 ADD SWAP3 ADD PUSH2 0x47B4 JUMP JUMPDEST CALLVALUE PUSH2 0x195 JUMPI PUSH1 0x20 CALLDATASIZE PUSH1 0x3 NOT ADD SLT PUSH2 0x195 JUMPI PUSH1 0x4 CALLDATALOAD PUSH1 0x2 SLOAD DUP2 LT ISZERO PUSH2 0x195 JUMPI PUSH1 0x2 SLOAD DUP2 LT ISZERO PUSH2 0x235 JUMPI PUSH1 0x2 PUSH0 MSTORE PUSH32 0x405787FA12A823E0F2B7631CC41B3BA8828B3321CA811111FA75CD3AA3BB5ACE ADD SLOAD PUSH1 0x40 MLOAD PUSH1 0x1 PUSH1 0x1 PUSH1 0xA0 SHL SUB SWAP1 SWAP2 AND DUP2 MSTORE PUSH1 0x20 SWAP1 RETURN JUMPDEST CALLVALUE PUSH2 0x195 JUMPI PUSH1 0x20 CALLDATASIZE PUSH1 0x3 NOT ADD SLT PUSH2 0x195 JUMPI PUSH1 0x1 PUSH1 0x1 PUSH1 0xA0 SHL SUB PUSH2 0x486F PUSH2 0x51BF JUMP JUMPDEST AND PUSH0 MSTORE PUSH1 0x4 PUSH1 0x20 MSTORE PUSH1 0x40 PUSH0 KECCAK256 PUSH2 0x4884 DUP2 PUSH2 0x5401 JUMP JUMPDEST SWAP1 PUSH2 0x4891 PUSH1 0x1 DUP3 ADD PUSH2 0x5401 JUMP JUMPDEST SWAP1 PUSH2 0x489E PUSH1 0x2 DUP3 ADD PUSH2 0x5401 JUMP JUMPDEST PUSH2 0x48AA PUSH1 0x3 DUP4 ADD PUSH2 0x5401 JUMP JUMPDEST PUSH2 0x48B6 PUSH1 0x4 DUP5 ADD PUSH2 0x5401 JUMP JUMPDEST PUSH2 0x48C2 PUSH1 0x5 DUP6 ADD PUSH2 0x5401 JUMP JUMPDEST PUSH2 0x48CE PUSH1 0x6 DUP7 ADD PUSH2 0x5401 JUMP JUMPDEST PUSH2 0x48DA PUSH1 0x7 DUP8 ADD PUSH2 0x5401 JUMP JUMPDEST PUSH2 0x48E6 PUSH1 0x8 DUP9 ADD PUSH2 0x5401 JUMP JUMPDEST SWAP1 PUSH2 0x48F3 PUSH1 0x9 DUP10 ADD PUSH2 0x5401 JUMP JUMPDEST SWAP3 PUSH2 0x4900 PUSH1 0xA DUP11 ADD PUSH2 0x5401 JUMP JUMPDEST SWAP5 PUSH2 0x490D PUSH1 0xB DUP12 ADD PUSH2 0x5401 JUMP JUMPDEST SWAP7 PUSH2 0x491A PUSH1 0xC DUP13 ADD PUSH2 0x5401 JUMP JUMPDEST SWAP9 PUSH1 0x1 PUSH1 0xA0 SHL PUSH1 0x1 SWAP1 SUB PUSH1 0xD DUP14 ADD SLOAD AND SWAP12 PUSH1 0xE ADD SLOAD SWAP11 PUSH1 0x40 MLOAD SWAP15 DUP16 SWAP15 DUP16 SWAP2 PUSH2 0x1E0 DUP4 MSTORE PUSH2 0x1E0 DUP4 ADD PUSH2 0x494B SWAP2 PUSH2 0x54A1 JUMP JUMPDEST DUP3 DUP2 SUB PUSH1 0x20 DUP5 ADD MSTORE PUSH2 0x495C SWAP2 PUSH2 0x54A1 JUMP JUMPDEST SWAP1 DUP1 DUP3 SUB SWAP1 PUSH1 0x40 ADD MSTORE PUSH2 0x496E SWAP2 PUSH2 0x54A1 JUMP JUMPDEST DUP14 DUP2 SUB PUSH1 0x60 DUP16 ADD MSTORE PUSH2 0x497F SWAP2 PUSH2 0x54A1 JUMP JUMPDEST DUP13 DUP2 SUB PUSH1 0x80 DUP15 ADD MSTORE PUSH2 0x4990 SWAP2 PUSH2 0x54A1 JUMP JUMPDEST DUP12 DUP2 SUB PUSH1 0xA0 DUP14 ADD MSTORE PUSH2 0x49A1 SWAP2 PUSH2 0x54A1 JUMP JUMPDEST DUP11 DUP2 SUB PUSH1 0xC0 DUP13 ADD MSTORE PUSH2 0x49B2 SWAP2 PUSH2 0x54A1 JUMP JUMPDEST DUP10 DUP2 SUB PUSH1 0xE0 DUP12 ADD MSTORE PUSH2 0x49C3 SWAP2 PUSH2 0x54A1 JUMP JUMPDEST DUP9 DUP2 SUB PUSH2 0x100 DUP11 ADD MSTORE PUSH2 0x49D5 SWAP2 PUSH2 0x54A1 JUMP JUMPDEST DUP8 DUP2 SUB PUSH2 0x120 DUP10 ADD MSTORE PUSH2 0x49E7 SWAP2 PUSH2 0x54A1 JUMP JUMPDEST DUP7 DUP2 SUB PUSH2 0x140 DUP9 ADD MSTORE PUSH2 0x49F9 SWAP2 PUSH2 0x54A1 JUMP JUMPDEST DUP6 DUP2 SUB PUSH2 0x160 DUP8 ADD MSTORE PUSH2 0x4A0B SWAP2 PUSH2 0x54A1 JUMP JUMPDEST DUP5 DUP2 SUB PUSH2 0x180 DUP7 ADD MSTORE PUSH2 0x4A1D SWAP2 PUSH2 0x54A1 JUMP JUMPDEST SWAP2 PUSH2 0x1A0 DUP5 ADD MSTORE PUSH2 0x1C0 DUP4 ADD MSTORE SUB SWAP1 RETURN JUMPDEST CALLVALUE PUSH2 0x195 JUMPI PUSH2 0x4A3C CALLDATASIZE PUSH2 0x5283 JUMP JUMPDEST SWAP1 CALLER PUSH0 MSTORE PUSH1 0x9 PUSH1 0x20 MSTORE PUSH1 0xFF PUSH1 0x40 PUSH0 KECCAK256 SLOAD AND ISZERO PUSH2 0x516E JUMPI PUSH1 0x1 PUSH1 0x1 PUSH1 0xA0 SHL SUB AND PUSH0 DUP2 DUP2 MSTORE PUSH1 0x6 PUSH1 0x20 MSTORE PUSH1 0x40 SWAP1 KECCAK256 DUP1 SLOAD PUSH1 0x1 PUSH1 0x1 PUSH1 0xA0 SHL SUB NOT SWAP1 DUP2 AND CALLER OR DUP3 SSTORE PUSH1 0x1 DUP3 ADD DUP1 SLOAD SWAP1 SWAP2 AND DUP4 OR SWAP1 SSTORE DUP3 MLOAD DUP1 MLOAD SWAP2 SWAP4 SWAP2 PUSH1 0x2 DUP6 ADD SWAP2 PUSH1 0x1 PUSH1 0x1 PUSH1 0x40 SHL SUB DUP3 GT PUSH2 0x668 JUMPI DUP2 SWAP1 PUSH2 0x4AAD DUP5 SLOAD PUSH2 0x53C9 JUMP JUMPDEST PUSH1 0x1F DUP2 GT PUSH2 0x511E JUMPI JUMPDEST POP PUSH1 0x20 SWAP1 PUSH1 0x1F DUP4 GT PUSH1 0x1 EQ PUSH2 0x50BB JUMPI PUSH0 SWAP3 PUSH2 0x50B0 JUMPI JUMPDEST POP POP DUP2 PUSH1 0x1 SHL SWAP2 PUSH0 NOT SWAP1 PUSH1 0x3 SHL SHR NOT AND OR SWAP1 SSTORE JUMPDEST PUSH1 0x20 DUP2 ADD MLOAD DUP1 MLOAD PUSH1 0x3 DUP6 ADD SWAP2 PUSH1 0x1 PUSH1 0x1 PUSH1 0x40 SHL SUB DUP3 GT PUSH2 0x668 JUMPI DUP2 SWAP1 PUSH2 0x4B06 DUP5 SLOAD PUSH2 0x53C9 JUMP JUMPDEST PUSH1 0x1F DUP2 GT PUSH2 0x5060 JUMPI JUMPDEST POP PUSH1 0x20 SWAP1 PUSH1 0x1F DUP4 GT PUSH1 0x1 EQ PUSH2 0x4FFD JUMPI PUSH0 SWAP3 PUSH2 0x4FF2 JUMPI JUMPDEST POP POP DUP2 PUSH1 0x1 SHL SWAP2 PUSH0 NOT SWAP1 PUSH1 0x3 SHL SHR NOT AND OR SWAP1 SSTORE JUMPDEST PUSH1 0x80 DUP2 ADD MLOAD DUP1 MLOAD PUSH1 0x6 DUP6 ADD SWAP2 PUSH1 0x1 PUSH1 0x1 PUSH1 0x40 SHL SUB DUP3 GT PUSH2 0x668 JUMPI DUP2 SWAP1 PUSH2 0x4B5F DUP5 SLOAD PUSH2 0x53C9 JUMP JUMPDEST PUSH1 0x1F DUP2 GT PUSH2 0x4FA2 JUMPI JUMPDEST POP PUSH1 0x20 SWAP1 PUSH1 0x1F DUP4 GT PUSH1 0x1 EQ PUSH2 0x4F3F JUMPI PUSH0 SWAP3 PUSH2 0x4F34 JUMPI JUMPDEST POP POP DUP2 PUSH1 0x1 SHL SWAP2 PUSH0 NOT SWAP1 PUSH1 0x3 SHL SHR NOT AND OR SWAP1 SSTORE JUMPDEST PUSH1 0x40 DUP2 ADD MLOAD DUP1 MLOAD PUSH1 0x4 DUP6 ADD SWAP2 PUSH1 0x1 PUSH1 0x1 PUSH1 0x40 SHL SUB DUP3 GT PUSH2 0x668 JUMPI DUP2 SWAP1 PUSH2 0x4BB8 DUP5 SLOAD PUSH2 0x53C9 JUMP JUMPDEST PUSH1 0x1F DUP2 GT PUSH2 0x4EE4 JUMPI JUMPDEST POP PUSH1 0x20 SWAP1 PUSH1 0x1F DUP4 GT PUSH1 0x1 EQ PUSH2 0x4E81 JUMPI PUSH0 SWAP3 PUSH2 0x4E76 JUMPI JUMPDEST POP POP DUP2 PUSH1 0x1 SHL SWAP2 PUSH0 NOT SWAP1 PUSH1 0x3 SHL SHR NOT AND OR SWAP1 SSTORE JUMPDEST PUSH1 0x60 DUP2 ADD MLOAD DUP1 MLOAD PUSH1 0x5 DUP6 ADD SWAP2 PUSH1 0x1 PUSH1 0x1 PUSH1 0x40 SHL SUB DUP3 GT PUSH2 0x668 JUMPI PUSH2 0x4C0F DUP4 SLOAD PUSH2 0x53C9 JUMP JUMPDEST PUSH1 0x1F DUP2 GT PUSH2 0x4E31 JUMPI JUMPDEST POP PUSH1 0x20 SWAP1 PUSH1 0x1F DUP4 GT PUSH1 0x1 EQ PUSH2 0x4DCA JUMPI PUSH1 0xA0 SWAP5 SWAP4 SWAP3 SWAP2 PUSH0 SWAP2 DUP4 PUSH2 0x4DBF JUMPI JUMPDEST POP POP DUP2 PUSH1 0x1 SHL SWAP2 PUSH0 NOT SWAP1 PUSH1 0x3 SHL SHR NOT AND OR SWAP1 SSTORE JUMPDEST ADD MLOAD SWAP2 PUSH1 0x7 DUP2 ADD DUP4 MLOAD PUSH1 0x1 PUSH1 0x1 PUSH1 0x40 SHL SUB DUP2 GT PUSH2 0x668 JUMPI PUSH2 0x4C6A DUP3 SLOAD PUSH2 0x53C9 JUMP JUMPDEST PUSH1 0x1F DUP2 GT PUSH2 0x4D7A JUMPI JUMPDEST POP PUSH1 0x20 SWAP5 PUSH1 0x1F DUP3 GT PUSH1 0x1 EQ PUSH2 0x4D19 JUMPI SWAP5 DUP2 SWAP3 SWAP4 SWAP5 SWAP6 PUSH0 SWAP3 PUSH2 0x4D0E JUMPI JUMPDEST POP POP DUP2 PUSH1 0x1 SHL SWAP2 PUSH0 NOT SWAP1 PUSH1 0x3 SHL SHR NOT AND OR SWAP1 SSTORE JUMPDEST PUSH1 0x8 TIMESTAMP SWAP2 ADD SSTORE PUSH1 0x3 SLOAD PUSH1 0x1 PUSH1 0x40 SHL DUP2 LT ISZERO PUSH2 0x668 JUMPI DUP1 PUSH1 0x1 PUSH2 0x4CCA SWAP3 ADD PUSH1 0x3 SSTORE PUSH1 0x3 PUSH2 0x54C5 JUMP JUMPDEST DUP2 SLOAD PUSH1 0x1 PUSH1 0x1 PUSH1 0xA0 SHL SUB PUSH1 0x3 SWAP3 SWAP1 SWAP3 SHL SWAP2 DUP3 SHL NOT AND SWAP1 DUP4 SWAP1 SHL OR SWAP1 SSTORE PUSH1 0xD SLOAD PUSH2 0x4CF2 SWAP1 PUSH2 0x5681 JUMP JUMPDEST PUSH1 0xD SSTORE PUSH0 MSTORE PUSH1 0xA PUSH1 0x20 MSTORE PUSH1 0x40 PUSH0 KECCAK256 PUSH2 0x4D0A DUP2 SLOAD PUSH2 0x5681 JUMP JUMPDEST SWAP1 SSTORE STOP JUMPDEST ADD MLOAD SWAP1 POP DUP6 DUP1 PUSH2 0x4C8F JUMP JUMPDEST PUSH1 0x1F NOT DUP3 AND SWAP6 DUP4 PUSH0 MSTORE DUP1 PUSH0 KECCAK256 SWAP2 PUSH0 JUMPDEST DUP9 DUP2 LT PUSH2 0x4D62 JUMPI POP DUP4 PUSH1 0x1 SWAP6 SWAP7 SWAP8 SWAP9 LT PUSH2 0x4D4A JUMPI JUMPDEST POP POP POP DUP2 SHL ADD SWAP1 SSTORE PUSH2 0x4CA3 JUMP JUMPDEST ADD MLOAD PUSH0 NOT PUSH1 0xF8 DUP5 PUSH1 0x3 SHL AND SHR NOT AND SWAP1 SSTORE DUP6 DUP1 DUP1 PUSH2 0x4D3D JUMP JUMPDEST SWAP2 SWAP3 PUSH1 0x20 PUSH1 0x1 DUP2 SWAP3 DUP7 DUP6 ADD MLOAD DUP2 SSTORE ADD SWAP5 ADD SWAP3 ADD PUSH2 0x4D28 JUMP JUMPDEST DUP3 PUSH0 MSTORE PUSH1 0x20 PUSH0 KECCAK256 PUSH1 0x1F DUP4 ADD PUSH1 0x5 SHR DUP2 ADD SWAP2 PUSH1 0x20 DUP5 LT PUSH2 0x4DB5 JUMPI JUMPDEST PUSH1 0x1F ADD PUSH1 0x5 SHR ADD SWAP1 JUMPDEST DUP2 DUP2 LT PUSH2 0x4DAA JUMPI POP PUSH2 0x4C73 JUMP JUMPDEST PUSH0 DUP2 SSTORE PUSH1 0x1 ADD PUSH2 0x4D9D JUMP JUMPDEST SWAP1 SWAP2 POP DUP2 SWAP1 PUSH2 0x4D94 JUMP JUMPDEST ADD MLOAD SWAP1 POP DUP8 DUP1 PUSH2 0x4C35 JUMP JUMPDEST SWAP1 PUSH1 0x1F NOT DUP4 AND SWAP2 DUP5 PUSH0 MSTORE DUP2 PUSH0 KECCAK256 SWAP3 PUSH0 JUMPDEST DUP2 DUP2 LT PUSH2 0x4E19 JUMPI POP SWAP2 PUSH1 0x1 SWAP4 SWAP2 DUP6 PUSH1 0xA0 SWAP9 SWAP8 SWAP7 SWAP5 LT PUSH2 0x4E01 JUMPI JUMPDEST POP POP POP DUP2 SHL ADD SWAP1 SSTORE PUSH2 0x4C49 JUMP JUMPDEST ADD MLOAD PUSH0 NOT PUSH1 0xF8 DUP5 PUSH1 0x3 SHL AND SHR NOT AND SWAP1 SSTORE DUP8 DUP1 DUP1 PUSH2 0x4DF4 JUMP JUMPDEST SWAP3 SWAP4 PUSH1 0x20 PUSH1 0x1 DUP2 SWAP3 DUP8 DUP7 ADD MLOAD DUP2 SSTORE ADD SWAP6 ADD SWAP4 ADD PUSH2 0x4DDA JUMP JUMPDEST DUP4 PUSH0 MSTORE PUSH1 0x20 PUSH0 KECCAK256 PUSH1 0x1F DUP5 ADD PUSH1 0x5 SHR DUP2 ADD SWAP2 PUSH1 0x20 DUP6 LT PUSH2 0x4E6C JUMPI JUMPDEST PUSH1 0x1F ADD PUSH1 0x5 SHR ADD SWAP1 JUMPDEST DUP2 DUP2 LT PUSH2 0x4E61 JUMPI POP PUSH2 0x4C18 JUMP JUMPDEST PUSH0 DUP2 SSTORE PUSH1 0x1 ADD PUSH2 0x4E54 JUMP JUMPDEST SWAP1 SWAP2 POP DUP2 SWAP1 PUSH2 0x4E4B JUMP JUMPDEST ADD MLOAD SWAP1 POP DUP7 DUP1 PUSH2 0x4BD7 JUMP JUMPDEST PUSH0 DUP6 DUP2 MSTORE DUP3 DUP2 KECCAK256 SWAP4 POP PUSH1 0x1F NOT DUP6 AND SWAP1 JUMPDEST DUP2 DUP2 LT PUSH2 0x4ECC JUMPI POP SWAP1 DUP5 PUSH1 0x1 SWAP6 SWAP5 SWAP4 SWAP3 LT PUSH2 0x4EB4 JUMPI JUMPDEST POP POP POP DUP2 SHL ADD SWAP1 SSTORE PUSH2 0x4BEB JUMP JUMPDEST ADD MLOAD PUSH0 NOT PUSH1 0xF8 DUP5 PUSH1 0x3 SHL AND SHR NOT AND SWAP1 SSTORE DUP7 DUP1 DUP1 PUSH2 0x4EA7 JUMP JUMPDEST SWAP3 SWAP4 PUSH1 0x20 PUSH1 0x1 DUP2 SWAP3 DUP8 DUP7 ADD MLOAD DUP2 SSTORE ADD SWAP6 ADD SWAP4 ADD PUSH2 0x4E91 JUMP JUMPDEST SWAP1 SWAP2 POP DUP4 PUSH0 MSTORE PUSH1 0x20 PUSH0 KECCAK256 PUSH1 0x1F DUP5 ADD PUSH1 0x5 SHR DUP2 ADD SWAP2 PUSH1 0x20 DUP6 LT PUSH2 0x4F2A JUMPI JUMPDEST SWAP1 PUSH1 0x1F DUP6 SWAP5 SWAP4 SWAP3 ADD PUSH1 0x5 SHR ADD SWAP1 JUMPDEST DUP2 DUP2 LT PUSH2 0x4F1C JUMPI POP PUSH2 0x4BC1 JUMP JUMPDEST PUSH0 DUP2 SSTORE DUP5 SWAP4 POP PUSH1 0x1 ADD PUSH2 0x4F0F JUMP JUMPDEST SWAP1 SWAP2 POP DUP2 SWAP1 PUSH2 0x4F01 JUMP JUMPDEST ADD MLOAD SWAP1 POP DUP7 DUP1 PUSH2 0x4B7E JUMP JUMPDEST PUSH0 DUP6 DUP2 MSTORE DUP3 DUP2 KECCAK256 SWAP4 POP PUSH1 0x1F NOT DUP6 AND SWAP1 JUMPDEST DUP2 DUP2 LT PUSH2 0x4F8A JUMPI POP SWAP1 DUP5 PUSH1 0x1 SWAP6 SWAP5 SWAP4 SWAP3 LT PUSH2 0x4F72 JUMPI JUMPDEST POP POP POP DUP2 SHL ADD SWAP1 SSTORE PUSH2 0x4B92 JUMP JUMPDEST ADD MLOAD PUSH0 NOT PUSH1 0xF8 DUP5 PUSH1 0x3 SHL AND SHR NOT AND SWAP1 SSTORE DUP7 DUP1 DUP1 PUSH2 0x4F65 JUMP JUMPDEST SWAP3 SWAP4 PUSH1 0x20 PUSH1 0x1 DUP2 SWAP3 DUP8 DUP7 ADD MLOAD DUP2 SSTORE ADD SWAP6 ADD SWAP4 ADD PUSH2 0x4F4F JUMP JUMPDEST SWAP1 SWAP2 POP DUP4 PUSH0 MSTORE PUSH1 0x20 PUSH0 KECCAK256 PUSH1 0x1F DUP5 ADD PUSH1 0x5 SHR DUP2 ADD SWAP2 PUSH1 0x20 DUP6 LT PUSH2 0x4FE8 JUMPI JUMPDEST SWAP1 PUSH1 0x1F DUP6 SWAP5 SWAP4 SWAP3 ADD PUSH1 0x5 SHR ADD SWAP1 JUMPDEST DUP2 DUP2 LT PUSH2 0x4FDA JUMPI POP PUSH2 0x4B68 JUMP JUMPDEST PUSH0 DUP2 SSTORE DUP5 SWAP4 POP PUSH1 0x1 ADD PUSH2 0x4FCD JUMP JUMPDEST SWAP1 SWAP2 POP DUP2 SWAP1 PUSH2 0x4FBF JUMP JUMPDEST ADD MLOAD SWAP1 POP DUP7 DUP1 PUSH2 0x4B25 JUMP JUMPDEST PUSH0 DUP6 DUP2 MSTORE DUP3 DUP2 KECCAK256 SWAP4 POP PUSH1 0x1F NOT DUP6 AND SWAP1 JUMPDEST DUP2 DUP2 LT PUSH2 0x5048 JUMPI POP SWAP1 DUP5 PUSH1 0x1 SWAP6 SWAP5 SWAP4 SWAP3 LT PUSH2 0x5030 JUMPI JUMPDEST POP POP POP DUP2 SHL ADD SWAP1 SSTORE PUSH2 0x4B39 JUMP JUMPDEST ADD MLOAD PUSH0 NOT PUSH1 0xF8 DUP5 PUSH1 0x3 SHL AND SHR NOT AND SWAP1 SSTORE DUP7 DUP1 DUP1 PUSH2 0x5023 JUMP JUMPDEST SWAP3 SWAP4 PUSH1 0x20 PUSH1 0x1 DUP2 SWAP3 DUP8 DUP7 ADD MLOAD DUP2 SSTORE ADD SWAP6 ADD SWAP4 ADD PUSH2 0x500D JUMP JUMPDEST SWAP1 SWAP2 POP DUP4 PUSH0 MSTORE PUSH1 0x20 PUSH0 KECCAK256 PUSH1 0x1F DUP5 ADD PUSH1 0x5 SHR DUP2 ADD SWAP2 PUSH1 0x20 DUP6 LT PUSH2 0x50A6 JUMPI JUMPDEST SWAP1 PUSH1 0x1F DUP6 SWAP5 SWAP4 SWAP3 ADD PUSH1 0x5 SHR ADD SWAP1 JUMPDEST DUP2 DUP2 LT PUSH2 0x5098 JUMPI POP PUSH2 0x4B0F JUMP JUMPDEST PUSH0 DUP2 SSTORE DUP5 SWAP4 POP PUSH1 0x1 ADD PUSH2 0x508B JUMP JUMPDEST SWAP1 SWAP2 POP DUP2 SWAP1 PUSH2 0x507D JUMP JUMPDEST ADD MLOAD SWAP1 POP DUP7 DUP1 PUSH2 0x4ACC JUMP JUMPDEST PUSH0 DUP6 DUP2 MSTORE DUP3 DUP2 KECCAK256 SWAP4 POP PUSH1 0x1F NOT DUP6 AND SWAP1 JUMPDEST DUP2 DUP2 LT PUSH2 0x5106 JUMPI POP SWAP1 DUP5 PUSH1 0x1 SWAP6 SWAP5 SWAP4 SWAP3 LT PUSH2 0x50EE JUMPI JUMPDEST POP POP POP DUP2 SHL ADD SWAP1 SSTORE PUSH2 0x4AE0 JUMP JUMPDEST ADD MLOAD PUSH0 NOT PUSH1 0xF8 DUP5 PUSH1 0x3 SHL AND SHR NOT AND SWAP1 SSTORE DUP7 DUP1 DUP1 PUSH2 0x50E1 JUMP JUMPDEST SWAP3 SWAP4 PUSH1 0x20 PUSH1 0x1 DUP2 SWAP3 DUP8 DUP7 ADD MLOAD DUP2 SSTORE ADD SWAP6 ADD SWAP4 ADD PUSH2 0x50CB JUMP JUMPDEST SWAP1 SWAP2 POP DUP4 PUSH0 MSTORE PUSH1 0x20 PUSH0 KECCAK256 PUSH1 0x1F DUP5 ADD PUSH1 0x5 SHR DUP2 ADD SWAP2 PUSH1 0x20 DUP6 LT PUSH2 0x5164 JUMPI JUMPDEST SWAP1 PUSH1 0x1F DUP6 SWAP5 SWAP4 SWAP3 ADD PUSH1 0x5 SHR ADD SWAP1 JUMPDEST DUP2 DUP2 LT PUSH2 0x5156 JUMPI POP PUSH2 0x4AB6 JUMP JUMPDEST PUSH0 DUP2 SSTORE DUP5 SWAP4 POP PUSH1 0x1 ADD PUSH2 0x5149 JUMP JUMPDEST SWAP1 SWAP2 POP DUP2 SWAP1 PUSH2 0x513B JUMP JUMPDEST PUSH1 0x40 MLOAD PUSH3 0x461BCD PUSH1 0xE5 SHL DUP2 MSTORE PUSH1 0x20 PUSH1 0x4 DUP3 ADD MSTORE PUSH1 0x24 DUP1 DUP3 ADD MSTORE PUSH32 0x4F6E6C7920646F63746F72732063616E20637265617465206170706F696E746D PUSH1 0x44 DUP3 ADD MSTORE PUSH4 0x656E7473 PUSH1 0xE0 SHL PUSH1 0x64 DUP3 ADD MSTORE PUSH1 0x84 SWAP1 REVERT JUMPDEST PUSH1 0x4 CALLDATALOAD SWAP1 PUSH1 0x1 PUSH1 0x1 PUSH1 0xA0 SHL SUB DUP3 AND DUP3 SUB PUSH2 0x195 JUMPI JUMP JUMPDEST PUSH2 0x1E0 DUP2 ADD SWAP1 DUP2 LT PUSH1 0x1 PUSH1 0x1 PUSH1 0x40 SHL SUB DUP3 GT OR PUSH2 0x668 JUMPI PUSH1 0x40 MSTORE JUMP JUMPDEST PUSH2 0x120 DUP2 ADD SWAP1 DUP2 LT PUSH1 0x1 PUSH1 0x1 PUSH1 0x40 SHL SUB DUP3 GT OR PUSH2 0x668 JUMPI PUSH1 0x40 MSTORE JUMP JUMPDEST SWAP1 PUSH1 0x1F DUP1 NOT SWAP2 ADD AND DUP2 ADD SWAP1 DUP2 LT PUSH1 0x1 PUSH1 0x1 PUSH1 0x40 SHL SUB DUP3 GT OR PUSH2 0x668 JUMPI PUSH1 0x40 MSTORE JUMP JUMPDEST DUP2 PUSH1 0x1F DUP3 ADD SLT ISZERO PUSH2 0x195 JUMPI DUP1 CALLDATALOAD SWAP1 PUSH1 0x1 PUSH1 0x1 PUSH1 0x40 SHL SUB DUP3 GT PUSH2 0x668 JUMPI PUSH1 0x40 MLOAD SWAP3 PUSH2 0x5262 PUSH1 0x1F DUP5 ADD PUSH1 0x1F NOT AND PUSH1 0x20 ADD DUP6 PUSH2 0x520D JUMP JUMPDEST DUP3 DUP5 MSTORE PUSH1 0x20 DUP4 DUP4 ADD ADD GT PUSH2 0x195 JUMPI DUP2 PUSH0 SWAP3 PUSH1 0x20 DUP1 SWAP4 ADD DUP4 DUP7 ADD CALLDATACOPY DUP4 ADD ADD MSTORE SWAP1 JUMP JUMPDEST SWAP1 PUSH1 0x40 PUSH1 0x3 NOT DUP4 ADD SLT PUSH2 0x195 JUMPI PUSH1 0x4 CALLDATALOAD PUSH1 0x1 PUSH1 0x1 PUSH1 0xA0 SHL SUB DUP2 AND DUP2 SUB PUSH2 0x195 JUMPI SWAP2 PUSH1 0x24 CALLDATALOAD PUSH1 0x1 PUSH1 0x1 PUSH1 0x40 SHL SUB DUP2 GT PUSH2 0x195 JUMPI PUSH1 0xC0 DUP2 DUP4 SUB PUSH1 0x3 NOT ADD SLT PUSH2 0x195 JUMPI PUSH1 0x40 MLOAD SWAP2 PUSH1 0xC0 DUP4 ADD DUP4 DUP2 LT PUSH1 0x1 PUSH1 0x1 PUSH1 0x40 SHL SUB DUP3 GT OR PUSH2 0x668 JUMPI PUSH1 0x40 MSTORE DUP2 PUSH1 0x4 ADD CALLDATALOAD PUSH1 0x1 PUSH1 0x1 PUSH1 0x40 SHL SUB DUP2 GT PUSH2 0x195 JUMPI DUP2 PUSH1 0x4 PUSH2 0x5302 SWAP3 DUP6 ADD ADD PUSH2 0x522E JUMP JUMPDEST DUP4 MSTORE PUSH1 0x24 DUP3 ADD CALLDATALOAD PUSH1 0x1 PUSH1 0x1 PUSH1 0x40 SHL SUB DUP2 GT PUSH2 0x195 JUMPI DUP2 PUSH1 0x4 PUSH2 0x5326 SWAP3 DUP6 ADD ADD PUSH2 0x522E JUMP JUMPDEST PUSH1 0x20 DUP5 ADD MSTORE PUSH1 0x44 DUP3 ADD CALLDATALOAD PUSH1 0x1 PUSH1 0x1 PUSH1 0x40 SHL SUB DUP2 GT PUSH2 0x195 JUMPI DUP2 PUSH1 0x4 PUSH2 0x534D SWAP3 DUP6 ADD ADD PUSH2 0x522E JUMP JUMPDEST PUSH1 0x40 DUP5 ADD MSTORE PUSH1 0x64 DUP3 ADD CALLDATALOAD PUSH1 0x1 PUSH1 0x1 PUSH1 0x40 SHL SUB DUP2 GT PUSH2 0x195 JUMPI DUP2 PUSH1 0x4 PUSH2 0x5374 SWAP3 DUP6 ADD ADD PUSH2 0x522E JUMP JUMPDEST PUSH1 0x60 DUP5 ADD MSTORE PUSH1 0x84 DUP3 ADD CALLDATALOAD PUSH1 0x1 PUSH1 0x1 PUSH1 0x40 SHL SUB DUP2 GT PUSH2 0x195 JUMPI DUP2 PUSH1 0x4 PUSH2 0x539B SWAP3 DUP6 ADD ADD PUSH2 0x522E JUMP JUMPDEST PUSH1 0x80 DUP5 ADD MSTORE PUSH1 0xA4 DUP3 ADD CALLDATALOAD SWAP2 PUSH1 0x1 PUSH1 0x1 PUSH1 0x40 SHL SUB DUP4 GT PUSH2 0x195 JUMPI PUSH2 0x53C1 SWAP3 ADD PUSH1 0x4 ADD PUSH2 0x522E JUMP JUMPDEST PUSH1 0xA0 DUP3 ADD MSTORE SWAP1 JUMP JUMPDEST SWAP1 PUSH1 0x1 DUP3 DUP2 SHR SWAP3 AND DUP1 ISZERO PUSH2 0x53F7 JUMPI JUMPDEST PUSH1 0x20 DUP4 LT EQ PUSH2 0x53E3 JUMPI JUMP JUMPDEST PUSH4 0x4E487B71 PUSH1 0xE0 SHL PUSH0 MSTORE PUSH1 0x22 PUSH1 0x4 MSTORE PUSH1 0x24 PUSH0 REVERT JUMPDEST SWAP2 PUSH1 0x7F AND SWAP2 PUSH2 0x53D8 JUMP JUMPDEST SWAP1 PUSH1 0x40 MLOAD SWAP2 DUP3 PUSH0 DUP3 SLOAD SWAP3 PUSH2 0x5414 DUP5 PUSH2 0x53C9 JUMP JUMPDEST DUP1 DUP5 MSTORE SWAP4 PUSH1 0x1 DUP2 AND SWAP1 DUP2 ISZERO PUSH2 0x547F JUMPI POP PUSH1 0x1 EQ PUSH2 0x543B JUMPI JUMPDEST POP PUSH2 0x5439 SWAP3 POP SUB DUP4 PUSH2 0x520D JUMP JUMPDEST JUMP JUMPDEST SWAP1 POP PUSH0 SWAP3 SWAP2 SWAP3 MSTORE PUSH1 0x20 PUSH0 KECCAK256 SWAP1 PUSH0 SWAP2 JUMPDEST DUP2 DUP4 LT PUSH2 0x5463 JUMPI POP POP SWAP1 PUSH1 0x20 PUSH2 0x5439 SWAP3 DUP3 ADD ADD PUSH0 PUSH2 0x542C JUMP JUMPDEST PUSH1 0x20 SWAP2 SWAP4 POP DUP1 PUSH1 0x1 SWAP2 SLOAD DUP4 DUP6 DUP10 ADD ADD MSTORE ADD SWAP2 ADD SWAP1 SWAP2 DUP5 SWAP3 PUSH2 0x544A JUMP JUMPDEST SWAP1 POP PUSH1 0x20 SWAP3 POP PUSH2 0x5439 SWAP5 SWAP2 POP PUSH1 0xFF NOT AND DUP3 DUP5 ADD MSTORE ISZERO ISZERO PUSH1 0x5 SHL DUP3 ADD ADD PUSH0 PUSH2 0x542C JUMP JUMPDEST DUP1 MLOAD DUP1 DUP4 MSTORE PUSH1 0x20 SWAP3 SWAP2 DUP2 SWAP1 DUP5 ADD DUP5 DUP5 ADD MCOPY PUSH0 DUP3 DUP3 ADD DUP5 ADD MSTORE PUSH1 0x1F ADD PUSH1 0x1F NOT AND ADD ADD SWAP1 JUMP JUMPDEST DUP1 SLOAD DUP3 LT ISZERO PUSH2 0x235 JUMPI PUSH0 MSTORE PUSH1 0x20 PUSH0 KECCAK256 ADD SWAP1 PUSH0 SWAP1 JUMP JUMPDEST PUSH1 0x20 PUSH1 0x40 DUP2 DUP4 ADD SWAP3 DUP3 DUP2 MSTORE DUP5 MLOAD DUP1 SWAP5 MSTORE ADD SWAP3 ADD SWAP1 PUSH0 JUMPDEST DUP2 DUP2 LT PUSH2 0x54FD JUMPI POP POP POP SWAP1 JUMP JUMPDEST DUP3 MLOAD PUSH1 0x1 PUSH1 0x1 PUSH1 0xA0 SHL SUB AND DUP5 MSTORE PUSH1 0x20 SWAP4 DUP5 ADD SWAP4 SWAP1 SWAP3 ADD SWAP2 PUSH1 0x1 ADD PUSH2 0x54F0 JUMP JUMPDEST SWAP6 SWAP3 PUSH2 0x558C SWAP5 PUSH2 0x5562 PUSH2 0x5570 SWAP3 PUSH2 0x5554 PUSH2 0x557E SWAP7 PUSH2 0x5546 PUSH2 0x559A SWAP14 SWAP12 SWAP8 PUSH1 0xE0 DUP15 DUP2 DUP2 MSTORE ADD SWAP1 PUSH2 0x54A1 JUMP JUMPDEST DUP13 DUP2 SUB PUSH1 0x20 DUP15 ADD MSTORE SWAP1 PUSH2 0x54A1 JUMP JUMPDEST SWAP1 DUP11 DUP3 SUB PUSH1 0x40 DUP13 ADD MSTORE PUSH2 0x54A1 JUMP JUMPDEST SWAP1 DUP9 DUP3 SUB PUSH1 0x60 DUP11 ADD MSTORE PUSH2 0x54A1 JUMP JUMPDEST SWAP1 DUP7 DUP3 SUB PUSH1 0x80 DUP9 ADD MSTORE PUSH2 0x54A1 JUMP JUMPDEST SWAP1 DUP5 DUP3 SUB PUSH1 0xA0 DUP7 ADD MSTORE PUSH2 0x54A1 JUMP JUMPDEST SWAP2 PUSH1 0xC0 DUP2 DUP5 SUB SWAP2 ADD MSTORE PUSH2 0x54A1 JUMP JUMPDEST SWAP1 JUMP JUMPDEST PUSH1 0xE0 PUSH1 0x3 NOT DUP3 ADD SLT PUSH2 0x195 JUMPI PUSH1 0x4 CALLDATALOAD PUSH1 0x1 PUSH1 0x1 PUSH1 0x40 SHL SUB DUP2 GT PUSH2 0x195 JUMPI DUP2 PUSH2 0x55C7 SWAP2 PUSH1 0x4 ADD PUSH2 0x522E JUMP JUMPDEST SWAP2 PUSH1 0x24 CALLDATALOAD PUSH1 0x1 PUSH1 0x1 PUSH1 0x40 SHL SUB DUP2 GT PUSH2 0x195 JUMPI DUP3 PUSH2 0x55E6 SWAP2 PUSH1 0x4 ADD PUSH2 0x522E JUMP JUMPDEST SWAP2 PUSH1 0x44 CALLDATALOAD PUSH1 0x1 PUSH1 0x1 PUSH1 0x40 SHL SUB DUP2 GT PUSH2 0x195 JUMPI DUP2 PUSH2 0x5605 SWAP2 PUSH1 0x4 ADD PUSH2 0x522E JUMP JUMPDEST SWAP2 PUSH1 0x64 CALLDATALOAD PUSH1 0x1 PUSH1 0x1 PUSH1 0x40 SHL SUB DUP2 GT PUSH2 0x195 JUMPI DUP3 PUSH2 0x5624 SWAP2 PUSH1 0x4 ADD PUSH2 0x522E JUMP JUMPDEST SWAP2 PUSH1 0x84 CALLDATALOAD PUSH1 0x1 PUSH1 0x1 PUSH1 0x40 SHL SUB DUP2 GT PUSH2 0x195 JUMPI DUP2 PUSH2 0x5643 SWAP2 PUSH1 0x4 ADD PUSH2 0x522E JUMP JUMPDEST SWAP2 PUSH1 0xA4 CALLDATALOAD PUSH1 0x1 PUSH1 0x1 PUSH1 0x40 SHL SUB DUP2 GT PUSH2 0x195 JUMPI DUP3 PUSH2 0x5662 SWAP2 PUSH1 0x4 ADD PUSH2 0x522E JUMP JUMPDEST SWAP2 PUSH1 0xC4 CALLDATALOAD SWAP1 PUSH1 0x1 PUSH1 0x1 PUSH1 0x40 SHL SUB DUP3 GT PUSH2 0x195 JUMPI PUSH2 0x559A SWAP2 PUSH1 0x4 ADD PUSH2 0x522E JUMP JUMPDEST PUSH0 NOT DUP2 EQ PUSH2 0x568F JUMPI PUSH1 0x1 ADD SWAP1 JUMP JUMPDEST PUSH4 0x4E487B71 PUSH1 0xE0 SHL PUSH0 MSTORE PUSH1 0x11 PUSH1 0x4 MSTORE PUSH1 0x24 PUSH0 REVERT JUMPDEST ISZERO PUSH2 0x56AA JUMPI JUMP JUMPDEST PUSH1 0x40 MLOAD PUSH3 0x461BCD PUSH1 0xE5 SHL DUP2 MSTORE PUSH1 0x20 PUSH1 0x4 DUP3 ADD MSTORE PUSH1 0xD PUSH1 0x24 DUP3 ADD MSTORE PUSH13 0x1058D8D95CDCC819195B9A5959 PUSH1 0x9A SHL PUSH1 0x44 DUP3 ADD MSTORE PUSH1 0x64 SWAP1 REVERT JUMPDEST ISZERO PUSH2 0x56E6 JUMPI JUMP JUMPDEST PUSH1 0x40 MLOAD PUSH3 0x461BCD PUSH1 0xE5 SHL DUP2 MSTORE PUSH1 0x20 PUSH1 0x4 DUP3 ADD MSTORE PUSH1 0x17 PUSH1 0x24 DUP3 ADD MSTORE PUSH32 0x4E6F742061207265676973746572656420646F63746F72000000000000000000 PUSH1 0x44 DUP3 ADD MSTORE PUSH1 0x64 SWAP1 REVERT INVALID LOG2 PUSH5 0x6970667358 0x22 SLT KECCAK256 DUP9 0xE2 DUP4 0x4E PUSH23 0x97932F3F417DAB4260089724FC8FB404D0915402AD7655 0xD1 GT PUSH18 0xCD64736F6C634300081C0033000000000000 "}}}